{
  "_format": "hh-sol-artifact-1",
  "contractName": "BrokerTestChange",
  "sourceName": "contracts/BrokerTestChange.sol",
  "abi": [
    {
      "anonymous": false,
      "inputs": [
        {
          "indexed": true,
          "internalType": "address",
          "name": "user",
          "type": "address"
        },
        {
          "indexed": true,
          "internalType": "address",
          "name": "miner",
          "type": "address"
        },
        {
          "indexed": true,
          "internalType": "uint8",
          "name": "reason",
          "type": "uint8"
        }
      ],
      "name": "Complaint",
      "type": "event"
    },
    {
      "anonymous": false,
      "inputs": [
        {
          "indexed": true,
          "internalType": "address",
          "name": "user",
          "type": "address"
        },
        {
          "indexed": true,
          "internalType": "address",
          "name": "miner",
          "type": "address"
        },
        {
          "indexed": false,
          "internalType": "uint256",
          "name": "amount",
          "type": "uint256"
        }
      ],
      "name": "Payment",
      "type": "event"
    },
    {
      "inputs": [
        {
          "internalType": "address",
          "name": "_user",
          "type": "address"
        }
      ],
      "name": "RenamedGetMinerUrl",
      "outputs": [
        {
          "internalType": "bytes32",
          "name": "",
          "type": "bytes32"
        }
      ],
      "stateMutability": "view",
      "type": "function"
    },
    {
      "inputs": [],
      "name": "SECONDS_IN_WEEK",
      "outputs": [
        {
          "internalType": "uint64",
          "name": "",
          "type": "uint64"
        }
      ],
      "stateMutability": "view",
      "type": "function"
    }
  ],
  "bytecode": "0x608060405234801561001057600080fd5b5061010f806100206000396000f3fe6080604052348015600f57600080fd5b506004361060325760003560e01c8063cb61da99146037578063e088b29e14607d575b600080fd5b606a6042366004609e565b73ffffffffffffffffffffffffffffffffffffffff1660009081526006602052604090205490565b6040519081526020015b60405180910390f35b608662093a8081565b60405167ffffffffffffffff90911681526020016074565b60006020828403121560af57600080fd5b813573ffffffffffffffffffffffffffffffffffffffff8116811460d257600080fd5b939250505056fea2646970667358221220035abb20bc167a479be0fc314aa9b02a5b0005e49e82ed290daa8e55a330f25c64736f6c63430008110033",
  "linkReferences": {},
  "deployedLinkReferences": {}
}