{
  "_format": "hh-sol-artifact-1",
  "contractName": "BrokerTestChange",
  "sourceName": "contracts/BrokerTestChange.sol",
  "abi": [
    {
      "anonymous": false,
      "inputs": [
        {
          "indexed": true,
          "internalType": "address",
          "name": "user",
          "type": "address"
        },
        {
          "indexed": true,
          "internalType": "address",
          "name": "miner",
          "type": "address"
        },
        {
          "indexed": true,
          "internalType": "uint8",
          "name": "reason",
          "type": "uint8"
        }
      ],
      "name": "Complaint",
      "type": "event"
    },
    {
      "anonymous": false,
      "inputs": [
        {
          "indexed": true,
          "internalType": "address",
          "name": "user",
          "type": "address"
        },
        {
          "indexed": true,
          "internalType": "address",
          "name": "miner",
          "type": "address"
        },
        {
          "indexed": false,
          "internalType": "uint256",
          "name": "amount",
          "type": "uint256"
        }
      ],
      "name": "Payment",
      "type": "event"
    },
    {
      "inputs": [
        {
          "internalType": "address",
          "name": "_user",
          "type": "address"
        }
      ],
      "name": "RenamedGetMinerUrl",
      "outputs": [
        {
          "internalType": "bytes32",
          "name": "",
          "type": "bytes32"
        }
      ],
      "stateMutability": "view",
      "type": "function"
    },
    {
      "inputs": [],
      "name": "SECONDS_IN_WEEK",
      "outputs": [
        {
          "internalType": "uint64",
          "name": "",
          "type": "uint64"
        }
      ],
      "stateMutability": "view",
      "type": "function"
    }
  ],
  "bytecode": "0x608060405234801561001057600080fd5b50610211806100206000396000f3fe608060405234801561001057600080fd5b50600436106100365760003560e01c8063cb61da991461003b578063e088b29e1461006b575b600080fd5b6100556004803603810190610050919061013c565b610089565b6040516100629190610182565b60405180910390f35b6100736100d2565b60405161008091906101c0565b60405180910390f35b6000600660008373ffffffffffffffffffffffffffffffffffffffff1673ffffffffffffffffffffffffffffffffffffffff168152602001908152602001600020549050919050565b62093a8081565b600080fd5b600073ffffffffffffffffffffffffffffffffffffffff82169050919050565b6000610109826100de565b9050919050565b610119816100fe565b811461012457600080fd5b50565b60008135905061013681610110565b92915050565b600060208284031215610152576101516100d9565b5b600061016084828501610127565b91505092915050565b6000819050919050565b61017c81610169565b82525050565b60006020820190506101976000830184610173565b92915050565b600067ffffffffffffffff82169050919050565b6101ba8161019d565b82525050565b60006020820190506101d560008301846101b1565b9291505056fea2646970667358221220fa10cff8164033c395edbe4076cd2549001c3c3ee3561c27caa2d9a1c3c0efd864736f6c63430008110033",
  "linkReferences": {},
  "deployedLinkReferences": {}
}