{
  "_format": "hh-sol-artifact-1",
  "contractName": "BrokerV2",
  "sourceName": "contracts/BrokerV2.sol",
  "abi": [
    {
      "anonymous": false,
      "inputs": [
        {
          "indexed": true,
          "internalType": "address",
          "name": "user",
          "type": "address"
        },
        {
          "indexed": true,
          "internalType": "address",
          "name": "miner",
          "type": "address"
        },
        {
          "indexed": true,
          "internalType": "uint8",
          "name": "reason",
          "type": "uint8"
        }
      ],
      "name": "Complaint",
      "type": "event"
    },
    {
      "anonymous": false,
      "inputs": [
        {
          "indexed": true,
          "internalType": "address",
          "name": "user",
          "type": "address"
        },
        {
          "indexed": true,
          "internalType": "address",
          "name": "miner",
          "type": "address"
        },
        {
          "indexed": false,
          "internalType": "uint256",
          "name": "amount",
          "type": "uint256"
        }
      ],
      "name": "Payment",
      "type": "event"
    },
    {
      "inputs": [
        {
          "internalType": "uint32",
          "name": "pricePerSecond",
          "type": "uint32"
        },
        {
          "internalType": "uint16",
          "name": "machinesAvailable",
          "type": "uint16"
        },
        {
          "internalType": "bytes32",
          "name": "specsIpfsHash",
          "type": "bytes32"
        }
      ],
      "name": "AddOffer",
      "outputs": [
        {
          "internalType": "uint32",
          "name": "",
          "type": "uint32"
        }
      ],
      "stateMutability": "nonpayable",
      "type": "function"
    },
    {
      "inputs": [
        {
          "internalType": "uint32",
          "name": "offerIndex",
          "type": "uint32"
        }
      ],
      "name": "Book",
      "outputs": [
        {
          "internalType": "uint32",
          "name": "",
          "type": "uint32"
        }
      ],
      "stateMutability": "nonpayable",
      "type": "function"
    },
    {
      "inputs": [
        {
          "internalType": "uint32",
          "name": "bookingId",
          "type": "uint32"
        }
      ],
      "name": "ClaimPayment",
      "outputs": [],
      "stateMutability": "nonpayable",
      "type": "function"
    },
    {
      "inputs": [
        {
          "internalType": "uint256",
          "name": "numTokens",
          "type": "uint256"
        }
      ],
      "name": "DepositCoin",
      "outputs": [
        {
          "internalType": "bool",
          "name": "",
          "type": "bool"
        }
      ],
      "stateMutability": "nonpayable",
      "type": "function"
    },
    {
      "inputs": [
        {
          "internalType": "address",
          "name": "_miner",
          "type": "address"
        }
      ],
      "name": "FindBookingsByMiner",
      "outputs": [
        {
          "components": [
            {
              "internalType": "uint32",
              "name": "index",
              "type": "uint32"
            },
            {
              "internalType": "uint32",
              "name": "offerIndex",
              "type": "uint32"
            },
            {
              "internalType": "uint32",
              "name": "pricePerSecond",
              "type": "uint32"
            },
            {
              "internalType": "uint256",
              "name": "bookedAt",
              "type": "uint256"
            },
            {
              "internalType": "uint256",
              "name": "lastPayment",
              "type": "uint256"
            },
            {
              "internalType": "address",
              "name": "miner",
              "type": "address"
            },
            {
              "internalType": "address",
              "name": "user",
              "type": "address"
            }
          ],
          "internalType": "struct BrokerV2.Booking[]",
          "name": "filteredBookings",
          "type": "tuple[]"
        }
      ],
      "stateMutability": "view",
      "type": "function"
    },
    {
      "inputs": [
        {
          "internalType": "address",
          "name": "_owner",
          "type": "address"
        }
      ],
      "name": "FindBookingsByUser",
      "outputs": [
        {
          "components": [
            {
              "internalType": "uint32",
              "name": "index",
              "type": "uint32"
            },
            {
              "internalType": "uint32",
              "name": "offerIndex",
              "type": "uint32"
            },
            {
              "internalType": "uint32",
              "name": "pricePerSecond",
              "type": "uint32"
            },
            {
              "internalType": "uint256",
              "name": "bookedAt",
              "type": "uint256"
            },
            {
              "internalType": "uint256",
              "name": "lastPayment",
              "type": "uint256"
            },
            {
              "internalType": "address",
              "name": "miner",
              "type": "address"
            },
            {
              "internalType": "address",
              "name": "user",
              "type": "address"
            }
          ],
          "internalType": "struct BrokerV2.Booking[]",
          "name": "filteredBookings",
          "type": "tuple[]"
        }
      ],
      "stateMutability": "view",
      "type": "function"
    },
    {
      "inputs": [],
      "name": "GetAvailableOffers",
      "outputs": [
        {
          "components": [
            {
              "internalType": "uint32",
              "name": "index",
              "type": "uint32"
            },
            {
              "internalType": "uint32",
              "name": "pricePerSecond",
              "type": "uint32"
            },
            {
              "internalType": "uint16",
              "name": "machinesAvailable",
              "type": "uint16"
            },
            {
              "internalType": "bytes32",
              "name": "specsIpfsHash",
              "type": "bytes32"
            },
            {
              "internalType": "address",
              "name": "miner",
              "type": "address"
            }
          ],
          "internalType": "struct BrokerV2.Offer[]",
          "name": "filteredOffers",
          "type": "tuple[]"
        }
      ],
      "stateMutability": "view",
      "type": "function"
    },
    {
      "inputs": [
        {
          "internalType": "uint32",
          "name": "index",
          "type": "uint32"
        }
      ],
      "name": "GetBooking",
      "outputs": [
        {
          "components": [
            {
              "internalType": "uint32",
              "name": "index",
              "type": "uint32"
            },
            {
              "internalType": "uint32",
              "name": "offerIndex",
              "type": "uint32"
            },
            {
              "internalType": "uint32",
              "name": "pricePerSecond",
              "type": "uint32"
            },
            {
              "internalType": "uint256",
              "name": "bookedAt",
              "type": "uint256"
            },
            {
              "internalType": "uint256",
              "name": "lastPayment",
              "type": "uint256"
            },
            {
              "internalType": "address",
              "name": "miner",
              "type": "address"
            },
            {
              "internalType": "address",
              "name": "user",
              "type": "address"
            }
          ],
          "internalType": "struct BrokerV2.Booking",
          "name": "booking",
          "type": "tuple"
        }
      ],
      "stateMutability": "view",
      "type": "function"
    },
    {
      "inputs": [
        {
          "internalType": "address",
          "name": "user",
          "type": "address"
        }
      ],
      "name": "GetCoinBalance",
      "outputs": [
        {
          "internalType": "uint256",
          "name": "",
          "type": "uint256"
        },
        {
          "internalType": "uint256",
          "name": "",
          "type": "uint256"
        }
      ],
      "stateMutability": "view",
      "type": "function"
    },
    {
      "inputs": [
        {
          "internalType": "address",
          "name": "_user",
          "type": "address"
        }
      ],
      "name": "GetMinerUrl",
      "outputs": [
        {
          "internalType": "bytes32",
          "name": "",
          "type": "bytes32"
        }
      ],
      "stateMutability": "view",
      "type": "function"
    },
    {
      "inputs": [
        {
          "internalType": "address",
          "name": "miner",
          "type": "address"
        }
      ],
      "name": "GetMinersOffers",
      "outputs": [
        {
          "components": [
            {
              "internalType": "uint32",
              "name": "index",
              "type": "uint32"
            },
            {
              "internalType": "uint32",
              "name": "pricePerSecond",
              "type": "uint32"
            },
            {
              "internalType": "uint16",
              "name": "machinesAvailable",
              "type": "uint16"
            },
            {
              "internalType": "bytes32",
              "name": "specsIpfsHash",
              "type": "bytes32"
            },
            {
              "internalType": "address",
              "name": "miner",
              "type": "address"
            }
          ],
          "internalType": "struct BrokerV2.Offer[]",
          "name": "filteredOffers",
          "type": "tuple[]"
        }
      ],
      "stateMutability": "view",
      "type": "function"
    },
    {
      "inputs": [
        {
          "internalType": "uint32",
          "name": "index",
          "type": "uint32"
        }
      ],
      "name": "GetOffer",
      "outputs": [
        {
          "components": [
            {
              "internalType": "uint32",
              "name": "index",
              "type": "uint32"
            },
            {
              "internalType": "uint32",
              "name": "pricePerSecond",
              "type": "uint32"
            },
            {
              "internalType": "uint16",
              "name": "machinesAvailable",
              "type": "uint16"
            },
            {
              "internalType": "bytes32",
              "name": "specsIpfsHash",
              "type": "bytes32"
            },
            {
              "internalType": "address",
              "name": "miner",
              "type": "address"
            }
          ],
          "internalType": "struct BrokerV2.Offer",
          "name": "oneOffer",
          "type": "tuple"
        }
      ],
      "stateMutability": "view",
      "type": "function"
    },
    {
      "inputs": [],
      "name": "GetTime",
      "outputs": [
        {
          "internalType": "uint256",
          "name": "",
          "type": "uint256"
        }
      ],
      "stateMutability": "view",
      "type": "function"
    },
    {
      "inputs": [
        {
          "internalType": "address",
          "name": "_user",
          "type": "address"
        }
      ],
      "name": "IsMinerRegistered",
      "outputs": [
        {
          "internalType": "bool",
          "name": "",
          "type": "bool"
        }
      ],
      "stateMutability": "view",
      "type": "function"
    },
    {
      "inputs": [],
      "name": "MINER_REGISTRATION_FEE",
      "outputs": [
        {
          "internalType": "uint64",
          "name": "",
          "type": "uint64"
        }
      ],
      "stateMutability": "view",
      "type": "function"
    },
    {
      "inputs": [],
      "name": "RegisterMiner",
      "outputs": [],
      "stateMutability": "nonpayable",
      "type": "function"
    },
    {
      "inputs": [
        {
          "internalType": "uint32",
          "name": "offerIndex",
          "type": "uint32"
        }
      ],
      "name": "RemoveOffer",
      "outputs": [],
      "stateMutability": "nonpayable",
      "type": "function"
    },
    {
      "inputs": [],
      "name": "SECONDS_IN_WEEK",
      "outputs": [
        {
          "internalType": "uint64",
          "name": "",
          "type": "uint64"
        }
      ],
      "stateMutability": "view",
      "type": "function"
    },
    {
      "inputs": [
        {
          "internalType": "contract IERC20",
          "name": "newCoinAddress",
          "type": "address"
        }
      ],
      "name": "SetCoinAddress",
      "outputs": [],
      "stateMutability": "nonpayable",
      "type": "function"
    },
    {
      "inputs": [
        {
          "internalType": "address",
          "name": "newCommunityAddress",
          "type": "address"
        }
      ],
      "name": "SetCommunityContract",
      "outputs": [],
      "stateMutability": "nonpayable",
      "type": "function"
    },
    {
      "inputs": [
        {
          "internalType": "uint16",
          "name": "fee",
          "type": "uint16"
        }
      ],
      "name": "SetCommunityFee",
      "outputs": [
        {
          "internalType": "bool",
          "name": "",
          "type": "bool"
        }
      ],
      "stateMutability": "nonpayable",
      "type": "function"
    },
    {
      "inputs": [
        {
          "internalType": "bytes32",
          "name": "url",
          "type": "bytes32"
        }
      ],
      "name": "SetMinerUrl",
      "outputs": [],
      "stateMutability": "nonpayable",
      "type": "function"
    },
    {
      "inputs": [
        {
          "internalType": "uint32",
          "name": "bookingId",
          "type": "uint32"
        },
        {
          "internalType": "uint8",
          "name": "reason",
          "type": "uint8"
        }
      ],
      "name": "Terminate",
      "outputs": [],
      "stateMutability": "nonpayable",
      "type": "function"
    },
    {
      "inputs": [
        {
          "internalType": "uint32",
          "name": "offerIndex",
          "type": "uint32"
        },
        {
          "internalType": "uint16",
          "name": "machinesAvailable",
          "type": "uint16"
        },
        {
          "internalType": "uint32",
          "name": "pps",
          "type": "uint32"
        }
      ],
      "name": "UpdateOffer",
      "outputs": [],
      "stateMutability": "nonpayable",
      "type": "function"
    },
    {
      "inputs": [
        {
          "internalType": "uint256",
          "name": "amt",
          "type": "uint256"
        }
      ],
      "name": "WithdrawCoin",
      "outputs": [
        {
          "internalType": "bool",
          "name": "",
          "type": "bool"
        }
      ],
      "stateMutability": "nonpayable",
      "type": "function"
    },
    {
      "inputs": [],
      "name": "coin",
      "outputs": [
        {
          "internalType": "contract IERC20",
          "name": "",
          "type": "address"
        }
      ],
      "stateMutability": "view",
      "type": "function"
    },
    {
      "inputs": [],
      "name": "communityContract",
      "outputs": [
        {
          "internalType": "address",
          "name": "",
          "type": "address"
        }
      ],
      "stateMutability": "view",
      "type": "function"
    },
    {
      "inputs": [],
      "name": "communityFee",
      "outputs": [
        {
          "internalType": "uint16",
          "name": "",
          "type": "uint16"
        }
      ],
      "stateMutability": "view",
      "type": "function"
    }
  ],
  "bytecode": "0x608060405234801561001057600080fd5b50612fff806100206000396000f3fe608060405234801561001057600080fd5b50600436106101c45760003560e01c80638961be6b116100f9578063bfc7853911610097578063d2baff5611610071578063d2baff5614610544578063d3554ab514610580578063e088b29e14610593578063e2a5aa6e1461059d57600080fd5b8063bfc785391461041e578063c1fab57d14610446578063c2b723be1461053157600080fd5b8063a675768c116100d3578063a675768c146103d0578063b65c4b9c146103e3578063bac32356146103f8578063bfc054e31461040b57600080fd5b80638961be6b146103535780638e6340291461038c57806399c391df146103ac57600080fd5b8063366445bf1161016657806349874c401161014057806349874c4014610307578063534b3ccb1461031a5780636b620ed51461032d5780637b8286891461034057600080fd5b8063366445bf1461029e5780633abdd2f2146102be5780633c6c780f146102d157600080fd5b8063206a4f4f116101a2578063206a4f4f1461024b5780632bc209d6146102555780632ee7c8591461026857806331eda5871461028b57600080fd5b8063081c4329146101c957806311df9995146101f657806318c5e5021461023b575b600080fd5b6101dc6101d7366004612a58565b610663565b60405163ffffffff90911681526020015b60405180910390f35b6007546102169073ffffffffffffffffffffffffffffffffffffffff1681565b60405173ffffffffffffffffffffffffffffffffffffffff90911681526020016101ed565b425b6040519081526020016101ed565b610253610a4a565b005b610253610263366004612a58565b610c20565b61027b610276366004612a7a565b610cfc565b60405190151581526020016101ed565b610253610299366004612aa5565b610e37565b6102b16102ac366004612b0d565b610f77565b6040516101ed9190612b2a565b6101dc6102cc366004612bdf565b611269565b61023d6102df366004612b0d565b73ffffffffffffffffffffffffffffffffffffffff1660009081526009602052604090205490565b610253610315366004612c1b565b61145e565b6102b1610328366004612b0d565b61161c565b61025361033b366004612b0d565b611906565b61027b61034e366004612a7a565b611a15565b6008546103799074010000000000000000000000000000000000000000900461ffff1681565b60405161ffff90911681526020016101ed565b6008546102169073ffffffffffffffffffffffffffffffffffffffff1681565b6103b76305f5e10081565b60405167ffffffffffffffff90911681526020016101ed565b6102536103de366004612b0d565b611bd5565b6103eb611cc2565b6040516101ed9190612c58565b610253610406366004612a58565b611f71565b61027b610419366004612ce9565b61209b565b61043161042c366004612b0d565b61222a565b604080519283526020830191909152016101ed565b610524610454366004612a58565b6040805160e081018252600080825260208201819052918101829052606081018290526080810182905260a0810182905260c08101919091525063ffffffff908116600090815260026020818152604092839020835160e0810185528154808716825264010000000081048716938201939093526801000000000000000090920490941692810192909252600183015460608301528201546080820152600382015473ffffffffffffffffffffffffffffffffffffffff90811660a083015260049092015490911660c082015290565b6040516101ed9190612d04565b61025361053f366004612a7a565b612275565b61027b610552366004612b0d565b73ffffffffffffffffffffffffffffffffffffffff1660009081526009602052604090206001015460ff1690565b6103eb61058e366004612b0d565b612329565b6103b762093a8081565b6106566105ab366004612a58565b6040805160a0810182526000808252602082018190529181018290526060810182905260808101919091525063ffffffff90811660009081526020818152604091829020825160a081018452815480861682526401000000008104909516928101929092526801000000000000000090930461ffff16918101919091526001820154606082015260029091015473ffffffffffffffffffffffffffffffffffffffff16608082015290565b6040516101ed9190612d7f565b63ffffffff811660009081526020819052604081205468010000000000000000900461ffff166106f4576040517f08c379a000000000000000000000000000000000000000000000000000000000815260206004820152601560248201527f4e6f206d616368696e657320617661696c61626c65000000000000000000000060448201526064015b60405180910390fd5b63ffffffff80831660009081526020819052604081205490916107259162093a809164010000000090910416612e0b565b67ffffffffffffffff16610738336125df565b6107429190612e37565b3360009081526004602052604090205490915081111561080a576040517f08c379a000000000000000000000000000000000000000000000000000000000815260206004820152605060248201527f596f7520646f6e2774206861766520656e6f7567682062616c616e636520746f60448201527f2070617920666f72207468697320616e6420616c6c206f7468657220426f6f6b60648201527f696e677320666f72203720646179732000000000000000000000000000000000608482015260a4016106eb565b6040805160e0810182526003805463ffffffff908116808452878216602080860182815260009283528282528783208054640100000000908190048716898b019081524260608b0181815260808c0191825260029485015473ffffffffffffffffffffffffffffffffffffffff90811660a08e019081523360c08f019081529a8a52978690529c88208c518154975194518c1668010000000000000000027fffffffffffffffffffffffffffffffffffffffff00000000ffffffffffffffff958d169096027fffffffffffffffffffffffffffffffffffffffffffffffff0000000000000000909816908c161796909617929092169290921784555160018401555190820155905181860180549189167fffffffffffffffffffffffff000000000000000000000000000000000000000092831617905592516004919091018054919097169216919091179094558154929392169161096883612e4a565b82546101009290920a63ffffffff8181021990931691831602179091558581166000908152602081815260408083205433845260059092528220805464010000000090920484169450926109be91859116612e6d565b82546101009290920a63ffffffff81810219909316918316021790915585166000908152602081905260409020805460019250600890610a0f90849068010000000000000000900461ffff16612e91565b825461ffff9182166101009390930a928302919092021990911617905550600354610a429060019063ffffffff16612eac565b949350505050565b6000610a55336125df565b33600090815260046020526040902054610a6f9190612ec9565b90506305f5e100811015610adf576040517f08c379a000000000000000000000000000000000000000000000000000000000815260206004820152601c60248201527f4e6f7420656e6f75676820636f696e20746f207265676973746572200000000060448201526064016106eb565b3360009081526009602052604090206001015460ff1615610b5c576040517f08c379a000000000000000000000000000000000000000000000000000000000815260206004820152601b60248201527f4d696e657220697320616c72656164792072656769737465726564000000000060448201526064016106eb565b33600090815260046020526040812080546305f5e1009290610b7f908490612ec9565b909155505060085473ffffffffffffffffffffffffffffffffffffffff16600090815260046020526040812080546305f5e1009290610bbf908490612e37565b9091555050336000908152600960205260408120600181810180547fffffffffffffffffffffffffffffffffffffffffffffffffffffffffffffff0016909117905560020180546305f5e1009290610c18908490612e37565b909155505050565b63ffffffff811660009081526002602052604090206003015473ffffffffffffffffffffffffffffffffffffffff163314610cdd576040517f08c379a000000000000000000000000000000000000000000000000000000000815260206004820152602260248201527f4f6e6c7920746865206d696e65722063616e20636c61696d2061207061796d6560448201527f6e7400000000000000000000000000000000000000000000000000000000000060648201526084016106eb565b6000610ce882612629565b905080610cf857610cf8826128d0565b5050565b6007546040517f23b872dd0000000000000000000000000000000000000000000000000000000081523360048201523060248201526044810183905260009173ffffffffffffffffffffffffffffffffffffffff16906323b872dd906064016020604051808303816000875af1158015610d7a573d6000803e3d6000fd5b505050506040513d601f19601f82011682018060405250810190610d9e9190612edc565b610e04576040517f08c379a000000000000000000000000000000000000000000000000000000000815260206004820152601960248201527f4661696c656420746f207472616e7366657220746f6b656e730000000000000060448201526064016106eb565b33600090815260046020526040902054610e1f908390612e37565b33600090815260046020526040902055506001919050565b63ffffffff831660009081526020819052604090206002015473ffffffffffffffffffffffffffffffffffffffff163314610ef4576040517f08c379a000000000000000000000000000000000000000000000000000000000815260206004820152602260248201527f4f6e6c7920746865206f776e65722063616e2075706461746520616e206f666660448201527f657200000000000000000000000000000000000000000000000000000000000060648201526084016106eb565b63ffffffff9283166000908152602081905260409020805491909316640100000000027fffffffffffffffffffffffffffffffffffffffffffffffff00000000ffffffff61ffff9093166801000000000000000002929092167fffffffffffffffffffffffffffffffffffffffffffff000000000000ffffffff90911617179055565b60035460609060009063ffffffff1667ffffffffffffffff811115610f9e57610f9e612efe565b60405190808252806020026020018201604052801561102357816020015b6040805160e08101825260008082526020808301829052928201819052606082018190526080820181905260a0820181905260c082015282527fffffffffffffffffffffffffffffffffffffffffffffffffffffffffffffffff909201910181610fbc5790505b5090506000805b60035463ffffffff908116908216101561114c5763ffffffff811660009081526002602052604090206003015473ffffffffffffffffffffffffffffffffffffffff80871691160361113a5763ffffffff808216600090815260026020818152604092839020835160e0810185528154808716825264010000000081048716938201939093526801000000000000000090920485169382019390935260018301546060820152908201546080820152600382015473ffffffffffffffffffffffffffffffffffffffff90811660a083015260049092015490911660c082015284519091859190851690811061112157611121612f2d565b6020908102919091010152611137600183612e6d565b91505b8061114481612e4a565b91505061102a565b508063ffffffff1667ffffffffffffffff81111561116c5761116c612efe565b6040519080825280602002602001820160405280156111f157816020015b6040805160e08101825260008082526020808301829052928201819052606082018190526080820181905260a0820181905260c082015282527fffffffffffffffffffffffffffffffffffffffffffffffffffffffffffffffff90920191018161118a5790505b50925060005b8163ffffffff168163ffffffff16101561126157828163ffffffff168151811061122357611223612f2d565b6020026020010151848263ffffffff168151811061124357611243612f2d565b6020026020010181905250808061125990612e4a565b9150506111f7565b505050919050565b3360009081526009602052604081206001015460ff1661130b576040517f08c379a000000000000000000000000000000000000000000000000000000000815260206004820152602660248201527f4d696e6572206d757374206265207265676973746572656420746f206164642060448201527f6f6666657273000000000000000000000000000000000000000000000000000060648201526084016106eb565b6040805160a0810182526001805463ffffffff908116808452888216602080860191825261ffff8a8116878901908152606088018b81523360808a0190815260009687529386905298852097518854945191519087167fffffffffffffffffffffffffffffffffffffffffffffffff00000000000000009095169490941764010000000091871691909102177fffffffffffffffffffffffffffffffffffffffffffff0000ffffffffffffffff166801000000000000000093909116929092029190911785559451848401559351600290930180547fffffffffffffffffffffffff00000000000000000000000000000000000000001673ffffffffffffffffffffffffffffffffffffffff9094169390931790925580549091169161143083612e4a565b82546101009290920a63ffffffff81810219909316918316021790915560018054610a429350909116612eac565b63ffffffff821660009081526002602052604090206004015473ffffffffffffffffffffffffffffffffffffffff163314801561149f57508060ff16600214155b806114e5575063ffffffff821660009081526002602052604090206003015473ffffffffffffffffffffffffffffffffffffffff16331480156114e557508060ff166002145b611597576040517f08c379a000000000000000000000000000000000000000000000000000000000815260206004820152605a60248201527f4f6e6c792074686520757365722063616e2073746f70206120564d207769746860448201527f20726561736f6e2030206f7220312c206f6e6c7920746865206d696e6572206360648201527f616e2073746f70206120564d207769746820726561736f6e2032000000000000608482015260a4016106eb565b60ff8116156116095763ffffffff82166000908152600260205260408082206003810154600490910154915160ff85169373ffffffffffffffffffffffffffffffffffffffff92831693909216917f1db97daa25845ee925bd84e6cf559402b161e27653e3f3187c1859f98634c1c591a45b61161282612629565b50610cf8826128d0565b60035460609060009063ffffffff1667ffffffffffffffff81111561164357611643612efe565b6040519080825280602002602001820160405280156116c857816020015b6040805160e08101825260008082526020808301829052928201819052606082018190526080820181905260a0820181905260c082015282527fffffffffffffffffffffffffffffffffffffffffffffffffffffffffffffffff9092019101816116615790505b5090506000805b60035463ffffffff90811690821610156117f15763ffffffff811660009081526002602052604090206004015473ffffffffffffffffffffffffffffffffffffffff8087169116036117df5763ffffffff808216600090815260026020818152604092839020835160e0810185528154808716825264010000000081048716938201939093526801000000000000000090920485169382019390935260018301546060820152908201546080820152600382015473ffffffffffffffffffffffffffffffffffffffff90811660a083015260049092015490911660c08201528451909185919085169081106117c6576117c6612f2d565b60209081029190910101526117dc600183612e6d565b91505b806117e981612e4a565b9150506116cf565b508063ffffffff1667ffffffffffffffff81111561181157611811612efe565b60405190808252806020026020018201604052801561189657816020015b6040805160e08101825260008082526020808301829052928201819052606082018190526080820181905260a0820181905260c082015282527fffffffffffffffffffffffffffffffffffffffffffffffffffffffffffffffff90920191018161182f5790505b50925060005b8163ffffffff168163ffffffff16101561126157828163ffffffff16815181106118c8576118c8612f2d565b6020026020010151848263ffffffff16815181106118e8576118e8612f2d565b602002602001018190525080806118fe90612e4a565b91505061189c565b60085473ffffffffffffffffffffffffffffffffffffffff16331480611942575060085473ffffffffffffffffffffffffffffffffffffffff16155b6119ce576040517f08c379a000000000000000000000000000000000000000000000000000000000815260206004820152603660248201527f6f6e6c7920636f6d6d756e69747920636f6e74726163742063616e207365742060448201527f6e657720636f6d6d756e69747920636f6e74726163740000000000000000000060648201526084016106eb565b600880547fffffffffffffffffffffffff00000000000000000000000000000000000000001673ffffffffffffffffffffffffffffffffffffffff92909216919091179055565b600080611a21336125df565b33600090815260046020526040902054611a3b9190612ec9565b905082811015611aa7576040517f08c379a000000000000000000000000000000000000000000000000000000000815260206004820152601e60248201527f4e6f7420656e6f7567682062616c616e636520746f207769746864726177000060448201526064016106eb565b6007546040517fa9059cbb0000000000000000000000000000000000000000000000000000000081523360048201526024810185905273ffffffffffffffffffffffffffffffffffffffff9091169063a9059cbb906044016020604051808303816000875af1158015611b1e573d6000803e3d6000fd5b505050506040513d601f19601f82011682018060405250810190611b429190612edc565b611ba8576040517f08c379a000000000000000000000000000000000000000000000000000000000815260206004820152601560248201527f4552433230207472616e73666572206661696c6564000000000000000000000060448201526064016106eb565b3360009081526004602052604081208054859290611bc7908490612ec9565b909155506001949350505050565b60085473ffffffffffffffffffffffffffffffffffffffff163314611c7b576040517f08c379a0000000000000000000000000000000000000000000000000000000008152602060048201526024808201527f6f6e6c7920636f6d6d756e69747920636f6e74726163742063616e207365742060448201527f636f696e0000000000000000000000000000000000000000000000000000000060648201526084016106eb565b600780547fffffffffffffffffffffffff00000000000000000000000000000000000000001673ffffffffffffffffffffffffffffffffffffffff92909216919091179055565b60015460609060009063ffffffff1667ffffffffffffffff811115611ce957611ce9612efe565b604051908082528060200260200182016040528015611d6057816020015b6040805160a0810182526000808252602080830182905292820181905260608201819052608082015282527fffffffffffffffffffffffffffffffffffffffffffffffffffffffffffffffff909201910181611d075790505b5090506000805b60015463ffffffff9081169082161015611e645763ffffffff811660009081526020819052604090205468010000000000000000900461ffff1615611e525763ffffffff81811660009081526020818152604091829020825160a0810184528154808616825264010000000081048616938201939093526801000000000000000090920461ffff16928201929092526001820154606082015260029091015473ffffffffffffffffffffffffffffffffffffffff166080820152845190918591908516908110611e3957611e39612f2d565b6020908102919091010152611e4f600183612e6d565b91505b80611e5c81612e4a565b915050611d67565b508063ffffffff1667ffffffffffffffff811115611e8457611e84612efe565b604051908082528060200260200182016040528015611efb57816020015b6040805160a0810182526000808252602080830182905292820181905260608201819052608082015282527fffffffffffffffffffffffffffffffffffffffffffffffffffffffffffffffff909201910181611ea25790505b50925060005b8163ffffffff168163ffffffff161015611f6b57828163ffffffff1681518110611f2d57611f2d612f2d565b6020026020010151848263ffffffff1681518110611f4d57611f4d612f2d565b60200260200101819052508080611f6390612e4a565b915050611f01565b50505090565b63ffffffff811660009081526020819052604090206002015473ffffffffffffffffffffffffffffffffffffffff16331461202e576040517f08c379a000000000000000000000000000000000000000000000000000000000815260206004820152602260248201527f4f6e6c7920746865206f776e65722063616e2072656d6f766520616e206f666660448201527f657200000000000000000000000000000000000000000000000000000000000060648201526084016106eb565b63ffffffff16600090815260208190526040812080547fffffffffffffffffffffffffffffffffffffffffffff00000000000000000000168155600181019190915560020180547fffffffffffffffffffffffff0000000000000000000000000000000000000000169055565b60006109c48261ffff1610612132576040517f08c379a000000000000000000000000000000000000000000000000000000000815260206004820152603860248201527f636f6d6d756e697479206665652073686f756c6420626520696e2072616e676560448201527f206f662030202830252920746f2032353030202832352529000000000000000060648201526084016106eb565b60085473ffffffffffffffffffffffffffffffffffffffff1633146121d9576040517f08c379a000000000000000000000000000000000000000000000000000000000815260206004820152602d60248201527f6f6e6c7920636f6d6d756e69747920636f6e74726163742063616e207365742060448201527f636f6d6d756e697479206665650000000000000000000000000000000000000060648201526084016106eb565b506008805461ffff90921674010000000000000000000000000000000000000000027fffffffffffffffffffff0000ffffffffffffffffffffffffffffffffffffffff909216919091179055600090565b6000806000612238846125df565b73ffffffffffffffffffffffffffffffffffffffff851660009081526004602052604090205490915061226c908290612ec9565b94909350915050565b3360009081526009602052604090206001015460ff16612317576040517f08c379a000000000000000000000000000000000000000000000000000000000815260206004820152602360248201527f4d696e6572206d757374206265207265676973746572656420746f207365742060448201527f75726c000000000000000000000000000000000000000000000000000000000060648201526084016106eb565b33600090815260096020526040902055565b60015460609060009063ffffffff1667ffffffffffffffff81111561235057612350612efe565b6040519080825280602002602001820160405280156123c757816020015b6040805160a0810182526000808252602080830182905292820181905260608201819052608082015282527fffffffffffffffffffffffffffffffffffffffffffffffffffffffffffffffff90920191018161236e5790505b5090506000805b60015463ffffffff90811690821610156124d85763ffffffff811660009081526020819052604090206002015473ffffffffffffffffffffffffffffffffffffffff8087169116036124c65763ffffffff81811660009081526020818152604091829020825160a0810184528154808616825264010000000081048616938201939093526801000000000000000090920461ffff16928201929092526001820154606082015260029091015473ffffffffffffffffffffffffffffffffffffffff1660808201528451909185919085169081106124ad576124ad612f2d565b60209081029190910101526124c3600183612e6d565b91505b806124d081612e4a565b9150506123ce565b508063ffffffff1667ffffffffffffffff8111156124f8576124f8612efe565b60405190808252806020026020018201604052801561256f57816020015b6040805160a0810182526000808252602080830182905292820181905260608201819052608082015282527fffffffffffffffffffffffffffffffffffffffffffffffffffffffffffffffff9092019101816125165790505b50925060005b8163ffffffff168163ffffffff16101561126157828163ffffffff16815181106125a1576125a1612f2d565b6020026020010151848263ffffffff16815181106125c1576125c1612f2d565b602002602001018190525080806125d790612e4a565b915050612575565b73ffffffffffffffffffffffffffffffffffffffff81166000908152600560205260408120546126199062093a809063ffffffff16612e0b565b67ffffffffffffffff1692915050565b63ffffffff811660009081526002602081905260408220015460019082906126519042612ec9565b63ffffffff8086166000908152600260205260408120549293509161268491680100000000000000009091041683612f5c565b63ffffffff8616600090815260026020908152604080832060049081015473ffffffffffffffffffffffffffffffffffffffff16845290915290205490915081111561270b575063ffffffff8416600090815260026020908152604080832060049081015473ffffffffffffffffffffffffffffffffffffffff1684529091528120549092505b6008546000906127109061273b9074010000000000000000000000000000000000000000900461ffff1684612f5c565b6127459190612f73565b905060006127538284612ec9565b63ffffffff881660009081526002602081815260408084204293019290925560085473ffffffffffffffffffffffffffffffffffffffff168352600490528120805492935084929091906127a8908490612e37565b909155505063ffffffff871660009081526002602090815260408083206003015473ffffffffffffffffffffffffffffffffffffffff1683526004909152812080548392906127f8908490612e37565b909155505063ffffffff8716600090815260026020908152604080832060049081015473ffffffffffffffffffffffffffffffffffffffff16845290915281208054859290612848908490612ec9565b909155505063ffffffff8716600090815260026020526040908190206003810154600490910154915173ffffffffffffffffffffffffffffffffffffffff91821692909116907f8ed7db30df47fbd87811a5e8a95a94838f0c0241263d9a1865d6a2a3e10516e2906128bd9085815260200190565b60405180910390a3509295945050505050565b63ffffffff818116600090815260026020908152604080832054640100000000900490931682528190522080546001919060089061291f90849068010000000000000000900461ffff16612fae565b825461ffff9182166101009390930a92830291909202199091161790555063ffffffff8082166000908152600260209081526040808320805460049091015473ffffffffffffffffffffffffffffffffffffffff1684526005909252822080546801000000000000000090920484169390929161299e91859116612eac565b82546101009290920a63ffffffff818102199093169183160217909155919091166000908152600260208190526040822080547fffffffffffffffffffffffffffffffffffffffff00000000000000000000000016815560018101839055908101919091556003810180547fffffffffffffffffffffffff000000000000000000000000000000000000000090811690915560049091018054909116905550565b803563ffffffff81168114612a5357600080fd5b919050565b600060208284031215612a6a57600080fd5b612a7382612a3f565b9392505050565b600060208284031215612a8c57600080fd5b5035919050565b803561ffff81168114612a5357600080fd5b600080600060608486031215612aba57600080fd5b612ac384612a3f565b9250612ad160208501612a93565b9150612adf60408501612a3f565b90509250925092565b73ffffffffffffffffffffffffffffffffffffffff81168114612b0a57600080fd5b50565b600060208284031215612b1f57600080fd5b8135612a7381612ae8565b6020808252825182820181905260009190848201906040850190845b81811015612bd357612bc083855163ffffffff80825116835280602083015116602084015280604083015116604084015250606081015160608301526080810151608083015260a081015173ffffffffffffffffffffffffffffffffffffffff80821660a08501528060c08401511660c085015250505050565b9284019260e09290920191600101612b46565b50909695505050505050565b600080600060608486031215612bf457600080fd5b612bfd84612a3f565b9250612c0b60208501612a93565b9150604084013590509250925092565b60008060408385031215612c2e57600080fd5b612c3783612a3f565b9150602083013560ff81168114612c4d57600080fd5b809150509250929050565b6020808252825182820181905260009190848201906040850190845b81811015612bd357612cd683855163ffffffff8082511683528060208301511660208401525061ffff60408201511660408301526060810151606083015273ffffffffffffffffffffffffffffffffffffffff60808201511660808301525050565b9284019260a09290920191600101612c74565b600060208284031215612cfb57600080fd5b612a7382612a93565b60e08101612d79828463ffffffff80825116835280602083015116602084015280604083015116604084015250606081015160608301526080810151608083015260a081015173ffffffffffffffffffffffffffffffffffffffff80821660a08501528060c08401511660c085015250505050565b92915050565b60a08101612d79828463ffffffff8082511683528060208301511660208401525061ffff60408201511660408301526060810151606083015273ffffffffffffffffffffffffffffffffffffffff60808201511660808301525050565b7f4e487b7100000000000000000000000000000000000000000000000000000000600052601160045260246000fd5b67ffffffffffffffff818116838216028082169190828114612e2f57612e2f612ddc565b505092915050565b80820180821115612d7957612d79612ddc565b600063ffffffff808316818103612e6357612e63612ddc565b6001019392505050565b63ffffffff818116838216019080821115612e8a57612e8a612ddc565b5092915050565b61ffff828116828216039080821115612e8a57612e8a612ddc565b63ffffffff828116828216039080821115612e8a57612e8a612ddc565b81810381811115612d7957612d79612ddc565b600060208284031215612eee57600080fd5b81518015158114612a7357600080fd5b7f4e487b7100000000000000000000000000000000000000000000000000000000600052604160045260246000fd5b7f4e487b7100000000000000000000000000000000000000000000000000000000600052603260045260246000fd5b8082028115828204841417612d7957612d79612ddc565b600082612fa9577f4e487b7100000000000000000000000000000000000000000000000000000000600052601260045260246000fd5b500490565b61ffff818116838216019080821115612e8a57612e8a612ddc56fea2646970667358221220f6842ebb56310caa9db84c088587af72d34830a230f28eb07ba3fcaf7b8fa14264736f6c63430008110033",
  "linkReferences": {},
  "deployedLinkReferences": {}
}