{
  "_format": "hh-sol-artifact-1",
  "contractName": "BrokerV1",
  "sourceName": "contracts/BrokerV1.sol",
  "abi": [
    {
      "anonymous": false,
      "inputs": [
        {
          "indexed": true,
          "internalType": "address",
          "name": "user",
          "type": "address"
        },
        {
          "indexed": true,
          "internalType": "address",
          "name": "miner",
          "type": "address"
        },
        {
          "indexed": true,
          "internalType": "uint8",
          "name": "reason",
          "type": "uint8"
        }
      ],
      "name": "Complaint",
      "type": "event"
    },
    {
      "anonymous": false,
      "inputs": [
        {
          "indexed": true,
          "internalType": "address",
          "name": "user",
          "type": "address"
        },
        {
          "indexed": true,
          "internalType": "address",
          "name": "miner",
          "type": "address"
        },
        {
          "indexed": false,
          "internalType": "uint256",
          "name": "amount",
          "type": "uint256"
        }
      ],
      "name": "Payment",
      "type": "event"
    },
    {
      "inputs": [
        {
          "internalType": "uint64",
          "name": "pricePerSecond",
          "type": "uint64"
        },
        {
          "internalType": "uint64",
          "name": "vmTypeId",
          "type": "uint64"
        },
        {
          "internalType": "uint64",
          "name": "machinesAvailable",
          "type": "uint64"
        }
      ],
      "name": "AddOffer",
      "outputs": [
        {
          "internalType": "uint64",
          "name": "",
          "type": "uint64"
        }
      ],
      "stateMutability": "nonpayable",
      "type": "function"
    },
    {
      "inputs": [
        {
          "internalType": "uint64",
          "name": "offerIndex",
          "type": "uint64"
        }
      ],
      "name": "Book",
      "outputs": [
        {
          "internalType": "uint64",
          "name": "",
          "type": "uint64"
        }
      ],
      "stateMutability": "nonpayable",
      "type": "function"
    },
    {
      "inputs": [
        {
          "internalType": "uint64",
          "name": "bookingId",
          "type": "uint64"
        }
      ],
      "name": "ClaimPayment",
      "outputs": [],
      "stateMutability": "nonpayable",
      "type": "function"
    },
    {
      "inputs": [
        {
          "internalType": "uint256",
          "name": "numTokens",
          "type": "uint256"
        }
      ],
      "name": "DepositCoin",
      "outputs": [
        {
          "internalType": "bool",
          "name": "",
          "type": "bool"
        }
      ],
      "stateMutability": "nonpayable",
      "type": "function"
    },
    {
      "inputs": [
        {
          "internalType": "address",
          "name": "_miner",
          "type": "address"
        }
      ],
      "name": "FindBookingsByMiner",
      "outputs": [
        {
          "components": [
            {
              "internalType": "uint64",
              "name": "index",
              "type": "uint64"
            },
            {
              "internalType": "uint64",
              "name": "vmTypeId",
              "type": "uint64"
            },
            {
              "internalType": "address",
              "name": "miner",
              "type": "address"
            },
            {
              "internalType": "address",
              "name": "user",
              "type": "address"
            },
            {
              "internalType": "uint64",
              "name": "pricePerSecond",
              "type": "uint64"
            },
            {
              "internalType": "uint256",
              "name": "bookedAt",
              "type": "uint256"
            },
            {
              "internalType": "uint256",
              "name": "lastPayment",
              "type": "uint256"
            },
            {
              "internalType": "uint64",
              "name": "offerIndex",
              "type": "uint64"
            }
          ],
          "internalType": "struct BrokerV1.Booking[]",
          "name": "filteredBookings",
          "type": "tuple[]"
        }
      ],
      "stateMutability": "view",
      "type": "function"
    },
    {
      "inputs": [
        {
          "internalType": "address",
          "name": "_owner",
          "type": "address"
        }
      ],
      "name": "FindBookingsByUser",
      "outputs": [
        {
          "components": [
            {
              "internalType": "uint64",
              "name": "index",
              "type": "uint64"
            },
            {
              "internalType": "uint64",
              "name": "vmTypeId",
              "type": "uint64"
            },
            {
              "internalType": "address",
              "name": "miner",
              "type": "address"
            },
            {
              "internalType": "address",
              "name": "user",
              "type": "address"
            },
            {
              "internalType": "uint64",
              "name": "pricePerSecond",
              "type": "uint64"
            },
            {
              "internalType": "uint256",
              "name": "bookedAt",
              "type": "uint256"
            },
            {
              "internalType": "uint256",
              "name": "lastPayment",
              "type": "uint256"
            },
            {
              "internalType": "uint64",
              "name": "offerIndex",
              "type": "uint64"
            }
          ],
          "internalType": "struct BrokerV1.Booking[]",
          "name": "filteredBookings",
          "type": "tuple[]"
        }
      ],
      "stateMutability": "view",
      "type": "function"
    },
    {
      "inputs": [],
      "name": "GetAvailableOffers",
      "outputs": [
        {
          "components": [
            {
              "internalType": "uint64",
              "name": "index",
              "type": "uint64"
            },
            {
              "internalType": "address",
              "name": "miner",
              "type": "address"
            },
            {
              "internalType": "uint64",
              "name": "pricePerSecond",
              "type": "uint64"
            },
            {
              "internalType": "uint64",
              "name": "machinesAvailable",
              "type": "uint64"
            },
            {
              "internalType": "uint64",
              "name": "vmTypeId",
              "type": "uint64"
            }
          ],
          "internalType": "struct BrokerV1.Offer[]",
          "name": "filteredOffers",
          "type": "tuple[]"
        }
      ],
      "stateMutability": "view",
      "type": "function"
    },
    {
      "inputs": [
        {
          "internalType": "uint64",
          "name": "_vmTypeId",
          "type": "uint64"
        }
      ],
      "name": "GetAvailableOffersByType",
      "outputs": [
        {
          "components": [
            {
              "internalType": "uint64",
              "name": "index",
              "type": "uint64"
            },
            {
              "internalType": "address",
              "name": "miner",
              "type": "address"
            },
            {
              "internalType": "uint64",
              "name": "pricePerSecond",
              "type": "uint64"
            },
            {
              "internalType": "uint64",
              "name": "machinesAvailable",
              "type": "uint64"
            },
            {
              "internalType": "uint64",
              "name": "vmTypeId",
              "type": "uint64"
            }
          ],
          "internalType": "struct BrokerV1.Offer[]",
          "name": "filteredOffers",
          "type": "tuple[]"
        }
      ],
      "stateMutability": "view",
      "type": "function"
    },
    {
      "inputs": [
        {
          "internalType": "uint64",
          "name": "index",
          "type": "uint64"
        }
      ],
      "name": "GetBooking",
      "outputs": [
        {
          "components": [
            {
              "internalType": "uint64",
              "name": "index",
              "type": "uint64"
            },
            {
              "internalType": "uint64",
              "name": "vmTypeId",
              "type": "uint64"
            },
            {
              "internalType": "address",
              "name": "miner",
              "type": "address"
            },
            {
              "internalType": "address",
              "name": "user",
              "type": "address"
            },
            {
              "internalType": "uint64",
              "name": "pricePerSecond",
              "type": "uint64"
            },
            {
              "internalType": "uint256",
              "name": "bookedAt",
              "type": "uint256"
            },
            {
              "internalType": "uint256",
              "name": "lastPayment",
              "type": "uint256"
            },
            {
              "internalType": "uint64",
              "name": "offerIndex",
              "type": "uint64"
            }
          ],
          "internalType": "struct BrokerV1.Booking",
          "name": "booking",
          "type": "tuple"
        }
      ],
      "stateMutability": "view",
      "type": "function"
    },
    {
      "inputs": [
        {
          "internalType": "address",
          "name": "user",
          "type": "address"
        }
      ],
      "name": "GetCoinBalance",
      "outputs": [
        {
          "internalType": "uint256",
          "name": "",
          "type": "uint256"
        },
        {
          "internalType": "uint256",
          "name": "",
          "type": "uint256"
        }
      ],
      "stateMutability": "view",
      "type": "function"
    },
    {
      "inputs": [
        {
          "internalType": "address",
          "name": "_user",
          "type": "address"
        }
      ],
      "name": "GetMinerUrl",
      "outputs": [
        {
          "internalType": "bytes32",
          "name": "",
          "type": "bytes32"
        }
      ],
      "stateMutability": "view",
      "type": "function"
    },
    {
      "inputs": [
        {
          "internalType": "address",
          "name": "miner",
          "type": "address"
        }
      ],
      "name": "GetMinersOffers",
      "outputs": [
        {
          "components": [
            {
              "internalType": "uint64",
              "name": "index",
              "type": "uint64"
            },
            {
              "internalType": "address",
              "name": "miner",
              "type": "address"
            },
            {
              "internalType": "uint64",
              "name": "pricePerSecond",
              "type": "uint64"
            },
            {
              "internalType": "uint64",
              "name": "machinesAvailable",
              "type": "uint64"
            },
            {
              "internalType": "uint64",
              "name": "vmTypeId",
              "type": "uint64"
            }
          ],
          "internalType": "struct BrokerV1.Offer[]",
          "name": "filteredOffers",
          "type": "tuple[]"
        }
      ],
      "stateMutability": "view",
      "type": "function"
    },
    {
      "inputs": [],
      "name": "GetTime",
      "outputs": [
        {
          "internalType": "uint256",
          "name": "",
          "type": "uint256"
        }
      ],
      "stateMutability": "view",
      "type": "function"
    },
    {
      "inputs": [
        {
          "internalType": "uint64",
          "name": "offerIndex",
          "type": "uint64"
        }
      ],
      "name": "RemoveOffer",
      "outputs": [],
      "stateMutability": "nonpayable",
      "type": "function"
    },
    {
      "inputs": [],
      "name": "SECONDS_IN_WEEK",
      "outputs": [
        {
          "internalType": "uint64",
          "name": "",
          "type": "uint64"
        }
      ],
      "stateMutability": "view",
      "type": "function"
    },
    {
      "inputs": [
        {
          "internalType": "contract IERC20",
          "name": "newCoinAddress",
          "type": "address"
        }
      ],
      "name": "SetCoinAddress",
      "outputs": [],
      "stateMutability": "nonpayable",
      "type": "function"
    },
    {
      "inputs": [
        {
          "internalType": "address",
          "name": "newCommunityAddress",
          "type": "address"
        }
      ],
      "name": "SetCommunityContract",
      "outputs": [],
      "stateMutability": "nonpayable",
      "type": "function"
    },
    {
      "inputs": [
        {
          "internalType": "uint64",
          "name": "fee",
          "type": "uint64"
        }
      ],
      "name": "SetCommunityFee",
      "outputs": [
        {
          "internalType": "bool",
          "name": "",
          "type": "bool"
        }
      ],
      "stateMutability": "nonpayable",
      "type": "function"
    },
    {
      "inputs": [
        {
          "internalType": "bytes32",
          "name": "url",
          "type": "bytes32"
        }
      ],
      "name": "SetMinerUrl",
      "outputs": [],
      "stateMutability": "nonpayable",
      "type": "function"
    },
    {
      "inputs": [
        {
          "internalType": "uint64",
          "name": "bookingId",
          "type": "uint64"
        },
        {
          "internalType": "uint8",
          "name": "reason",
          "type": "uint8"
        }
      ],
      "name": "Terminate",
      "outputs": [],
      "stateMutability": "nonpayable",
      "type": "function"
    },
    {
      "inputs": [
        {
          "internalType": "uint64",
          "name": "offerIndex",
          "type": "uint64"
        },
        {
          "internalType": "uint64",
          "name": "machinesAvailable",
          "type": "uint64"
        },
        {
          "internalType": "uint64",
          "name": "pps",
          "type": "uint64"
        }
      ],
      "name": "UpdateOffer",
      "outputs": [],
      "stateMutability": "nonpayable",
      "type": "function"
    },
    {
      "inputs": [
        {
          "internalType": "uint256",
          "name": "amt",
          "type": "uint256"
        }
      ],
      "name": "WithdrawCoin",
      "outputs": [
        {
          "internalType": "bool",
          "name": "",
          "type": "bool"
        }
      ],
      "stateMutability": "nonpayable",
      "type": "function"
    },
    {
      "inputs": [],
      "name": "coin",
      "outputs": [
        {
          "internalType": "contract IERC20",
          "name": "",
          "type": "address"
        }
      ],
      "stateMutability": "view",
      "type": "function"
    },
    {
      "inputs": [],
      "name": "communityContract",
      "outputs": [
        {
          "internalType": "address",
          "name": "",
          "type": "address"
        }
      ],
      "stateMutability": "view",
      "type": "function"
    },
    {
      "inputs": [],
      "name": "communityFee",
      "outputs": [
        {
          "internalType": "uint64",
          "name": "",
          "type": "uint64"
        }
      ],
      "stateMutability": "view",
      "type": "function"
    }
  ],
  "bytecode": "0x608060405234801561001057600080fd5b50612998806100206000396000f3fe608060405234801561001057600080fd5b50600436106101a35760003560e01c806388317656116100ee578063bfc7853911610097578063d3554ab511610071578063d3554ab5146104a5578063de82b8cb146104b8578063e088b29e146104cb578063f3fe369c146104d557600080fd5b8063bfc785391461036e578063c2161a0514610396578063c2b723be1461048557600080fd5b80638f351016116100c85780638f35101614610340578063a675768c14610353578063b65c4b9c1461036657600080fd5b806388317656146103005780638961be6b146103135780638e6340291461032d57600080fd5b80633c6c780f116101505780635405b5e51161012a5780635405b5e5146102ba5780636b620ed5146102da5780637b828689146102ed57600080fd5b80633c6c780f146102695780633fec2ddf14610292578063534b3ccb146102a757600080fd5b80632c4beedb116101815780632c4beedb1461020b5780632ee7c85914610236578063366445bf1461024957600080fd5b80630e4485e7146101a857806311df9995146101d057806318c5e502146101fb575b600080fd5b6101bb6101b636600461255a565b6104e8565b60405190151581526020015b60405180910390f35b6007546101e3906001600160a01b031681565b6040516001600160a01b0390911681526020016101c7565b425b6040519081526020016101c7565b61021e61021936600461255a565b610634565b6040516001600160401b0390911681526020016101c7565b6101bb61024436600461257c565b610b57565b61025c6102573660046125ad565b610c6b565b6040516101c791906125ca565b6101fd6102773660046125ad565b6001600160a01b031660009081526006602052604090205490565b6102a56102a0366004612682565b610f30565b005b61025c6102b53660046125ad565b611006565b6102cd6102c836600461255a565b6112c4565b6040516101c791906126c5565b6102a56102e83660046125ad565b611563565b6101bb6102fb36600461257c565b611626565b6102a561030e36600461255a565b6117a5565b60085461021e90600160a01b90046001600160401b031681565b6008546101e3906001600160a01b031681565b61021e61034e366004612682565b61188f565b6102a56103613660046125ad565b6119c9565b6102cd611a77565b61038161037c3660046125ad565b611ce8565b604080519283526020830191909152016101c7565b6104786103a436600461255a565b6040805161010081018252600080825260208201819052918101829052606081018290526080810182905260a0810182905260c0810182905260e0810191909152506001600160401b0390811660009081526002602081815260409283902083516101008101855281548087168252600160401b900486169281019290925260018101546001600160a01b0390811694830194909452918201549283166060820152600160a01b90920483166080830152600381015460a0830152600481015460c08301526005015490911660e082015290565b6040516101c7919061274c565b6102a561049336600461257c565b33600090815260066020526040902055565b6102cd6104b33660046125ad565b611d26565b6102a56104c63660046127ca565b611f99565b61021e62093a8081565b6102a56104e336600461255a565b61208b565b60006109c4826001600160401b03161061056f5760405162461bcd60e51b815260206004820152603860248201527f636f6d6d756e697479206665652073686f756c6420626520696e2072616e676560448201527f206f662030202830252920746f2032353030202832352529000000000000000060648201526084015b60405180910390fd5b6008546001600160a01b031633146105ef5760405162461bcd60e51b815260206004820152602d60248201527f6f6e6c7920636f6d6d756e69747920636f6e74726163742063616e207365742060448201527f636f6d6d756e69747920666565000000000000000000000000000000000000006064820152608401610566565b50600880546001600160401b03909216600160a01b027fffffffff0000000000000000ffffffffffffffffffffffffffffffffffffffff909216919091179055600090565b6001600160401b038082166000908152602081905260408120600101549091600160401b909104166106a85760405162461bcd60e51b815260206004820152601560248201527f4e6f206d616368696e657320617661696c61626c6500000000000000000000006044820152606401610566565b6001600160401b0380831660009081526020819052604081206001015490916106d69162093a80911661281d565b6001600160401b03166106e83361213f565b6106f29190612848565b336000908152600460205260409020549091508111156107a05760405162461bcd60e51b815260206004820152605060248201527f596f7520646f6e2774206861766520656e6f7567682062616c616e636520746f60448201527f2070617920666f72207468697320616e6420616c6c206f7468657220426f6f6b60648201527f696e677320666f72203720646179732000000000000000000000000000000000608482015260a401610566565b6000604051806101000160405280600360009054906101000a90046001600160401b03166001600160401b03168152602001600080876001600160401b03166001600160401b0316815260200190815260200160002060010160109054906101000a90046001600160401b03166001600160401b03168152602001600080876001600160401b03166001600160401b0316815260200190815260200160002060000160089054906101000a90046001600160a01b03166001600160a01b03168152602001336001600160a01b03168152602001600080876001600160401b03166001600160401b0316815260200190815260200160002060010160009054906101000a90046001600160401b03166001600160401b03168152602001428152602001428152602001856001600160401b031681525090508060026000600360009054906101000a90046001600160401b03166001600160401b03166001600160401b0316815260200190815260200160002060008201518160000160006101000a8154816001600160401b0302191690836001600160401b0316021790555060208201518160000160086101000a8154816001600160401b0302191690836001600160401b0316021790555060408201518160010160006101000a8154816001600160a01b0302191690836001600160a01b0316021790555060608201518160020160006101000a8154816001600160a01b0302191690836001600160a01b0316021790555060808201518160020160146101000a8154816001600160401b0302191690836001600160401b0316021790555060a0820151816003015560c0820151816004015560e08201518160050160006101000a8154816001600160401b0302191690836001600160401b031602179055509050506003600081819054906101000a90046001600160401b031680929190610a5c9061285b565b82546101009290920a6001600160401b0381810219909316918316021790915585811660009081526020818152604080832060010154338452600590925282208054918416945092610ab091859116612881565b92506101000a8154816001600160401b0302191690836001600160401b031602179055506001600080866001600160401b03166001600160401b0316815260200190815260200160002060010160088282829054906101000a90046001600160401b0316610b1e91906128a8565b82546101009290920a6001600160401b03818102199093169183160217909155600354610b4f9250600191166128a8565b949350505050565b6007546040517f23b872dd000000000000000000000000000000000000000000000000000000008152336004820152306024820152604481018390526000916001600160a01b0316906323b872dd906064016020604051808303816000875af1158015610bc8573d6000803e3d6000fd5b505050506040513d601f19601f82011682018060405250810190610bec91906128c8565b610c385760405162461bcd60e51b815260206004820152601960248201527f4661696c656420746f207472616e7366657220746f6b656e73000000000000006044820152606401610566565b33600090815260046020526040902054610c53908390612848565b33600090815260046020526040902055506001919050565b6003546060906000906001600160401b0390811690811115610c8f57610c8f6128ea565b604051908082528060200260200182016040528015610cfe57816020015b604080516101008101825260008082526020808301829052928201819052606082018190526080820181905260a0820181905260c0820181905260e08201528252600019909201910181610cad5790505b5090506000805b6003546001600160401b039081169082161015610e1b576001600160401b0381166000908152600260205260409020600101546001600160a01b03808716911603610e09576001600160401b0380821660009081526002602081815260409283902083516101008101855281548087168252600160401b900486169281019290925260018101546001600160a01b0390811694830194909452918201549283166060820152600160a01b90920483166080830152600381015460a0830152600481015460c083015260050154821660e0820152845190918591908516908110610df057610df0612900565b6020908102919091010152610e06600183612881565b91505b80610e138161285b565b915050610d05565b50806001600160401b03166001600160401b03811115610e3d57610e3d6128ea565b604051908082528060200260200182016040528015610eac57816020015b604080516101008101825260008082526020808301829052928201819052606082018190526080820181905260a0820181905260c0820181905260e08201528252600019909201910181610e5b5790505b50925060005b816001600160401b0316816001600160401b03161015610f285782816001600160401b031681518110610ee757610ee7612900565b602002602001015184826001600160401b031681518110610f0a57610f0a612900565b60200260200101819052508080610f209061285b565b915050610eb2565b505050919050565b6001600160401b038316600090815260208190526040902054600160401b90046001600160a01b03163314610fb25760405162461bcd60e51b815260206004820152602260248201527f4f6e6c7920746865206f776e65722063616e2075706461746520616e206f666660448201526132b960f11b6064820152608401610566565b6001600160401b039283166000908152602081905260409020600101805491841667ffffffffffffffff1994909316600160401b02939093166fffffffffffffffffffffffffffffffff1990911617179055565b6003546060906000906001600160401b039081169081111561102a5761102a6128ea565b60405190808252806020026020018201604052801561109957816020015b604080516101008101825260008082526020808301829052928201819052606082018190526080820181905260a0820181905260c0820181905260e082015282526000199092019101816110485790505b5090506000805b6003546001600160401b0390811690821610156111b7576001600160401b038116600090815260026020819052604090912001546001600160a01b038087169116036111a5576001600160401b0380821660009081526002602081815260409283902083516101008101855281548087168252600160401b900486169281019290925260018101546001600160a01b0390811694830194909452918201549283166060820152600160a01b90920483166080830152600381015460a0830152600481015460c083015260050154821660e082015284519091859190851690811061118c5761118c612900565b60209081029190910101526111a2600183612881565b91505b806111af8161285b565b9150506110a0565b50806001600160401b03166001600160401b038111156111d9576111d96128ea565b60405190808252806020026020018201604052801561124857816020015b604080516101008101825260008082526020808301829052928201819052606082018190526080820181905260a0820181905260c0820181905260e082015282526000199092019101816111f75790505b50925060005b816001600160401b0316816001600160401b03161015610f285782816001600160401b03168151811061128357611283612900565b602002602001015184826001600160401b0316815181106112a6576112a6612900565b602002602001018190525080806112bc9061285b565b91505061124e565b6001546060906000906001600160401b03908116908111156112e8576112e86128ea565b60405190808252806020026020018201604052801561134157816020015b6040805160a0810182526000808252602080830182905292820181905260608201819052608082015282526000199092019101816113065790505b5090506000805b6001546001600160401b03908116908216101561146c576001600160401b03818116600090815260208190526040902060010154600160801b900481169086161480156113b857506001600160401b03808216600090815260208190526040902060010154600160401b90041615155b1561145a576001600160401b0380821660009081526020818152604091829020825160a081018452815480861682526001600160a01b03600160401b9182900416938201939093526001909101548085169382019390935290820483166060820152600160801b9091048216608082015284519091859190851690811061144157611441612900565b6020908102919091010152611457600183612881565b91505b806114648161285b565b915050611348565b50806001600160401b03166001600160401b0381111561148e5761148e6128ea565b6040519080825280602002602001820160405280156114e757816020015b6040805160a0810182526000808252602080830182905292820181905260608201819052608082015282526000199092019101816114ac5790505b50925060005b816001600160401b0316816001600160401b03161015610f285782816001600160401b03168151811061152257611522612900565b602002602001015184826001600160401b03168151811061154557611545612900565b6020026020010181905250808061155b9061285b565b9150506114ed565b6008546001600160a01b031633148061158557506008546001600160a01b0316155b6115f75760405162461bcd60e51b815260206004820152603660248201527f6f6e6c7920636f6d6d756e69747920636f6e74726163742063616e207365742060448201527f6e657720636f6d6d756e69747920636f6e7472616374000000000000000000006064820152608401610566565b6008805473ffffffffffffffffffffffffffffffffffffffff19166001600160a01b0392909216919091179055565b6000806116323361213f565b3360009081526004602052604090205461164c9190612916565b90508281101561169e5760405162461bcd60e51b815260206004820152601e60248201527f4e6f7420656e6f7567682062616c616e636520746f20776974686472617700006044820152606401610566565b6007546040517fa9059cbb000000000000000000000000000000000000000000000000000000008152336004820152602481018590526001600160a01b039091169063a9059cbb906044016020604051808303816000875af1158015611708573d6000803e3d6000fd5b505050506040513d601f19601f8201168201806040525081019061172c91906128c8565b6117785760405162461bcd60e51b815260206004820152601560248201527f4552433230207472616e73666572206661696c656400000000000000000000006044820152606401610566565b3360009081526004602052604081208054859290611797908490612916565b909155506001949350505050565b6001600160401b038116600090815260208190526040902054600160401b90046001600160a01b031633146118275760405162461bcd60e51b815260206004820152602260248201527f4f6e6c7920746865206f776e65722063616e2072656d6f766520616e206f666660448201526132b960f11b6064820152608401610566565b6001600160401b0316600090815260208190526040902080547fffffffff0000000000000000000000000000000000000000000000000000000016815560010180547fffffffffffffffff000000000000000000000000000000000000000000000000169055565b6040805160a081018252600180546001600160401b03908116808452336020808601918252898416868801908152888516606088019081528a8616608089019081526000958652928590529784209651875493519086167fffffffff0000000000000000000000000000000000000000000000000000000090941693909317600160401b6001600160a01b039094168402178755519585018054975191519685166fffffffffffffffffffffffffffffffff1990981697909717908416909102177fffffffffffffffff0000000000000000ffffffffffffffffffffffffffffffff16600160801b9483169490940293909317909355805491929190911690826119988361285b565b82546101009290920a6001600160401b0381810219909316918316021790915560018054610b4f93509091166128a8565b6008546001600160a01b03163314611a485760405162461bcd60e51b8152602060048201526024808201527f6f6e6c7920636f6d6d756e69747920636f6e74726163742063616e207365742060448201527f636f696e000000000000000000000000000000000000000000000000000000006064820152608401610566565b6007805473ffffffffffffffffffffffffffffffffffffffff19166001600160a01b0392909216919091179055565b6001546060906000906001600160401b0390811690811115611a9b57611a9b6128ea565b604051908082528060200260200182016040528015611af457816020015b6040805160a081018252600080825260208083018290529282018190526060820181905260808201528252600019909201910181611ab95790505b5090506000805b6001546001600160401b039081169082161015611beb576001600160401b03808216600090815260208190526040902060010154600160401b90041615611bd9576001600160401b0380821660009081526020818152604091829020825160a081018452815480861682526001600160a01b03600160401b9182900416938201939093526001909101548085169382019390935290820483166060820152600160801b90910482166080820152845190918591908516908110611bc057611bc0612900565b6020908102919091010152611bd6600183612881565b91505b80611be38161285b565b915050611afb565b50806001600160401b03166001600160401b03811115611c0d57611c0d6128ea565b604051908082528060200260200182016040528015611c6657816020015b6040805160a081018252600080825260208083018290529282018190526060820181905260808201528252600019909201910181611c2b5790505b50925060005b816001600160401b0316816001600160401b03161015611ce25782816001600160401b031681518110611ca157611ca1612900565b602002602001015184826001600160401b031681518110611cc457611cc4612900565b60200260200101819052508080611cda9061285b565b915050611c6c565b50505090565b6000806000611cf68461213f565b6001600160a01b038516600090815260046020526040902054909150611d1d908290612916565b94909350915050565b6001546060906000906001600160401b0390811690811115611d4a57611d4a6128ea565b604051908082528060200260200182016040528015611da357816020015b6040805160a081018252600080825260208083018290529282018190526060820181905260808201528252600019909201910181611d685790505b5090506000805b6001546001600160401b039081169082161015611ea2576001600160401b0381166000908152602081905260409020546001600160a01b03808716600160401b9092041603611e90576001600160401b0380821660009081526020818152604091829020825160a081018452815480861682526001600160a01b03600160401b9182900416938201939093526001909101548085169382019390935290820483166060820152600160801b90910482166080820152845190918591908516908110611e7757611e77612900565b6020908102919091010152611e8d600183612881565b91505b80611e9a8161285b565b915050611daa565b50806001600160401b03166001600160401b03811115611ec457611ec46128ea565b604051908082528060200260200182016040528015611f1d57816020015b6040805160a081018252600080825260208083018290529282018190526060820181905260808201528252600019909201910181611ee25790505b50925060005b816001600160401b0316816001600160401b03161015610f285782816001600160401b031681518110611f5857611f58612900565b602002602001015184826001600160401b031681518110611f7b57611f7b612900565b60200260200101819052508080611f919061285b565b915050611f23565b6001600160401b038216600090815260026020819052604090912001546001600160a01b0316331461200d5760405162461bcd60e51b815260206004820152601b60248201527f4f6e6c792074686520757365722063616e2073746f70206120564d00000000006044820152606401610566565b60ff811615612074576001600160401b03821660009081526002602081905260408083206001810154920154905160ff8516936001600160a01b0393841693909216917f1db97daa25845ee925bd84e6cf559402b161e27653e3f3187c1859f98634c1c591a45b61207d8261217e565b50612087826123d4565b5050565b6001600160401b0381166000908152600260205260409020600101546001600160a01b031633146121245760405162461bcd60e51b815260206004820152602260248201527f4f6e6c7920746865206d696e65722063616e20636c61696d2061207061796d6560448201527f6e740000000000000000000000000000000000000000000000000000000000006064820152608401610566565b600061212f8261217e565b90508061208757612087826123d4565b6001600160a01b03811660009081526005602052604081205461216f9062093a80906001600160401b031661281d565b6001600160401b031692915050565b6001600160401b03811660009081526002602052604081206004015460019082906121a99042612916565b6001600160401b03808616600090815260026020819052604082200154929350916121dd91600160a01b9091041683612929565b6001600160401b0386166000908152600260208181526040808420909201546001600160a01b031683526004905290205490915081111561224e57506001600160401b0384166000908152600260208181526040808420909201546001600160a01b03168352600490528120549092505b6008546000906127109061227290600160a01b90046001600160401b031684612929565b61227c9190612940565b9050600061228a8284612916565b6001600160401b0388166000908152600260209081526040808320426004918201556008546001600160a01b031684529091528120805492935084929091906122d4908490612848565b90915550506001600160401b0387166000908152600260209081526040808320600101546001600160a01b0316835260049091528120805483929061231a908490612848565b90915550506001600160401b0387166000908152600260208181526040808420909201546001600160a01b03168352600490528120805485929061235f908490612916565b90915550506001600160401b038716600090815260026020818152604092839020600181015492015492518481526001600160a01b039283169392909216917f8ed7db30df47fbd87811a5e8a95a94838f0c0241263d9a1865d6a2a3e10516e2910160405180910390a3509295945050505050565b6001600160401b03808216600090815260026020908152604080832060050154841683529082905290206001908101805491929091600891612420918591600160401b90910416612881565b82546101009290920a6001600160401b038181021990931691831602179091558281166000908152600260208181526040808420909201546001600160a01b038116845260059091529082208054600160a01b9092048416945092612487918591166128a8565b82546101009290920a6001600160401b03818102199093169183160217909155919091166000908152600260208190526040822080546fffffffffffffffffffffffffffffffff1916815560018101805473ffffffffffffffffffffffffffffffffffffffff1916905590810180547fffffffff00000000000000000000000000000000000000000000000000000000169055600381018290556004810191909155600501805467ffffffffffffffff1916905550565b80356001600160401b038116811461255557600080fd5b919050565b60006020828403121561256c57600080fd5b6125758261253e565b9392505050565b60006020828403121561258e57600080fd5b5035919050565b6001600160a01b03811681146125aa57600080fd5b50565b6000602082840312156125bf57600080fd5b813561257581612595565b6020808252825182820181905260009190848201906040850190845b81811015612676576126628385516001600160401b0380825116835280602083015116602084015260408201516001600160a01b038082166040860152806060850151166060860152505080608083015116608084015260a082015160a084015260c082015160c08401528060e08301511660e0840152505050565b9284019261010092909201916001016125e6565b50909695505050505050565b60008060006060848603121561269757600080fd5b6126a08461253e565b92506126ae6020850161253e565b91506126bc6040850161253e565b90509250925092565b602080825282518282018190526000919060409081850190868401855b8281101561273f57815180516001600160401b039081168652878201516001600160a01b03168887015286820151811687870152606080830151821690870152608091820151169085015260a090930192908501906001016126e2565b5091979650505050505050565b61010081016127c482846001600160401b0380825116835280602083015116602084015260408201516001600160a01b038082166040860152806060850151166060860152505080608083015116608084015260a082015160a084015260c082015160c08401528060e08301511660e0840152505050565b92915050565b600080604083850312156127dd57600080fd5b6127e68361253e565b9150602083013560ff811681146127fc57600080fd5b809150509250929050565b634e487b7160e01b600052601160045260246000fd5b6001600160401b0381811683821602808216919082811461284057612840612807565b505092915050565b808201808211156127c4576127c4612807565b60006001600160401b0380831681810361287757612877612807565b6001019392505050565b6001600160401b038181168382160190808211156128a1576128a1612807565b5092915050565b6001600160401b038281168282160390808211156128a1576128a1612807565b6000602082840312156128da57600080fd5b8151801515811461257557600080fd5b634e487b7160e01b600052604160045260246000fd5b634e487b7160e01b600052603260045260246000fd5b818103818111156127c4576127c4612807565b80820281158282048414176127c4576127c4612807565b60008261295d57634e487b7160e01b600052601260045260246000fd5b50049056fea2646970667358221220b2ecc14cd61dfd3fc47a71a54fb60caa8e7363d5f4f31636b88116fe188a16f964736f6c63430008110033",
  "linkReferences": {},
  "deployedLinkReferences": {}
}