{
  "_format": "hh-sol-artifact-1",
  "contractName": "BrokerV1",
  "sourceName": "contracts/BrokerV1.sol",
  "abi": [
    {
      "anonymous": false,
      "inputs": [
        {
          "indexed": true,
          "internalType": "address",
          "name": "user",
          "type": "address"
        },
        {
          "indexed": true,
          "internalType": "address",
          "name": "miner",
          "type": "address"
        },
        {
          "indexed": true,
          "internalType": "uint8",
          "name": "reason",
          "type": "uint8"
        }
      ],
      "name": "Complaint",
      "type": "event"
    },
    {
      "anonymous": false,
      "inputs": [
        {
          "indexed": true,
          "internalType": "address",
          "name": "user",
          "type": "address"
        },
        {
          "indexed": true,
          "internalType": "address",
          "name": "miner",
          "type": "address"
        },
        {
          "indexed": false,
          "internalType": "uint256",
          "name": "amount",
          "type": "uint256"
        }
      ],
      "name": "Payment",
      "type": "event"
    },
    {
      "inputs": [
        {
          "internalType": "uint24",
          "name": "pricePerSecond",
          "type": "uint24"
        },
        {
          "internalType": "uint16",
          "name": "machinesAvailable",
          "type": "uint16"
        },
        {
          "internalType": "bytes32",
          "name": "specsIpfsHash",
          "type": "bytes32"
        }
      ],
      "name": "AddOffer",
      "outputs": [
        {
          "internalType": "uint64",
          "name": "",
          "type": "uint64"
        }
      ],
      "stateMutability": "nonpayable",
      "type": "function"
    },
    {
      "inputs": [
        {
          "internalType": "uint24",
          "name": "offerIndex",
          "type": "uint24"
        }
      ],
      "name": "Book",
      "outputs": [
        {
          "internalType": "uint64",
          "name": "",
          "type": "uint64"
        }
      ],
      "stateMutability": "nonpayable",
      "type": "function"
    },
    {
      "inputs": [
        {
          "internalType": "uint24",
          "name": "bookingId",
          "type": "uint24"
        }
      ],
      "name": "ClaimPayment",
      "outputs": [],
      "stateMutability": "nonpayable",
      "type": "function"
    },
    {
      "inputs": [
        {
          "internalType": "uint256",
          "name": "numTokens",
          "type": "uint256"
        }
      ],
      "name": "DepositCoin",
      "outputs": [
        {
          "internalType": "bool",
          "name": "",
          "type": "bool"
        }
      ],
      "stateMutability": "nonpayable",
      "type": "function"
    },
    {
      "inputs": [
        {
          "internalType": "address",
          "name": "_miner",
          "type": "address"
        }
      ],
      "name": "FindBookingsByMiner",
      "outputs": [
        {
          "components": [
            {
              "internalType": "uint24",
              "name": "index",
              "type": "uint24"
            },
            {
              "internalType": "uint24",
              "name": "offerIndex",
              "type": "uint24"
            },
            {
              "internalType": "uint24",
              "name": "pricePerSecond",
              "type": "uint24"
            },
            {
              "internalType": "uint256",
              "name": "bookedAt",
              "type": "uint256"
            },
            {
              "internalType": "uint256",
              "name": "lastPayment",
              "type": "uint256"
            },
            {
              "internalType": "address",
              "name": "miner",
              "type": "address"
            },
            {
              "internalType": "address",
              "name": "user",
              "type": "address"
            }
          ],
          "internalType": "struct BrokerV1.Booking[]",
          "name": "filteredBookings",
          "type": "tuple[]"
        }
      ],
      "stateMutability": "view",
      "type": "function"
    },
    {
      "inputs": [
        {
          "internalType": "address",
          "name": "_owner",
          "type": "address"
        }
      ],
      "name": "FindBookingsByUser",
      "outputs": [
        {
          "components": [
            {
              "internalType": "uint24",
              "name": "index",
              "type": "uint24"
            },
            {
              "internalType": "uint24",
              "name": "offerIndex",
              "type": "uint24"
            },
            {
              "internalType": "uint24",
              "name": "pricePerSecond",
              "type": "uint24"
            },
            {
              "internalType": "uint256",
              "name": "bookedAt",
              "type": "uint256"
            },
            {
              "internalType": "uint256",
              "name": "lastPayment",
              "type": "uint256"
            },
            {
              "internalType": "address",
              "name": "miner",
              "type": "address"
            },
            {
              "internalType": "address",
              "name": "user",
              "type": "address"
            }
          ],
          "internalType": "struct BrokerV1.Booking[]",
          "name": "filteredBookings",
          "type": "tuple[]"
        }
      ],
      "stateMutability": "view",
      "type": "function"
    },
    {
      "inputs": [],
      "name": "GetAvailableOffers",
      "outputs": [
        {
          "components": [
            {
              "internalType": "uint24",
              "name": "index",
              "type": "uint24"
            },
            {
              "internalType": "address",
              "name": "miner",
              "type": "address"
            },
            {
              "internalType": "uint24",
              "name": "pricePerSecond",
              "type": "uint24"
            },
            {
              "internalType": "uint16",
              "name": "machinesAvailable",
              "type": "uint16"
            },
            {
              "internalType": "uint24",
              "name": "vmTypeId",
              "type": "uint24"
            },
            {
              "internalType": "bytes32",
              "name": "specsIpfsHash",
              "type": "bytes32"
            }
          ],
          "internalType": "struct BrokerV1.Offer[]",
          "name": "filteredOffers",
          "type": "tuple[]"
        }
      ],
      "stateMutability": "view",
      "type": "function"
    },
    {
      "inputs": [
        {
          "internalType": "uint24",
          "name": "index",
          "type": "uint24"
        }
      ],
      "name": "GetBooking",
      "outputs": [
        {
          "components": [
            {
              "internalType": "uint24",
              "name": "index",
              "type": "uint24"
            },
            {
              "internalType": "uint24",
              "name": "offerIndex",
              "type": "uint24"
            },
            {
              "internalType": "uint24",
              "name": "pricePerSecond",
              "type": "uint24"
            },
            {
              "internalType": "uint256",
              "name": "bookedAt",
              "type": "uint256"
            },
            {
              "internalType": "uint256",
              "name": "lastPayment",
              "type": "uint256"
            },
            {
              "internalType": "address",
              "name": "miner",
              "type": "address"
            },
            {
              "internalType": "address",
              "name": "user",
              "type": "address"
            }
          ],
          "internalType": "struct BrokerV1.Booking",
          "name": "booking",
          "type": "tuple"
        }
      ],
      "stateMutability": "view",
      "type": "function"
    },
    {
      "inputs": [
        {
          "internalType": "address",
          "name": "user",
          "type": "address"
        }
      ],
      "name": "GetCoinBalance",
      "outputs": [
        {
          "internalType": "uint256",
          "name": "",
          "type": "uint256"
        },
        {
          "internalType": "uint256",
          "name": "",
          "type": "uint256"
        }
      ],
      "stateMutability": "view",
      "type": "function"
    },
    {
      "inputs": [
        {
          "internalType": "address",
          "name": "_user",
          "type": "address"
        }
      ],
      "name": "GetMinerUrl",
      "outputs": [
        {
          "internalType": "bytes32",
          "name": "",
          "type": "bytes32"
        }
      ],
      "stateMutability": "view",
      "type": "function"
    },
    {
      "inputs": [
        {
          "internalType": "address",
          "name": "miner",
          "type": "address"
        }
      ],
      "name": "GetMinersOffers",
      "outputs": [
        {
          "components": [
            {
              "internalType": "uint24",
              "name": "index",
              "type": "uint24"
            },
            {
              "internalType": "address",
              "name": "miner",
              "type": "address"
            },
            {
              "internalType": "uint24",
              "name": "pricePerSecond",
              "type": "uint24"
            },
            {
              "internalType": "uint16",
              "name": "machinesAvailable",
              "type": "uint16"
            },
            {
              "internalType": "uint24",
              "name": "vmTypeId",
              "type": "uint24"
            },
            {
              "internalType": "bytes32",
              "name": "specsIpfsHash",
              "type": "bytes32"
            }
          ],
          "internalType": "struct BrokerV1.Offer[]",
          "name": "filteredOffers",
          "type": "tuple[]"
        }
      ],
      "stateMutability": "view",
      "type": "function"
    },
    {
      "inputs": [
        {
          "internalType": "uint24",
          "name": "index",
          "type": "uint24"
        }
      ],
      "name": "GetOffer",
      "outputs": [
        {
          "components": [
            {
              "internalType": "uint24",
              "name": "index",
              "type": "uint24"
            },
            {
              "internalType": "address",
              "name": "miner",
              "type": "address"
            },
            {
              "internalType": "uint24",
              "name": "pricePerSecond",
              "type": "uint24"
            },
            {
              "internalType": "uint16",
              "name": "machinesAvailable",
              "type": "uint16"
            },
            {
              "internalType": "uint24",
              "name": "vmTypeId",
              "type": "uint24"
            },
            {
              "internalType": "bytes32",
              "name": "specsIpfsHash",
              "type": "bytes32"
            }
          ],
          "internalType": "struct BrokerV1.Offer",
          "name": "oneOffer",
          "type": "tuple"
        }
      ],
      "stateMutability": "view",
      "type": "function"
    },
    {
      "inputs": [],
      "name": "GetTime",
      "outputs": [
        {
          "internalType": "uint256",
          "name": "",
          "type": "uint256"
        }
      ],
      "stateMutability": "view",
      "type": "function"
    },
    {
      "inputs": [
        {
          "internalType": "uint24",
          "name": "offerIndex",
          "type": "uint24"
        }
      ],
      "name": "RemoveOffer",
      "outputs": [],
      "stateMutability": "nonpayable",
      "type": "function"
    },
    {
      "inputs": [],
      "name": "SECONDS_IN_WEEK",
      "outputs": [
        {
          "internalType": "uint64",
          "name": "",
          "type": "uint64"
        }
      ],
      "stateMutability": "view",
      "type": "function"
    },
    {
      "inputs": [
        {
          "internalType": "contract IERC20",
          "name": "newCoinAddress",
          "type": "address"
        }
      ],
      "name": "SetCoinAddress",
      "outputs": [],
      "stateMutability": "nonpayable",
      "type": "function"
    },
    {
      "inputs": [
        {
          "internalType": "address",
          "name": "newCommunityAddress",
          "type": "address"
        }
      ],
      "name": "SetCommunityContract",
      "outputs": [],
      "stateMutability": "nonpayable",
      "type": "function"
    },
    {
      "inputs": [
        {
          "internalType": "uint64",
          "name": "fee",
          "type": "uint64"
        }
      ],
      "name": "SetCommunityFee",
      "outputs": [
        {
          "internalType": "bool",
          "name": "",
          "type": "bool"
        }
      ],
      "stateMutability": "nonpayable",
      "type": "function"
    },
    {
      "inputs": [
        {
          "internalType": "bytes32",
          "name": "url",
          "type": "bytes32"
        }
      ],
      "name": "SetMinerUrl",
      "outputs": [],
      "stateMutability": "nonpayable",
      "type": "function"
    },
    {
      "inputs": [
        {
          "internalType": "uint24",
          "name": "bookingId",
          "type": "uint24"
        },
        {
          "internalType": "uint8",
          "name": "reason",
          "type": "uint8"
        }
      ],
      "name": "Terminate",
      "outputs": [],
      "stateMutability": "nonpayable",
      "type": "function"
    },
    {
      "inputs": [
        {
          "internalType": "uint24",
          "name": "offerIndex",
          "type": "uint24"
        },
        {
          "internalType": "uint16",
          "name": "machinesAvailable",
          "type": "uint16"
        },
        {
          "internalType": "uint24",
          "name": "pps",
          "type": "uint24"
        }
      ],
      "name": "UpdateOffer",
      "outputs": [],
      "stateMutability": "nonpayable",
      "type": "function"
    },
    {
      "inputs": [
        {
          "internalType": "uint256",
          "name": "amt",
          "type": "uint256"
        }
      ],
      "name": "WithdrawCoin",
      "outputs": [
        {
          "internalType": "bool",
          "name": "",
          "type": "bool"
        }
      ],
      "stateMutability": "nonpayable",
      "type": "function"
    },
    {
      "inputs": [],
      "name": "coin",
      "outputs": [
        {
          "internalType": "contract IERC20",
          "name": "",
          "type": "address"
        }
      ],
      "stateMutability": "view",
      "type": "function"
    },
    {
      "inputs": [],
      "name": "communityContract",
      "outputs": [
        {
          "internalType": "address",
          "name": "",
          "type": "address"
        }
      ],
      "stateMutability": "view",
      "type": "function"
    },
    {
      "inputs": [],
      "name": "communityFee",
      "outputs": [
        {
          "internalType": "uint64",
          "name": "",
          "type": "uint64"
        }
      ],
      "stateMutability": "view",
      "type": "function"
    }
  ],
  "bytecode": "0x608060405234801561001057600080fd5b50612651806100206000396000f3fe608060405234801561001057600080fd5b50600436106101a35760003560e01c80637b828689116100ee578063bfd7c02011610097578063e088b29e11610071578063e088b29e1461054c578063e21886ae14610556578063ed73fafb14610569578063eef0e5de1461057c57600080fd5b8063bfd7c02014610506578063c2b723be14610519578063d3554ab51461053957600080fd5b8063a675768c116100c8578063a675768c146104b6578063b65c4b9c146104c9578063bfc78539146104de57600080fd5b80637b8286891461045c5780638961be6b1461046f5780638e634029146104a357600080fd5b80632ee7c8591161015057806346e435b51161012a57806346e435b514610423578063534b3ccb146104365780636b620ed51461044957600080fd5b80632ee7c859146103c7578063366445bf146103da5780633c6c780f146103fa57600080fd5b806311df99951161018157806311df99951461037757806318c5e502146103a257806323505f81146103b257600080fd5b8063043fdba0146101a85780630b62ba441461028b5780630e4485e714610354575b600080fd5b6102756101b63660046120f5565b6040805160e081018252600080825260208201819052918101829052606081018290526080810182905260a0810182905260c08101919091525062ffffff908116600090815260026020818152604092839020835160e081018552815480871682526301000000810487169382019390935266010000000000009092049094169281019290925260018301546060830152820154608082015260038201546001600160a01b0390811660a083015260049092015490911660c082015290565b6040516102829190612117565b60405180910390f35b6103476102993660046120f5565b6040805160c081018252600080825260208201819052918101829052606081018290526080810182905260a08101919091525062ffffff90811660009081526020818152604091829020825160c081018452815480861682526001600160a01b03630100000082041693820193909352600160b81b830485169381019390935261ffff600160d01b8304166060840152600160e01b909104909216608082015260019091015460a082015290565b6040516102829190612184565b6103676103623660046121df565b61058f565b6040519015158152602001610282565b60075461038a906001600160a01b031681565b6040516001600160a01b039091168152602001610282565b425b604051908152602001610282565b6103c56103c03660046120f5565b6106dd565b005b6103676103d5366004612209565b61079a565b6103ed6103e836600461223a565b6108ae565b6040516102829190612257565b6103a461040836600461223a565b6001600160a01b031660009081526006602052604090205490565b6103c56104313660046120f5565b610b3e565b6103ed61044436600461223a565b610bf2565b6103c561045736600461223a565b610e7a565b61036761046a366004612209565b610f3d565b60085461048a90600160a01b900467ffffffffffffffff1681565b60405167ffffffffffffffff9091168152602001610282565b60085461038a906001600160a01b031681565b6103c56104c436600461223a565b6110bc565b6104d161116a565b60405161028291906122fe565b6104f16104ec36600461223a565b6113d8565b60408051928352602083019190915201610282565b61048a61051436600461239f565b611416565b6103c5610527366004612209565b33600090815260066020526040902055565b6104d161054736600461223a565b61157e565b61048a62093a8081565b61048a6105643660046120f5565b6117ef565b6103c56105773660046123db565b611b54565b6103c561058a36600461241e565b611c37565b60006109c48267ffffffffffffffff16106106175760405162461bcd60e51b815260206004820152603860248201527f636f6d6d756e697479206665652073686f756c6420626520696e2072616e676560448201527f206f662030202830252920746f2032353030202832352529000000000000000060648201526084015b60405180910390fd5b6008546001600160a01b031633146106975760405162461bcd60e51b815260206004820152602d60248201527f6f6e6c7920636f6d6d756e69747920636f6e74726163742063616e207365742060448201527f636f6d6d756e6974792066656500000000000000000000000000000000000000606482015260840161060e565b506008805467ffffffffffffffff909216600160a01b027fffffffff0000000000000000ffffffffffffffffffffffffffffffffffffffff909216919091179055600090565b62ffffff8116600090815260208190526040902054630100000090046001600160a01b0316331461075b5760405162461bcd60e51b815260206004820152602260248201527f4f6e6c7920746865206f776e65722063616e2072656d6f766520616e206f666660448201526132b960f11b606482015260840161060e565b62ffffff16600090815260208190526040812080547fff0000000000000000000000000000000000000000000000000000000000000016815560010155565b6007546040517f23b872dd000000000000000000000000000000000000000000000000000000008152336004820152306024820152604481018390526000916001600160a01b0316906323b872dd906064016020604051808303816000875af115801561080b573d6000803e3d6000fd5b505050506040513d601f19601f8201168201806040525081019061082f919061245b565b61087b5760405162461bcd60e51b815260206004820152601960248201527f4661696c656420746f207472616e7366657220746f6b656e7300000000000000604482015260640161060e565b33600090815260046020526040902054610896908390612493565b33600090815260046020526040902055506001919050565b60035460609060009062ffffff1667ffffffffffffffff8111156108d4576108d46124a6565b60405190808252806020026020018201604052801561093b57816020015b6040805160e08101825260008082526020808301829052928201819052606082018190526080820181905260a0820181905260c082015282526000199092019101816108f25790505b5090506000805b60035462ffffff9081169082161015610a445762ffffff81166000908152600260205260409020600301546001600160a01b03808716911603610a325762ffffff808216600090815260026020818152604092839020835160e081018552815480871682526301000000810487169382019390935266010000000000009092048516938201939093526001830154606082015290820154608082015260038201546001600160a01b0390811660a083015260049092015490911660c0820152845190918591908516908110610a1957610a196124bc565b6020908102919091010152610a2f6001836124d2565b91505b80610a3c816124f5565b915050610942565b508062ffffff1667ffffffffffffffff811115610a6357610a636124a6565b604051908082528060200260200182016040528015610aca57816020015b6040805160e08101825260008082526020808301829052928201819052606082018190526080820181905260a0820181905260c08201528252600019909201910181610a815790505b50925060005b8162ffffff168162ffffff161015610b3657828162ffffff1681518110610af957610af96124bc565b6020026020010151848262ffffff1681518110610b1857610b186124bc565b60200260200101819052508080610b2e906124f5565b915050610ad0565b505050919050565b62ffffff81166000908152600260205260409020600301546001600160a01b03163314610bd35760405162461bcd60e51b815260206004820152602260248201527f4f6e6c7920746865206d696e65722063616e20636c61696d2061207061796d6560448201527f6e74000000000000000000000000000000000000000000000000000000000000606482015260840161060e565b6000610bde82611d1d565b905080610bee57610bee82611f61565b5050565b60035460609060009062ffffff1667ffffffffffffffff811115610c1857610c186124a6565b604051908082528060200260200182016040528015610c7f57816020015b6040805160e08101825260008082526020808301829052928201819052606082018190526080820181905260a0820181905260c08201528252600019909201910181610c365790505b5090506000805b60035462ffffff9081169082161015610d885762ffffff81166000908152600260205260409020600401546001600160a01b03808716911603610d765762ffffff808216600090815260026020818152604092839020835160e081018552815480871682526301000000810487169382019390935266010000000000009092048516938201939093526001830154606082015290820154608082015260038201546001600160a01b0390811660a083015260049092015490911660c0820152845190918591908516908110610d5d57610d5d6124bc565b6020908102919091010152610d736001836124d2565b91505b80610d80816124f5565b915050610c86565b508062ffffff1667ffffffffffffffff811115610da757610da76124a6565b604051908082528060200260200182016040528015610e0e57816020015b6040805160e08101825260008082526020808301829052928201819052606082018190526080820181905260a0820181905260c08201528252600019909201910181610dc55790505b50925060005b8162ffffff168162ffffff161015610b3657828162ffffff1681518110610e3d57610e3d6124bc565b6020026020010151848262ffffff1681518110610e5c57610e5c6124bc565b60200260200101819052508080610e72906124f5565b915050610e14565b6008546001600160a01b0316331480610e9c57506008546001600160a01b0316155b610f0e5760405162461bcd60e51b815260206004820152603660248201527f6f6e6c7920636f6d6d756e69747920636f6e74726163742063616e207365742060448201527f6e657720636f6d6d756e69747920636f6e747261637400000000000000000000606482015260840161060e565b6008805473ffffffffffffffffffffffffffffffffffffffff19166001600160a01b0392909216919091179055565b600080610f49336120a0565b33600090815260046020526040902054610f639190612517565b905082811015610fb55760405162461bcd60e51b815260206004820152601e60248201527f4e6f7420656e6f7567682062616c616e636520746f2077697468647261770000604482015260640161060e565b6007546040517fa9059cbb000000000000000000000000000000000000000000000000000000008152336004820152602481018590526001600160a01b039091169063a9059cbb906044016020604051808303816000875af115801561101f573d6000803e3d6000fd5b505050506040513d601f19601f82011682018060405250810190611043919061245b565b61108f5760405162461bcd60e51b815260206004820152601560248201527f4552433230207472616e73666572206661696c65640000000000000000000000604482015260640161060e565b33600090815260046020526040812080548592906110ae908490612517565b909155506001949350505050565b6008546001600160a01b0316331461113b5760405162461bcd60e51b8152602060048201526024808201527f6f6e6c7920636f6d6d756e69747920636f6e74726163742063616e207365742060448201527f636f696e00000000000000000000000000000000000000000000000000000000606482015260840161060e565b6007805473ffffffffffffffffffffffffffffffffffffffff19166001600160a01b0392909216919091179055565b60015460609060009062ffffff1667ffffffffffffffff811115611190576111906124a6565b6040519080825280602002602001820160405280156111f057816020015b6040805160c08101825260008082526020808301829052928201819052606082018190526080820181905260a082015282526000199092019101816111ae5790505b5090506000805b60015462ffffff90811690821610156112e75762ffffff8116600090815260208190526040902054600160d01b900461ffff16156112d55762ffffff80821660009081526020818152604091829020825160c081018452815480861682526001600160a01b03630100000082041693820193909352600160b81b830485169381019390935261ffff600160d01b8304166060840152600160e01b909104831660808301526001015460a08201528451909185919085169081106112bc576112bc6124bc565b60209081029190910101526112d26001836124d2565b91505b806112df816124f5565b9150506111f7565b508062ffffff1667ffffffffffffffff811115611306576113066124a6565b60405190808252806020026020018201604052801561136657816020015b6040805160c08101825260008082526020808301829052928201819052606082018190526080820181905260a082015282526000199092019101816113245790505b50925060005b8162ffffff168162ffffff1610156113d257828162ffffff1681518110611395576113956124bc565b6020026020010151848262ffffff16815181106113b4576113b46124bc565b602002602001018190525080806113ca906124f5565b91505061136c565b50505090565b60008060006113e6846120a0565b6001600160a01b03851660009081526004602052604090205490915061140d908290612517565b94909350915050565b6040805160c0810182526001805462ffffff90811680845233602080860191825289841686880190815261ffff808b1660608901908152600060808a0181815260a08b018d815297825294819052998a209851895495519351915194518816600160e01b027fff000000ffffffffffffffffffffffffffffffffffffffffffffffffffffffff95909316600160d01b027fffffffff0000ffffffffffffffffffffffffffffffffffffffffffffffffffff928916600160b81b029290921664ffffffffff60b81b196001600160a01b03959095166301000000027fffffffffffffffffff0000000000000000000000000000000000000000000000909716918916919091179590951792909216939093171716178455519282019290925580549091169082611544836124f5565b82546101009290920a62ffffff81810219909316918316021790915560018054611571935090911661252a565b62ffffff16949350505050565b60015460609060009062ffffff1667ffffffffffffffff8111156115a4576115a46124a6565b60405190808252806020026020018201604052801561160457816020015b6040805160c08101825260008082526020808301829052928201819052606082018190526080820181905260a082015282526000199092019101816115c25790505b5090506000805b60015462ffffff90811690821610156117045762ffffff81166000908152602081905260409020546001600160a01b03808716630100000090920416036116f25762ffffff80821660009081526020818152604091829020825160c081018452815480861682526001600160a01b03630100000082041693820193909352600160b81b830485169381019390935261ffff600160d01b8304166060840152600160e01b909104831660808301526001015460a08201528451909185919085169081106116d9576116d96124bc565b60209081029190910101526116ef6001836124d2565b91505b806116fc816124f5565b91505061160b565b508062ffffff1667ffffffffffffffff811115611723576117236124a6565b60405190808252806020026020018201604052801561178357816020015b6040805160c08101825260008082526020808301829052928201819052606082018190526080820181905260a082015282526000199092019101816117415790505b50925060005b8162ffffff168162ffffff161015610b3657828162ffffff16815181106117b2576117b26124bc565b6020026020010151848262ffffff16815181106117d1576117d16124bc565b602002602001018190525080806117e7906124f5565b915050611789565b62ffffff8116600090815260208190526040812054600160d01b900461ffff1661185b5760405162461bcd60e51b815260206004820152601560248201527f4e6f206d616368696e657320617661696c61626c650000000000000000000000604482015260640161060e565b62ffffff808316600090815260208190526040812054909161188a9162093a8091600160b81b90910416612546565b67ffffffffffffffff1661189d336120a0565b6118a79190612493565b336000908152600460205260409020549091508111156119555760405162461bcd60e51b815260206004820152605060248201527f596f7520646f6e2774206861766520656e6f7567682062616c616e636520746f60448201527f2070617920666f72207468697320616e6420616c6c206f7468657220426f6f6b60648201527f696e677320666f72203720646179732000000000000000000000000000000000608482015260a40161060e565b6040805160e0810182526003805462ffffff9081168084528782166020808601828152600092835282825287832054600160b81b81048616888a019081524260608a0181815260808b019182526001600160a01b03630100000094859004811660a08d019081523360c08e019081529989526002978890529c88208c518154975195518c1666010000000000000268ffffff00000000000019968d1690970265ffffffffffff19909816908c16179690961793909316939093178455915160018401559051928201929092559651878601805491831673ffffffffffffffffffffffffffffffffffffffff19928316179055925160049097018054979091169690921695909517905581549293921691611a6e836124f5565b82546101009290920a62ffffff81810219909316918316021790915585811660009081526020818152604080832054338452600590925282208054600160b81b9092049093169350611ac790849063ffffffff16612572565b92506101000a81548163ffffffff021916908363ffffffff16021790555060016000808662ffffff1662ffffff168152602001908152602001600020600001601a8282829054906101000a900461ffff16611b22919061258f565b825461ffff9182166101009390930a9283029190920219909116179055506003546115719060019062ffffff1661252a565b62ffffff8316600090815260208190526040902054630100000090046001600160a01b03163314611bd25760405162461bcd60e51b815260206004820152602260248201527f4f6e6c7920746865206f776e65722063616e2075706461746520616e206f666660448201526132b960f11b606482015260840161060e565b62ffffff9283166000908152602081905260409020805491909316600160b81b027fffffffffffff000000ffffffffffffffffffffffffffffffffffffffffffffff61ffff909316600160d01b029290921664ffffffffff60b81b1990911617179055565b62ffffff82166000908152600260205260409020600401546001600160a01b03163314611ca65760405162461bcd60e51b815260206004820152601b60248201527f4f6e6c792074686520757365722063616e2073746f70206120564d0000000000604482015260640161060e565b60ff811615611d0a5762ffffff82166000908152600260205260408082206003810154600490910154915160ff8516936001600160a01b0392831693909216917f1db97daa25845ee925bd84e6cf559402b161e27653e3f3187c1859f98634c1c591a45b611d1382611d1d565b50610bee82611f61565b62ffffff81166000908152600260208190526040822001546001908290611d449042612517565b62ffffff80861660009081526002602052604081205492935091611d7491660100000000000090910416836125aa565b62ffffff861660009081526002602090815260408083206004908101546001600160a01b03168452909152902054909150811115611ddf575062ffffff841660009081526002602090815260408083206004908101546001600160a01b031684529091528120549092505b60085460009061271090611e0490600160a01b900467ffffffffffffffff16846125aa565b611e0e91906125c1565b90506000611e1c8284612517565b62ffffff88166000908152600260208181526040808420429301929092556008546001600160a01b0316835260049052812080549293508492909190611e63908490612493565b909155505062ffffff87166000908152600260209081526040808320600301546001600160a01b03168352600490915281208054839290611ea5908490612493565b909155505062ffffff871660009081526002602090815260408083206004908101546001600160a01b0316845290915281208054859290611ee7908490612517565b909155505062ffffff871660009081526002602052604090819020600381015460049091015491516001600160a01b0391821692909116907f8ed7db30df47fbd87811a5e8a95a94838f0c0241263d9a1865d6a2a3e10516e290611f4e9085815260200190565b60405180910390a3509295945050505050565b62ffffff81811660009081526002602090815260408083205463010000009004909316825281905220805460019190601a90611fa9908490600160d01b900461ffff166125e3565b825461ffff9182166101009390930a92830291909202199091161790555062ffffff808216600090815260026020908152604080832080546004909101546001600160a01b03168452600590925282208054660100000000000090920490931692919061201d90849063ffffffff166125fe565b825463ffffffff9182166101009390930a92830291909202199091161790555062ffffff1660009081526002602081905260408220805468ffffffffffffffffff19168155600181018390559081019190915560038101805473ffffffffffffffffffffffffffffffffffffffff19908116909155600490910180549091169055565b6001600160a01b0381166000908152600560205260408120546120cd9062093a809063ffffffff16612546565b67ffffffffffffffff1692915050565b803562ffffff811681146120f057600080fd5b919050565b60006020828403121561210757600080fd5b612110826120dd565b9392505050565b60e0810161217e828462ffffff80825116835280602083015116602084015280604083015116604084015250606081015160608301526080810151608083015260a08101516001600160a01b0380821660a08501528060c08401511660c085015250505050565b92915050565b60c0810161217e828462ffffff8082511683526001600160a01b03602083015116602084015280604083015116604084015261ffff60608301511660608401528060808301511660808401525060a081015160a08301525050565b6000602082840312156121f157600080fd5b813567ffffffffffffffff8116811461211057600080fd5b60006020828403121561221b57600080fd5b5035919050565b6001600160a01b038116811461223757600080fd5b50565b60006020828403121561224c57600080fd5b813561211081612222565b6020808252825182820181905260009190848201906040850190845b818110156122f2576122df83855162ffffff80825116835280602083015116602084015280604083015116604084015250606081015160608301526080810151608083015260a08101516001600160a01b0380821660a08501528060c08401511660c085015250505050565b9284019260e09290920191600101612273565b50909695505050505050565b6020808252825182820181905260009190848201906040850190845b818110156122f25761237a83855162ffffff8082511683526001600160a01b03602083015116602084015280604083015116604084015261ffff60608301511660608401528060808301511660808401525060a081015160a08301525050565b9284019260c0929092019160010161231a565b803561ffff811681146120f057600080fd5b6000806000606084860312156123b457600080fd5b6123bd846120dd565b92506123cb6020850161238d565b9150604084013590509250925092565b6000806000606084860312156123f057600080fd5b6123f9846120dd565b92506124076020850161238d565b9150612415604085016120dd565b90509250925092565b6000806040838503121561243157600080fd5b61243a836120dd565b9150602083013560ff8116811461245057600080fd5b809150509250929050565b60006020828403121561246d57600080fd5b8151801515811461211057600080fd5b634e487b7160e01b600052601160045260246000fd5b8082018082111561217e5761217e61247d565b634e487b7160e01b600052604160045260246000fd5b634e487b7160e01b600052603260045260246000fd5b62ffffff8181168382160190808211156124ee576124ee61247d565b5092915050565b600062ffffff80831681810361250d5761250d61247d565b6001019392505050565b8181038181111561217e5761217e61247d565b62ffffff8281168282160390808211156124ee576124ee61247d565b67ffffffffffffffff81811683821602808216919082811461256a5761256a61247d565b505092915050565b63ffffffff8181168382160190808211156124ee576124ee61247d565b61ffff8281168282160390808211156124ee576124ee61247d565b808202811582820484141761217e5761217e61247d565b6000826125de57634e487b7160e01b600052601260045260246000fd5b500490565b61ffff8181168382160190808211156124ee576124ee61247d565b63ffffffff8281168282160390808211156124ee576124ee61247d56fea2646970667358221220453227c61d21aeba81af1f3dd294b0a6f91eec9bf0ae1c11ccfa65cba2c766f964736f6c63430008110033",
  "linkReferences": {},
  "deployedLinkReferences": {}
}