{
  "_format": "hh-sol-artifact-1",
  "contractName": "BrokerV1",
  "sourceName": "contracts/BrokerV1.sol",
  "abi": [
    {
      "anonymous": false,
      "inputs": [
        {
          "indexed": true,
          "internalType": "address",
          "name": "user",
          "type": "address"
        },
        {
          "indexed": true,
          "internalType": "address",
          "name": "miner",
          "type": "address"
        },
        {
          "indexed": true,
          "internalType": "uint8",
          "name": "reason",
          "type": "uint8"
        }
      ],
      "name": "Complaint",
      "type": "event"
    },
    {
      "anonymous": false,
      "inputs": [
        {
          "indexed": true,
          "internalType": "address",
          "name": "user",
          "type": "address"
        },
        {
          "indexed": true,
          "internalType": "address",
          "name": "miner",
          "type": "address"
        },
        {
          "indexed": false,
          "internalType": "uint256",
          "name": "amount",
          "type": "uint256"
        }
      ],
      "name": "Payment",
      "type": "event"
    },
    {
      "inputs": [
        {
          "internalType": "uint64",
          "name": "pricePerSecond",
          "type": "uint64"
        },
        {
          "internalType": "uint64",
          "name": "machinesAvailable",
          "type": "uint64"
        },
        {
          "internalType": "bytes32",
          "name": "specsIpfsHash",
          "type": "bytes32"
        }
      ],
      "name": "AddOffer",
      "outputs": [
        {
          "internalType": "uint64",
          "name": "",
          "type": "uint64"
        }
      ],
      "stateMutability": "nonpayable",
      "type": "function"
    },
    {
      "inputs": [
        {
          "internalType": "uint64",
          "name": "offerIndex",
          "type": "uint64"
        }
      ],
      "name": "Book",
      "outputs": [
        {
          "internalType": "uint64",
          "name": "",
          "type": "uint64"
        }
      ],
      "stateMutability": "nonpayable",
      "type": "function"
    },
    {
      "inputs": [
        {
          "internalType": "uint64",
          "name": "bookingId",
          "type": "uint64"
        }
      ],
      "name": "ClaimPayment",
      "outputs": [],
      "stateMutability": "nonpayable",
      "type": "function"
    },
    {
      "inputs": [
        {
          "internalType": "uint256",
          "name": "numTokens",
          "type": "uint256"
        }
      ],
      "name": "DepositCoin",
      "outputs": [
        {
          "internalType": "bool",
          "name": "",
          "type": "bool"
        }
      ],
      "stateMutability": "nonpayable",
      "type": "function"
    },
    {
      "inputs": [
        {
          "internalType": "address",
          "name": "_miner",
          "type": "address"
        }
      ],
      "name": "FindBookingsByMiner",
      "outputs": [
        {
          "components": [
            {
              "internalType": "uint64",
              "name": "index",
              "type": "uint64"
            },
            {
              "internalType": "uint64",
              "name": "deprecated__vmTypeId",
              "type": "uint64"
            },
            {
              "internalType": "address",
              "name": "miner",
              "type": "address"
            },
            {
              "internalType": "address",
              "name": "user",
              "type": "address"
            },
            {
              "internalType": "uint64",
              "name": "pricePerSecond",
              "type": "uint64"
            },
            {
              "internalType": "uint256",
              "name": "bookedAt",
              "type": "uint256"
            },
            {
              "internalType": "uint256",
              "name": "lastPayment",
              "type": "uint256"
            },
            {
              "internalType": "uint64",
              "name": "offerIndex",
              "type": "uint64"
            }
          ],
          "internalType": "struct BrokerV1.Booking[]",
          "name": "filteredBookings",
          "type": "tuple[]"
        }
      ],
      "stateMutability": "view",
      "type": "function"
    },
    {
      "inputs": [
        {
          "internalType": "address",
          "name": "_owner",
          "type": "address"
        }
      ],
      "name": "FindBookingsByUser",
      "outputs": [
        {
          "components": [
            {
              "internalType": "uint64",
              "name": "index",
              "type": "uint64"
            },
            {
              "internalType": "uint64",
              "name": "deprecated__vmTypeId",
              "type": "uint64"
            },
            {
              "internalType": "address",
              "name": "miner",
              "type": "address"
            },
            {
              "internalType": "address",
              "name": "user",
              "type": "address"
            },
            {
              "internalType": "uint64",
              "name": "pricePerSecond",
              "type": "uint64"
            },
            {
              "internalType": "uint256",
              "name": "bookedAt",
              "type": "uint256"
            },
            {
              "internalType": "uint256",
              "name": "lastPayment",
              "type": "uint256"
            },
            {
              "internalType": "uint64",
              "name": "offerIndex",
              "type": "uint64"
            }
          ],
          "internalType": "struct BrokerV1.Booking[]",
          "name": "filteredBookings",
          "type": "tuple[]"
        }
      ],
      "stateMutability": "view",
      "type": "function"
    },
    {
      "inputs": [],
      "name": "GetAvailableOffers",
      "outputs": [
        {
          "components": [
            {
              "internalType": "uint64",
              "name": "index",
              "type": "uint64"
            },
            {
              "internalType": "address",
              "name": "miner",
              "type": "address"
            },
            {
              "internalType": "uint64",
              "name": "pricePerSecond",
              "type": "uint64"
            },
            {
              "internalType": "uint64",
              "name": "machinesAvailable",
              "type": "uint64"
            },
            {
              "internalType": "uint64",
              "name": "deprecated__vmTypeId",
              "type": "uint64"
            },
            {
              "internalType": "bytes32",
              "name": "specsIpfsHash",
              "type": "bytes32"
            }
          ],
          "internalType": "struct BrokerV1.Offer[]",
          "name": "filteredOffers",
          "type": "tuple[]"
        }
      ],
      "stateMutability": "view",
      "type": "function"
    },
    {
      "inputs": [
        {
          "internalType": "uint64",
          "name": "index",
          "type": "uint64"
        }
      ],
      "name": "GetBooking",
      "outputs": [
        {
          "components": [
            {
              "internalType": "uint64",
              "name": "index",
              "type": "uint64"
            },
            {
              "internalType": "uint64",
              "name": "deprecated__vmTypeId",
              "type": "uint64"
            },
            {
              "internalType": "address",
              "name": "miner",
              "type": "address"
            },
            {
              "internalType": "address",
              "name": "user",
              "type": "address"
            },
            {
              "internalType": "uint64",
              "name": "pricePerSecond",
              "type": "uint64"
            },
            {
              "internalType": "uint256",
              "name": "bookedAt",
              "type": "uint256"
            },
            {
              "internalType": "uint256",
              "name": "lastPayment",
              "type": "uint256"
            },
            {
              "internalType": "uint64",
              "name": "offerIndex",
              "type": "uint64"
            }
          ],
          "internalType": "struct BrokerV1.Booking",
          "name": "booking",
          "type": "tuple"
        }
      ],
      "stateMutability": "view",
      "type": "function"
    },
    {
      "inputs": [
        {
          "internalType": "address",
          "name": "user",
          "type": "address"
        }
      ],
      "name": "GetCoinBalance",
      "outputs": [
        {
          "internalType": "uint256",
          "name": "",
          "type": "uint256"
        },
        {
          "internalType": "uint256",
          "name": "",
          "type": "uint256"
        }
      ],
      "stateMutability": "view",
      "type": "function"
    },
    {
      "inputs": [
        {
          "internalType": "address",
          "name": "_user",
          "type": "address"
        }
      ],
      "name": "GetMinerUrl",
      "outputs": [
        {
          "internalType": "bytes32",
          "name": "",
          "type": "bytes32"
        }
      ],
      "stateMutability": "view",
      "type": "function"
    },
    {
      "inputs": [
        {
          "internalType": "address",
          "name": "miner",
          "type": "address"
        }
      ],
      "name": "GetMinersOffers",
      "outputs": [
        {
          "components": [
            {
              "internalType": "uint64",
              "name": "index",
              "type": "uint64"
            },
            {
              "internalType": "address",
              "name": "miner",
              "type": "address"
            },
            {
              "internalType": "uint64",
              "name": "pricePerSecond",
              "type": "uint64"
            },
            {
              "internalType": "uint64",
              "name": "machinesAvailable",
              "type": "uint64"
            },
            {
              "internalType": "uint64",
              "name": "deprecated__vmTypeId",
              "type": "uint64"
            },
            {
              "internalType": "bytes32",
              "name": "specsIpfsHash",
              "type": "bytes32"
            }
          ],
          "internalType": "struct BrokerV1.Offer[]",
          "name": "filteredOffers",
          "type": "tuple[]"
        }
      ],
      "stateMutability": "view",
      "type": "function"
    },
    {
      "inputs": [
        {
          "internalType": "uint64",
          "name": "index",
          "type": "uint64"
        }
      ],
      "name": "GetOffer",
      "outputs": [
        {
          "components": [
            {
              "internalType": "uint64",
              "name": "index",
              "type": "uint64"
            },
            {
              "internalType": "address",
              "name": "miner",
              "type": "address"
            },
            {
              "internalType": "uint64",
              "name": "pricePerSecond",
              "type": "uint64"
            },
            {
              "internalType": "uint64",
              "name": "machinesAvailable",
              "type": "uint64"
            },
            {
              "internalType": "uint64",
              "name": "deprecated__vmTypeId",
              "type": "uint64"
            },
            {
              "internalType": "bytes32",
              "name": "specsIpfsHash",
              "type": "bytes32"
            }
          ],
          "internalType": "struct BrokerV1.Offer",
          "name": "oneOffer",
          "type": "tuple"
        }
      ],
      "stateMutability": "view",
      "type": "function"
    },
    {
      "inputs": [],
      "name": "GetTime",
      "outputs": [
        {
          "internalType": "uint256",
          "name": "",
          "type": "uint256"
        }
      ],
      "stateMutability": "view",
      "type": "function"
    },
    {
      "inputs": [
        {
          "internalType": "uint64",
          "name": "offerIndex",
          "type": "uint64"
        }
      ],
      "name": "RemoveOffer",
      "outputs": [],
      "stateMutability": "nonpayable",
      "type": "function"
    },
    {
      "inputs": [],
      "name": "SECONDS_IN_WEEK",
      "outputs": [
        {
          "internalType": "uint64",
          "name": "",
          "type": "uint64"
        }
      ],
      "stateMutability": "view",
      "type": "function"
    },
    {
      "inputs": [
        {
          "internalType": "contract IERC20",
          "name": "newCoinAddress",
          "type": "address"
        }
      ],
      "name": "SetCoinAddress",
      "outputs": [],
      "stateMutability": "nonpayable",
      "type": "function"
    },
    {
      "inputs": [
        {
          "internalType": "address",
          "name": "newCommunityAddress",
          "type": "address"
        }
      ],
      "name": "SetCommunityContract",
      "outputs": [],
      "stateMutability": "nonpayable",
      "type": "function"
    },
    {
      "inputs": [
        {
          "internalType": "uint64",
          "name": "fee",
          "type": "uint64"
        }
      ],
      "name": "SetCommunityFee",
      "outputs": [
        {
          "internalType": "bool",
          "name": "",
          "type": "bool"
        }
      ],
      "stateMutability": "nonpayable",
      "type": "function"
    },
    {
      "inputs": [
        {
          "internalType": "bytes32",
          "name": "url",
          "type": "bytes32"
        }
      ],
      "name": "SetMinerUrl",
      "outputs": [],
      "stateMutability": "nonpayable",
      "type": "function"
    },
    {
      "inputs": [
        {
          "internalType": "uint64",
          "name": "bookingId",
          "type": "uint64"
        },
        {
          "internalType": "uint8",
          "name": "reason",
          "type": "uint8"
        }
      ],
      "name": "Terminate",
      "outputs": [],
      "stateMutability": "nonpayable",
      "type": "function"
    },
    {
      "inputs": [
        {
          "internalType": "uint64",
          "name": "offerIndex",
          "type": "uint64"
        },
        {
          "internalType": "uint64",
          "name": "machinesAvailable",
          "type": "uint64"
        },
        {
          "internalType": "uint64",
          "name": "pps",
          "type": "uint64"
        }
      ],
      "name": "UpdateOffer",
      "outputs": [],
      "stateMutability": "nonpayable",
      "type": "function"
    },
    {
      "inputs": [
        {
          "internalType": "uint256",
          "name": "amt",
          "type": "uint256"
        }
      ],
      "name": "WithdrawCoin",
      "outputs": [
        {
          "internalType": "bool",
          "name": "",
          "type": "bool"
        }
      ],
      "stateMutability": "nonpayable",
      "type": "function"
    },
    {
      "inputs": [],
      "name": "coin",
      "outputs": [
        {
          "internalType": "contract IERC20",
          "name": "",
          "type": "address"
        }
      ],
      "stateMutability": "view",
      "type": "function"
    },
    {
      "inputs": [],
      "name": "communityContract",
      "outputs": [
        {
          "internalType": "address",
          "name": "",
          "type": "address"
        }
      ],
      "stateMutability": "view",
      "type": "function"
    },
    {
      "inputs": [],
      "name": "communityFee",
      "outputs": [
        {
          "internalType": "uint64",
          "name": "",
          "type": "uint64"
        }
      ],
      "stateMutability": "view",
      "type": "function"
    }
  ],
  "bytecode": "0x608060405234801561001057600080fd5b50612859806100206000396000f3fe608060405234801561001057600080fd5b50600436106101a35760003560e01c806388317656116100ee578063bfc7853911610097578063d3554ab511610071578063d3554ab514610558578063de82b8cb1461056b578063e088b29e1461057e578063f3fe369c1461058857600080fd5b8063bfc7853914610421578063c2161a0514610449578063c2b723be1461053857600080fd5b80639df93164116100c85780639df9316414610333578063a675768c146103f9578063b65c4b9c1461040c57600080fd5b806388317656146102f35780638961be6b146103065780638e6340291461032057600080fd5b80633c6c780f116101505780636b620ed51161012a5780636b620ed5146102ba5780636eefdeb4146102cd5780637b828689146102e057600080fd5b80633c6c780f146102695780633fec2ddf14610292578063534b3ccb146102a757600080fd5b80632c4beedb116101815780632c4beedb1461020b5780632ee7c85914610236578063366445bf1461024957600080fd5b80630e4485e7146101a857806311df9995146101d057806318c5e502146101fb575b600080fd5b6101bb6101b6366004612378565b61059b565b60405190151581526020015b60405180910390f35b6007546101e3906001600160a01b031681565b6040516001600160a01b0390911681526020016101c7565b425b6040519081526020016101c7565b61021e610219366004612378565b6106e7565b6040516001600160401b0390911681526020016101c7565b6101bb61024436600461239a565b610bd1565b61025c6102573660046123cb565b610ce5565b6040516101c791906123e8565b6101fd6102773660046123cb565b6001600160a01b031660009081526006602052604090205490565b6102a56102a03660046124a0565b610faa565b005b61025c6102b53660046123cb565b611080565b6102a56102c83660046123cb565b61133e565b61021e6102db3660046124e3565b611401565b6101bb6102ee36600461239a565b611549565b6102a5610301366004612378565b6116c8565b60085461021e90600160a01b90046001600160401b031681565b6008546101e3906001600160a01b031681565b6103ec610341366004612378565b6040805160c081018252600080825260208201819052918101829052606081018290526080810182905260a0810191909152506001600160401b0390811660009081526020818152604091829020825160c081018452815480861682526001600160a01b03600160401b91829004169382019390935260018201548086169482019490945291830484166060830152600160801b90920490921660808301526002015460a082015290565b6040516101c7919061251f565b6102a56104073660046123cb565b6117b7565b610414611865565b6040516101c79190612582565b61043461042f3660046123cb565b611aee565b604080519283526020830191909152016101c7565b61052b610457366004612378565b6040805161010081018252600080825260208201819052918101829052606081018290526080810182905260a0810182905260c0810182905260e0810191909152506001600160401b0390811660009081526002602081815260409283902083516101008101855281548087168252600160401b900486169281019290925260018101546001600160a01b0390811694830194909452918201549283166060820152600160a01b90920483166080830152600381015460a0830152600481015460c08301526005015490911660e082015290565b6040516101c79190612613565b6102a561054636600461239a565b33600090815260066020526040902055565b6104146105663660046123cb565b611b2c565b6102a561057936600461268b565b611db7565b61021e62093a8081565b6102a5610596366004612378565b611ea9565b60006109c4826001600160401b0316106106225760405162461bcd60e51b815260206004820152603860248201527f636f6d6d756e697479206665652073686f756c6420626520696e2072616e676560448201527f206f662030202830252920746f2032353030202832352529000000000000000060648201526084015b60405180910390fd5b6008546001600160a01b031633146106a25760405162461bcd60e51b815260206004820152602d60248201527f6f6e6c7920636f6d6d756e69747920636f6e74726163742063616e207365742060448201527f636f6d6d756e69747920666565000000000000000000000000000000000000006064820152608401610619565b50600880546001600160401b03909216600160a01b027fffffffff0000000000000000ffffffffffffffffffffffffffffffffffffffff909216919091179055600090565b6001600160401b038082166000908152602081905260408120600101549091600160401b9091041661075b5760405162461bcd60e51b815260206004820152601560248201527f4e6f206d616368696e657320617661696c61626c6500000000000000000000006044820152606401610619565b6001600160401b0380831660009081526020819052604081206001015490916107899162093a8091166126de565b6001600160401b031661079b33611f5d565b6107a59190612709565b336000908152600460205260409020549091508111156108535760405162461bcd60e51b815260206004820152605060248201527f596f7520646f6e2774206861766520656e6f7567682062616c616e636520746f60448201527f2070617920666f72207468697320616e6420616c6c206f7468657220426f6f6b60648201527f696e677320666f72203720646179732000000000000000000000000000000000608482015260a401610619565b6000604051806101000160405280600360009054906101000a90046001600160401b03166001600160401b0316815260200160006001600160401b03168152602001600080876001600160401b03166001600160401b0316815260200190815260200160002060000160089054906101000a90046001600160a01b03166001600160a01b03168152602001336001600160a01b03168152602001600080876001600160401b03166001600160401b0316815260200190815260200160002060010160009054906101000a90046001600160401b03166001600160401b03168152602001428152602001428152602001856001600160401b031681525090508060026000600360009054906101000a90046001600160401b03166001600160401b03166001600160401b0316815260200190815260200160002060008201518160000160006101000a8154816001600160401b0302191690836001600160401b0316021790555060208201518160000160086101000a8154816001600160401b0302191690836001600160401b0316021790555060408201518160010160006101000a8154816001600160a01b0302191690836001600160a01b0316021790555060608201518160020160006101000a8154816001600160a01b0302191690836001600160a01b0316021790555060808201518160020160146101000a8154816001600160401b0302191690836001600160401b0316021790555060a0820151816003015560c0820151816004015560e08201518160050160006101000a8154816001600160401b0302191690836001600160401b031602179055509050506003600081819054906101000a90046001600160401b031680929190610ad69061271c565b82546101009290920a6001600160401b0381810219909316918316021790915585811660009081526020818152604080832060010154338452600590925282208054918416945092610b2a91859116612742565b92506101000a8154816001600160401b0302191690836001600160401b031602179055506001600080866001600160401b03166001600160401b0316815260200190815260200160002060010160088282829054906101000a90046001600160401b0316610b989190612769565b82546101009290920a6001600160401b03818102199093169183160217909155600354610bc9925060019116612769565b949350505050565b6007546040517f23b872dd000000000000000000000000000000000000000000000000000000008152336004820152306024820152604481018390526000916001600160a01b0316906323b872dd906064016020604051808303816000875af1158015610c42573d6000803e3d6000fd5b505050506040513d601f19601f82011682018060405250810190610c669190612789565b610cb25760405162461bcd60e51b815260206004820152601960248201527f4661696c656420746f207472616e7366657220746f6b656e73000000000000006044820152606401610619565b33600090815260046020526040902054610ccd908390612709565b33600090815260046020526040902055506001919050565b6003546060906000906001600160401b0390811690811115610d0957610d096127ab565b604051908082528060200260200182016040528015610d7857816020015b604080516101008101825260008082526020808301829052928201819052606082018190526080820181905260a0820181905260c0820181905260e08201528252600019909201910181610d275790505b5090506000805b6003546001600160401b039081169082161015610e95576001600160401b0381166000908152600260205260409020600101546001600160a01b03808716911603610e83576001600160401b0380821660009081526002602081815260409283902083516101008101855281548087168252600160401b900486169281019290925260018101546001600160a01b0390811694830194909452918201549283166060820152600160a01b90920483166080830152600381015460a0830152600481015460c083015260050154821660e0820152845190918591908516908110610e6a57610e6a6127c1565b6020908102919091010152610e80600183612742565b91505b80610e8d8161271c565b915050610d7f565b50806001600160401b03166001600160401b03811115610eb757610eb76127ab565b604051908082528060200260200182016040528015610f2657816020015b604080516101008101825260008082526020808301829052928201819052606082018190526080820181905260a0820181905260c0820181905260e08201528252600019909201910181610ed55790505b50925060005b816001600160401b0316816001600160401b03161015610fa25782816001600160401b031681518110610f6157610f616127c1565b602002602001015184826001600160401b031681518110610f8457610f846127c1565b60200260200101819052508080610f9a9061271c565b915050610f2c565b505050919050565b6001600160401b038316600090815260208190526040902054600160401b90046001600160a01b0316331461102c5760405162461bcd60e51b815260206004820152602260248201527f4f6e6c7920746865206f776e65722063616e2075706461746520616e206f666660448201526132b960f11b6064820152608401610619565b6001600160401b039283166000908152602081905260409020600101805491841667ffffffffffffffff1994909316600160401b02939093166fffffffffffffffffffffffffffffffff1990911617179055565b6003546060906000906001600160401b03908116908111156110a4576110a46127ab565b60405190808252806020026020018201604052801561111357816020015b604080516101008101825260008082526020808301829052928201819052606082018190526080820181905260a0820181905260c0820181905260e082015282526000199092019101816110c25790505b5090506000805b6003546001600160401b039081169082161015611231576001600160401b038116600090815260026020819052604090912001546001600160a01b0380871691160361121f576001600160401b0380821660009081526002602081815260409283902083516101008101855281548087168252600160401b900486169281019290925260018101546001600160a01b0390811694830194909452918201549283166060820152600160a01b90920483166080830152600381015460a0830152600481015460c083015260050154821660e0820152845190918591908516908110611206576112066127c1565b602090810291909101015261121c600183612742565b91505b806112298161271c565b91505061111a565b50806001600160401b03166001600160401b03811115611253576112536127ab565b6040519080825280602002602001820160405280156112c257816020015b604080516101008101825260008082526020808301829052928201819052606082018190526080820181905260a0820181905260c0820181905260e082015282526000199092019101816112715790505b50925060005b816001600160401b0316816001600160401b03161015610fa25782816001600160401b0316815181106112fd576112fd6127c1565b602002602001015184826001600160401b031681518110611320576113206127c1565b602002602001018190525080806113369061271c565b9150506112c8565b6008546001600160a01b031633148061136057506008546001600160a01b0316155b6113d25760405162461bcd60e51b815260206004820152603660248201527f6f6e6c7920636f6d6d756e69747920636f6e74726163742063616e207365742060448201527f6e657720636f6d6d756e69747920636f6e7472616374000000000000000000006064820152608401610619565b6008805473ffffffffffffffffffffffffffffffffffffffff19166001600160a01b0392909216919091179055565b6040805160c081018252600180546001600160401b039081168084523360208086019182528984168688019081528985166060880190815260006080890181815260a08a018c8152968252938190529889209751885494519087167fffffffff0000000000000000000000000000000000000000000000000000000090951694909417600160401b6001600160a01b03909516850217885590518787018054925193519187166fffffffffffffffffffffffffffffffff1990931692909217928616909302919091177fffffffffffffffff0000000000000000ffffffffffffffffffffffffffffffff16600160801b9285169290920291909117905551600290930192909255805490911690826115188361271c565b82546101009290920a6001600160401b0381810219909316918316021790915560018054610bc99350909116612769565b60008061155533611f5d565b3360009081526004602052604090205461156f91906127d7565b9050828110156115c15760405162461bcd60e51b815260206004820152601e60248201527f4e6f7420656e6f7567682062616c616e636520746f20776974686472617700006044820152606401610619565b6007546040517fa9059cbb000000000000000000000000000000000000000000000000000000008152336004820152602481018590526001600160a01b039091169063a9059cbb906044016020604051808303816000875af115801561162b573d6000803e3d6000fd5b505050506040513d601f19601f8201168201806040525081019061164f9190612789565b61169b5760405162461bcd60e51b815260206004820152601560248201527f4552433230207472616e73666572206661696c656400000000000000000000006044820152606401610619565b33600090815260046020526040812080548592906116ba9084906127d7565b909155506001949350505050565b6001600160401b038116600090815260208190526040902054600160401b90046001600160a01b0316331461174a5760405162461bcd60e51b815260206004820152602260248201527f4f6e6c7920746865206f776e65722063616e2072656d6f766520616e206f666660448201526132b960f11b6064820152608401610619565b6001600160401b0316600090815260208190526040812080547fffffffff000000000000000000000000000000000000000000000000000000001681556001810180547fffffffffffffffff00000000000000000000000000000000000000000000000016905560020155565b6008546001600160a01b031633146118365760405162461bcd60e51b8152602060048201526024808201527f6f6e6c7920636f6d6d756e69747920636f6e74726163742063616e207365742060448201527f636f696e000000000000000000000000000000000000000000000000000000006064820152608401610619565b6007805473ffffffffffffffffffffffffffffffffffffffff19166001600160a01b0392909216919091179055565b6001546060906000906001600160401b0390811690811115611889576118896127ab565b6040519080825280602002602001820160405280156118e957816020015b6040805160c08101825260008082526020808301829052928201819052606082018190526080820181905260a082015282526000199092019101816118a75790505b5090506000805b6001546001600160401b0390811690821610156119ea576001600160401b03808216600090815260208190526040902060010154600160401b900416156119d8576001600160401b0380821660009081526020818152604091829020825160c081018452815480861682526001600160a01b03600160401b91829004169382019390935260018201548086169482019490945291830484166060830152600160801b9092048316608082015260029091015460a08201528451909185919085169081106119bf576119bf6127c1565b60209081029190910101526119d5600183612742565b91505b806119e28161271c565b9150506118f0565b50806001600160401b03166001600160401b03811115611a0c57611a0c6127ab565b604051908082528060200260200182016040528015611a6c57816020015b6040805160c08101825260008082526020808301829052928201819052606082018190526080820181905260a08201528252600019909201910181611a2a5790505b50925060005b816001600160401b0316816001600160401b03161015611ae85782816001600160401b031681518110611aa757611aa76127c1565b602002602001015184826001600160401b031681518110611aca57611aca6127c1565b60200260200101819052508080611ae09061271c565b915050611a72565b50505090565b6000806000611afc84611f5d565b6001600160a01b038516600090815260046020526040902054909150611b239082906127d7565b94909350915050565b6001546060906000906001600160401b0390811690811115611b5057611b506127ab565b604051908082528060200260200182016040528015611bb057816020015b6040805160c08101825260008082526020808301829052928201819052606082018190526080820181905260a08201528252600019909201910181611b6e5790505b5090506000805b6001546001600160401b039081169082161015611cb9576001600160401b0381166000908152602081905260409020546001600160a01b03808716600160401b9092041603611ca7576001600160401b0380821660009081526020818152604091829020825160c081018452815480861682526001600160a01b03600160401b91829004169382019390935260018201548086169482019490945291830484166060830152600160801b9092048316608082015260029091015460a0820152845190918591908516908110611c8e57611c8e6127c1565b6020908102919091010152611ca4600183612742565b91505b80611cb18161271c565b915050611bb7565b50806001600160401b03166001600160401b03811115611cdb57611cdb6127ab565b604051908082528060200260200182016040528015611d3b57816020015b6040805160c08101825260008082526020808301829052928201819052606082018190526080820181905260a08201528252600019909201910181611cf95790505b50925060005b816001600160401b0316816001600160401b03161015610fa25782816001600160401b031681518110611d7657611d766127c1565b602002602001015184826001600160401b031681518110611d9957611d996127c1565b60200260200101819052508080611daf9061271c565b915050611d41565b6001600160401b038216600090815260026020819052604090912001546001600160a01b03163314611e2b5760405162461bcd60e51b815260206004820152601b60248201527f4f6e6c792074686520757365722063616e2073746f70206120564d00000000006044820152606401610619565b60ff811615611e92576001600160401b03821660009081526002602081905260408083206001810154920154905160ff8516936001600160a01b0393841693909216917f1db97daa25845ee925bd84e6cf559402b161e27653e3f3187c1859f98634c1c591a45b611e9b82611f9c565b50611ea5826121f2565b5050565b6001600160401b0381166000908152600260205260409020600101546001600160a01b03163314611f425760405162461bcd60e51b815260206004820152602260248201527f4f6e6c7920746865206d696e65722063616e20636c61696d2061207061796d6560448201527f6e740000000000000000000000000000000000000000000000000000000000006064820152608401610619565b6000611f4d82611f9c565b905080611ea557611ea5826121f2565b6001600160a01b038116600090815260056020526040812054611f8d9062093a80906001600160401b03166126de565b6001600160401b031692915050565b6001600160401b0381166000908152600260205260408120600401546001908290611fc790426127d7565b6001600160401b0380861660009081526002602081905260408220015492935091611ffb91600160a01b90910416836127ea565b6001600160401b0386166000908152600260208181526040808420909201546001600160a01b031683526004905290205490915081111561206c57506001600160401b0384166000908152600260208181526040808420909201546001600160a01b03168352600490528120549092505b6008546000906127109061209090600160a01b90046001600160401b0316846127ea565b61209a9190612801565b905060006120a882846127d7565b6001600160401b0388166000908152600260209081526040808320426004918201556008546001600160a01b031684529091528120805492935084929091906120f2908490612709565b90915550506001600160401b0387166000908152600260209081526040808320600101546001600160a01b03168352600490915281208054839290612138908490612709565b90915550506001600160401b0387166000908152600260208181526040808420909201546001600160a01b03168352600490528120805485929061217d9084906127d7565b90915550506001600160401b038716600090815260026020818152604092839020600181015492015492518481526001600160a01b039283169392909216917f8ed7db30df47fbd87811a5e8a95a94838f0c0241263d9a1865d6a2a3e10516e2910160405180910390a3509295945050505050565b6001600160401b0380821660009081526002602090815260408083206005015484168352908290529020600190810180549192909160089161223e918591600160401b90910416612742565b82546101009290920a6001600160401b038181021990931691831602179091558281166000908152600260208181526040808420909201546001600160a01b038116845260059091529082208054600160a01b90920484169450926122a591859116612769565b82546101009290920a6001600160401b03818102199093169183160217909155919091166000908152600260208190526040822080546fffffffffffffffffffffffffffffffff1916815560018101805473ffffffffffffffffffffffffffffffffffffffff1916905590810180547fffffffff00000000000000000000000000000000000000000000000000000000169055600381018290556004810191909155600501805467ffffffffffffffff1916905550565b80356001600160401b038116811461237357600080fd5b919050565b60006020828403121561238a57600080fd5b6123938261235c565b9392505050565b6000602082840312156123ac57600080fd5b5035919050565b6001600160a01b03811681146123c857600080fd5b50565b6000602082840312156123dd57600080fd5b8135612393816123b3565b6020808252825182820181905260009190848201906040850190845b81811015612494576124808385516001600160401b0380825116835280602083015116602084015260408201516001600160a01b038082166040860152806060850151166060860152505080608083015116608084015260a082015160a084015260c082015160c08401528060e08301511660e0840152505050565b928401926101009290920191600101612404565b50909695505050505050565b6000806000606084860312156124b557600080fd5b6124be8461235c565b92506124cc6020850161235c565b91506124da6040850161235c565b90509250925092565b6000806000606084860312156124f857600080fd5b6125018461235c565b925061250f6020850161235c565b9150604084013590509250925092565b60c0810161257c82846001600160401b038082511683526001600160a01b0360208301511660208401528060408301511660408401528060608301511660608401528060808301511660808401525060a081015160a08301525050565b92915050565b6020808252825182820181905260009190848201906040850190845b81811015612494576126008385516001600160401b038082511683526001600160a01b0360208301511660208401528060408301511660408401528060608301511660608401528060808301511660808401525060a081015160a08301525050565b9284019260c0929092019160010161259e565b610100810161257c82846001600160401b0380825116835280602083015116602084015260408201516001600160a01b038082166040860152806060850151166060860152505080608083015116608084015260a082015160a084015260c082015160c08401528060e08301511660e0840152505050565b6000806040838503121561269e57600080fd5b6126a78361235c565b9150602083013560ff811681146126bd57600080fd5b809150509250929050565b634e487b7160e01b600052601160045260246000fd5b6001600160401b03818116838216028082169190828114612701576127016126c8565b505092915050565b8082018082111561257c5761257c6126c8565b60006001600160401b03808316818103612738576127386126c8565b6001019392505050565b6001600160401b03818116838216019080821115612762576127626126c8565b5092915050565b6001600160401b03828116828216039080821115612762576127626126c8565b60006020828403121561279b57600080fd5b8151801515811461239357600080fd5b634e487b7160e01b600052604160045260246000fd5b634e487b7160e01b600052603260045260246000fd5b8181038181111561257c5761257c6126c8565b808202811582820484141761257c5761257c6126c8565b60008261281e57634e487b7160e01b600052601260045260246000fd5b50049056fea26469706673582212208ae469d0b7f57c2beaa13fc965e889153c578faf4a76cb216d623db9e43d63b764736f6c63430008110033",
  "linkReferences": {},
  "deployedLinkReferences": {}
}