{
  "_format": "hh-sol-artifact-1",
  "contractName": "BrokerV1",
  "sourceName": "contracts/BrokerV1.sol",
  "abi": [
    {
      "anonymous": false,
      "inputs": [
        {
          "indexed": true,
          "internalType": "address",
          "name": "user",
          "type": "address"
        },
        {
          "indexed": true,
          "internalType": "address",
          "name": "miner",
          "type": "address"
        },
        {
          "indexed": true,
          "internalType": "uint8",
          "name": "reason",
          "type": "uint8"
        }
      ],
      "name": "Complaint",
      "type": "event"
    },
    {
      "anonymous": false,
      "inputs": [
        {
          "indexed": true,
          "internalType": "address",
          "name": "user",
          "type": "address"
        },
        {
          "indexed": true,
          "internalType": "address",
          "name": "miner",
          "type": "address"
        },
        {
          "indexed": false,
          "internalType": "uint256",
          "name": "amount",
          "type": "uint256"
        }
      ],
      "name": "Payment",
      "type": "event"
    },
    {
      "inputs": [
        {
          "internalType": "uint24",
          "name": "pricePerSecond",
          "type": "uint24"
        },
        {
          "internalType": "uint16",
          "name": "machinesAvailable",
          "type": "uint16"
        },
        {
          "internalType": "bytes32",
          "name": "specsIpfsHash",
          "type": "bytes32"
        }
      ],
      "name": "AddOffer",
      "outputs": [
        {
          "internalType": "uint64",
          "name": "",
          "type": "uint64"
        }
      ],
      "stateMutability": "nonpayable",
      "type": "function"
    },
    {
      "inputs": [
        {
          "internalType": "uint24",
          "name": "offerIndex",
          "type": "uint24"
        }
      ],
      "name": "Book",
      "outputs": [
        {
          "internalType": "uint64",
          "name": "",
          "type": "uint64"
        }
      ],
      "stateMutability": "nonpayable",
      "type": "function"
    },
    {
      "inputs": [
        {
          "internalType": "uint24",
          "name": "bookingId",
          "type": "uint24"
        }
      ],
      "name": "ClaimPayment",
      "outputs": [],
      "stateMutability": "nonpayable",
      "type": "function"
    },
    {
      "inputs": [
        {
          "internalType": "uint256",
          "name": "numTokens",
          "type": "uint256"
        }
      ],
      "name": "DepositCoin",
      "outputs": [
        {
          "internalType": "bool",
          "name": "",
          "type": "bool"
        }
      ],
      "stateMutability": "nonpayable",
      "type": "function"
    },
    {
      "inputs": [
        {
          "internalType": "address",
          "name": "_miner",
          "type": "address"
        }
      ],
      "name": "FindBookingsByMiner",
      "outputs": [
        {
          "components": [
            {
              "internalType": "uint24",
              "name": "index",
              "type": "uint24"
            },
            {
              "internalType": "uint24",
              "name": "vmTypeId",
              "type": "uint24"
            },
            {
              "internalType": "address",
              "name": "miner",
              "type": "address"
            },
            {
              "internalType": "address",
              "name": "user",
              "type": "address"
            },
            {
              "internalType": "uint24",
              "name": "pricePerSecond",
              "type": "uint24"
            },
            {
              "internalType": "uint256",
              "name": "bookedAt",
              "type": "uint256"
            },
            {
              "internalType": "uint256",
              "name": "lastPayment",
              "type": "uint256"
            },
            {
              "internalType": "uint24",
              "name": "offerIndex",
              "type": "uint24"
            }
          ],
          "internalType": "struct BrokerV1.Booking[]",
          "name": "filteredBookings",
          "type": "tuple[]"
        }
      ],
      "stateMutability": "view",
      "type": "function"
    },
    {
      "inputs": [
        {
          "internalType": "address",
          "name": "_owner",
          "type": "address"
        }
      ],
      "name": "FindBookingsByUser",
      "outputs": [
        {
          "components": [
            {
              "internalType": "uint24",
              "name": "index",
              "type": "uint24"
            },
            {
              "internalType": "uint24",
              "name": "vmTypeId",
              "type": "uint24"
            },
            {
              "internalType": "address",
              "name": "miner",
              "type": "address"
            },
            {
              "internalType": "address",
              "name": "user",
              "type": "address"
            },
            {
              "internalType": "uint24",
              "name": "pricePerSecond",
              "type": "uint24"
            },
            {
              "internalType": "uint256",
              "name": "bookedAt",
              "type": "uint256"
            },
            {
              "internalType": "uint256",
              "name": "lastPayment",
              "type": "uint256"
            },
            {
              "internalType": "uint24",
              "name": "offerIndex",
              "type": "uint24"
            }
          ],
          "internalType": "struct BrokerV1.Booking[]",
          "name": "filteredBookings",
          "type": "tuple[]"
        }
      ],
      "stateMutability": "view",
      "type": "function"
    },
    {
      "inputs": [],
      "name": "GetAvailableOffers",
      "outputs": [
        {
          "components": [
            {
              "internalType": "uint24",
              "name": "index",
              "type": "uint24"
            },
            {
              "internalType": "address",
              "name": "miner",
              "type": "address"
            },
            {
              "internalType": "uint24",
              "name": "pricePerSecond",
              "type": "uint24"
            },
            {
              "internalType": "uint16",
              "name": "machinesAvailable",
              "type": "uint16"
            },
            {
              "internalType": "uint24",
              "name": "vmTypeId",
              "type": "uint24"
            },
            {
              "internalType": "bytes32",
              "name": "specsIpfsHash",
              "type": "bytes32"
            }
          ],
          "internalType": "struct BrokerV1.Offer[]",
          "name": "filteredOffers",
          "type": "tuple[]"
        }
      ],
      "stateMutability": "view",
      "type": "function"
    },
    {
      "inputs": [
        {
          "internalType": "uint24",
          "name": "index",
          "type": "uint24"
        }
      ],
      "name": "GetBooking",
      "outputs": [
        {
          "components": [
            {
              "internalType": "uint24",
              "name": "index",
              "type": "uint24"
            },
            {
              "internalType": "uint24",
              "name": "vmTypeId",
              "type": "uint24"
            },
            {
              "internalType": "address",
              "name": "miner",
              "type": "address"
            },
            {
              "internalType": "address",
              "name": "user",
              "type": "address"
            },
            {
              "internalType": "uint24",
              "name": "pricePerSecond",
              "type": "uint24"
            },
            {
              "internalType": "uint256",
              "name": "bookedAt",
              "type": "uint256"
            },
            {
              "internalType": "uint256",
              "name": "lastPayment",
              "type": "uint256"
            },
            {
              "internalType": "uint24",
              "name": "offerIndex",
              "type": "uint24"
            }
          ],
          "internalType": "struct BrokerV1.Booking",
          "name": "booking",
          "type": "tuple"
        }
      ],
      "stateMutability": "view",
      "type": "function"
    },
    {
      "inputs": [
        {
          "internalType": "address",
          "name": "user",
          "type": "address"
        }
      ],
      "name": "GetCoinBalance",
      "outputs": [
        {
          "internalType": "uint256",
          "name": "",
          "type": "uint256"
        },
        {
          "internalType": "uint256",
          "name": "",
          "type": "uint256"
        }
      ],
      "stateMutability": "view",
      "type": "function"
    },
    {
      "inputs": [
        {
          "internalType": "address",
          "name": "_user",
          "type": "address"
        }
      ],
      "name": "GetMinerUrl",
      "outputs": [
        {
          "internalType": "bytes32",
          "name": "",
          "type": "bytes32"
        }
      ],
      "stateMutability": "view",
      "type": "function"
    },
    {
      "inputs": [
        {
          "internalType": "address",
          "name": "miner",
          "type": "address"
        }
      ],
      "name": "GetMinersOffers",
      "outputs": [
        {
          "components": [
            {
              "internalType": "uint24",
              "name": "index",
              "type": "uint24"
            },
            {
              "internalType": "address",
              "name": "miner",
              "type": "address"
            },
            {
              "internalType": "uint24",
              "name": "pricePerSecond",
              "type": "uint24"
            },
            {
              "internalType": "uint16",
              "name": "machinesAvailable",
              "type": "uint16"
            },
            {
              "internalType": "uint24",
              "name": "vmTypeId",
              "type": "uint24"
            },
            {
              "internalType": "bytes32",
              "name": "specsIpfsHash",
              "type": "bytes32"
            }
          ],
          "internalType": "struct BrokerV1.Offer[]",
          "name": "filteredOffers",
          "type": "tuple[]"
        }
      ],
      "stateMutability": "view",
      "type": "function"
    },
    {
      "inputs": [
        {
          "internalType": "uint24",
          "name": "index",
          "type": "uint24"
        }
      ],
      "name": "GetOffer",
      "outputs": [
        {
          "components": [
            {
              "internalType": "uint24",
              "name": "index",
              "type": "uint24"
            },
            {
              "internalType": "address",
              "name": "miner",
              "type": "address"
            },
            {
              "internalType": "uint24",
              "name": "pricePerSecond",
              "type": "uint24"
            },
            {
              "internalType": "uint16",
              "name": "machinesAvailable",
              "type": "uint16"
            },
            {
              "internalType": "uint24",
              "name": "vmTypeId",
              "type": "uint24"
            },
            {
              "internalType": "bytes32",
              "name": "specsIpfsHash",
              "type": "bytes32"
            }
          ],
          "internalType": "struct BrokerV1.Offer",
          "name": "oneOffer",
          "type": "tuple"
        }
      ],
      "stateMutability": "view",
      "type": "function"
    },
    {
      "inputs": [],
      "name": "GetTime",
      "outputs": [
        {
          "internalType": "uint256",
          "name": "",
          "type": "uint256"
        }
      ],
      "stateMutability": "view",
      "type": "function"
    },
    {
      "inputs": [
        {
          "internalType": "uint24",
          "name": "offerIndex",
          "type": "uint24"
        }
      ],
      "name": "RemoveOffer",
      "outputs": [],
      "stateMutability": "nonpayable",
      "type": "function"
    },
    {
      "inputs": [],
      "name": "SECONDS_IN_WEEK",
      "outputs": [
        {
          "internalType": "uint64",
          "name": "",
          "type": "uint64"
        }
      ],
      "stateMutability": "view",
      "type": "function"
    },
    {
      "inputs": [
        {
          "internalType": "contract IERC20",
          "name": "newCoinAddress",
          "type": "address"
        }
      ],
      "name": "SetCoinAddress",
      "outputs": [],
      "stateMutability": "nonpayable",
      "type": "function"
    },
    {
      "inputs": [
        {
          "internalType": "address",
          "name": "newCommunityAddress",
          "type": "address"
        }
      ],
      "name": "SetCommunityContract",
      "outputs": [],
      "stateMutability": "nonpayable",
      "type": "function"
    },
    {
      "inputs": [
        {
          "internalType": "uint64",
          "name": "fee",
          "type": "uint64"
        }
      ],
      "name": "SetCommunityFee",
      "outputs": [
        {
          "internalType": "bool",
          "name": "",
          "type": "bool"
        }
      ],
      "stateMutability": "nonpayable",
      "type": "function"
    },
    {
      "inputs": [
        {
          "internalType": "bytes32",
          "name": "url",
          "type": "bytes32"
        }
      ],
      "name": "SetMinerUrl",
      "outputs": [],
      "stateMutability": "nonpayable",
      "type": "function"
    },
    {
      "inputs": [
        {
          "internalType": "uint24",
          "name": "bookingId",
          "type": "uint24"
        },
        {
          "internalType": "uint8",
          "name": "reason",
          "type": "uint8"
        }
      ],
      "name": "Terminate",
      "outputs": [],
      "stateMutability": "nonpayable",
      "type": "function"
    },
    {
      "inputs": [
        {
          "internalType": "uint24",
          "name": "offerIndex",
          "type": "uint24"
        },
        {
          "internalType": "uint16",
          "name": "machinesAvailable",
          "type": "uint16"
        },
        {
          "internalType": "uint24",
          "name": "pps",
          "type": "uint24"
        }
      ],
      "name": "UpdateOffer",
      "outputs": [],
      "stateMutability": "nonpayable",
      "type": "function"
    },
    {
      "inputs": [
        {
          "internalType": "uint256",
          "name": "amt",
          "type": "uint256"
        }
      ],
      "name": "WithdrawCoin",
      "outputs": [
        {
          "internalType": "bool",
          "name": "",
          "type": "bool"
        }
      ],
      "stateMutability": "nonpayable",
      "type": "function"
    },
    {
      "inputs": [],
      "name": "coin",
      "outputs": [
        {
          "internalType": "contract IERC20",
          "name": "",
          "type": "address"
        }
      ],
      "stateMutability": "view",
      "type": "function"
    },
    {
      "inputs": [],
      "name": "communityContract",
      "outputs": [
        {
          "internalType": "address",
          "name": "",
          "type": "address"
        }
      ],
      "stateMutability": "view",
      "type": "function"
    },
    {
      "inputs": [],
      "name": "communityFee",
      "outputs": [
        {
          "internalType": "uint64",
          "name": "",
          "type": "uint64"
        }
      ],
      "stateMutability": "view",
      "type": "function"
    }
  ],
  "bytecode": "0x608060405234801561001057600080fd5b50612710806100206000396000f3fe608060405234801561001057600080fd5b50600436106101a35760003560e01c80637b828689116100ee578063bfd7c02011610097578063e088b29e11610071578063e088b29e14610562578063e21886ae1461056c578063ed73fafb1461057f578063eef0e5de1461059257600080fd5b8063bfd7c0201461051c578063c2b723be1461052f578063d3554ab51461054f57600080fd5b8063a675768c116100c8578063a675768c146104cc578063b65c4b9c146104df578063bfc78539146104f457600080fd5b80637b828689146104725780638961be6b146104855780638e634029146104b957600080fd5b80632ee7c8591161015057806346e435b51161012a57806346e435b514610439578063534b3ccb1461044c5780636b620ed51461045f57600080fd5b80632ee7c859146103dd578063366445bf146103f05780633c6c780f1461041057600080fd5b806311df99951161018157806311df99951461038d57806318c5e502146103b857806323505f81146103c857600080fd5b8063043fdba0146101a85780630b62ba44146102a15780630e4485e71461036a575b600080fd5b61028b6101b636600461219a565b6040805161010081018252600080825260208201819052918101829052606081018290526080810182905260a0810182905260c0810182905260e08101919091525062ffffff90811660009081526002602081815260409283902083516101008101855281548087168252630100000081048716938201939093526001600160a01b03660100000000000090930483169481019490945260018101549182166060850152600160a01b909104841660808401529081015460a0830152600381015460c08301526004015490911660e082015290565b60405161029891906121bc565b60405180910390f35b61035d6102af36600461219a565b6040805160c081018252600080825260208201819052918101829052606081018290526080810182905260a08101919091525062ffffff90811660009081526020818152604091829020825160c081018452815480861682526001600160a01b03630100000082041693820193909352600160b81b830485169381019390935261ffff600160d01b8304166060840152600160e01b909104909216608082015260019091015460a082015290565b6040516102989190612236565b61037d610378366004612291565b6105a5565b6040519015158152602001610298565b6007546103a0906001600160a01b031681565b6040516001600160a01b039091168152602001610298565b425b604051908152602001610298565b6103db6103d636600461219a565b6106f3565b005b61037d6103eb3660046122bb565b6107b0565b6104036103fe3660046122ec565b6108c4565b6040516102989190612309565b6103ba61041e3660046122ec565b6001600160a01b031660009081526006602052604090205490565b6103db61044736600461219a565b610b78565b61040361045a3660046122ec565b610c33565b6103db61046d3660046122ec565b610ed8565b61037d6104803660046122bb565b610f9b565b6008546104a090600160a01b900467ffffffffffffffff1681565b60405167ffffffffffffffff9091168152602001610298565b6008546103a0906001600160a01b031681565b6103db6104da3660046122ec565b61111a565b6104e76111c8565b60405161029891906123bd565b6105076105023660046122ec565b611436565b60408051928352602083019190915201610298565b6104a061052a36600461245e565b611474565b6103db61053d3660046122bb565b33600090815260066020526040902055565b6104e761055d3660046122ec565b6115d4565b6104a062093a8081565b6104a061057a36600461219a565b611845565b6103db61058d36600461249a565b611bdf565b6103db6105a03660046124dd565b611cc2565b60006109c48267ffffffffffffffff161061062d5760405162461bcd60e51b815260206004820152603860248201527f636f6d6d756e697479206665652073686f756c6420626520696e2072616e676560448201527f206f662030202830252920746f2032353030202832352529000000000000000060648201526084015b60405180910390fd5b6008546001600160a01b031633146106ad5760405162461bcd60e51b815260206004820152602d60248201527f6f6e6c7920636f6d6d756e69747920636f6e74726163742063616e207365742060448201527f636f6d6d756e69747920666565000000000000000000000000000000000000006064820152608401610624565b506008805467ffffffffffffffff909216600160a01b027fffffffff0000000000000000ffffffffffffffffffffffffffffffffffffffff909216919091179055600090565b62ffffff8116600090815260208190526040902054630100000090046001600160a01b031633146107715760405162461bcd60e51b815260206004820152602260248201527f4f6e6c7920746865206f776e65722063616e2072656d6f766520616e206f666660448201526132b960f11b6064820152608401610624565b62ffffff16600090815260208190526040812080547fff0000000000000000000000000000000000000000000000000000000000000016815560010155565b6007546040517f23b872dd000000000000000000000000000000000000000000000000000000008152336004820152306024820152604481018390526000916001600160a01b0316906323b872dd906064016020604051808303816000875af1158015610821573d6000803e3d6000fd5b505050506040513d601f19601f82011682018060405250810190610845919061251a565b6108915760405162461bcd60e51b815260206004820152601960248201527f4661696c656420746f207472616e7366657220746f6b656e73000000000000006044820152606401610624565b336000908152600460205260409020546108ac908390612552565b33600090815260046020526040902055506001919050565b60035460609060009062ffffff1667ffffffffffffffff8111156108ea576108ea612565565b60405190808252806020026020018201604052801561095957816020015b604080516101008101825260008082526020808301829052928201819052606082018190526080820181905260a0820181905260c0820181905260e082015282526000199092019101816109085790505b5090506000805b60035462ffffff9081169082161015610a765762ffffff81166000908152600260205260409020546001600160a01b0380871666010000000000009092041603610a645762ffffff80821660009081526002602081815260409283902083516101008101855281548087168252630100000081048716938201939093526001600160a01b03660100000000000090930483169481019490945260018101549182166060850152600160a01b909104841660808401529081015460a0830152600381015460c083015260040154821660e0820152845190918591908516908110610a4b57610a4b61257b565b6020908102919091010152610a61600183612591565b91505b80610a6e816125b4565b915050610960565b508062ffffff1667ffffffffffffffff811115610a9557610a95612565565b604051908082528060200260200182016040528015610b0457816020015b604080516101008101825260008082526020808301829052928201819052606082018190526080820181905260a0820181905260c0820181905260e08201528252600019909201910181610ab35790505b50925060005b8162ffffff168162ffffff161015610b7057828162ffffff1681518110610b3357610b3361257b565b6020026020010151848262ffffff1681518110610b5257610b5261257b565b60200260200101819052508080610b68906125b4565b915050610b0a565b505050919050565b62ffffff8116600090815260026020526040902054660100000000000090046001600160a01b03163314610c145760405162461bcd60e51b815260206004820152602260248201527f4f6e6c7920746865206d696e65722063616e20636c61696d2061207061796d6560448201527f6e740000000000000000000000000000000000000000000000000000000000006064820152608401610624565b6000610c1f82611dae565b905080610c2f57610c2f82611ff9565b5050565b60035460609060009062ffffff1667ffffffffffffffff811115610c5957610c59612565565b604051908082528060200260200182016040528015610cc857816020015b604080516101008101825260008082526020808301829052928201819052606082018190526080820181905260a0820181905260c0820181905260e08201528252600019909201910181610c775790505b5090506000805b60035462ffffff9081169082161015610dde5762ffffff81166000908152600260205260409020600101546001600160a01b03808716911603610dcc5762ffffff80821660009081526002602081815260409283902083516101008101855281548087168252630100000081048716938201939093526001600160a01b03660100000000000090930483169481019490945260018101549182166060850152600160a01b909104841660808401529081015460a0830152600381015460c083015260040154821660e0820152845190918591908516908110610db357610db361257b565b6020908102919091010152610dc9600183612591565b91505b80610dd6816125b4565b915050610ccf565b508062ffffff1667ffffffffffffffff811115610dfd57610dfd612565565b604051908082528060200260200182016040528015610e6c57816020015b604080516101008101825260008082526020808301829052928201819052606082018190526080820181905260a0820181905260c0820181905260e08201528252600019909201910181610e1b5790505b50925060005b8162ffffff168162ffffff161015610b7057828162ffffff1681518110610e9b57610e9b61257b565b6020026020010151848262ffffff1681518110610eba57610eba61257b565b60200260200101819052508080610ed0906125b4565b915050610e72565b6008546001600160a01b0316331480610efa57506008546001600160a01b0316155b610f6c5760405162461bcd60e51b815260206004820152603660248201527f6f6e6c7920636f6d6d756e69747920636f6e74726163742063616e207365742060448201527f6e657720636f6d6d756e69747920636f6e7472616374000000000000000000006064820152608401610624565b6008805473ffffffffffffffffffffffffffffffffffffffff19166001600160a01b0392909216919091179055565b600080610fa733612145565b33600090815260046020526040902054610fc191906125d6565b9050828110156110135760405162461bcd60e51b815260206004820152601e60248201527f4e6f7420656e6f7567682062616c616e636520746f20776974686472617700006044820152606401610624565b6007546040517fa9059cbb000000000000000000000000000000000000000000000000000000008152336004820152602481018590526001600160a01b039091169063a9059cbb906044016020604051808303816000875af115801561107d573d6000803e3d6000fd5b505050506040513d601f19601f820116820180604052508101906110a1919061251a565b6110ed5760405162461bcd60e51b815260206004820152601560248201527f4552433230207472616e73666572206661696c656400000000000000000000006044820152606401610624565b336000908152600460205260408120805485929061110c9084906125d6565b909155506001949350505050565b6008546001600160a01b031633146111995760405162461bcd60e51b8152602060048201526024808201527f6f6e6c7920636f6d6d756e69747920636f6e74726163742063616e207365742060448201527f636f696e000000000000000000000000000000000000000000000000000000006064820152608401610624565b6007805473ffffffffffffffffffffffffffffffffffffffff19166001600160a01b0392909216919091179055565b60015460609060009062ffffff1667ffffffffffffffff8111156111ee576111ee612565565b60405190808252806020026020018201604052801561124e57816020015b6040805160c08101825260008082526020808301829052928201819052606082018190526080820181905260a0820152825260001990920191018161120c5790505b5090506000805b60015462ffffff90811690821610156113455762ffffff8116600090815260208190526040902054600160d01b900461ffff16156113335762ffffff80821660009081526020818152604091829020825160c081018452815480861682526001600160a01b03630100000082041693820193909352600160b81b830485169381019390935261ffff600160d01b8304166060840152600160e01b909104831660808301526001015460a082015284519091859190851690811061131a5761131a61257b565b6020908102919091010152611330600183612591565b91505b8061133d816125b4565b915050611255565b508062ffffff1667ffffffffffffffff81111561136457611364612565565b6040519080825280602002602001820160405280156113c457816020015b6040805160c08101825260008082526020808301829052928201819052606082018190526080820181905260a082015282526000199092019101816113825790505b50925060005b8162ffffff168162ffffff16101561143057828162ffffff16815181106113f3576113f361257b565b6020026020010151848262ffffff16815181106114125761141261257b565b60200260200101819052508080611428906125b4565b9150506113ca565b50505090565b600080600061144484612145565b6001600160a01b03851660009081526004602052604090205490915061146b9082906125d6565b94909350915050565b6040805160c0810182526001805462ffffff90811680845233602080860191825289841686880190815261ffff808b1660608901908152600060808a0181815260a08b018d815297825294819052998a209851895495519351915194518816600160e01b027fff000000ffffffffffffffffffffffffffffffffffffffffffffffffffffffff95909316600160d01b027fffffffff0000ffffffffffffffffffffffffffffffffffffffffffffffffffff928916600160b81b029290921664ffffffffff60b81b196001600160a01b039590951663010000000276ffffffffffffffffffffffffffffffffffffffffffffff1990971691891691909117959095179290921693909317171617845551928201929092558054909116908261159a836125b4565b82546101009290920a62ffffff818102199093169183160217909155600180546115c793509091166125e9565b62ffffff16949350505050565b60015460609060009062ffffff1667ffffffffffffffff8111156115fa576115fa612565565b60405190808252806020026020018201604052801561165a57816020015b6040805160c08101825260008082526020808301829052928201819052606082018190526080820181905260a082015282526000199092019101816116185790505b5090506000805b60015462ffffff908116908216101561175a5762ffffff81166000908152602081905260409020546001600160a01b03808716630100000090920416036117485762ffffff80821660009081526020818152604091829020825160c081018452815480861682526001600160a01b03630100000082041693820193909352600160b81b830485169381019390935261ffff600160d01b8304166060840152600160e01b909104831660808301526001015460a082015284519091859190851690811061172f5761172f61257b565b6020908102919091010152611745600183612591565b91505b80611752816125b4565b915050611661565b508062ffffff1667ffffffffffffffff81111561177957611779612565565b6040519080825280602002602001820160405280156117d957816020015b6040805160c08101825260008082526020808301829052928201819052606082018190526080820181905260a082015282526000199092019101816117975790505b50925060005b8162ffffff168162ffffff161015610b7057828162ffffff16815181106118085761180861257b565b6020026020010151848262ffffff16815181106118275761182761257b565b6020026020010181905250808061183d906125b4565b9150506117df565b62ffffff8116600090815260208190526040812054600160d01b900461ffff166118b15760405162461bcd60e51b815260206004820152601560248201527f4e6f206d616368696e657320617661696c61626c6500000000000000000000006044820152606401610624565b62ffffff80831660009081526020819052604081205490916118e09162093a8091600160b81b90910416612605565b67ffffffffffffffff166118f333612145565b6118fd9190612552565b336000908152600460205260409020549091508111156119ab5760405162461bcd60e51b815260206004820152605060248201527f596f7520646f6e2774206861766520656e6f7567682062616c616e636520746f60448201527f2070617920666f72207468697320616e6420616c6c206f7468657220426f6f6b60648201527f696e677320666f72203720646179732000000000000000000000000000000000608482015260a401610624565b60408051610100810182526003805462ffffff908116808452600060208086018281528a8516808452838352888420546001600160a01b03630100000080830482168b8d019081523360608d01908152600160b81b9094048a1660808d019081524260a08e0181815260c08f0191825260e08f019788529a8a526002988990529d89208d5181549851935186166601000000000000027fffffffffffff0000000000000000000000000000000000000000ffffffffffff948e1690950265ffffffffffff19909916908d16179790971791909116919091178555915160018501805493518a16600160a01b0276ffffffffffffffffffffffffffffffffffffffffffffff19909416919092161791909117905593519181019190915595518685015590516004909501805495831662ffffff19969096169590951790945581549293921691611af9836125b4565b82546101009290920a62ffffff81810219909316918316021790915585811660009081526020818152604080832054338452600590925282208054600160b81b9092049093169350611b5290849063ffffffff16612631565b92506101000a81548163ffffffff021916908363ffffffff16021790555060016000808662ffffff1662ffffff168152602001908152602001600020600001601a8282829054906101000a900461ffff16611bad919061264e565b825461ffff9182166101009390930a9283029190920219909116179055506003546115c79060019062ffffff166125e9565b62ffffff8316600090815260208190526040902054630100000090046001600160a01b03163314611c5d5760405162461bcd60e51b815260206004820152602260248201527f4f6e6c7920746865206f776e65722063616e2075706461746520616e206f666660448201526132b960f11b6064820152608401610624565b62ffffff9283166000908152602081905260409020805491909316600160b81b027fffffffffffff000000ffffffffffffffffffffffffffffffffffffffffffffff61ffff909316600160d01b029290921664ffffffffff60b81b1990911617179055565b62ffffff82166000908152600260205260409020600101546001600160a01b03163314611d315760405162461bcd60e51b815260206004820152601b60248201527f4f6e6c792074686520757365722063616e2073746f70206120564d00000000006044820152606401610624565b60ff811615611d9b5762ffffff82166000908152600260205260408082208054600190910154915160ff85169366010000000000009092046001600160a01b039081169316917f1db97daa25845ee925bd84e6cf559402b161e27653e3f3187c1859f98634c1c591a45b611da482611dae565b50610c2f82611ff9565b62ffffff81166000908152600260205260408120600301546001908290611dd590426125d6565b62ffffff80861660009081526002602052604081206001015492935091611e0591600160a01b9091041683612669565b62ffffff86166000908152600260209081526040808320600101546001600160a01b031683526004909152902054909150811115611e70575062ffffff84166000908152600260209081526040808320600101546001600160a01b0316835260049091528120549092505b60085460009061271090611e9590600160a01b900467ffffffffffffffff1684612669565b611e9f9190612680565b90506000611ead82846125d6565b62ffffff88166000908152600260209081526040808320426003909101556008546001600160a01b031683526004909152812080549293508492909190611ef5908490612552565b909155505062ffffff8716600090815260026020908152604080832054660100000000000090046001600160a01b03168352600490915281208054839290611f3e908490612552565b909155505062ffffff87166000908152600260209081526040808320600101546001600160a01b03168352600490915281208054859290611f809084906125d6565b909155505062ffffff87166000908152600260209081526040918290208054600190910154925184815266010000000000009091046001600160a01b039081169316917f8ed7db30df47fbd87811a5e8a95a94838f0c0241263d9a1865d6a2a3e10516e2910160405180910390a3509295945050505050565b62ffffff818116600090815260026020908152604080832060040154909316825281905220805460019190601a9061203d908490600160d01b900461ffff166126a2565b825461ffff9182166101009390930a92830291909202199091161790555062ffffff8082166000908152600260209081526040808320600101546001600160a01b0381168452600590925282208054600160a01b9092049093169291906120ab90849063ffffffff166126bd565b825463ffffffff9182166101009390930a92830291909202199091161790555062ffffff166000908152600260208190526040822080547fffffffffffff000000000000000000000000000000000000000000000000000016815560018101805476ffffffffffffffffffffffffffffffffffffffffffffff191690559081018290556003810191909155600401805462ffffff19169055565b6001600160a01b0381166000908152600560205260408120546121729062093a809063ffffffff16612605565b67ffffffffffffffff1692915050565b803562ffffff8116811461219557600080fd5b919050565b6000602082840312156121ac57600080fd5b6121b582612182565b9392505050565b6101008101612230828462ffffff80825116835280602083015116602084015260408201516001600160a01b038082166040860152806060850151166060860152505080608083015116608084015260a082015160a084015260c082015160c08401528060e08301511660e0840152505050565b92915050565b60c08101612230828462ffffff8082511683526001600160a01b03602083015116602084015280604083015116604084015261ffff60608301511660608401528060808301511660808401525060a081015160a08301525050565b6000602082840312156122a357600080fd5b813567ffffffffffffffff811681146121b557600080fd5b6000602082840312156122cd57600080fd5b5035919050565b6001600160a01b03811681146122e957600080fd5b50565b6000602082840312156122fe57600080fd5b81356121b5816122d4565b6020808252825182820181905260009190848201906040850190845b818110156123b15761239d83855162ffffff80825116835280602083015116602084015260408201516001600160a01b038082166040860152806060850151166060860152505080608083015116608084015260a082015160a084015260c082015160c08401528060e08301511660e0840152505050565b928401926101009290920191600101612325565b50909695505050505050565b6020808252825182820181905260009190848201906040850190845b818110156123b15761243983855162ffffff8082511683526001600160a01b03602083015116602084015280604083015116604084015261ffff60608301511660608401528060808301511660808401525060a081015160a08301525050565b9284019260c092909201916001016123d9565b803561ffff8116811461219557600080fd5b60008060006060848603121561247357600080fd5b61247c84612182565b925061248a6020850161244c565b9150604084013590509250925092565b6000806000606084860312156124af57600080fd5b6124b884612182565b92506124c66020850161244c565b91506124d460408501612182565b90509250925092565b600080604083850312156124f057600080fd5b6124f983612182565b9150602083013560ff8116811461250f57600080fd5b809150509250929050565b60006020828403121561252c57600080fd5b815180151581146121b557600080fd5b634e487b7160e01b600052601160045260246000fd5b808201808211156122305761223061253c565b634e487b7160e01b600052604160045260246000fd5b634e487b7160e01b600052603260045260246000fd5b62ffffff8181168382160190808211156125ad576125ad61253c565b5092915050565b600062ffffff8083168181036125cc576125cc61253c565b6001019392505050565b818103818111156122305761223061253c565b62ffffff8281168282160390808211156125ad576125ad61253c565b67ffffffffffffffff8181168382160280821691908281146126295761262961253c565b505092915050565b63ffffffff8181168382160190808211156125ad576125ad61253c565b61ffff8281168282160390808211156125ad576125ad61253c565b80820281158282048414176122305761223061253c565b60008261269d57634e487b7160e01b600052601260045260246000fd5b500490565b61ffff8181168382160190808211156125ad576125ad61253c565b63ffffffff8281168282160390808211156125ad576125ad61253c56fea264697066735822122020caed2b2745575f67655408c3ba81b21015023bcf28b08113f4a2ba4a81991264736f6c63430008110033",
  "linkReferences": {},
  "deployedLinkReferences": {}
}