{
  "_format": "hh-sol-artifact-1",
  "contractName": "BrokerV1",
  "sourceName": "contracts/BrokerV1.sol",
  "abi": [
    {
      "anonymous": false,
      "inputs": [
        {
          "indexed": true,
          "internalType": "address",
          "name": "user",
          "type": "address"
        },
        {
          "indexed": true,
          "internalType": "address",
          "name": "miner",
          "type": "address"
        },
        {
          "indexed": true,
          "internalType": "uint8",
          "name": "reason",
          "type": "uint8"
        }
      ],
      "name": "Complaint",
      "type": "event"
    },
    {
      "anonymous": false,
      "inputs": [
        {
          "indexed": true,
          "internalType": "address",
          "name": "user",
          "type": "address"
        },
        {
          "indexed": true,
          "internalType": "address",
          "name": "miner",
          "type": "address"
        },
        {
          "indexed": false,
          "internalType": "uint256",
          "name": "amount",
          "type": "uint256"
        }
      ],
      "name": "Payment",
      "type": "event"
    },
    {
      "inputs": [
        {
          "internalType": "uint64",
          "name": "pricePerSecond",
          "type": "uint64"
        },
        {
          "internalType": "uint64",
          "name": "vmTypeId",
          "type": "uint64"
        },
        {
          "internalType": "uint64",
          "name": "machinesAvailable",
          "type": "uint64"
        }
      ],
      "name": "AddOffer",
      "outputs": [
        {
          "internalType": "uint64",
          "name": "",
          "type": "uint64"
        }
      ],
      "stateMutability": "nonpayable",
      "type": "function"
    },
    {
      "inputs": [
        {
          "internalType": "uint64",
          "name": "offerIndex",
          "type": "uint64"
        }
      ],
      "name": "Book",
      "outputs": [
        {
          "internalType": "uint64",
          "name": "",
          "type": "uint64"
        }
      ],
      "stateMutability": "nonpayable",
      "type": "function"
    },
    {
      "inputs": [
        {
          "internalType": "uint64",
          "name": "bookingId",
          "type": "uint64"
        }
      ],
      "name": "ClaimPayment",
      "outputs": [],
      "stateMutability": "nonpayable",
      "type": "function"
    },
    {
      "inputs": [
        {
          "internalType": "uint256",
          "name": "numTokens",
          "type": "uint256"
        }
      ],
      "name": "DepositCoin",
      "outputs": [
        {
          "internalType": "bool",
          "name": "",
          "type": "bool"
        }
      ],
      "stateMutability": "nonpayable",
      "type": "function"
    },
    {
      "inputs": [
        {
          "internalType": "address",
          "name": "_miner",
          "type": "address"
        }
      ],
      "name": "FindBookingsByMiner",
      "outputs": [
        {
          "components": [
            {
              "internalType": "uint64",
              "name": "index",
              "type": "uint64"
            },
            {
              "internalType": "uint64",
              "name": "vmTypeId",
              "type": "uint64"
            },
            {
              "internalType": "address",
              "name": "miner",
              "type": "address"
            },
            {
              "internalType": "address",
              "name": "user",
              "type": "address"
            },
            {
              "internalType": "uint64",
              "name": "pricePerSecond",
              "type": "uint64"
            },
            {
              "internalType": "uint256",
              "name": "bookedAt",
              "type": "uint256"
            },
            {
              "internalType": "uint256",
              "name": "lastPayment",
              "type": "uint256"
            },
            {
              "internalType": "uint64",
              "name": "offerIndex",
              "type": "uint64"
            }
          ],
          "internalType": "struct BrokerV1.Booking[]",
          "name": "filteredBookings",
          "type": "tuple[]"
        }
      ],
      "stateMutability": "view",
      "type": "function"
    },
    {
      "inputs": [
        {
          "internalType": "address",
          "name": "_owner",
          "type": "address"
        }
      ],
      "name": "FindBookingsByUser",
      "outputs": [
        {
          "components": [
            {
              "internalType": "uint64",
              "name": "index",
              "type": "uint64"
            },
            {
              "internalType": "uint64",
              "name": "vmTypeId",
              "type": "uint64"
            },
            {
              "internalType": "address",
              "name": "miner",
              "type": "address"
            },
            {
              "internalType": "address",
              "name": "user",
              "type": "address"
            },
            {
              "internalType": "uint64",
              "name": "pricePerSecond",
              "type": "uint64"
            },
            {
              "internalType": "uint256",
              "name": "bookedAt",
              "type": "uint256"
            },
            {
              "internalType": "uint256",
              "name": "lastPayment",
              "type": "uint256"
            },
            {
              "internalType": "uint64",
              "name": "offerIndex",
              "type": "uint64"
            }
          ],
          "internalType": "struct BrokerV1.Booking[]",
          "name": "filteredBookings",
          "type": "tuple[]"
        }
      ],
      "stateMutability": "view",
      "type": "function"
    },
    {
      "inputs": [],
      "name": "GetAvailableOffers",
      "outputs": [
        {
          "components": [
            {
              "internalType": "uint64",
              "name": "index",
              "type": "uint64"
            },
            {
              "internalType": "address",
              "name": "miner",
              "type": "address"
            },
            {
              "internalType": "uint64",
              "name": "pricePerSecond",
              "type": "uint64"
            },
            {
              "internalType": "uint64",
              "name": "machinesAvailable",
              "type": "uint64"
            },
            {
              "internalType": "uint64",
              "name": "vmTypeId",
              "type": "uint64"
            }
          ],
          "internalType": "struct BrokerV1.Offer[]",
          "name": "filteredOffers",
          "type": "tuple[]"
        }
      ],
      "stateMutability": "view",
      "type": "function"
    },
    {
      "inputs": [
        {
          "internalType": "uint64",
          "name": "_vmTypeId",
          "type": "uint64"
        }
      ],
      "name": "GetAvailableOffersByType",
      "outputs": [
        {
          "components": [
            {
              "internalType": "uint64",
              "name": "index",
              "type": "uint64"
            },
            {
              "internalType": "address",
              "name": "miner",
              "type": "address"
            },
            {
              "internalType": "uint64",
              "name": "pricePerSecond",
              "type": "uint64"
            },
            {
              "internalType": "uint64",
              "name": "machinesAvailable",
              "type": "uint64"
            },
            {
              "internalType": "uint64",
              "name": "vmTypeId",
              "type": "uint64"
            }
          ],
          "internalType": "struct BrokerV1.Offer[]",
          "name": "filteredOffers",
          "type": "tuple[]"
        }
      ],
      "stateMutability": "view",
      "type": "function"
    },
    {
      "inputs": [
        {
          "internalType": "uint64",
          "name": "index",
          "type": "uint64"
        }
      ],
      "name": "GetBooking",
      "outputs": [
        {
          "components": [
            {
              "internalType": "uint64",
              "name": "index",
              "type": "uint64"
            },
            {
              "internalType": "uint64",
              "name": "vmTypeId",
              "type": "uint64"
            },
            {
              "internalType": "address",
              "name": "miner",
              "type": "address"
            },
            {
              "internalType": "address",
              "name": "user",
              "type": "address"
            },
            {
              "internalType": "uint64",
              "name": "pricePerSecond",
              "type": "uint64"
            },
            {
              "internalType": "uint256",
              "name": "bookedAt",
              "type": "uint256"
            },
            {
              "internalType": "uint256",
              "name": "lastPayment",
              "type": "uint256"
            },
            {
              "internalType": "uint64",
              "name": "offerIndex",
              "type": "uint64"
            }
          ],
          "internalType": "struct BrokerV1.Booking",
          "name": "booking",
          "type": "tuple"
        }
      ],
      "stateMutability": "view",
      "type": "function"
    },
    {
      "inputs": [
        {
          "internalType": "address",
          "name": "user",
          "type": "address"
        }
      ],
      "name": "GetCoinBalance",
      "outputs": [
        {
          "internalType": "uint256",
          "name": "",
          "type": "uint256"
        },
        {
          "internalType": "uint256",
          "name": "",
          "type": "uint256"
        }
      ],
      "stateMutability": "view",
      "type": "function"
    },
    {
      "inputs": [
        {
          "internalType": "address",
          "name": "_user",
          "type": "address"
        }
      ],
      "name": "GetMinerUrl",
      "outputs": [
        {
          "internalType": "bytes32",
          "name": "",
          "type": "bytes32"
        }
      ],
      "stateMutability": "view",
      "type": "function"
    },
    {
      "inputs": [
        {
          "internalType": "address",
          "name": "miner",
          "type": "address"
        }
      ],
      "name": "GetMinersOffers",
      "outputs": [
        {
          "components": [
            {
              "internalType": "uint64",
              "name": "index",
              "type": "uint64"
            },
            {
              "internalType": "address",
              "name": "miner",
              "type": "address"
            },
            {
              "internalType": "uint64",
              "name": "pricePerSecond",
              "type": "uint64"
            },
            {
              "internalType": "uint64",
              "name": "machinesAvailable",
              "type": "uint64"
            },
            {
              "internalType": "uint64",
              "name": "vmTypeId",
              "type": "uint64"
            }
          ],
          "internalType": "struct BrokerV1.Offer[]",
          "name": "filteredOffers",
          "type": "tuple[]"
        }
      ],
      "stateMutability": "view",
      "type": "function"
    },
    {
      "inputs": [],
      "name": "GetTime",
      "outputs": [
        {
          "internalType": "uint256",
          "name": "",
          "type": "uint256"
        }
      ],
      "stateMutability": "view",
      "type": "function"
    },
    {
      "inputs": [
        {
          "internalType": "uint64",
          "name": "offerIndex",
          "type": "uint64"
        }
      ],
      "name": "RemoveOffer",
      "outputs": [],
      "stateMutability": "nonpayable",
      "type": "function"
    },
    {
      "inputs": [],
      "name": "SECONDS_IN_WEEK",
      "outputs": [
        {
          "internalType": "uint64",
          "name": "",
          "type": "uint64"
        }
      ],
      "stateMutability": "view",
      "type": "function"
    },
    {
      "inputs": [
        {
          "internalType": "contract IERC20",
          "name": "newCoinAddress",
          "type": "address"
        }
      ],
      "name": "SetCoinAddress",
      "outputs": [],
      "stateMutability": "nonpayable",
      "type": "function"
    },
    {
      "inputs": [
        {
          "internalType": "address",
          "name": "newCommunityAddress",
          "type": "address"
        }
      ],
      "name": "SetCommunityContract",
      "outputs": [],
      "stateMutability": "nonpayable",
      "type": "function"
    },
    {
      "inputs": [
        {
          "internalType": "uint64",
          "name": "fee",
          "type": "uint64"
        }
      ],
      "name": "SetCommunityFee",
      "outputs": [
        {
          "internalType": "bool",
          "name": "",
          "type": "bool"
        }
      ],
      "stateMutability": "nonpayable",
      "type": "function"
    },
    {
      "inputs": [
        {
          "internalType": "bytes32",
          "name": "url",
          "type": "bytes32"
        }
      ],
      "name": "SetMinerUrl",
      "outputs": [],
      "stateMutability": "nonpayable",
      "type": "function"
    },
    {
      "inputs": [
        {
          "internalType": "uint64",
          "name": "bookingId",
          "type": "uint64"
        },
        {
          "internalType": "uint8",
          "name": "reason",
          "type": "uint8"
        }
      ],
      "name": "Terminate",
      "outputs": [],
      "stateMutability": "nonpayable",
      "type": "function"
    },
    {
      "inputs": [
        {
          "internalType": "uint64",
          "name": "offerIndex",
          "type": "uint64"
        },
        {
          "internalType": "uint64",
          "name": "machinesAvailable",
          "type": "uint64"
        },
        {
          "internalType": "uint64",
          "name": "pps",
          "type": "uint64"
        }
      ],
      "name": "UpdateOffer",
      "outputs": [],
      "stateMutability": "nonpayable",
      "type": "function"
    },
    {
      "inputs": [
        {
          "internalType": "uint256",
          "name": "amt",
          "type": "uint256"
        }
      ],
      "name": "WithdrawCoin",
      "outputs": [
        {
          "internalType": "bool",
          "name": "",
          "type": "bool"
        }
      ],
      "stateMutability": "nonpayable",
      "type": "function"
    },
    {
      "inputs": [],
      "name": "coin",
      "outputs": [
        {
          "internalType": "contract IERC20",
          "name": "",
          "type": "address"
        }
      ],
      "stateMutability": "view",
      "type": "function"
    },
    {
      "inputs": [],
      "name": "communityContract",
      "outputs": [
        {
          "internalType": "address",
          "name": "",
          "type": "address"
        }
      ],
      "stateMutability": "view",
      "type": "function"
    },
    {
      "inputs": [],
      "name": "communityFee",
      "outputs": [
        {
          "internalType": "uint64",
          "name": "",
          "type": "uint64"
        }
      ],
      "stateMutability": "view",
      "type": "function"
    }
  ],
  "bytecode": "0x608060405234801561001057600080fd5b50614b8f806100206000396000f3fe608060405234801561001057600080fd5b50600436106101735760003560e01c806388317656116100de578063bfc7853911610097578063d3554ab511610071578063d3554ab5146104ab578063de82b8cb146104db578063e088b29e146104f7578063f3fe369c1461051557610173565b8063bfc785391461042e578063c2161a051461045f578063c2b723be1461048f57610173565b8063883176561461036c5780638961be6b146103885780638e634029146103a65780638f351016146103c4578063a675768c146103f4578063b65c4b9c1461041057610173565b80633c6c780f116101305780633c6c780f146102745780633fec2ddf146102a4578063534b3ccb146102c05780635405b5e5146102f05780636b620ed5146103205780637b8286891461033c57610173565b80630e4485e71461017857806311df9995146101a857806318c5e502146101c65780632c4beedb146101e45780632ee7c85914610214578063366445bf14610244575b600080fd5b610192600480360381019061018d9190613973565b610531565b60405161019f91906139bb565b60405180910390f35b6101b0610643565b6040516101bd9190613a55565b60405180910390f35b6101ce610669565b6040516101db9190613a89565b60405180910390f35b6101fe60048036038101906101f99190613973565b610671565b60405161020b9190613ab3565b60405180910390f35b61022e60048036038101906102299190613afa565b610ca6565b60405161023b91906139bb565b60405180910390f35b61025e60048036038101906102599190613b65565b610e20565b60405161026b9190613d11565b60405180910390f35b61028e60048036038101906102899190613b65565b61123f565b60405161029b9190613d4c565b60405180910390f35b6102be60048036038101906102b99190613d67565b611288565b005b6102da60048036038101906102d59190613b65565b6113e4565b6040516102e79190613d11565b60405180910390f35b61030a60048036038101906103059190613973565b611803565b6040516103179190613ed1565b60405180910390f35b61033a60048036038101906103359190613b65565b611be5565b005b61035660048036038101906103519190613afa565b611d12565b60405161036391906139bb565b60405180910390f35b61038660048036038101906103819190613973565b611eec565b005b610390612062565b60405161039d9190613ab3565b60405180910390f35b6103ae61207c565b6040516103bb9190613f02565b60405180910390f35b6103de60048036038101906103d99190613d67565b6120a2565b6040516103eb9190613ab3565b60405180910390f35b61040e60048036038101906104099190613f5b565b6122d9565b005b6104186123ad565b6040516104259190613ed1565b60405180910390f35b61044860048036038101906104439190613b65565b612731565b604051610456929190613f88565b60405180910390f35b61047960048036038101906104749190613973565b612797565b6040516104869190614053565b60405180910390f35b6104a960048036038101906104a4919061409b565b612961565b005b6104c560048036038101906104c09190613b65565b6129a8565b6040516104d29190613ed1565b60405180910390f35b6104f560048036038101906104f09190614101565b612d5a565b005b6104ff612f27565b60405161050c9190613ab3565b60405180910390f35b61052f600480360381019061052a9190613973565b612f2e565b005b60006109c48267ffffffffffffffff1610610581576040517f08c379a0000000000000000000000000000000000000000000000000000000008152600401610578906141c4565b60405180910390fd5b600860009054906101000a900473ffffffffffffffffffffffffffffffffffffffff1673ffffffffffffffffffffffffffffffffffffffff163373ffffffffffffffffffffffffffffffffffffffff1614610611576040517f08c379a000000000000000000000000000000000000000000000000000000000815260040161060890614256565b60405180910390fd5b81600860146101000a81548167ffffffffffffffff021916908367ffffffffffffffff16021790555060009050919050565b600760009054906101000a900473ffffffffffffffffffffffffffffffffffffffff1681565b600042905090565b6000806000808467ffffffffffffffff1667ffffffffffffffff16815260200190815260200160002060010160089054906101000a900467ffffffffffffffff1667ffffffffffffffff16116106fc576040517f08c379a00000000000000000000000000000000000000000000000000000000081526004016106f3906142c2565b60405180910390fd5b600062093a806000808567ffffffffffffffff1667ffffffffffffffff16815260200190815260200160002060010160009054906101000a900467ffffffffffffffff1661074a9190614311565b67ffffffffffffffff1661075d33613006565b610767919061434e565b9050600460003373ffffffffffffffffffffffffffffffffffffffff1673ffffffffffffffffffffffffffffffffffffffff168152602001908152602001600020548111156107eb576040517f08c379a00000000000000000000000000000000000000000000000000000000081526004016107e29061441a565b60405180910390fd5b6000604051806101000160405280600360009054906101000a900467ffffffffffffffff1667ffffffffffffffff1681526020016000808767ffffffffffffffff1667ffffffffffffffff16815260200190815260200160002060010160109054906101000a900467ffffffffffffffff1667ffffffffffffffff1681526020016000808767ffffffffffffffff1667ffffffffffffffff16815260200190815260200160002060000160089054906101000a900473ffffffffffffffffffffffffffffffffffffffff1673ffffffffffffffffffffffffffffffffffffffff1681526020013373ffffffffffffffffffffffffffffffffffffffff1681526020016000808767ffffffffffffffff1667ffffffffffffffff16815260200190815260200160002060010160009054906101000a900467ffffffffffffffff1667ffffffffffffffff1681526020014281526020014281526020018567ffffffffffffffff1681525090508060026000600360009054906101000a900467ffffffffffffffff1667ffffffffffffffff1667ffffffffffffffff16815260200190815260200160002060008201518160000160006101000a81548167ffffffffffffffff021916908367ffffffffffffffff16021790555060208201518160000160086101000a81548167ffffffffffffffff021916908367ffffffffffffffff16021790555060408201518160010160006101000a81548173ffffffffffffffffffffffffffffffffffffffff021916908373ffffffffffffffffffffffffffffffffffffffff16021790555060608201518160020160006101000a81548173ffffffffffffffffffffffffffffffffffffffff021916908373ffffffffffffffffffffffffffffffffffffffff16021790555060808201518160020160146101000a81548167ffffffffffffffff021916908367ffffffffffffffff16021790555060a0820151816003015560c0820151816004015560e08201518160050160006101000a81548167ffffffffffffffff021916908367ffffffffffffffff1602179055509050506003600081819054906101000a900467ffffffffffffffff1680929190610b1b9061443a565b91906101000a81548167ffffffffffffffff021916908367ffffffffffffffff160217905550506000808567ffffffffffffffff1667ffffffffffffffff16815260200190815260200160002060010160009054906101000a900467ffffffffffffffff16600560003373ffffffffffffffffffffffffffffffffffffffff1673ffffffffffffffffffffffffffffffffffffffff16815260200190815260200160002060008282829054906101000a900467ffffffffffffffff16610be1919061446a565b92506101000a81548167ffffffffffffffff021916908367ffffffffffffffff16021790555060016000808667ffffffffffffffff1667ffffffffffffffff16815260200190815260200160002060010160088282829054906101000a900467ffffffffffffffff16610c5491906144a6565b92506101000a81548167ffffffffffffffff021916908367ffffffffffffffff1602179055506001600360009054906101000a900467ffffffffffffffff16610c9d91906144a6565b92505050919050565b6000600760009054906101000a900473ffffffffffffffffffffffffffffffffffffffff1673ffffffffffffffffffffffffffffffffffffffff166323b872dd3330856040518463ffffffff1660e01b8152600401610d07939291906144e2565b6020604051808303816000875af1158015610d26573d6000803e3d6000fd5b505050506040513d601f19601f82011682018060405250810190610d4a9190614545565b610d89576040517f08c379a0000000000000000000000000000000000000000000000000000000008152600401610d80906145be565b60405180910390fd5b81600460003373ffffffffffffffffffffffffffffffffffffffff1673ffffffffffffffffffffffffffffffffffffffff16815260200190815260200160002054610dd4919061434e565b600460003373ffffffffffffffffffffffffffffffffffffffff1673ffffffffffffffffffffffffffffffffffffffff1681526020019081526020016000208190555060019050919050565b60606000600360009054906101000a900467ffffffffffffffff1667ffffffffffffffff1667ffffffffffffffff811115610e5e57610e5d6145de565b5b604051908082528060200260200182016040528015610e9757816020015b610e84613828565b815260200190600190039081610e7c5790505b509050600080600090505b600360009054906101000a900467ffffffffffffffff1667ffffffffffffffff168167ffffffffffffffff161015611157578473ffffffffffffffffffffffffffffffffffffffff16600260008367ffffffffffffffff1667ffffffffffffffff16815260200190815260200160002060010160009054906101000a900473ffffffffffffffffffffffffffffffffffffffff1673ffffffffffffffffffffffffffffffffffffffff160361114457600260008267ffffffffffffffff1667ffffffffffffffff168152602001908152602001600020604051806101000160405290816000820160009054906101000a900467ffffffffffffffff1667ffffffffffffffff1667ffffffffffffffff1681526020016000820160089054906101000a900467ffffffffffffffff1667ffffffffffffffff1667ffffffffffffffff1681526020016001820160009054906101000a900473ffffffffffffffffffffffffffffffffffffffff1673ffffffffffffffffffffffffffffffffffffffff1673ffffffffffffffffffffffffffffffffffffffff1681526020016002820160009054906101000a900473ffffffffffffffffffffffffffffffffffffffff1673ffffffffffffffffffffffffffffffffffffffff1673ffffffffffffffffffffffffffffffffffffffff1681526020016002820160149054906101000a900467ffffffffffffffff1667ffffffffffffffff1667ffffffffffffffff16815260200160038201548152602001600482015481526020016005820160009054906101000a900467ffffffffffffffff1667ffffffffffffffff1667ffffffffffffffff1681525050838367ffffffffffffffff16815181106111295761112861460d565b5b6020026020010181905250600182611141919061446a565b91505b808061114f9061443a565b915050610ea2565b508067ffffffffffffffff1667ffffffffffffffff81111561117c5761117b6145de565b5b6040519080825280602002602001820160405280156111b557816020015b6111a2613828565b81526020019060019003908161119a5790505b50925060005b8167ffffffffffffffff168167ffffffffffffffff16101561123757828167ffffffffffffffff16815181106111f4576111f361460d565b5b6020026020010151848267ffffffffffffffff16815181106112195761121861460d565b5b6020026020010181905250808061122f9061443a565b9150506111bb565b505050919050565b6000600660008373ffffffffffffffffffffffffffffffffffffffff1673ffffffffffffffffffffffffffffffffffffffff168152602001908152602001600020549050919050565b3373ffffffffffffffffffffffffffffffffffffffff166000808567ffffffffffffffff1667ffffffffffffffff16815260200190815260200160002060000160089054906101000a900473ffffffffffffffffffffffffffffffffffffffff1673ffffffffffffffffffffffffffffffffffffffff161461133f576040517f08c379a0000000000000000000000000000000000000000000000000000000008152600401611336906146ae565b60405180910390fd5b816000808567ffffffffffffffff1667ffffffffffffffff16815260200190815260200160002060010160086101000a81548167ffffffffffffffff021916908367ffffffffffffffff160217905550806000808567ffffffffffffffff1667ffffffffffffffff16815260200190815260200160002060010160006101000a81548167ffffffffffffffff021916908367ffffffffffffffff160217905550505050565b60606000600360009054906101000a900467ffffffffffffffff1667ffffffffffffffff1667ffffffffffffffff811115611422576114216145de565b5b60405190808252806020026020018201604052801561145b57816020015b611448613828565b8152602001906001900390816114405790505b509050600080600090505b600360009054906101000a900467ffffffffffffffff1667ffffffffffffffff168167ffffffffffffffff16101561171b578473ffffffffffffffffffffffffffffffffffffffff16600260008367ffffffffffffffff1667ffffffffffffffff16815260200190815260200160002060020160009054906101000a900473ffffffffffffffffffffffffffffffffffffffff1673ffffffffffffffffffffffffffffffffffffffff160361170857600260008267ffffffffffffffff1667ffffffffffffffff168152602001908152602001600020604051806101000160405290816000820160009054906101000a900467ffffffffffffffff1667ffffffffffffffff1667ffffffffffffffff1681526020016000820160089054906101000a900467ffffffffffffffff1667ffffffffffffffff1667ffffffffffffffff1681526020016001820160009054906101000a900473ffffffffffffffffffffffffffffffffffffffff1673ffffffffffffffffffffffffffffffffffffffff1673ffffffffffffffffffffffffffffffffffffffff1681526020016002820160009054906101000a900473ffffffffffffffffffffffffffffffffffffffff1673ffffffffffffffffffffffffffffffffffffffff1673ffffffffffffffffffffffffffffffffffffffff1681526020016002820160149054906101000a900467ffffffffffffffff1667ffffffffffffffff1667ffffffffffffffff16815260200160038201548152602001600482015481526020016005820160009054906101000a900467ffffffffffffffff1667ffffffffffffffff1667ffffffffffffffff1681525050838367ffffffffffffffff16815181106116ed576116ec61460d565b5b6020026020010181905250600182611705919061446a565b91505b80806117139061443a565b915050611466565b508067ffffffffffffffff1667ffffffffffffffff8111156117405761173f6145de565b5b60405190808252806020026020018201604052801561177957816020015b611766613828565b81526020019060019003908161175e5790505b50925060005b8167ffffffffffffffff168167ffffffffffffffff1610156117fb57828167ffffffffffffffff16815181106117b8576117b761460d565b5b6020026020010151848267ffffffffffffffff16815181106117dd576117dc61460d565b5b602002602001018190525080806117f39061443a565b91505061177f565b505050919050565b60606000600160009054906101000a900467ffffffffffffffff1667ffffffffffffffff1667ffffffffffffffff811115611841576118406145de565b5b60405190808252806020026020018201604052801561187a57816020015b6118676138c1565b81526020019060019003908161185f5790505b509050600080600090505b600160009054906101000a900467ffffffffffffffff1667ffffffffffffffff168167ffffffffffffffff161015611afd578467ffffffffffffffff166000808367ffffffffffffffff1667ffffffffffffffff16815260200190815260200160002060010160109054906101000a900467ffffffffffffffff1667ffffffffffffffff1614801561195e575060008060008367ffffffffffffffff1667ffffffffffffffff16815260200190815260200160002060010160089054906101000a900467ffffffffffffffff1667ffffffffffffffff16115b15611aea576000808267ffffffffffffffff1667ffffffffffffffff1681526020019081526020016000206040518060a00160405290816000820160009054906101000a900467ffffffffffffffff1667ffffffffffffffff1667ffffffffffffffff1681526020016000820160089054906101000a900473ffffffffffffffffffffffffffffffffffffffff1673ffffffffffffffffffffffffffffffffffffffff1673ffffffffffffffffffffffffffffffffffffffff1681526020016001820160009054906101000a900467ffffffffffffffff1667ffffffffffffffff1667ffffffffffffffff1681526020016001820160089054906101000a900467ffffffffffffffff1667ffffffffffffffff1667ffffffffffffffff1681526020016001820160109054906101000a900467ffffffffffffffff1667ffffffffffffffff1667ffffffffffffffff1681525050838367ffffffffffffffff1681518110611acf57611ace61460d565b5b6020026020010181905250600182611ae7919061446a565b91505b8080611af59061443a565b915050611885565b508067ffffffffffffffff1667ffffffffffffffff811115611b2257611b216145de565b5b604051908082528060200260200182016040528015611b5b57816020015b611b486138c1565b815260200190600190039081611b405790505b50925060005b8167ffffffffffffffff168167ffffffffffffffff161015611bdd57828167ffffffffffffffff1681518110611b9a57611b9961460d565b5b6020026020010151848267ffffffffffffffff1681518110611bbf57611bbe61460d565b5b60200260200101819052508080611bd59061443a565b915050611b61565b505050919050565b600860009054906101000a900473ffffffffffffffffffffffffffffffffffffffff1673ffffffffffffffffffffffffffffffffffffffff163373ffffffffffffffffffffffffffffffffffffffff161480611c8f5750600073ffffffffffffffffffffffffffffffffffffffff16600860009054906101000a900473ffffffffffffffffffffffffffffffffffffffff1673ffffffffffffffffffffffffffffffffffffffff16145b611cce576040517f08c379a0000000000000000000000000000000000000000000000000000000008152600401611cc590614740565b60405180910390fd5b80600860006101000a81548173ffffffffffffffffffffffffffffffffffffffff021916908373ffffffffffffffffffffffffffffffffffffffff16021790555050565b600080611d1e33613006565b600460003373ffffffffffffffffffffffffffffffffffffffff1673ffffffffffffffffffffffffffffffffffffffff16815260200190815260200160002054611d689190614760565b905082811015611dad576040517f08c379a0000000000000000000000000000000000000000000000000000000008152600401611da4906147e0565b60405180910390fd5b600760009054906101000a900473ffffffffffffffffffffffffffffffffffffffff1673ffffffffffffffffffffffffffffffffffffffff1663a9059cbb33856040518363ffffffff1660e01b8152600401611e0a929190614800565b6020604051808303816000875af1158015611e29573d6000803e3d6000fd5b505050506040513d601f19601f82011682018060405250810190611e4d9190614545565b611e8c576040517f08c379a0000000000000000000000000000000000000000000000000000000008152600401611e8390614875565b60405180910390fd5b82600460003373ffffffffffffffffffffffffffffffffffffffff1673ffffffffffffffffffffffffffffffffffffffff1681526020019081526020016000206000828254611edb9190614760565b925050819055506001915050919050565b3373ffffffffffffffffffffffffffffffffffffffff166000808367ffffffffffffffff1667ffffffffffffffff16815260200190815260200160002060000160089054906101000a900473ffffffffffffffffffffffffffffffffffffffff1673ffffffffffffffffffffffffffffffffffffffff1614611fa3576040517f08c379a0000000000000000000000000000000000000000000000000000000008152600401611f9a90614907565b60405180910390fd5b6000808267ffffffffffffffff1667ffffffffffffffff168152602001908152602001600020600080820160006101000a81549067ffffffffffffffff02191690556000820160086101000a81549073ffffffffffffffffffffffffffffffffffffffff02191690556001820160006101000a81549067ffffffffffffffff02191690556001820160086101000a81549067ffffffffffffffff02191690556001820160106101000a81549067ffffffffffffffff0219169055505050565b600860149054906101000a900467ffffffffffffffff1681565b600860009054906101000a900473ffffffffffffffffffffffffffffffffffffffff1681565b60006040518060a00160405280600160009054906101000a900467ffffffffffffffff1667ffffffffffffffff1681526020013373ffffffffffffffffffffffffffffffffffffffff1681526020018567ffffffffffffffff1681526020018367ffffffffffffffff1681526020018467ffffffffffffffff16815250600080600160009054906101000a900467ffffffffffffffff1667ffffffffffffffff1667ffffffffffffffff16815260200190815260200160002060008201518160000160006101000a81548167ffffffffffffffff021916908367ffffffffffffffff16021790555060208201518160000160086101000a81548173ffffffffffffffffffffffffffffffffffffffff021916908373ffffffffffffffffffffffffffffffffffffffff16021790555060408201518160010160006101000a81548167ffffffffffffffff021916908367ffffffffffffffff16021790555060608201518160010160086101000a81548167ffffffffffffffff021916908367ffffffffffffffff16021790555060808201518160010160106101000a81548167ffffffffffffffff021916908367ffffffffffffffff1602179055509050506001600081819054906101000a900467ffffffffffffffff16809291906122879061443a565b91906101000a81548167ffffffffffffffff021916908367ffffffffffffffff1602179055505060018060009054906101000a900467ffffffffffffffff166122d091906144a6565b90509392505050565b600860009054906101000a900473ffffffffffffffffffffffffffffffffffffffff1673ffffffffffffffffffffffffffffffffffffffff163373ffffffffffffffffffffffffffffffffffffffff1614612369576040517f08c379a000000000000000000000000000000000000000000000000000000000815260040161236090614999565b60405180910390fd5b80600760006101000a81548173ffffffffffffffffffffffffffffffffffffffff021916908373ffffffffffffffffffffffffffffffffffffffff16021790555050565b60606000600160009054906101000a900467ffffffffffffffff1667ffffffffffffffff1667ffffffffffffffff8111156123eb576123ea6145de565b5b60405190808252806020026020018201604052801561242457816020015b6124116138c1565b8152602001906001900390816124095790505b509050600080600090505b600160009054906101000a900467ffffffffffffffff1667ffffffffffffffff168167ffffffffffffffff16101561264b5760008060008367ffffffffffffffff1667ffffffffffffffff16815260200190815260200160002060010160089054906101000a900467ffffffffffffffff1667ffffffffffffffff161115612638576000808267ffffffffffffffff1667ffffffffffffffff1681526020019081526020016000206040518060a00160405290816000820160009054906101000a900467ffffffffffffffff1667ffffffffffffffff1667ffffffffffffffff1681526020016000820160089054906101000a900473ffffffffffffffffffffffffffffffffffffffff1673ffffffffffffffffffffffffffffffffffffffff1673ffffffffffffffffffffffffffffffffffffffff1681526020016001820160009054906101000a900467ffffffffffffffff1667ffffffffffffffff1667ffffffffffffffff1681526020016001820160089054906101000a900467ffffffffffffffff1667ffffffffffffffff1667ffffffffffffffff1681526020016001820160109054906101000a900467ffffffffffffffff1667ffffffffffffffff1667ffffffffffffffff1681525050838367ffffffffffffffff168151811061261d5761261c61460d565b5b6020026020010181905250600182612635919061446a565b91505b80806126439061443a565b91505061242f565b508067ffffffffffffffff1667ffffffffffffffff8111156126705761266f6145de565b5b6040519080825280602002602001820160405280156126a957816020015b6126966138c1565b81526020019060019003908161268e5790505b50925060005b8167ffffffffffffffff168167ffffffffffffffff16101561272b57828167ffffffffffffffff16815181106126e8576126e761460d565b5b6020026020010151848267ffffffffffffffff168151811061270d5761270c61460d565b5b602002602001018190525080806127239061443a565b9150506126af565b50505090565b600080600061273f84613006565b905080600460008673ffffffffffffffffffffffffffffffffffffffff1673ffffffffffffffffffffffffffffffffffffffff1681526020019081526020016000205461278c9190614760565b819250925050915091565b61279f613828565b600260008367ffffffffffffffff1667ffffffffffffffff168152602001908152602001600020604051806101000160405290816000820160009054906101000a900467ffffffffffffffff1667ffffffffffffffff1667ffffffffffffffff1681526020016000820160089054906101000a900467ffffffffffffffff1667ffffffffffffffff1667ffffffffffffffff1681526020016001820160009054906101000a900473ffffffffffffffffffffffffffffffffffffffff1673ffffffffffffffffffffffffffffffffffffffff1673ffffffffffffffffffffffffffffffffffffffff1681526020016002820160009054906101000a900473ffffffffffffffffffffffffffffffffffffffff1673ffffffffffffffffffffffffffffffffffffffff1673ffffffffffffffffffffffffffffffffffffffff1681526020016002820160149054906101000a900467ffffffffffffffff1667ffffffffffffffff1667ffffffffffffffff16815260200160038201548152602001600482015481526020016005820160009054906101000a900467ffffffffffffffff1667ffffffffffffffff1667ffffffffffffffff16815250509050919050565b80600660003373ffffffffffffffffffffffffffffffffffffffff1673ffffffffffffffffffffffffffffffffffffffff1681526020019081526020016000208190555050565b60606000600160009054906101000a900467ffffffffffffffff1667ffffffffffffffff1667ffffffffffffffff8111156129e6576129e56145de565b5b604051908082528060200260200182016040528015612a1f57816020015b612a0c6138c1565b815260200190600190039081612a045790505b509050600080600090505b600160009054906101000a900467ffffffffffffffff1667ffffffffffffffff168167ffffffffffffffff161015612c72578473ffffffffffffffffffffffffffffffffffffffff166000808367ffffffffffffffff1667ffffffffffffffff16815260200190815260200160002060000160089054906101000a900473ffffffffffffffffffffffffffffffffffffffff1673ffffffffffffffffffffffffffffffffffffffff1603612c5f576000808267ffffffffffffffff1667ffffffffffffffff1681526020019081526020016000206040518060a00160405290816000820160009054906101000a900467ffffffffffffffff1667ffffffffffffffff1667ffffffffffffffff1681526020016000820160089054906101000a900473ffffffffffffffffffffffffffffffffffffffff1673ffffffffffffffffffffffffffffffffffffffff1673ffffffffffffffffffffffffffffffffffffffff1681526020016001820160009054906101000a900467ffffffffffffffff1667ffffffffffffffff1667ffffffffffffffff1681526020016001820160089054906101000a900467ffffffffffffffff1667ffffffffffffffff1667ffffffffffffffff1681526020016001820160109054906101000a900467ffffffffffffffff1667ffffffffffffffff1667ffffffffffffffff1681525050838367ffffffffffffffff1681518110612c4457612c4361460d565b5b6020026020010181905250600182612c5c919061446a565b91505b8080612c6a9061443a565b915050612a2a565b508067ffffffffffffffff1667ffffffffffffffff811115612c9757612c966145de565b5b604051908082528060200260200182016040528015612cd057816020015b612cbd6138c1565b815260200190600190039081612cb55790505b50925060005b8167ffffffffffffffff168167ffffffffffffffff161015612d5257828167ffffffffffffffff1681518110612d0f57612d0e61460d565b5b6020026020010151848267ffffffffffffffff1681518110612d3457612d3361460d565b5b60200260200101819052508080612d4a9061443a565b915050612cd6565b505050919050565b3373ffffffffffffffffffffffffffffffffffffffff16600260008467ffffffffffffffff1667ffffffffffffffff16815260200190815260200160002060020160009054906101000a900473ffffffffffffffffffffffffffffffffffffffff1673ffffffffffffffffffffffffffffffffffffffff1614612e12576040517f08c379a0000000000000000000000000000000000000000000000000000000008152600401612e0990614a05565b60405180910390fd5b60008160ff1614612f10578060ff16600260008467ffffffffffffffff1667ffffffffffffffff16815260200190815260200160002060010160009054906101000a900473ffffffffffffffffffffffffffffffffffffffff1673ffffffffffffffffffffffffffffffffffffffff16600260008567ffffffffffffffff1667ffffffffffffffff16815260200190815260200160002060020160009054906101000a900473ffffffffffffffffffffffffffffffffffffffff1673ffffffffffffffffffffffffffffffffffffffff167f1db97daa25845ee925bd84e6cf559402b161e27653e3f3187c1859f98634c1c560405160405180910390a45b612f198261307b565b50612f2382613570565b5050565b62093a8081565b3373ffffffffffffffffffffffffffffffffffffffff16600260008367ffffffffffffffff1667ffffffffffffffff16815260200190815260200160002060010160009054906101000a900473ffffffffffffffffffffffffffffffffffffffff1673ffffffffffffffffffffffffffffffffffffffff1614612fe6576040517f08c379a0000000000000000000000000000000000000000000000000000000008152600401612fdd90614a97565b60405180910390fd5b6000612ff18261307b565b9050806130025761300182613570565b5b5050565b600062093a80600560008473ffffffffffffffffffffffffffffffffffffffff1673ffffffffffffffffffffffffffffffffffffffff16815260200190815260200160002060009054906101000a900467ffffffffffffffff1661306a9190614311565b67ffffffffffffffff169050919050565b600080600190506000600260008567ffffffffffffffff1667ffffffffffffffff16815260200190815260200160002060040154426130ba9190614760565b90506000600260008667ffffffffffffffff1667ffffffffffffffff16815260200190815260200160002060020160149054906101000a900467ffffffffffffffff1667ffffffffffffffff16826131129190614ab7565b90508060046000600260008967ffffffffffffffff1667ffffffffffffffff16815260200190815260200160002060020160009054906101000a900473ffffffffffffffffffffffffffffffffffffffff1673ffffffffffffffffffffffffffffffffffffffff1673ffffffffffffffffffffffffffffffffffffffff1681526020019081526020016000205410156132365760046000600260008867ffffffffffffffff1667ffffffffffffffff16815260200190815260200160002060020160009054906101000a900473ffffffffffffffffffffffffffffffffffffffff1673ffffffffffffffffffffffffffffffffffffffff1673ffffffffffffffffffffffffffffffffffffffff168152602001908152602001600020549050600092505b6000612710600860149054906101000a900467ffffffffffffffff1667ffffffffffffffff16836132679190614ab7565b6132719190614b28565b9050600081836132819190614760565b905042600260008967ffffffffffffffff1667ffffffffffffffff168152602001908152602001600020600401819055508160046000600860009054906101000a900473ffffffffffffffffffffffffffffffffffffffff1673ffffffffffffffffffffffffffffffffffffffff1673ffffffffffffffffffffffffffffffffffffffff1681526020019081526020016000206000828254613323919061434e565b925050819055508060046000600260008b67ffffffffffffffff1667ffffffffffffffff16815260200190815260200160002060010160009054906101000a900473ffffffffffffffffffffffffffffffffffffffff1673ffffffffffffffffffffffffffffffffffffffff1673ffffffffffffffffffffffffffffffffffffffff16815260200190815260200160002060008282546133c3919061434e565b925050819055508260046000600260008b67ffffffffffffffff1667ffffffffffffffff16815260200190815260200160002060020160009054906101000a900473ffffffffffffffffffffffffffffffffffffffff1673ffffffffffffffffffffffffffffffffffffffff1673ffffffffffffffffffffffffffffffffffffffff16815260200190815260200160002060008282546134639190614760565b92505081905550600260008867ffffffffffffffff1667ffffffffffffffff16815260200190815260200160002060010160009054906101000a900473ffffffffffffffffffffffffffffffffffffffff1673ffffffffffffffffffffffffffffffffffffffff16600260008967ffffffffffffffff1667ffffffffffffffff16815260200190815260200160002060020160009054906101000a900473ffffffffffffffffffffffffffffffffffffffff1673ffffffffffffffffffffffffffffffffffffffff167f8ed7db30df47fbd87811a5e8a95a94838f0c0241263d9a1865d6a2a3e10516e28360405161355b9190613a89565b60405180910390a38495505050505050919050565b6001600080600260008567ffffffffffffffff1667ffffffffffffffff16815260200190815260200160002060050160009054906101000a900467ffffffffffffffff1667ffffffffffffffff1667ffffffffffffffff16815260200190815260200160002060010160088282829054906101000a900467ffffffffffffffff166135fb919061446a565b92506101000a81548167ffffffffffffffff021916908367ffffffffffffffff160217905550600260008267ffffffffffffffff1667ffffffffffffffff16815260200190815260200160002060020160149054906101000a900467ffffffffffffffff1660056000600260008567ffffffffffffffff1667ffffffffffffffff16815260200190815260200160002060020160009054906101000a900473ffffffffffffffffffffffffffffffffffffffff1673ffffffffffffffffffffffffffffffffffffffff1673ffffffffffffffffffffffffffffffffffffffff16815260200190815260200160002060008282829054906101000a900467ffffffffffffffff1661370b91906144a6565b92506101000a81548167ffffffffffffffff021916908367ffffffffffffffff160217905550600260008267ffffffffffffffff1667ffffffffffffffff168152602001908152602001600020600080820160006101000a81549067ffffffffffffffff02191690556000820160086101000a81549067ffffffffffffffff02191690556001820160006101000a81549073ffffffffffffffffffffffffffffffffffffffff02191690556002820160006101000a81549073ffffffffffffffffffffffffffffffffffffffff02191690556002820160146101000a81549067ffffffffffffffff0219169055600382016000905560048201600090556005820160006101000a81549067ffffffffffffffff0219169055505050565b604051806101000160405280600067ffffffffffffffff168152602001600067ffffffffffffffff168152602001600073ffffffffffffffffffffffffffffffffffffffff168152602001600073ffffffffffffffffffffffffffffffffffffffff168152602001600067ffffffffffffffff1681526020016000815260200160008152602001600067ffffffffffffffff1681525090565b6040518060a00160405280600067ffffffffffffffff168152602001600073ffffffffffffffffffffffffffffffffffffffff168152602001600067ffffffffffffffff168152602001600067ffffffffffffffff168152602001600067ffffffffffffffff1681525090565b600080fd5b600067ffffffffffffffff82169050919050565b61395081613933565b811461395b57600080fd5b50565b60008135905061396d81613947565b92915050565b6000602082840312156139895761398861392e565b5b60006139978482850161395e565b91505092915050565b60008115159050919050565b6139b5816139a0565b82525050565b60006020820190506139d060008301846139ac565b92915050565b600073ffffffffffffffffffffffffffffffffffffffff82169050919050565b6000819050919050565b6000613a1b613a16613a11846139d6565b6139f6565b6139d6565b9050919050565b6000613a2d82613a00565b9050919050565b6000613a3f82613a22565b9050919050565b613a4f81613a34565b82525050565b6000602082019050613a6a6000830184613a46565b92915050565b6000819050919050565b613a8381613a70565b82525050565b6000602082019050613a9e6000830184613a7a565b92915050565b613aad81613933565b82525050565b6000602082019050613ac86000830184613aa4565b92915050565b613ad781613a70565b8114613ae257600080fd5b50565b600081359050613af481613ace565b92915050565b600060208284031215613b1057613b0f61392e565b5b6000613b1e84828501613ae5565b91505092915050565b6000613b32826139d6565b9050919050565b613b4281613b27565b8114613b4d57600080fd5b50565b600081359050613b5f81613b39565b92915050565b600060208284031215613b7b57613b7a61392e565b5b6000613b8984828501613b50565b91505092915050565b600081519050919050565b600082825260208201905092915050565b6000819050602082019050919050565b613bc781613933565b82525050565b613bd681613b27565b82525050565b613be581613a70565b82525050565b61010082016000820151613c026000850182613bbe565b506020820151613c156020850182613bbe565b506040820151613c286040850182613bcd565b506060820151613c3b6060850182613bcd565b506080820151613c4e6080850182613bbe565b5060a0820151613c6160a0850182613bdc565b5060c0820151613c7460c0850182613bdc565b5060e0820151613c8760e0850182613bbe565b50505050565b6000613c998383613beb565b6101008301905092915050565b6000602082019050919050565b6000613cbe82613b92565b613cc88185613b9d565b9350613cd383613bae565b8060005b83811015613d04578151613ceb8882613c8d565b9750613cf683613ca6565b925050600181019050613cd7565b5085935050505092915050565b60006020820190508181036000830152613d2b8184613cb3565b905092915050565b6000819050919050565b613d4681613d33565b82525050565b6000602082019050613d616000830184613d3d565b92915050565b600080600060608486031215613d8057613d7f61392e565b5b6000613d8e8682870161395e565b9350506020613d9f8682870161395e565b9250506040613db08682870161395e565b9150509250925092565b600081519050919050565b600082825260208201905092915050565b6000819050602082019050919050565b60a082016000820151613dfc6000850182613bbe565b506020820151613e0f6020850182613bcd565b506040820151613e226040850182613bbe565b506060820151613e356060850182613bbe565b506080820151613e486080850182613bbe565b50505050565b6000613e5a8383613de6565b60a08301905092915050565b6000602082019050919050565b6000613e7e82613dba565b613e888185613dc5565b9350613e9383613dd6565b8060005b83811015613ec4578151613eab8882613e4e565b9750613eb683613e66565b925050600181019050613e97565b5085935050505092915050565b60006020820190508181036000830152613eeb8184613e73565b905092915050565b613efc81613b27565b82525050565b6000602082019050613f176000830184613ef3565b92915050565b6000613f2882613b27565b9050919050565b613f3881613f1d565b8114613f4357600080fd5b50565b600081359050613f5581613f2f565b92915050565b600060208284031215613f7157613f7061392e565b5b6000613f7f84828501613f46565b91505092915050565b6000604082019050613f9d6000830185613a7a565b613faa6020830184613a7a565b9392505050565b61010082016000820151613fc86000850182613bbe565b506020820151613fdb6020850182613bbe565b506040820151613fee6040850182613bcd565b5060608201516140016060850182613bcd565b5060808201516140146080850182613bbe565b5060a082015161402760a0850182613bdc565b5060c082015161403a60c0850182613bdc565b5060e082015161404d60e0850182613bbe565b50505050565b6000610100820190506140696000830184613fb1565b92915050565b61407881613d33565b811461408357600080fd5b50565b6000813590506140958161406f565b92915050565b6000602082840312156140b1576140b061392e565b5b60006140bf84828501614086565b91505092915050565b600060ff82169050919050565b6140de816140c8565b81146140e957600080fd5b50565b6000813590506140fb816140d5565b92915050565b600080604083850312156141185761411761392e565b5b60006141268582860161395e565b9250506020614137858286016140ec565b9150509250929050565b600082825260208201905092915050565b7f636f6d6d756e697479206665652073686f756c6420626520696e2072616e676560008201527f206f662030202830252920746f20323530302028323525290000000000000000602082015250565b60006141ae603883614141565b91506141b982614152565b604082019050919050565b600060208201905081810360008301526141dd816141a1565b9050919050565b7f6f6e6c7920636f6d6d756e69747920636f6e74726163742063616e207365742060008201527f636f6d6d756e6974792066656500000000000000000000000000000000000000602082015250565b6000614240602d83614141565b915061424b826141e4565b604082019050919050565b6000602082019050818103600083015261426f81614233565b9050919050565b7f4e6f206d616368696e657320617661696c61626c650000000000000000000000600082015250565b60006142ac601583614141565b91506142b782614276565b602082019050919050565b600060208201905081810360008301526142db8161429f565b9050919050565b7f4e487b7100000000000000000000000000000000000000000000000000000000600052601160045260246000fd5b600061431c82613933565b915061432783613933565b925082820261433581613933565b9150808214614347576143466142e2565b5b5092915050565b600061435982613a70565b915061436483613a70565b925082820190508082111561437c5761437b6142e2565b5b92915050565b7f596f7520646f6e2774206861766520656e6f7567682062616c616e636520746f60008201527f2070617920666f72207468697320616e6420616c6c206f7468657220426f6f6b60208201527f696e677320666f72203720646179732000000000000000000000000000000000604082015250565b6000614404605083614141565b915061440f82614382565b606082019050919050565b60006020820190508181036000830152614433816143f7565b9050919050565b600061444582613933565b915067ffffffffffffffff820361445f5761445e6142e2565b5b600182019050919050565b600061447582613933565b915061448083613933565b9250828201905067ffffffffffffffff8111156144a05761449f6142e2565b5b92915050565b60006144b182613933565b91506144bc83613933565b9250828203905067ffffffffffffffff8111156144dc576144db6142e2565b5b92915050565b60006060820190506144f76000830186613ef3565b6145046020830185613ef3565b6145116040830184613a7a565b949350505050565b614522816139a0565b811461452d57600080fd5b50565b60008151905061453f81614519565b92915050565b60006020828403121561455b5761455a61392e565b5b600061456984828501614530565b91505092915050565b7f4661696c656420746f207472616e7366657220746f6b656e7300000000000000600082015250565b60006145a8601983614141565b91506145b382614572565b602082019050919050565b600060208201905081810360008301526145d78161459b565b9050919050565b7f4e487b7100000000000000000000000000000000000000000000000000000000600052604160045260246000fd5b7f4e487b7100000000000000000000000000000000000000000000000000000000600052603260045260246000fd5b7f4f6e6c7920746865206f776e65722063616e2075706461746520616e206f666660008201527f6572000000000000000000000000000000000000000000000000000000000000602082015250565b6000614698602283614141565b91506146a38261463c565b604082019050919050565b600060208201905081810360008301526146c78161468b565b9050919050565b7f6f6e6c7920636f6d6d756e69747920636f6e74726163742063616e207365742060008201527f6e657720636f6d6d756e69747920636f6e747261637400000000000000000000602082015250565b600061472a603683614141565b9150614735826146ce565b604082019050919050565b600060208201905081810360008301526147598161471d565b9050919050565b600061476b82613a70565b915061477683613a70565b925082820390508181111561478e5761478d6142e2565b5b92915050565b7f4e6f7420656e6f7567682062616c616e636520746f2077697468647261770000600082015250565b60006147ca601e83614141565b91506147d582614794565b602082019050919050565b600060208201905081810360008301526147f9816147bd565b9050919050565b60006040820190506148156000830185613ef3565b6148226020830184613a7a565b9392505050565b7f4552433230207472616e73666572206661696c65640000000000000000000000600082015250565b600061485f601583614141565b915061486a82614829565b602082019050919050565b6000602082019050818103600083015261488e81614852565b9050919050565b7f4f6e6c7920746865206f776e65722063616e2072656d6f766520616e206f666660008201527f6572000000000000000000000000000000000000000000000000000000000000602082015250565b60006148f1602283614141565b91506148fc82614895565b604082019050919050565b60006020820190508181036000830152614920816148e4565b9050919050565b7f6f6e6c7920636f6d6d756e69747920636f6e74726163742063616e207365742060008201527f636f696e00000000000000000000000000000000000000000000000000000000602082015250565b6000614983602483614141565b915061498e82614927565b604082019050919050565b600060208201905081810360008301526149b281614976565b9050919050565b7f4f6e6c792074686520757365722063616e2073746f70206120564d0000000000600082015250565b60006149ef601b83614141565b91506149fa826149b9565b602082019050919050565b60006020820190508181036000830152614a1e816149e2565b9050919050565b7f4f6e6c7920746865206d696e65722063616e20636c61696d2061207061796d6560008201527f6e74000000000000000000000000000000000000000000000000000000000000602082015250565b6000614a81602283614141565b9150614a8c82614a25565b604082019050919050565b60006020820190508181036000830152614ab081614a74565b9050919050565b6000614ac282613a70565b9150614acd83613a70565b9250828202614adb81613a70565b91508282048414831517614af257614af16142e2565b5b5092915050565b7f4e487b7100000000000000000000000000000000000000000000000000000000600052601260045260246000fd5b6000614b3382613a70565b9150614b3e83613a70565b925082614b4e57614b4d614af9565b5b82820490509291505056fea2646970667358221220bc28a2a249ce63b3de162a3c8f2feedb76bdd9a2d1af8716de81f0f7eeae849464736f6c63430008110033",
  "linkReferences": {},
  "deployedLinkReferences": {}
}