{
  "_format": "hh-sol-artifact-1",
  "contractName": "BrokerV1",
  "sourceName": "contracts/BrokerV1.sol",
  "abi": [
    {
      "anonymous": false,
      "inputs": [
        {
          "indexed": true,
          "internalType": "address",
          "name": "user",
          "type": "address"
        },
        {
          "indexed": true,
          "internalType": "address",
          "name": "miner",
          "type": "address"
        },
        {
          "indexed": true,
          "internalType": "uint8",
          "name": "reason",
          "type": "uint8"
        }
      ],
      "name": "Complaint",
      "type": "event"
    },
    {
      "anonymous": false,
      "inputs": [
        {
          "indexed": true,
          "internalType": "address",
          "name": "user",
          "type": "address"
        },
        {
          "indexed": true,
          "internalType": "address",
          "name": "miner",
          "type": "address"
        },
        {
          "indexed": false,
          "internalType": "uint256",
          "name": "amount",
          "type": "uint256"
        }
      ],
      "name": "Payment",
      "type": "event"
    },
    {
      "inputs": [
        {
          "internalType": "uint64",
          "name": "pricePerSecond",
          "type": "uint64"
        },
        {
          "internalType": "uint64",
          "name": "machinesAvailable",
          "type": "uint64"
        },
        {
          "internalType": "bytes32",
          "name": "specsIpfsHash",
          "type": "bytes32"
        }
      ],
      "name": "AddOffer",
      "outputs": [
        {
          "internalType": "uint64",
          "name": "",
          "type": "uint64"
        }
      ],
      "stateMutability": "nonpayable",
      "type": "function"
    },
    {
      "inputs": [
        {
          "internalType": "uint64",
          "name": "offerIndex",
          "type": "uint64"
        }
      ],
      "name": "Book",
      "outputs": [
        {
          "internalType": "uint64",
          "name": "",
          "type": "uint64"
        }
      ],
      "stateMutability": "nonpayable",
      "type": "function"
    },
    {
      "inputs": [
        {
          "internalType": "uint64",
          "name": "bookingId",
          "type": "uint64"
        }
      ],
      "name": "ClaimPayment",
      "outputs": [],
      "stateMutability": "nonpayable",
      "type": "function"
    },
    {
      "inputs": [
        {
          "internalType": "uint256",
          "name": "numTokens",
          "type": "uint256"
        }
      ],
      "name": "DepositCoin",
      "outputs": [
        {
          "internalType": "bool",
          "name": "",
          "type": "bool"
        }
      ],
      "stateMutability": "nonpayable",
      "type": "function"
    },
    {
      "inputs": [
        {
          "internalType": "address",
          "name": "_miner",
          "type": "address"
        }
      ],
      "name": "FindBookingsByMiner",
      "outputs": [
        {
          "components": [
            {
              "internalType": "uint64",
              "name": "index",
              "type": "uint64"
            },
            {
              "internalType": "uint64",
              "name": "deprecated__vmTypeId",
              "type": "uint64"
            },
            {
              "internalType": "address",
              "name": "miner",
              "type": "address"
            },
            {
              "internalType": "address",
              "name": "user",
              "type": "address"
            },
            {
              "internalType": "uint64",
              "name": "pricePerSecond",
              "type": "uint64"
            },
            {
              "internalType": "uint256",
              "name": "bookedAt",
              "type": "uint256"
            },
            {
              "internalType": "uint256",
              "name": "lastPayment",
              "type": "uint256"
            },
            {
              "internalType": "uint64",
              "name": "offerIndex",
              "type": "uint64"
            }
          ],
          "internalType": "struct BrokerV1.Booking[]",
          "name": "filteredBookings",
          "type": "tuple[]"
        }
      ],
      "stateMutability": "view",
      "type": "function"
    },
    {
      "inputs": [
        {
          "internalType": "address",
          "name": "_owner",
          "type": "address"
        }
      ],
      "name": "FindBookingsByUser",
      "outputs": [
        {
          "components": [
            {
              "internalType": "uint64",
              "name": "index",
              "type": "uint64"
            },
            {
              "internalType": "uint64",
              "name": "deprecated__vmTypeId",
              "type": "uint64"
            },
            {
              "internalType": "address",
              "name": "miner",
              "type": "address"
            },
            {
              "internalType": "address",
              "name": "user",
              "type": "address"
            },
            {
              "internalType": "uint64",
              "name": "pricePerSecond",
              "type": "uint64"
            },
            {
              "internalType": "uint256",
              "name": "bookedAt",
              "type": "uint256"
            },
            {
              "internalType": "uint256",
              "name": "lastPayment",
              "type": "uint256"
            },
            {
              "internalType": "uint64",
              "name": "offerIndex",
              "type": "uint64"
            }
          ],
          "internalType": "struct BrokerV1.Booking[]",
          "name": "filteredBookings",
          "type": "tuple[]"
        }
      ],
      "stateMutability": "view",
      "type": "function"
    },
    {
      "inputs": [],
      "name": "GetAvailableOffers",
      "outputs": [
        {
          "components": [
            {
              "internalType": "uint64",
              "name": "index",
              "type": "uint64"
            },
            {
              "internalType": "address",
              "name": "miner",
              "type": "address"
            },
            {
              "internalType": "uint64",
              "name": "pricePerSecond",
              "type": "uint64"
            },
            {
              "internalType": "uint64",
              "name": "machinesAvailable",
              "type": "uint64"
            },
            {
              "internalType": "uint64",
              "name": "deprecated__vmTypeId",
              "type": "uint64"
            },
            {
              "internalType": "bytes32",
              "name": "specsIpfsHash",
              "type": "bytes32"
            }
          ],
          "internalType": "struct BrokerV1.Offer[]",
          "name": "filteredOffers",
          "type": "tuple[]"
        }
      ],
      "stateMutability": "view",
      "type": "function"
    },
    {
      "inputs": [
        {
          "internalType": "uint64",
          "name": "index",
          "type": "uint64"
        }
      ],
      "name": "GetBooking",
      "outputs": [
        {
          "components": [
            {
              "internalType": "uint64",
              "name": "index",
              "type": "uint64"
            },
            {
              "internalType": "uint64",
              "name": "deprecated__vmTypeId",
              "type": "uint64"
            },
            {
              "internalType": "address",
              "name": "miner",
              "type": "address"
            },
            {
              "internalType": "address",
              "name": "user",
              "type": "address"
            },
            {
              "internalType": "uint64",
              "name": "pricePerSecond",
              "type": "uint64"
            },
            {
              "internalType": "uint256",
              "name": "bookedAt",
              "type": "uint256"
            },
            {
              "internalType": "uint256",
              "name": "lastPayment",
              "type": "uint256"
            },
            {
              "internalType": "uint64",
              "name": "offerIndex",
              "type": "uint64"
            }
          ],
          "internalType": "struct BrokerV1.Booking",
          "name": "booking",
          "type": "tuple"
        }
      ],
      "stateMutability": "view",
      "type": "function"
    },
    {
      "inputs": [
        {
          "internalType": "address",
          "name": "user",
          "type": "address"
        }
      ],
      "name": "GetCoinBalance",
      "outputs": [
        {
          "internalType": "uint256",
          "name": "",
          "type": "uint256"
        },
        {
          "internalType": "uint256",
          "name": "",
          "type": "uint256"
        }
      ],
      "stateMutability": "view",
      "type": "function"
    },
    {
      "inputs": [
        {
          "internalType": "address",
          "name": "_user",
          "type": "address"
        }
      ],
      "name": "GetMinerUrl",
      "outputs": [
        {
          "internalType": "bytes32",
          "name": "",
          "type": "bytes32"
        }
      ],
      "stateMutability": "view",
      "type": "function"
    },
    {
      "inputs": [
        {
          "internalType": "address",
          "name": "miner",
          "type": "address"
        }
      ],
      "name": "GetMinersOffers",
      "outputs": [
        {
          "components": [
            {
              "internalType": "uint64",
              "name": "index",
              "type": "uint64"
            },
            {
              "internalType": "address",
              "name": "miner",
              "type": "address"
            },
            {
              "internalType": "uint64",
              "name": "pricePerSecond",
              "type": "uint64"
            },
            {
              "internalType": "uint64",
              "name": "machinesAvailable",
              "type": "uint64"
            },
            {
              "internalType": "uint64",
              "name": "deprecated__vmTypeId",
              "type": "uint64"
            },
            {
              "internalType": "bytes32",
              "name": "specsIpfsHash",
              "type": "bytes32"
            }
          ],
          "internalType": "struct BrokerV1.Offer[]",
          "name": "filteredOffers",
          "type": "tuple[]"
        }
      ],
      "stateMutability": "view",
      "type": "function"
    },
    {
      "inputs": [],
      "name": "GetTime",
      "outputs": [
        {
          "internalType": "uint256",
          "name": "",
          "type": "uint256"
        }
      ],
      "stateMutability": "view",
      "type": "function"
    },
    {
      "inputs": [
        {
          "internalType": "uint64",
          "name": "offerIndex",
          "type": "uint64"
        }
      ],
      "name": "RemoveOffer",
      "outputs": [],
      "stateMutability": "nonpayable",
      "type": "function"
    },
    {
      "inputs": [],
      "name": "SECONDS_IN_WEEK",
      "outputs": [
        {
          "internalType": "uint64",
          "name": "",
          "type": "uint64"
        }
      ],
      "stateMutability": "view",
      "type": "function"
    },
    {
      "inputs": [
        {
          "internalType": "contract IERC20",
          "name": "newCoinAddress",
          "type": "address"
        }
      ],
      "name": "SetCoinAddress",
      "outputs": [],
      "stateMutability": "nonpayable",
      "type": "function"
    },
    {
      "inputs": [
        {
          "internalType": "address",
          "name": "newCommunityAddress",
          "type": "address"
        }
      ],
      "name": "SetCommunityContract",
      "outputs": [],
      "stateMutability": "nonpayable",
      "type": "function"
    },
    {
      "inputs": [
        {
          "internalType": "uint64",
          "name": "fee",
          "type": "uint64"
        }
      ],
      "name": "SetCommunityFee",
      "outputs": [
        {
          "internalType": "bool",
          "name": "",
          "type": "bool"
        }
      ],
      "stateMutability": "nonpayable",
      "type": "function"
    },
    {
      "inputs": [
        {
          "internalType": "bytes32",
          "name": "url",
          "type": "bytes32"
        }
      ],
      "name": "SetMinerUrl",
      "outputs": [],
      "stateMutability": "nonpayable",
      "type": "function"
    },
    {
      "inputs": [
        {
          "internalType": "uint64",
          "name": "bookingId",
          "type": "uint64"
        },
        {
          "internalType": "uint8",
          "name": "reason",
          "type": "uint8"
        }
      ],
      "name": "Terminate",
      "outputs": [],
      "stateMutability": "nonpayable",
      "type": "function"
    },
    {
      "inputs": [
        {
          "internalType": "uint64",
          "name": "offerIndex",
          "type": "uint64"
        },
        {
          "internalType": "uint64",
          "name": "machinesAvailable",
          "type": "uint64"
        },
        {
          "internalType": "uint64",
          "name": "pps",
          "type": "uint64"
        }
      ],
      "name": "UpdateOffer",
      "outputs": [],
      "stateMutability": "nonpayable",
      "type": "function"
    },
    {
      "inputs": [
        {
          "internalType": "uint256",
          "name": "amt",
          "type": "uint256"
        }
      ],
      "name": "WithdrawCoin",
      "outputs": [
        {
          "internalType": "bool",
          "name": "",
          "type": "bool"
        }
      ],
      "stateMutability": "nonpayable",
      "type": "function"
    },
    {
      "inputs": [],
      "name": "coin",
      "outputs": [
        {
          "internalType": "contract IERC20",
          "name": "",
          "type": "address"
        }
      ],
      "stateMutability": "view",
      "type": "function"
    },
    {
      "inputs": [],
      "name": "communityContract",
      "outputs": [
        {
          "internalType": "address",
          "name": "",
          "type": "address"
        }
      ],
      "stateMutability": "view",
      "type": "function"
    },
    {
      "inputs": [],
      "name": "communityFee",
      "outputs": [
        {
          "internalType": "uint64",
          "name": "",
          "type": "uint64"
        }
      ],
      "stateMutability": "view",
      "type": "function"
    }
  ],
  "bytecode": "0x608060405234801561001057600080fd5b5061272d806100206000396000f3fe608060405234801561001057600080fd5b50600436106101985760003560e01c806388317656116100e3578063c2161a051161008c578063de82b8cb11610066578063de82b8cb1461049a578063e088b29e146104ad578063f3fe369c146104b757600080fd5b8063c2161a0514610378578063c2b723be14610467578063d3554ab51461048757600080fd5b8063a675768c116100bd578063a675768c14610328578063b65c4b9c1461033b578063bfc785391461035057600080fd5b806388317656146102e85780638961be6b146102fb5780638e6340291461031557600080fd5b80633c6c780f116101455780636b620ed51161011f5780636b620ed5146102af5780636eefdeb4146102c25780637b828689146102d557600080fd5b80633c6c780f1461025e5780633fec2ddf14610287578063534b3ccb1461029c57600080fd5b80632c4beedb116101765780632c4beedb146102005780632ee7c8591461022b578063366445bf1461023e57600080fd5b80630e4485e71461019d57806311df9995146101c557806318c5e502146101f0575b600080fd5b6101b06101ab3660046122a7565b6104ca565b60405190151581526020015b60405180910390f35b6007546101d8906001600160a01b031681565b6040516001600160a01b0390911681526020016101bc565b425b6040519081526020016101bc565b61021361020e3660046122a7565b610616565b6040516001600160401b0390911681526020016101bc565b6101b06102393660046122c9565b610b00565b61025161024c3660046122fa565b610c14565b6040516101bc9190612317565b6101f261026c3660046122fa565b6001600160a01b031660009081526006602052604090205490565b61029a6102953660046123cf565b610ed9565b005b6102516102aa3660046122fa565b610faf565b61029a6102bd3660046122fa565b61126d565b6102136102d0366004612412565b611330565b6101b06102e33660046122c9565b611478565b61029a6102f63660046122a7565b6115f7565b60085461021390600160a01b90046001600160401b031681565b6008546101d8906001600160a01b031681565b61029a6103363660046122fa565b6116e6565b610343611794565b6040516101bc919061244e565b61036361035e3660046122fa565b611a1d565b604080519283526020830191909152016101bc565b61045a6103863660046122a7565b6040805161010081018252600080825260208201819052918101829052606081018290526080810182905260a0810182905260c0810182905260e0810191909152506001600160401b0390811660009081526002602081815260409283902083516101008101855281548087168252600160401b900486169281019290925260018101546001600160a01b0390811694830194909452918201549283166060820152600160a01b90920483166080830152600381015460a0830152600481015460c08301526005015490911660e082015290565b6040516101bc91906124e1565b61029a6104753660046122c9565b33600090815260066020526040902055565b6103436104953660046122fa565b611a5b565b61029a6104a836600461255f565b611ce6565b61021362093a8081565b61029a6104c53660046122a7565b611dd8565b60006109c4826001600160401b0316106105515760405162461bcd60e51b815260206004820152603860248201527f636f6d6d756e697479206665652073686f756c6420626520696e2072616e676560448201527f206f662030202830252920746f2032353030202832352529000000000000000060648201526084015b60405180910390fd5b6008546001600160a01b031633146105d15760405162461bcd60e51b815260206004820152602d60248201527f6f6e6c7920636f6d6d756e69747920636f6e74726163742063616e207365742060448201527f636f6d6d756e69747920666565000000000000000000000000000000000000006064820152608401610548565b50600880546001600160401b03909216600160a01b027fffffffff0000000000000000ffffffffffffffffffffffffffffffffffffffff909216919091179055600090565b6001600160401b038082166000908152602081905260408120600101549091600160401b9091041661068a5760405162461bcd60e51b815260206004820152601560248201527f4e6f206d616368696e657320617661696c61626c6500000000000000000000006044820152606401610548565b6001600160401b0380831660009081526020819052604081206001015490916106b89162093a8091166125b2565b6001600160401b03166106ca33611e8c565b6106d491906125dd565b336000908152600460205260409020549091508111156107825760405162461bcd60e51b815260206004820152605060248201527f596f7520646f6e2774206861766520656e6f7567682062616c616e636520746f60448201527f2070617920666f72207468697320616e6420616c6c206f7468657220426f6f6b60648201527f696e677320666f72203720646179732000000000000000000000000000000000608482015260a401610548565b6000604051806101000160405280600360009054906101000a90046001600160401b03166001600160401b0316815260200160006001600160401b03168152602001600080876001600160401b03166001600160401b0316815260200190815260200160002060000160089054906101000a90046001600160a01b03166001600160a01b03168152602001336001600160a01b03168152602001600080876001600160401b03166001600160401b0316815260200190815260200160002060010160009054906101000a90046001600160401b03166001600160401b03168152602001428152602001428152602001856001600160401b031681525090508060026000600360009054906101000a90046001600160401b03166001600160401b03166001600160401b0316815260200190815260200160002060008201518160000160006101000a8154816001600160401b0302191690836001600160401b0316021790555060208201518160000160086101000a8154816001600160401b0302191690836001600160401b0316021790555060408201518160010160006101000a8154816001600160a01b0302191690836001600160a01b0316021790555060608201518160020160006101000a8154816001600160a01b0302191690836001600160a01b0316021790555060808201518160020160146101000a8154816001600160401b0302191690836001600160401b0316021790555060a0820151816003015560c0820151816004015560e08201518160050160006101000a8154816001600160401b0302191690836001600160401b031602179055509050506003600081819054906101000a90046001600160401b031680929190610a05906125f0565b82546101009290920a6001600160401b0381810219909316918316021790915585811660009081526020818152604080832060010154338452600590925282208054918416945092610a5991859116612616565b92506101000a8154816001600160401b0302191690836001600160401b031602179055506001600080866001600160401b03166001600160401b0316815260200190815260200160002060010160088282829054906101000a90046001600160401b0316610ac7919061263d565b82546101009290920a6001600160401b03818102199093169183160217909155600354610af892506001911661263d565b949350505050565b6007546040517f23b872dd000000000000000000000000000000000000000000000000000000008152336004820152306024820152604481018390526000916001600160a01b0316906323b872dd906064016020604051808303816000875af1158015610b71573d6000803e3d6000fd5b505050506040513d601f19601f82011682018060405250810190610b95919061265d565b610be15760405162461bcd60e51b815260206004820152601960248201527f4661696c656420746f207472616e7366657220746f6b656e73000000000000006044820152606401610548565b33600090815260046020526040902054610bfc9083906125dd565b33600090815260046020526040902055506001919050565b6003546060906000906001600160401b0390811690811115610c3857610c3861267f565b604051908082528060200260200182016040528015610ca757816020015b604080516101008101825260008082526020808301829052928201819052606082018190526080820181905260a0820181905260c0820181905260e08201528252600019909201910181610c565790505b5090506000805b6003546001600160401b039081169082161015610dc4576001600160401b0381166000908152600260205260409020600101546001600160a01b03808716911603610db2576001600160401b0380821660009081526002602081815260409283902083516101008101855281548087168252600160401b900486169281019290925260018101546001600160a01b0390811694830194909452918201549283166060820152600160a01b90920483166080830152600381015460a0830152600481015460c083015260050154821660e0820152845190918591908516908110610d9957610d99612695565b6020908102919091010152610daf600183612616565b91505b80610dbc816125f0565b915050610cae565b50806001600160401b03166001600160401b03811115610de657610de661267f565b604051908082528060200260200182016040528015610e5557816020015b604080516101008101825260008082526020808301829052928201819052606082018190526080820181905260a0820181905260c0820181905260e08201528252600019909201910181610e045790505b50925060005b816001600160401b0316816001600160401b03161015610ed15782816001600160401b031681518110610e9057610e90612695565b602002602001015184826001600160401b031681518110610eb357610eb3612695565b60200260200101819052508080610ec9906125f0565b915050610e5b565b505050919050565b6001600160401b038316600090815260208190526040902054600160401b90046001600160a01b03163314610f5b5760405162461bcd60e51b815260206004820152602260248201527f4f6e6c7920746865206f776e65722063616e2075706461746520616e206f666660448201526132b960f11b6064820152608401610548565b6001600160401b039283166000908152602081905260409020600101805491841667ffffffffffffffff1994909316600160401b02939093166fffffffffffffffffffffffffffffffff1990911617179055565b6003546060906000906001600160401b0390811690811115610fd357610fd361267f565b60405190808252806020026020018201604052801561104257816020015b604080516101008101825260008082526020808301829052928201819052606082018190526080820181905260a0820181905260c0820181905260e08201528252600019909201910181610ff15790505b5090506000805b6003546001600160401b039081169082161015611160576001600160401b038116600090815260026020819052604090912001546001600160a01b0380871691160361114e576001600160401b0380821660009081526002602081815260409283902083516101008101855281548087168252600160401b900486169281019290925260018101546001600160a01b0390811694830194909452918201549283166060820152600160a01b90920483166080830152600381015460a0830152600481015460c083015260050154821660e082015284519091859190851690811061113557611135612695565b602090810291909101015261114b600183612616565b91505b80611158816125f0565b915050611049565b50806001600160401b03166001600160401b038111156111825761118261267f565b6040519080825280602002602001820160405280156111f157816020015b604080516101008101825260008082526020808301829052928201819052606082018190526080820181905260a0820181905260c0820181905260e082015282526000199092019101816111a05790505b50925060005b816001600160401b0316816001600160401b03161015610ed15782816001600160401b03168151811061122c5761122c612695565b602002602001015184826001600160401b03168151811061124f5761124f612695565b60200260200101819052508080611265906125f0565b9150506111f7565b6008546001600160a01b031633148061128f57506008546001600160a01b0316155b6113015760405162461bcd60e51b815260206004820152603660248201527f6f6e6c7920636f6d6d756e69747920636f6e74726163742063616e207365742060448201527f6e657720636f6d6d756e69747920636f6e7472616374000000000000000000006064820152608401610548565b6008805473ffffffffffffffffffffffffffffffffffffffff19166001600160a01b0392909216919091179055565b6040805160c081018252600180546001600160401b039081168084523360208086019182528984168688019081528985166060880190815260006080890181815260a08a018c8152968252938190529889209751885494519087167fffffffff0000000000000000000000000000000000000000000000000000000090951694909417600160401b6001600160a01b03909516850217885590518787018054925193519187166fffffffffffffffffffffffffffffffff1990931692909217928616909302919091177fffffffffffffffff0000000000000000ffffffffffffffffffffffffffffffff16600160801b928516929092029190911790555160029093019290925580549091169082611447836125f0565b82546101009290920a6001600160401b0381810219909316918316021790915560018054610af8935090911661263d565b60008061148433611e8c565b3360009081526004602052604090205461149e91906126ab565b9050828110156114f05760405162461bcd60e51b815260206004820152601e60248201527f4e6f7420656e6f7567682062616c616e636520746f20776974686472617700006044820152606401610548565b6007546040517fa9059cbb000000000000000000000000000000000000000000000000000000008152336004820152602481018590526001600160a01b039091169063a9059cbb906044016020604051808303816000875af115801561155a573d6000803e3d6000fd5b505050506040513d601f19601f8201168201806040525081019061157e919061265d565b6115ca5760405162461bcd60e51b815260206004820152601560248201527f4552433230207472616e73666572206661696c656400000000000000000000006044820152606401610548565b33600090815260046020526040812080548592906115e99084906126ab565b909155506001949350505050565b6001600160401b038116600090815260208190526040902054600160401b90046001600160a01b031633146116795760405162461bcd60e51b815260206004820152602260248201527f4f6e6c7920746865206f776e65722063616e2072656d6f766520616e206f666660448201526132b960f11b6064820152608401610548565b6001600160401b0316600090815260208190526040812080547fffffffff000000000000000000000000000000000000000000000000000000001681556001810180547fffffffffffffffff00000000000000000000000000000000000000000000000016905560020155565b6008546001600160a01b031633146117655760405162461bcd60e51b8152602060048201526024808201527f6f6e6c7920636f6d6d756e69747920636f6e74726163742063616e207365742060448201527f636f696e000000000000000000000000000000000000000000000000000000006064820152608401610548565b6007805473ffffffffffffffffffffffffffffffffffffffff19166001600160a01b0392909216919091179055565b6001546060906000906001600160401b03908116908111156117b8576117b861267f565b60405190808252806020026020018201604052801561181857816020015b6040805160c08101825260008082526020808301829052928201819052606082018190526080820181905260a082015282526000199092019101816117d65790505b5090506000805b6001546001600160401b039081169082161015611919576001600160401b03808216600090815260208190526040902060010154600160401b90041615611907576001600160401b0380821660009081526020818152604091829020825160c081018452815480861682526001600160a01b03600160401b91829004169382019390935260018201548086169482019490945291830484166060830152600160801b9092048316608082015260029091015460a08201528451909185919085169081106118ee576118ee612695565b6020908102919091010152611904600183612616565b91505b80611911816125f0565b91505061181f565b50806001600160401b03166001600160401b0381111561193b5761193b61267f565b60405190808252806020026020018201604052801561199b57816020015b6040805160c08101825260008082526020808301829052928201819052606082018190526080820181905260a082015282526000199092019101816119595790505b50925060005b816001600160401b0316816001600160401b03161015611a175782816001600160401b0316815181106119d6576119d6612695565b602002602001015184826001600160401b0316815181106119f9576119f9612695565b60200260200101819052508080611a0f906125f0565b9150506119a1565b50505090565b6000806000611a2b84611e8c565b6001600160a01b038516600090815260046020526040902054909150611a529082906126ab565b94909350915050565b6001546060906000906001600160401b0390811690811115611a7f57611a7f61267f565b604051908082528060200260200182016040528015611adf57816020015b6040805160c08101825260008082526020808301829052928201819052606082018190526080820181905260a08201528252600019909201910181611a9d5790505b5090506000805b6001546001600160401b039081169082161015611be8576001600160401b0381166000908152602081905260409020546001600160a01b03808716600160401b9092041603611bd6576001600160401b0380821660009081526020818152604091829020825160c081018452815480861682526001600160a01b03600160401b91829004169382019390935260018201548086169482019490945291830484166060830152600160801b9092048316608082015260029091015460a0820152845190918591908516908110611bbd57611bbd612695565b6020908102919091010152611bd3600183612616565b91505b80611be0816125f0565b915050611ae6565b50806001600160401b03166001600160401b03811115611c0a57611c0a61267f565b604051908082528060200260200182016040528015611c6a57816020015b6040805160c08101825260008082526020808301829052928201819052606082018190526080820181905260a08201528252600019909201910181611c285790505b50925060005b816001600160401b0316816001600160401b03161015610ed15782816001600160401b031681518110611ca557611ca5612695565b602002602001015184826001600160401b031681518110611cc857611cc8612695565b60200260200101819052508080611cde906125f0565b915050611c70565b6001600160401b038216600090815260026020819052604090912001546001600160a01b03163314611d5a5760405162461bcd60e51b815260206004820152601b60248201527f4f6e6c792074686520757365722063616e2073746f70206120564d00000000006044820152606401610548565b60ff811615611dc1576001600160401b03821660009081526002602081905260408083206001810154920154905160ff8516936001600160a01b0393841693909216917f1db97daa25845ee925bd84e6cf559402b161e27653e3f3187c1859f98634c1c591a45b611dca82611ecb565b50611dd482612121565b5050565b6001600160401b0381166000908152600260205260409020600101546001600160a01b03163314611e715760405162461bcd60e51b815260206004820152602260248201527f4f6e6c7920746865206d696e65722063616e20636c61696d2061207061796d6560448201527f6e740000000000000000000000000000000000000000000000000000000000006064820152608401610548565b6000611e7c82611ecb565b905080611dd457611dd482612121565b6001600160a01b038116600090815260056020526040812054611ebc9062093a80906001600160401b03166125b2565b6001600160401b031692915050565b6001600160401b0381166000908152600260205260408120600401546001908290611ef690426126ab565b6001600160401b0380861660009081526002602081905260408220015492935091611f2a91600160a01b90910416836126be565b6001600160401b0386166000908152600260208181526040808420909201546001600160a01b0316835260049052902054909150811115611f9b57506001600160401b0384166000908152600260208181526040808420909201546001600160a01b03168352600490528120549092505b60085460009061271090611fbf90600160a01b90046001600160401b0316846126be565b611fc991906126d5565b90506000611fd782846126ab565b6001600160401b0388166000908152600260209081526040808320426004918201556008546001600160a01b031684529091528120805492935084929091906120219084906125dd565b90915550506001600160401b0387166000908152600260209081526040808320600101546001600160a01b031683526004909152812080548392906120679084906125dd565b90915550506001600160401b0387166000908152600260208181526040808420909201546001600160a01b0316835260049052812080548592906120ac9084906126ab565b90915550506001600160401b038716600090815260026020818152604092839020600181015492015492518481526001600160a01b039283169392909216917f8ed7db30df47fbd87811a5e8a95a94838f0c0241263d9a1865d6a2a3e10516e2910160405180910390a3509295945050505050565b6001600160401b0380821660009081526002602090815260408083206005015484168352908290529020600190810180549192909160089161216d918591600160401b90910416612616565b82546101009290920a6001600160401b038181021990931691831602179091558281166000908152600260208181526040808420909201546001600160a01b038116845260059091529082208054600160a01b90920484169450926121d49185911661263d565b82546101009290920a6001600160401b03818102199093169183160217909155919091166000908152600260208190526040822080546fffffffffffffffffffffffffffffffff1916815560018101805473ffffffffffffffffffffffffffffffffffffffff1916905590810180547fffffffff00000000000000000000000000000000000000000000000000000000169055600381018290556004810191909155600501805467ffffffffffffffff1916905550565b80356001600160401b03811681146122a257600080fd5b919050565b6000602082840312156122b957600080fd5b6122c28261228b565b9392505050565b6000602082840312156122db57600080fd5b5035919050565b6001600160a01b03811681146122f757600080fd5b50565b60006020828403121561230c57600080fd5b81356122c2816122e2565b6020808252825182820181905260009190848201906040850190845b818110156123c3576123af8385516001600160401b0380825116835280602083015116602084015260408201516001600160a01b038082166040860152806060850151166060860152505080608083015116608084015260a082015160a084015260c082015160c08401528060e08301511660e0840152505050565b928401926101009290920191600101612333565b50909695505050505050565b6000806000606084860312156123e457600080fd5b6123ed8461228b565b92506123fb6020850161228b565b91506124096040850161228b565b90509250925092565b60008060006060848603121561242757600080fd5b6124308461228b565b925061243e6020850161228b565b9150604084013590509250925092565b602080825282518282018190526000919060409081850190868401855b828110156124d457815180516001600160401b039081168652878201516001600160a01b031688870152868201518116878701526060808301518216908701526080808301519091169086015260a0908101519085015260c0909301929085019060010161246b565b5091979650505050505050565b610100810161255982846001600160401b0380825116835280602083015116602084015260408201516001600160a01b038082166040860152806060850151166060860152505080608083015116608084015260a082015160a084015260c082015160c08401528060e08301511660e0840152505050565b92915050565b6000806040838503121561257257600080fd5b61257b8361228b565b9150602083013560ff8116811461259157600080fd5b809150509250929050565b634e487b7160e01b600052601160045260246000fd5b6001600160401b038181168382160280821691908281146125d5576125d561259c565b505092915050565b808201808211156125595761255961259c565b60006001600160401b0380831681810361260c5761260c61259c565b6001019392505050565b6001600160401b038181168382160190808211156126365761263661259c565b5092915050565b6001600160401b038281168282160390808211156126365761263661259c565b60006020828403121561266f57600080fd5b815180151581146122c257600080fd5b634e487b7160e01b600052604160045260246000fd5b634e487b7160e01b600052603260045260246000fd5b818103818111156125595761255961259c565b80820281158282048414176125595761255961259c565b6000826126f257634e487b7160e01b600052601260045260246000fd5b50049056fea26469706673582212205ae138943c54ff0b0aa801b93464db23460460defad431aab38312279dcade6864736f6c63430008110033",
  "linkReferences": {},
  "deployedLinkReferences": {}
}