{
  "_format": "hh-sol-artifact-1",
  "contractName": "BrokerV1",
  "sourceName": "contracts/BrokerV1.sol",
  "abi": [
    {
      "anonymous": false,
      "inputs": [
        {
          "indexed": true,
          "internalType": "address",
          "name": "user",
          "type": "address"
        },
        {
          "indexed": true,
          "internalType": "address",
          "name": "miner",
          "type": "address"
        },
        {
          "indexed": true,
          "internalType": "uint8",
          "name": "reason",
          "type": "uint8"
        }
      ],
      "name": "Complaint",
      "type": "event"
    },
    {
      "anonymous": false,
      "inputs": [
        {
          "indexed": true,
          "internalType": "address",
          "name": "user",
          "type": "address"
        },
        {
          "indexed": true,
          "internalType": "address",
          "name": "miner",
          "type": "address"
        },
        {
          "indexed": false,
          "internalType": "uint256",
          "name": "amount",
          "type": "uint256"
        }
      ],
      "name": "Payment",
      "type": "event"
    },
    {
      "inputs": [
        {
          "internalType": "uint32",
          "name": "pricePerSecond",
          "type": "uint32"
        },
        {
          "internalType": "uint16",
          "name": "machinesAvailable",
          "type": "uint16"
        },
        {
          "internalType": "bytes32",
          "name": "specsIpfsHash",
          "type": "bytes32"
        }
      ],
      "name": "AddOffer",
      "outputs": [
        {
          "internalType": "uint32",
          "name": "",
          "type": "uint32"
        }
      ],
      "stateMutability": "nonpayable",
      "type": "function"
    },
    {
      "inputs": [
        {
          "internalType": "uint32",
          "name": "offerIndex",
          "type": "uint32"
        }
      ],
      "name": "Book",
      "outputs": [
        {
          "internalType": "uint32",
          "name": "",
          "type": "uint32"
        }
      ],
      "stateMutability": "nonpayable",
      "type": "function"
    },
    {
      "inputs": [
        {
          "internalType": "uint32",
          "name": "bookingId",
          "type": "uint32"
        }
      ],
      "name": "ClaimPayment",
      "outputs": [],
      "stateMutability": "nonpayable",
      "type": "function"
    },
    {
      "inputs": [
        {
          "internalType": "uint256",
          "name": "numTokens",
          "type": "uint256"
        }
      ],
      "name": "DepositCoin",
      "outputs": [
        {
          "internalType": "bool",
          "name": "",
          "type": "bool"
        }
      ],
      "stateMutability": "nonpayable",
      "type": "function"
    },
    {
      "inputs": [
        {
          "internalType": "address",
          "name": "_miner",
          "type": "address"
        }
      ],
      "name": "FindBookingsByMiner",
      "outputs": [
        {
          "components": [
            {
              "internalType": "uint32",
              "name": "index",
              "type": "uint32"
            },
            {
              "internalType": "uint32",
              "name": "offerIndex",
              "type": "uint32"
            },
            {
              "internalType": "uint32",
              "name": "pricePerSecond",
              "type": "uint32"
            },
            {
              "internalType": "uint256",
              "name": "bookedAt",
              "type": "uint256"
            },
            {
              "internalType": "uint256",
              "name": "lastPayment",
              "type": "uint256"
            },
            {
              "internalType": "address",
              "name": "miner",
              "type": "address"
            },
            {
              "internalType": "address",
              "name": "user",
              "type": "address"
            }
          ],
          "internalType": "struct BrokerV1.Booking[]",
          "name": "filteredBookings",
          "type": "tuple[]"
        }
      ],
      "stateMutability": "view",
      "type": "function"
    },
    {
      "inputs": [
        {
          "internalType": "address",
          "name": "_owner",
          "type": "address"
        }
      ],
      "name": "FindBookingsByUser",
      "outputs": [
        {
          "components": [
            {
              "internalType": "uint32",
              "name": "index",
              "type": "uint32"
            },
            {
              "internalType": "uint32",
              "name": "offerIndex",
              "type": "uint32"
            },
            {
              "internalType": "uint32",
              "name": "pricePerSecond",
              "type": "uint32"
            },
            {
              "internalType": "uint256",
              "name": "bookedAt",
              "type": "uint256"
            },
            {
              "internalType": "uint256",
              "name": "lastPayment",
              "type": "uint256"
            },
            {
              "internalType": "address",
              "name": "miner",
              "type": "address"
            },
            {
              "internalType": "address",
              "name": "user",
              "type": "address"
            }
          ],
          "internalType": "struct BrokerV1.Booking[]",
          "name": "filteredBookings",
          "type": "tuple[]"
        }
      ],
      "stateMutability": "view",
      "type": "function"
    },
    {
      "inputs": [],
      "name": "GetAvailableOffers",
      "outputs": [
        {
          "components": [
            {
              "internalType": "uint32",
              "name": "index",
              "type": "uint32"
            },
            {
              "internalType": "uint32",
              "name": "pricePerSecond",
              "type": "uint32"
            },
            {
              "internalType": "uint16",
              "name": "machinesAvailable",
              "type": "uint16"
            },
            {
              "internalType": "bytes32",
              "name": "specsIpfsHash",
              "type": "bytes32"
            },
            {
              "internalType": "address",
              "name": "miner",
              "type": "address"
            }
          ],
          "internalType": "struct BrokerV1.Offer[]",
          "name": "filteredOffers",
          "type": "tuple[]"
        }
      ],
      "stateMutability": "view",
      "type": "function"
    },
    {
      "inputs": [
        {
          "internalType": "uint32",
          "name": "index",
          "type": "uint32"
        }
      ],
      "name": "GetBooking",
      "outputs": [
        {
          "components": [
            {
              "internalType": "uint32",
              "name": "index",
              "type": "uint32"
            },
            {
              "internalType": "uint32",
              "name": "offerIndex",
              "type": "uint32"
            },
            {
              "internalType": "uint32",
              "name": "pricePerSecond",
              "type": "uint32"
            },
            {
              "internalType": "uint256",
              "name": "bookedAt",
              "type": "uint256"
            },
            {
              "internalType": "uint256",
              "name": "lastPayment",
              "type": "uint256"
            },
            {
              "internalType": "address",
              "name": "miner",
              "type": "address"
            },
            {
              "internalType": "address",
              "name": "user",
              "type": "address"
            }
          ],
          "internalType": "struct BrokerV1.Booking",
          "name": "booking",
          "type": "tuple"
        }
      ],
      "stateMutability": "view",
      "type": "function"
    },
    {
      "inputs": [
        {
          "internalType": "address",
          "name": "user",
          "type": "address"
        }
      ],
      "name": "GetCoinBalance",
      "outputs": [
        {
          "internalType": "uint256",
          "name": "",
          "type": "uint256"
        },
        {
          "internalType": "uint256",
          "name": "",
          "type": "uint256"
        }
      ],
      "stateMutability": "view",
      "type": "function"
    },
    {
      "inputs": [
        {
          "internalType": "address",
          "name": "_user",
          "type": "address"
        }
      ],
      "name": "GetMinerUrl",
      "outputs": [
        {
          "internalType": "bytes32",
          "name": "",
          "type": "bytes32"
        }
      ],
      "stateMutability": "view",
      "type": "function"
    },
    {
      "inputs": [
        {
          "internalType": "address",
          "name": "miner",
          "type": "address"
        }
      ],
      "name": "GetMinersOffers",
      "outputs": [
        {
          "components": [
            {
              "internalType": "uint32",
              "name": "index",
              "type": "uint32"
            },
            {
              "internalType": "uint32",
              "name": "pricePerSecond",
              "type": "uint32"
            },
            {
              "internalType": "uint16",
              "name": "machinesAvailable",
              "type": "uint16"
            },
            {
              "internalType": "bytes32",
              "name": "specsIpfsHash",
              "type": "bytes32"
            },
            {
              "internalType": "address",
              "name": "miner",
              "type": "address"
            }
          ],
          "internalType": "struct BrokerV1.Offer[]",
          "name": "filteredOffers",
          "type": "tuple[]"
        }
      ],
      "stateMutability": "view",
      "type": "function"
    },
    {
      "inputs": [
        {
          "internalType": "uint32",
          "name": "index",
          "type": "uint32"
        }
      ],
      "name": "GetOffer",
      "outputs": [
        {
          "components": [
            {
              "internalType": "uint32",
              "name": "index",
              "type": "uint32"
            },
            {
              "internalType": "uint32",
              "name": "pricePerSecond",
              "type": "uint32"
            },
            {
              "internalType": "uint16",
              "name": "machinesAvailable",
              "type": "uint16"
            },
            {
              "internalType": "bytes32",
              "name": "specsIpfsHash",
              "type": "bytes32"
            },
            {
              "internalType": "address",
              "name": "miner",
              "type": "address"
            }
          ],
          "internalType": "struct BrokerV1.Offer",
          "name": "oneOffer",
          "type": "tuple"
        }
      ],
      "stateMutability": "view",
      "type": "function"
    },
    {
      "inputs": [],
      "name": "GetTime",
      "outputs": [
        {
          "internalType": "uint256",
          "name": "",
          "type": "uint256"
        }
      ],
      "stateMutability": "view",
      "type": "function"
    },
    {
      "inputs": [
        {
          "internalType": "uint32",
          "name": "offerIndex",
          "type": "uint32"
        }
      ],
      "name": "RemoveOffer",
      "outputs": [],
      "stateMutability": "nonpayable",
      "type": "function"
    },
    {
      "inputs": [],
      "name": "SECONDS_IN_WEEK",
      "outputs": [
        {
          "internalType": "uint64",
          "name": "",
          "type": "uint64"
        }
      ],
      "stateMutability": "view",
      "type": "function"
    },
    {
      "inputs": [
        {
          "internalType": "contract IERC20",
          "name": "newCoinAddress",
          "type": "address"
        }
      ],
      "name": "SetCoinAddress",
      "outputs": [],
      "stateMutability": "nonpayable",
      "type": "function"
    },
    {
      "inputs": [
        {
          "internalType": "address",
          "name": "newCommunityAddress",
          "type": "address"
        }
      ],
      "name": "SetCommunityContract",
      "outputs": [],
      "stateMutability": "nonpayable",
      "type": "function"
    },
    {
      "inputs": [
        {
          "internalType": "uint16",
          "name": "fee",
          "type": "uint16"
        }
      ],
      "name": "SetCommunityFee",
      "outputs": [
        {
          "internalType": "bool",
          "name": "",
          "type": "bool"
        }
      ],
      "stateMutability": "nonpayable",
      "type": "function"
    },
    {
      "inputs": [
        {
          "internalType": "bytes32",
          "name": "url",
          "type": "bytes32"
        }
      ],
      "name": "SetMinerUrl",
      "outputs": [],
      "stateMutability": "nonpayable",
      "type": "function"
    },
    {
      "inputs": [
        {
          "internalType": "uint32",
          "name": "bookingId",
          "type": "uint32"
        },
        {
          "internalType": "uint8",
          "name": "reason",
          "type": "uint8"
        }
      ],
      "name": "Terminate",
      "outputs": [],
      "stateMutability": "nonpayable",
      "type": "function"
    },
    {
      "inputs": [
        {
          "internalType": "uint32",
          "name": "offerIndex",
          "type": "uint32"
        },
        {
          "internalType": "uint16",
          "name": "machinesAvailable",
          "type": "uint16"
        },
        {
          "internalType": "uint32",
          "name": "pps",
          "type": "uint32"
        }
      ],
      "name": "UpdateOffer",
      "outputs": [],
      "stateMutability": "nonpayable",
      "type": "function"
    },
    {
      "inputs": [
        {
          "internalType": "uint256",
          "name": "amt",
          "type": "uint256"
        }
      ],
      "name": "WithdrawCoin",
      "outputs": [
        {
          "internalType": "bool",
          "name": "",
          "type": "bool"
        }
      ],
      "stateMutability": "nonpayable",
      "type": "function"
    },
    {
      "inputs": [],
      "name": "coin",
      "outputs": [
        {
          "internalType": "contract IERC20",
          "name": "",
          "type": "address"
        }
      ],
      "stateMutability": "view",
      "type": "function"
    },
    {
      "inputs": [],
      "name": "communityContract",
      "outputs": [
        {
          "internalType": "address",
          "name": "",
          "type": "address"
        }
      ],
      "stateMutability": "view",
      "type": "function"
    },
    {
      "inputs": [],
      "name": "communityFee",
      "outputs": [
        {
          "internalType": "uint16",
          "name": "",
          "type": "uint16"
        }
      ],
      "stateMutability": "view",
      "type": "function"
    }
  ],
  "bytecode": "0x608060405234801561001057600080fd5b50612c71806100206000396000f3fe608060405234801561001057600080fd5b50600436106101a35760003560e01c80637b828689116100ee578063bfc054e311610097578063c2b723be11610071578063c2b723be146104e4578063d3554ab514610504578063e088b29e14610517578063e2a5aa6e1461053a57600080fd5b8063bfc054e3146103be578063bfc78539146103d1578063c1fab57d146103f957600080fd5b8063a675768c116100c8578063a675768c14610383578063b65c4b9c14610396578063bac32356146103ab57600080fd5b80637b828689146103175780638961be6b1461032a5780638e6340291461036357600080fd5b8063366445bf1161015057806349874c401161012a57806349874c40146102de578063534b3ccb146102f15780636b620ed51461030457600080fd5b8063366445bf146102755780633abdd2f2146102955780633c6c780f146102a857600080fd5b80632bc209d6116101815780632bc209d61461022a5780632ee7c8591461023f57806331eda5871461026257600080fd5b8063081c4329146101a857806311df9995146101d557806318c5e5021461021a575b600080fd5b6101bb6101b63660046126ca565b610600565b60405163ffffffff90911681526020015b60405180910390f35b6007546101f59073ffffffffffffffffffffffffffffffffffffffff1681565b60405173ffffffffffffffffffffffffffffffffffffffff90911681526020016101cc565b425b6040519081526020016101cc565b61023d6102383660046126ca565b6109e7565b005b61025261024d3660046126ec565b610ac3565b60405190151581526020016101cc565b61023d610270366004612717565b610bfe565b61028861028336600461277f565b610d3e565b6040516101cc919061279c565b6101bb6102a3366004612851565b611030565b61021c6102b636600461277f565b73ffffffffffffffffffffffffffffffffffffffff1660009081526006602052604090205490565b61023d6102ec36600461288d565b611184565b6102886102ff36600461277f565b611342565b61023d61031236600461277f565b61162c565b6102526103253660046126ec565b61173b565b6008546103509074010000000000000000000000000000000000000000900461ffff1681565b60405161ffff90911681526020016101cc565b6008546101f59073ffffffffffffffffffffffffffffffffffffffff1681565b61023d61039136600461277f565b6118fb565b61039e6119e8565b6040516101cc91906128ca565b61023d6103b93660046126ca565b611c97565b6102526103cc36600461295b565b611dc1565b6103e46103df36600461277f565b611f50565b604080519283526020830191909152016101cc565b6104d76104073660046126ca565b6040805160e081018252600080825260208201819052918101829052606081018290526080810182905260a0810182905260c08101919091525063ffffffff908116600090815260026020818152604092839020835160e0810185528154808716825264010000000081048716938201939093526801000000000000000090920490941692810192909252600183015460608301528201546080820152600382015473ffffffffffffffffffffffffffffffffffffffff90811660a083015260049092015490911660c082015290565b6040516101cc9190612976565b61023d6104f23660046126ec565b33600090815260066020526040902055565b61039e61051236600461277f565b611f9b565b61052162093a8081565b60405167ffffffffffffffff90911681526020016101cc565b6105f36105483660046126ca565b6040805160a0810182526000808252602082018190529181018290526060810182905260808101919091525063ffffffff90811660009081526020818152604091829020825160a081018452815480861682526401000000008104909516928101929092526801000000000000000090930461ffff16918101919091526001820154606082015260029091015473ffffffffffffffffffffffffffffffffffffffff16608082015290565b6040516101cc91906129f1565b63ffffffff811660009081526020819052604081205468010000000000000000900461ffff16610691576040517f08c379a000000000000000000000000000000000000000000000000000000000815260206004820152601560248201527f4e6f206d616368696e657320617661696c61626c65000000000000000000000060448201526064015b60405180910390fd5b63ffffffff80831660009081526020819052604081205490916106c29162093a809164010000000090910416612a7d565b67ffffffffffffffff166106d533612251565b6106df9190612aa9565b336000908152600460205260409020549091508111156107a7576040517f08c379a000000000000000000000000000000000000000000000000000000000815260206004820152605060248201527f596f7520646f6e2774206861766520656e6f7567682062616c616e636520746f60448201527f2070617920666f72207468697320616e6420616c6c206f7468657220426f6f6b60648201527f696e677320666f72203720646179732000000000000000000000000000000000608482015260a401610688565b6040805160e0810182526003805463ffffffff908116808452878216602080860182815260009283528282528783208054640100000000908190048716898b019081524260608b0181815260808c0191825260029485015473ffffffffffffffffffffffffffffffffffffffff90811660a08e019081523360c08f019081529a8a52978690529c88208c518154975194518c1668010000000000000000027fffffffffffffffffffffffffffffffffffffffff00000000ffffffffffffffff958d169096027fffffffffffffffffffffffffffffffffffffffffffffffff0000000000000000909816908c161796909617929092169290921784555160018401555190820155905181860180549189167fffffffffffffffffffffffff000000000000000000000000000000000000000092831617905592516004919091018054919097169216919091179094558154929392169161090583612abc565b82546101009290920a63ffffffff81810219909316918316021790915585811660009081526020818152604080832054338452600590925282208054640100000000909204841694509261095b91859116612adf565b82546101009290920a63ffffffff818102199093169183160217909155851660009081526020819052604090208054600192506008906109ac90849068010000000000000000900461ffff16612b03565b825461ffff9182166101009390930a9283029190920219909116179055506003546109df9060019063ffffffff16612b1e565b949350505050565b63ffffffff811660009081526002602052604090206003015473ffffffffffffffffffffffffffffffffffffffff163314610aa4576040517f08c379a000000000000000000000000000000000000000000000000000000000815260206004820152602260248201527f4f6e6c7920746865206d696e65722063616e20636c61696d2061207061796d6560448201527f6e740000000000000000000000000000000000000000000000000000000000006064820152608401610688565b6000610aaf8261229b565b905080610abf57610abf82612542565b5050565b6007546040517f23b872dd0000000000000000000000000000000000000000000000000000000081523360048201523060248201526044810183905260009173ffffffffffffffffffffffffffffffffffffffff16906323b872dd906064016020604051808303816000875af1158015610b41573d6000803e3d6000fd5b505050506040513d601f19601f82011682018060405250810190610b659190612b3b565b610bcb576040517f08c379a000000000000000000000000000000000000000000000000000000000815260206004820152601960248201527f4661696c656420746f207472616e7366657220746f6b656e73000000000000006044820152606401610688565b33600090815260046020526040902054610be6908390612aa9565b33600090815260046020526040902055506001919050565b63ffffffff831660009081526020819052604090206002015473ffffffffffffffffffffffffffffffffffffffff163314610cbb576040517f08c379a000000000000000000000000000000000000000000000000000000000815260206004820152602260248201527f4f6e6c7920746865206f776e65722063616e2075706461746520616e206f666660448201527f65720000000000000000000000000000000000000000000000000000000000006064820152608401610688565b63ffffffff9283166000908152602081905260409020805491909316640100000000027fffffffffffffffffffffffffffffffffffffffffffffffff00000000ffffffff61ffff9093166801000000000000000002929092167fffffffffffffffffffffffffffffffffffffffffffff000000000000ffffffff90911617179055565b60035460609060009063ffffffff1667ffffffffffffffff811115610d6557610d65612b5d565b604051908082528060200260200182016040528015610dea57816020015b6040805160e08101825260008082526020808301829052928201819052606082018190526080820181905260a0820181905260c082015282527fffffffffffffffffffffffffffffffffffffffffffffffffffffffffffffffff909201910181610d835790505b5090506000805b60035463ffffffff9081169082161015610f135763ffffffff811660009081526002602052604090206003015473ffffffffffffffffffffffffffffffffffffffff808716911603610f015763ffffffff808216600090815260026020818152604092839020835160e0810185528154808716825264010000000081048716938201939093526801000000000000000090920485169382019390935260018301546060820152908201546080820152600382015473ffffffffffffffffffffffffffffffffffffffff90811660a083015260049092015490911660c0820152845190918591908516908110610ee857610ee8612b8c565b6020908102919091010152610efe600183612adf565b91505b80610f0b81612abc565b915050610df1565b508063ffffffff1667ffffffffffffffff811115610f3357610f33612b5d565b604051908082528060200260200182016040528015610fb857816020015b6040805160e08101825260008082526020808301829052928201819052606082018190526080820181905260a0820181905260c082015282527fffffffffffffffffffffffffffffffffffffffffffffffffffffffffffffffff909201910181610f515790505b50925060005b8163ffffffff168163ffffffff16101561102857828163ffffffff1681518110610fea57610fea612b8c565b6020026020010151848263ffffffff168151811061100a5761100a612b8c565b6020026020010181905250808061102090612abc565b915050610fbe565b505050919050565b6040805160a0810182526001805463ffffffff908116808452878216602080860191825261ffff898116878901908152606088018a81523360808a0190815260009687529386905298852097518854945191519087167fffffffffffffffffffffffffffffffffffffffffffffffff00000000000000009095169490941764010000000091871691909102177fffffffffffffffffffffffffffffffffffffffffffff0000ffffffffffffffff166801000000000000000093909116929092029190911785559451848401559351600290930180547fffffffffffffffffffffffff00000000000000000000000000000000000000001673ffffffffffffffffffffffffffffffffffffffff909416939093179092558054909116908261115683612abc565b82546101009290920a63ffffffff818102199093169183160217909155600180546109df9350909116612b1e565b63ffffffff821660009081526002602052604090206004015473ffffffffffffffffffffffffffffffffffffffff16331480156111c557508060ff16600214155b8061120b575063ffffffff821660009081526002602052604090206003015473ffffffffffffffffffffffffffffffffffffffff163314801561120b57508060ff166002145b6112bd576040517f08c379a000000000000000000000000000000000000000000000000000000000815260206004820152605a60248201527f4f6e6c792074686520757365722063616e2073746f70206120564d207769746860448201527f20726561736f6e2030206f7220312c206f6e6c7920746865206d696e6572206360648201527f616e2073746f70206120564d207769746820726561736f6e2032000000000000608482015260a401610688565b60ff81161561132f5763ffffffff82166000908152600260205260408082206003810154600490910154915160ff85169373ffffffffffffffffffffffffffffffffffffffff92831693909216917f1db97daa25845ee925bd84e6cf559402b161e27653e3f3187c1859f98634c1c591a45b6113388261229b565b50610abf82612542565b60035460609060009063ffffffff1667ffffffffffffffff81111561136957611369612b5d565b6040519080825280602002602001820160405280156113ee57816020015b6040805160e08101825260008082526020808301829052928201819052606082018190526080820181905260a0820181905260c082015282527fffffffffffffffffffffffffffffffffffffffffffffffffffffffffffffffff9092019101816113875790505b5090506000805b60035463ffffffff90811690821610156115175763ffffffff811660009081526002602052604090206004015473ffffffffffffffffffffffffffffffffffffffff8087169116036115055763ffffffff808216600090815260026020818152604092839020835160e0810185528154808716825264010000000081048716938201939093526801000000000000000090920485169382019390935260018301546060820152908201546080820152600382015473ffffffffffffffffffffffffffffffffffffffff90811660a083015260049092015490911660c08201528451909185919085169081106114ec576114ec612b8c565b6020908102919091010152611502600183612adf565b91505b8061150f81612abc565b9150506113f5565b508063ffffffff1667ffffffffffffffff81111561153757611537612b5d565b6040519080825280602002602001820160405280156115bc57816020015b6040805160e08101825260008082526020808301829052928201819052606082018190526080820181905260a0820181905260c082015282527fffffffffffffffffffffffffffffffffffffffffffffffffffffffffffffffff9092019101816115555790505b50925060005b8163ffffffff168163ffffffff16101561102857828163ffffffff16815181106115ee576115ee612b8c565b6020026020010151848263ffffffff168151811061160e5761160e612b8c565b6020026020010181905250808061162490612abc565b9150506115c2565b60085473ffffffffffffffffffffffffffffffffffffffff16331480611668575060085473ffffffffffffffffffffffffffffffffffffffff16155b6116f4576040517f08c379a000000000000000000000000000000000000000000000000000000000815260206004820152603660248201527f6f6e6c7920636f6d6d756e69747920636f6e74726163742063616e207365742060448201527f6e657720636f6d6d756e69747920636f6e7472616374000000000000000000006064820152608401610688565b600880547fffffffffffffffffffffffff00000000000000000000000000000000000000001673ffffffffffffffffffffffffffffffffffffffff92909216919091179055565b60008061174733612251565b336000908152600460205260409020546117619190612bbb565b9050828110156117cd576040517f08c379a000000000000000000000000000000000000000000000000000000000815260206004820152601e60248201527f4e6f7420656e6f7567682062616c616e636520746f20776974686472617700006044820152606401610688565b6007546040517fa9059cbb0000000000000000000000000000000000000000000000000000000081523360048201526024810185905273ffffffffffffffffffffffffffffffffffffffff9091169063a9059cbb906044016020604051808303816000875af1158015611844573d6000803e3d6000fd5b505050506040513d601f19601f820116820180604052508101906118689190612b3b565b6118ce576040517f08c379a000000000000000000000000000000000000000000000000000000000815260206004820152601560248201527f4552433230207472616e73666572206661696c656400000000000000000000006044820152606401610688565b33600090815260046020526040812080548592906118ed908490612bbb565b909155506001949350505050565b60085473ffffffffffffffffffffffffffffffffffffffff1633146119a1576040517f08c379a0000000000000000000000000000000000000000000000000000000008152602060048201526024808201527f6f6e6c7920636f6d6d756e69747920636f6e74726163742063616e207365742060448201527f636f696e000000000000000000000000000000000000000000000000000000006064820152608401610688565b600780547fffffffffffffffffffffffff00000000000000000000000000000000000000001673ffffffffffffffffffffffffffffffffffffffff92909216919091179055565b60015460609060009063ffffffff1667ffffffffffffffff811115611a0f57611a0f612b5d565b604051908082528060200260200182016040528015611a8657816020015b6040805160a0810182526000808252602080830182905292820181905260608201819052608082015282527fffffffffffffffffffffffffffffffffffffffffffffffffffffffffffffffff909201910181611a2d5790505b5090506000805b60015463ffffffff9081169082161015611b8a5763ffffffff811660009081526020819052604090205468010000000000000000900461ffff1615611b785763ffffffff81811660009081526020818152604091829020825160a0810184528154808616825264010000000081048616938201939093526801000000000000000090920461ffff16928201929092526001820154606082015260029091015473ffffffffffffffffffffffffffffffffffffffff166080820152845190918591908516908110611b5f57611b5f612b8c565b6020908102919091010152611b75600183612adf565b91505b80611b8281612abc565b915050611a8d565b508063ffffffff1667ffffffffffffffff811115611baa57611baa612b5d565b604051908082528060200260200182016040528015611c2157816020015b6040805160a0810182526000808252602080830182905292820181905260608201819052608082015282527fffffffffffffffffffffffffffffffffffffffffffffffffffffffffffffffff909201910181611bc85790505b50925060005b8163ffffffff168163ffffffff161015611c9157828163ffffffff1681518110611c5357611c53612b8c565b6020026020010151848263ffffffff1681518110611c7357611c73612b8c565b60200260200101819052508080611c8990612abc565b915050611c27565b50505090565b63ffffffff811660009081526020819052604090206002015473ffffffffffffffffffffffffffffffffffffffff163314611d54576040517f08c379a000000000000000000000000000000000000000000000000000000000815260206004820152602260248201527f4f6e6c7920746865206f776e65722063616e2072656d6f766520616e206f666660448201527f65720000000000000000000000000000000000000000000000000000000000006064820152608401610688565b63ffffffff16600090815260208190526040812080547fffffffffffffffffffffffffffffffffffffffffffff00000000000000000000168155600181019190915560020180547fffffffffffffffffffffffff0000000000000000000000000000000000000000169055565b60006109c48261ffff1610611e58576040517f08c379a000000000000000000000000000000000000000000000000000000000815260206004820152603860248201527f636f6d6d756e697479206665652073686f756c6420626520696e2072616e676560448201527f206f662030202830252920746f203235303020283235252900000000000000006064820152608401610688565b60085473ffffffffffffffffffffffffffffffffffffffff163314611eff576040517f08c379a000000000000000000000000000000000000000000000000000000000815260206004820152602d60248201527f6f6e6c7920636f6d6d756e69747920636f6e74726163742063616e207365742060448201527f636f6d6d756e69747920666565000000000000000000000000000000000000006064820152608401610688565b506008805461ffff90921674010000000000000000000000000000000000000000027fffffffffffffffffffff0000ffffffffffffffffffffffffffffffffffffffff909216919091179055600090565b6000806000611f5e84612251565b73ffffffffffffffffffffffffffffffffffffffff8516600090815260046020526040902054909150611f92908290612bbb565b94909350915050565b60015460609060009063ffffffff1667ffffffffffffffff811115611fc257611fc2612b5d565b60405190808252806020026020018201604052801561203957816020015b6040805160a0810182526000808252602080830182905292820181905260608201819052608082015282527fffffffffffffffffffffffffffffffffffffffffffffffffffffffffffffffff909201910181611fe05790505b5090506000805b60015463ffffffff908116908216101561214a5763ffffffff811660009081526020819052604090206002015473ffffffffffffffffffffffffffffffffffffffff8087169116036121385763ffffffff81811660009081526020818152604091829020825160a0810184528154808616825264010000000081048616938201939093526801000000000000000090920461ffff16928201929092526001820154606082015260029091015473ffffffffffffffffffffffffffffffffffffffff16608082015284519091859190851690811061211f5761211f612b8c565b6020908102919091010152612135600183612adf565b91505b8061214281612abc565b915050612040565b508063ffffffff1667ffffffffffffffff81111561216a5761216a612b5d565b6040519080825280602002602001820160405280156121e157816020015b6040805160a0810182526000808252602080830182905292820181905260608201819052608082015282527fffffffffffffffffffffffffffffffffffffffffffffffffffffffffffffffff9092019101816121885790505b50925060005b8163ffffffff168163ffffffff16101561102857828163ffffffff168151811061221357612213612b8c565b6020026020010151848263ffffffff168151811061223357612233612b8c565b6020026020010181905250808061224990612abc565b9150506121e7565b73ffffffffffffffffffffffffffffffffffffffff811660009081526005602052604081205461228b9062093a809063ffffffff16612a7d565b67ffffffffffffffff1692915050565b63ffffffff811660009081526002602081905260408220015460019082906122c39042612bbb565b63ffffffff808616600090815260026020526040812054929350916122f691680100000000000000009091041683612bce565b63ffffffff8616600090815260026020908152604080832060049081015473ffffffffffffffffffffffffffffffffffffffff16845290915290205490915081111561237d575063ffffffff8416600090815260026020908152604080832060049081015473ffffffffffffffffffffffffffffffffffffffff1684529091528120549092505b600854600090612710906123ad9074010000000000000000000000000000000000000000900461ffff1684612bce565b6123b79190612be5565b905060006123c58284612bbb565b63ffffffff881660009081526002602081815260408084204293019290925560085473ffffffffffffffffffffffffffffffffffffffff1683526004905281208054929350849290919061241a908490612aa9565b909155505063ffffffff871660009081526002602090815260408083206003015473ffffffffffffffffffffffffffffffffffffffff16835260049091528120805483929061246a908490612aa9565b909155505063ffffffff8716600090815260026020908152604080832060049081015473ffffffffffffffffffffffffffffffffffffffff168452909152812080548592906124ba908490612bbb565b909155505063ffffffff8716600090815260026020526040908190206003810154600490910154915173ffffffffffffffffffffffffffffffffffffffff91821692909116907f8ed7db30df47fbd87811a5e8a95a94838f0c0241263d9a1865d6a2a3e10516e29061252f9085815260200190565b60405180910390a3509295945050505050565b63ffffffff818116600090815260026020908152604080832054640100000000900490931682528190522080546001919060089061259190849068010000000000000000900461ffff16612c20565b825461ffff9182166101009390930a92830291909202199091161790555063ffffffff8082166000908152600260209081526040808320805460049091015473ffffffffffffffffffffffffffffffffffffffff1684526005909252822080546801000000000000000090920484169390929161261091859116612b1e565b82546101009290920a63ffffffff818102199093169183160217909155919091166000908152600260208190526040822080547fffffffffffffffffffffffffffffffffffffffff00000000000000000000000016815560018101839055908101919091556003810180547fffffffffffffffffffffffff000000000000000000000000000000000000000090811690915560049091018054909116905550565b803563ffffffff811681146126c557600080fd5b919050565b6000602082840312156126dc57600080fd5b6126e5826126b1565b9392505050565b6000602082840312156126fe57600080fd5b5035919050565b803561ffff811681146126c557600080fd5b60008060006060848603121561272c57600080fd5b612735846126b1565b925061274360208501612705565b9150612751604085016126b1565b90509250925092565b73ffffffffffffffffffffffffffffffffffffffff8116811461277c57600080fd5b50565b60006020828403121561279157600080fd5b81356126e58161275a565b6020808252825182820181905260009190848201906040850190845b818110156128455761283283855163ffffffff80825116835280602083015116602084015280604083015116604084015250606081015160608301526080810151608083015260a081015173ffffffffffffffffffffffffffffffffffffffff80821660a08501528060c08401511660c085015250505050565b9284019260e092909201916001016127b8565b50909695505050505050565b60008060006060848603121561286657600080fd5b61286f846126b1565b925061287d60208501612705565b9150604084013590509250925092565b600080604083850312156128a057600080fd5b6128a9836126b1565b9150602083013560ff811681146128bf57600080fd5b809150509250929050565b6020808252825182820181905260009190848201906040850190845b818110156128455761294883855163ffffffff8082511683528060208301511660208401525061ffff60408201511660408301526060810151606083015273ffffffffffffffffffffffffffffffffffffffff60808201511660808301525050565b9284019260a092909201916001016128e6565b60006020828403121561296d57600080fd5b6126e582612705565b60e081016129eb828463ffffffff80825116835280602083015116602084015280604083015116604084015250606081015160608301526080810151608083015260a081015173ffffffffffffffffffffffffffffffffffffffff80821660a08501528060c08401511660c085015250505050565b92915050565b60a081016129eb828463ffffffff8082511683528060208301511660208401525061ffff60408201511660408301526060810151606083015273ffffffffffffffffffffffffffffffffffffffff60808201511660808301525050565b7f4e487b7100000000000000000000000000000000000000000000000000000000600052601160045260246000fd5b67ffffffffffffffff818116838216028082169190828114612aa157612aa1612a4e565b505092915050565b808201808211156129eb576129eb612a4e565b600063ffffffff808316818103612ad557612ad5612a4e565b6001019392505050565b63ffffffff818116838216019080821115612afc57612afc612a4e565b5092915050565b61ffff828116828216039080821115612afc57612afc612a4e565b63ffffffff828116828216039080821115612afc57612afc612a4e565b600060208284031215612b4d57600080fd5b815180151581146126e557600080fd5b7f4e487b7100000000000000000000000000000000000000000000000000000000600052604160045260246000fd5b7f4e487b7100000000000000000000000000000000000000000000000000000000600052603260045260246000fd5b818103818111156129eb576129eb612a4e565b80820281158282048414176129eb576129eb612a4e565b600082612c1b577f4e487b7100000000000000000000000000000000000000000000000000000000600052601260045260246000fd5b500490565b61ffff818116838216019080821115612afc57612afc612a4e56fea26469706673582212201a852d0305f8702adb460182f6cd7a819b76c5e96c9e3916fdc6c23314b95baf64736f6c63430008110033",
  "linkReferences": {},
  "deployedLinkReferences": {}
}