{
  "_format": "hh-sol-artifact-1",
  "contractName": "Broker",
  "sourceName": "contracts/Broker.sol",
  "abi": [
    {
      "anonymous": false,
      "inputs": [
        {
          "indexed": true,
          "internalType": "address",
          "name": "user",
          "type": "address"
        },
        {
          "indexed": true,
          "internalType": "address",
          "name": "provider",
          "type": "address"
        },
        {
          "indexed": false,
          "internalType": "uint32",
          "name": "bookingIndex",
          "type": "uint32"
        },
        {
          "indexed": false,
          "internalType": "uint32",
          "name": "pps",
          "type": "uint32"
        }
      ],
      "name": "NewBooking",
      "type": "event"
    },
    {
      "anonymous": false,
      "inputs": [
        {
          "indexed": false,
          "internalType": "uint32",
          "name": "bookingIndex",
          "type": "uint32"
        },
        {
          "indexed": true,
          "internalType": "uint16",
          "name": "reason",
          "type": "uint16"
        }
      ],
      "name": "Termination",
      "type": "event"
    },
    {
      "inputs": [
        {
          "internalType": "uint32",
          "name": "pricePerSecond",
          "type": "uint32"
        },
        {
          "internalType": "uint16",
          "name": "machinesTotal",
          "type": "uint16"
        },
        {
          "internalType": "bytes32",
          "name": "specsIpfsHash",
          "type": "bytes32"
        }
      ],
      "name": "AddOffer",
      "outputs": [
        {
          "internalType": "uint32",
          "name": "",
          "type": "uint32"
        }
      ],
      "stateMutability": "nonpayable",
      "type": "function"
    },
    {
      "inputs": [
        {
          "internalType": "address",
          "name": "user",
          "type": "address"
        },
        {
          "internalType": "uint64",
          "name": "amt",
          "type": "uint64"
        }
      ],
      "name": "AddTrial",
      "outputs": [],
      "stateMutability": "nonpayable",
      "type": "function"
    },
    {
      "inputs": [
        {
          "internalType": "uint32",
          "name": "offerIndex",
          "type": "uint32"
        }
      ],
      "name": "Book",
      "outputs": [
        {
          "internalType": "uint32",
          "name": "",
          "type": "uint32"
        }
      ],
      "stateMutability": "nonpayable",
      "type": "function"
    },
    {
      "inputs": [
        {
          "internalType": "uint32",
          "name": "bookingId",
          "type": "uint32"
        }
      ],
      "name": "ClaimPayment",
      "outputs": [],
      "stateMutability": "nonpayable",
      "type": "function"
    },
    {
      "inputs": [
        {
          "internalType": "uint256",
          "name": "numTokens",
          "type": "uint256"
        }
      ],
      "name": "DepositCoin",
      "outputs": [
        {
          "internalType": "bool",
          "name": "",
          "type": "bool"
        }
      ],
      "stateMutability": "nonpayable",
      "type": "function"
    },
    {
      "inputs": [
        {
          "internalType": "address",
          "name": "_provider",
          "type": "address"
        }
      ],
      "name": "FindBookingsByProvider",
      "outputs": [
        {
          "components": [
            {
              "internalType": "uint32",
              "name": "index",
              "type": "uint32"
            },
            {
              "internalType": "uint32",
              "name": "offerIndex",
              "type": "uint32"
            },
            {
              "internalType": "uint32",
              "name": "pricePerSecond",
              "type": "uint32"
            },
            {
              "internalType": "uint32",
              "name": "bookedAt",
              "type": "uint32"
            },
            {
              "internalType": "uint32",
              "name": "lastPayment",
              "type": "uint32"
            },
            {
              "internalType": "address",
              "name": "provider",
              "type": "address"
            },
            {
              "internalType": "address",
              "name": "user",
              "type": "address"
            }
          ],
          "internalType": "struct Broker.Booking[]",
          "name": "filteredBookings",
          "type": "tuple[]"
        }
      ],
      "stateMutability": "view",
      "type": "function"
    },
    {
      "inputs": [
        {
          "internalType": "address",
          "name": "_owner",
          "type": "address"
        }
      ],
      "name": "FindBookingsByUser",
      "outputs": [
        {
          "components": [
            {
              "internalType": "uint32",
              "name": "index",
              "type": "uint32"
            },
            {
              "internalType": "uint32",
              "name": "offerIndex",
              "type": "uint32"
            },
            {
              "internalType": "uint32",
              "name": "pricePerSecond",
              "type": "uint32"
            },
            {
              "internalType": "uint32",
              "name": "bookedAt",
              "type": "uint32"
            },
            {
              "internalType": "uint32",
              "name": "lastPayment",
              "type": "uint32"
            },
            {
              "internalType": "address",
              "name": "provider",
              "type": "address"
            },
            {
              "internalType": "address",
              "name": "user",
              "type": "address"
            }
          ],
          "internalType": "struct Broker.Booking[]",
          "name": "filteredBookings",
          "type": "tuple[]"
        }
      ],
      "stateMutability": "view",
      "type": "function"
    },
    {
      "inputs": [],
      "name": "GetAvailableOffers",
      "outputs": [
        {
          "components": [
            {
              "internalType": "bytes32",
              "name": "specsIpfsHash",
              "type": "bytes32"
            },
            {
              "internalType": "address",
              "name": "provider",
              "type": "address"
            },
            {
              "internalType": "uint32",
              "name": "index",
              "type": "uint32"
            },
            {
              "internalType": "uint32",
              "name": "pricePerSecond",
              "type": "uint32"
            },
            {
              "internalType": "uint16",
              "name": "machinesTotal",
              "type": "uint16"
            },
            {
              "internalType": "uint16",
              "name": "machinesBooked",
              "type": "uint16"
            }
          ],
          "internalType": "struct Broker.Offer[]",
          "name": "filteredOffers",
          "type": "tuple[]"
        }
      ],
      "stateMutability": "view",
      "type": "function"
    },
    {
      "inputs": [
        {
          "internalType": "uint32",
          "name": "index",
          "type": "uint32"
        }
      ],
      "name": "GetBooking",
      "outputs": [
        {
          "components": [
            {
              "internalType": "uint32",
              "name": "index",
              "type": "uint32"
            },
            {
              "internalType": "uint32",
              "name": "offerIndex",
              "type": "uint32"
            },
            {
              "internalType": "uint32",
              "name": "pricePerSecond",
              "type": "uint32"
            },
            {
              "internalType": "uint32",
              "name": "bookedAt",
              "type": "uint32"
            },
            {
              "internalType": "uint32",
              "name": "lastPayment",
              "type": "uint32"
            },
            {
              "internalType": "address",
              "name": "provider",
              "type": "address"
            },
            {
              "internalType": "address",
              "name": "user",
              "type": "address"
            }
          ],
          "internalType": "struct Broker.Booking",
          "name": "booking",
          "type": "tuple"
        }
      ],
      "stateMutability": "view",
      "type": "function"
    },
    {
      "inputs": [
        {
          "internalType": "address",
          "name": "user",
          "type": "address"
        }
      ],
      "name": "GetCoinBalance",
      "outputs": [
        {
          "internalType": "uint256",
          "name": "free",
          "type": "uint256"
        },
        {
          "internalType": "uint256",
          "name": "locked",
          "type": "uint256"
        }
      ],
      "stateMutability": "view",
      "type": "function"
    },
    {
      "inputs": [
        {
          "internalType": "uint32",
          "name": "index",
          "type": "uint32"
        }
      ],
      "name": "GetOffer",
      "outputs": [
        {
          "components": [
            {
              "internalType": "bytes32",
              "name": "specsIpfsHash",
              "type": "bytes32"
            },
            {
              "internalType": "address",
              "name": "provider",
              "type": "address"
            },
            {
              "internalType": "uint32",
              "name": "index",
              "type": "uint32"
            },
            {
              "internalType": "uint32",
              "name": "pricePerSecond",
              "type": "uint32"
            },
            {
              "internalType": "uint16",
              "name": "machinesTotal",
              "type": "uint16"
            },
            {
              "internalType": "uint16",
              "name": "machinesBooked",
              "type": "uint16"
            }
          ],
          "internalType": "struct Broker.Offer",
          "name": "oneOffer",
          "type": "tuple"
        }
      ],
      "stateMutability": "view",
      "type": "function"
    },
    {
      "inputs": [
        {
          "internalType": "address",
          "name": "_user",
          "type": "address"
        }
      ],
      "name": "GetProviderUrl",
      "outputs": [
        {
          "internalType": "bytes32",
          "name": "",
          "type": "bytes32"
        }
      ],
      "stateMutability": "view",
      "type": "function"
    },
    {
      "inputs": [
        {
          "internalType": "address",
          "name": "provider",
          "type": "address"
        }
      ],
      "name": "GetProvidersOffers",
      "outputs": [
        {
          "components": [
            {
              "internalType": "bytes32",
              "name": "specsIpfsHash",
              "type": "bytes32"
            },
            {
              "internalType": "address",
              "name": "provider",
              "type": "address"
            },
            {
              "internalType": "uint32",
              "name": "index",
              "type": "uint32"
            },
            {
              "internalType": "uint32",
              "name": "pricePerSecond",
              "type": "uint32"
            },
            {
              "internalType": "uint16",
              "name": "machinesTotal",
              "type": "uint16"
            },
            {
              "internalType": "uint16",
              "name": "machinesBooked",
              "type": "uint16"
            }
          ],
          "internalType": "struct Broker.Offer[]",
          "name": "filteredOffers",
          "type": "tuple[]"
        }
      ],
      "stateMutability": "view",
      "type": "function"
    },
    {
      "inputs": [],
      "name": "GetTime",
      "outputs": [
        {
          "internalType": "uint256",
          "name": "",
          "type": "uint256"
        }
      ],
      "stateMutability": "view",
      "type": "function"
    },
    {
      "inputs": [
        {
          "internalType": "address",
          "name": "user",
          "type": "address"
        }
      ],
      "name": "GetTrialAmount",
      "outputs": [
        {
          "internalType": "uint64",
          "name": "",
          "type": "uint64"
        }
      ],
      "stateMutability": "view",
      "type": "function"
    },
    {
      "inputs": [
        {
          "internalType": "address",
          "name": "_user",
          "type": "address"
        }
      ],
      "name": "IsProviderRegistered",
      "outputs": [
        {
          "internalType": "bool",
          "name": "",
          "type": "bool"
        }
      ],
      "stateMutability": "view",
      "type": "function"
    },
    {
      "inputs": [],
      "name": "PROVIDER_REGISTRATION_FEE",
      "outputs": [
        {
          "internalType": "uint64",
          "name": "",
          "type": "uint64"
        }
      ],
      "stateMutability": "view",
      "type": "function"
    },
    {
      "inputs": [],
      "name": "REASON_COMMUNITY_TERMINATED",
      "outputs": [
        {
          "internalType": "uint16",
          "name": "",
          "type": "uint16"
        }
      ],
      "stateMutability": "view",
      "type": "function"
    },
    {
      "inputs": [],
      "name": "REASON_NON_PAYMENT",
      "outputs": [
        {
          "internalType": "uint16",
          "name": "",
          "type": "uint16"
        }
      ],
      "stateMutability": "view",
      "type": "function"
    },
    {
      "inputs": [],
      "name": "REASON_PROVIDER_TERMINATED",
      "outputs": [
        {
          "internalType": "uint16",
          "name": "",
          "type": "uint16"
        }
      ],
      "stateMutability": "view",
      "type": "function"
    },
    {
      "inputs": [],
      "name": "RegisterProvider",
      "outputs": [],
      "stateMutability": "nonpayable",
      "type": "function"
    },
    {
      "inputs": [
        {
          "internalType": "uint32",
          "name": "offerIndex",
          "type": "uint32"
        }
      ],
      "name": "RemoveOffer",
      "outputs": [],
      "stateMutability": "nonpayable",
      "type": "function"
    },
    {
      "inputs": [
        {
          "internalType": "address",
          "name": "user",
          "type": "address"
        }
      ],
      "name": "RemoveTrial",
      "outputs": [],
      "stateMutability": "nonpayable",
      "type": "function"
    },
    {
      "inputs": [],
      "name": "SECONDS_IN_WEEK",
      "outputs": [
        {
          "internalType": "uint64",
          "name": "",
          "type": "uint64"
        }
      ],
      "stateMutability": "view",
      "type": "function"
    },
    {
      "inputs": [
        {
          "internalType": "contract IERC20",
          "name": "newCoinAddress",
          "type": "address"
        }
      ],
      "name": "SetCoinAddress",
      "outputs": [],
      "stateMutability": "nonpayable",
      "type": "function"
    },
    {
      "inputs": [
        {
          "internalType": "address",
          "name": "newCommunityAddress",
          "type": "address"
        }
      ],
      "name": "SetCommunityContract",
      "outputs": [],
      "stateMutability": "nonpayable",
      "type": "function"
    },
    {
      "inputs": [
        {
          "internalType": "uint16",
          "name": "fee",
          "type": "uint16"
        }
      ],
      "name": "SetCommunityFee",
      "outputs": [
        {
          "internalType": "bool",
          "name": "",
          "type": "bool"
        }
      ],
      "stateMutability": "nonpayable",
      "type": "function"
    },
    {
      "inputs": [
        {
          "internalType": "bytes32",
          "name": "url",
          "type": "bytes32"
        }
      ],
      "name": "SetProviderUrl",
      "outputs": [],
      "stateMutability": "nonpayable",
      "type": "function"
    },
    {
      "inputs": [
        {
          "internalType": "uint32",
          "name": "bookingId",
          "type": "uint32"
        },
        {
          "internalType": "uint16",
          "name": "reason",
          "type": "uint16"
        }
      ],
      "name": "Terminate",
      "outputs": [],
      "stateMutability": "nonpayable",
      "type": "function"
    },
    {
      "inputs": [
        {
          "internalType": "uint32",
          "name": "offerIndex",
          "type": "uint32"
        },
        {
          "internalType": "uint16",
          "name": "machinesTotal",
          "type": "uint16"
        },
        {
          "internalType": "uint32",
          "name": "pps",
          "type": "uint32"
        }
      ],
      "name": "UpdateOffer",
      "outputs": [],
      "stateMutability": "nonpayable",
      "type": "function"
    },
    {
      "inputs": [
        {
          "internalType": "uint256",
          "name": "amt",
          "type": "uint256"
        }
      ],
      "name": "WithdrawCoin",
      "outputs": [
        {
          "internalType": "bool",
          "name": "",
          "type": "bool"
        }
      ],
      "stateMutability": "nonpayable",
      "type": "function"
    },
    {
      "inputs": [],
      "name": "coin",
      "outputs": [
        {
          "internalType": "contract IERC20",
          "name": "",
          "type": "address"
        }
      ],
      "stateMutability": "view",
      "type": "function"
    },
    {
      "inputs": [],
      "name": "communityContract",
      "outputs": [
        {
          "internalType": "address",
          "name": "",
          "type": "address"
        }
      ],
      "stateMutability": "view",
      "type": "function"
    },
    {
      "inputs": [],
      "name": "communityFee",
      "outputs": [
        {
          "internalType": "uint16",
          "name": "",
          "type": "uint16"
        }
      ],
      "stateMutability": "view",
      "type": "function"
    }
  ],
  "bytecode": "0x608060405234801561001057600080fd5b50613b99806100206000396000f3fe608060405234801561001057600080fd5b50600436106102265760003560e01c80638e6340291161012a578063c1fab57d116100bd578063cde719221161008c578063e2a5aa6e11610071578063e2a5aa6e14610651578063fd30797014610784578063fd6e7e2a146107ba57600080fd5b8063cde719221461063f578063e088b29e1461064757600080fd5b8063c1fab57d146104d1578063c74c1614146105d9578063c79a1f71146105ec578063c9124a8c1461062c57600080fd5b8063b65c4b9c116100f9578063b65c4b9c1461046e578063bac3235614610483578063bfc054e314610496578063bfc78539146104a957600080fd5b80638e634029146103db578063a675768c146103fb578063a6ce31571461040e578063b43430ab1461044a57600080fd5b80633abdd2f2116101bd5780636b620ed51161018c5780637b828689116101715780637b8286891461038f57806388f9b0f2146103a25780638961be6b146103b557600080fd5b80636b620ed5146103745780636dd590dc1461038757600080fd5b80633abdd2f2146103265780634f49115b14610339578063534b3ccb1461034157806360d52b9d1461036157600080fd5b80632bc209d6116101f95780632bc209d6146102c25780632ee7c859146102d557806331eda587146102f8578063392912841461030b57600080fd5b8063081c43291461022b57806311df99951461025857806318c5e5021461029d57806329aa1289146102ad575b600080fd5b61023e610239366004613540565b6107cd565b60405163ffffffff90911681526020015b60405180910390f35b6006546102789073ffffffffffffffffffffffffffffffffffffffff1681565b60405173ffffffffffffffffffffffffffffffffffffffff909116815260200161024f565b425b60405190815260200161024f565b6102c06102bb366004613587565b610d67565b005b6102c06102d0366004613540565b610fc9565b6102e86102e33660046135a4565b6110a7565b604051901515815260200161024f565b6102c06103063660046135cf565b6111e2565b610313600481565b60405161ffff909116815260200161024f565b61023e610334366004613612565b61141e565b6102c061169e565b61035461034f366004613587565b6118b7565b60405161024f919061364e565b6102c061036f366004613707565b611bc4565b6102c0610382366004613587565b611d32565b610313600281565b6102e861039d3660046135a4565b611e41565b6103546103b0366004613587565b6120a8565b6007546103139074010000000000000000000000000000000000000000900461ffff1681565b6007546102789073ffffffffffffffffffffffffffffffffffffffff1681565b6102c0610409366004613587565b6123ac565b6102e861041c366004613587565b73ffffffffffffffffffffffffffffffffffffffff1660009081526008602052604090206001015460ff1690565b6104556305f5e10081565b60405167ffffffffffffffff909116815260200161024f565b610476612499565b60405161024f919061374d565b6102c0610491366004613540565b6127f7565b6102e86104a43660046137f0565b61299d565b6104bc6104b7366004613587565b612b2c565b6040805192835260208301919091520161024f565b6105cc6104df366004613540565b6040805160e081018252600080825260208201819052918101829052606081018290526080810182905260a0810182905260c08101919091525063ffffffff908116600090815260026020818152604092839020835160e0810185528154808716825264010000000081048716938201939093526801000000000000000083048616948101949094526c010000000000000000000000008204851660608501527001000000000000000000000000000000009091049093166080830152600183015473ffffffffffffffffffffffffffffffffffffffff90811660a084015292015490911660c082015290565b60405161024f919061380b565b6102c06105e73660046135a4565b612b73565b6104556105fa366004613587565b73ffffffffffffffffffffffffffffffffffffffff1660009081526009602052604090205467ffffffffffffffff1690565b6102c061063a36600461388a565b612c27565b610313600381565b61045562093a8081565b61077761065f366004613540565b6040805160c081018252600080825260208201819052918101829052606081018290526080810182905260a08101919091525063ffffffff90811660009081526020818152604091829020825160c0810184528154815260019091015473ffffffffffffffffffffffffffffffffffffffff81169282019290925274010000000000000000000000000000000000000000820484169281019290925278010000000000000000000000000000000000000000000000008104909216606082015261ffff7c01000000000000000000000000000000000000000000000000000000008304811660808301527e0100000000000000000000000000000000000000000000000000000000000090920490911660a082015290565b60405161024f91906138bd565b61029f610792366004613587565b73ffffffffffffffffffffffffffffffffffffffff1660009081526008602052604090205490565b6104766107c8366004613587565b612d97565b63ffffffff811660009081526020819052604081206001015461ffff7e01000000000000000000000000000000000000000000000000000000000000820481167c0100000000000000000000000000000000000000000000000000000000909204161161089b576040517f08c379a000000000000000000000000000000000000000000000000000000000815260206004820152601560248201527f4e6f206d616368696e657320617661696c61626c65000000000000000000000060448201526064015b60405180910390fd5b63ffffffff80831660009081526020819052604081206001015490916108e39162093a809178010000000000000000000000000000000000000000000000009091041661395b565b67ffffffffffffffff166108f6336130bf565b6109009190613987565b336000908152600460205260409020549091508111156109c8576040517f08c379a000000000000000000000000000000000000000000000000000000000815260206004820152605060248201527f596f7520646f6e2774206861766520656e6f7567682062616c616e636520746f60448201527f2070617920666f72207468697320616e6420616c6c206f7468657220426f6f6b60648201527f696e677320666f72203720646179732000000000000000000000000000000000608482015260a401610892565b6040805160e0810182526003805463ffffffff90811680845287821660208086018281526000928352828252878320600190810154780100000000000000000000000000000000000000000000000081048716898b0190815242881660608b0181815260808c0191825273ffffffffffffffffffffffffffffffffffffffff93841660a08d019081523360c08e019081529989526002978890529c88208c51815497519451925193518c16700100000000000000000000000000000000027fffffffffffffffffffffffff00000000ffffffffffffffffffffffffffffffff948d166c01000000000000000000000000027fffffffffffffffffffffffffffffffff00000000ffffffffffffffffffffffff948e166801000000000000000002949094167fffffffffffffffffffffffffffffffff0000000000000000ffffffffffffffff968e16640100000000027fffffffffffffffffffffffffffffffffffffffffffffffff0000000000000000909a16928e1692909217989098179490941693909317171693909317835598519082018054918a167fffffffffffffffffffffffff00000000000000000000000000000000000000009283161790559351910180549190971692169190911790945581549293921691610baa8361399a565b82546101009290920a63ffffffff8181021990931691831602179091558581166000908152602081815260408083206001015433845260059092528220805478010000000000000000000000000000000000000000000000009092048416945092610c17918591166139bd565b92506101000a81548163ffffffff021916908363ffffffff16021790555060016000808663ffffffff1663ffffffff168152602001908152602001600020600101601e8282829054906101000a900461ffff16610c7491906139e1565b825461ffff9182166101009390930a92830291909202199091161790555063ffffffff808516600090815260208190526040902060019081015460035473ffffffffffffffffffffffffffffffffffffffff9091169233927f51ff4075c1dfbe6bb96f0f69af5e347ff0654d85f683913424e28a6d153738fc92610cf892166139fc565b63ffffffff88811660009081526020818152604091829020600101548251948416855278010000000000000000000000000000000000000000000000009004909216918301919091520160405180910390a3600354610d5f9060019063ffffffff166139fc565b949350505050565b60075473ffffffffffffffffffffffffffffffffffffffff16331480610da257503373ffffffffffffffffffffffffffffffffffffffff8216145b610e2e576040517f08c379a000000000000000000000000000000000000000000000000000000000815260206004820152603b60248201527f6f6e6c7920636f6d6d756e69747920636f6e7472616374206f7220757365722060448201527f7468656d73656c7665732063616e2072656d6f766520747269616c00000000006064820152608401610892565b6000610e39826130bf565b73ffffffffffffffffffffffffffffffffffffffff8316600090815260046020526040902054610e699190613a19565b73ffffffffffffffffffffffffffffffffffffffff831660009081526009602052604090205490915067ffffffffffffffff16811015610f2b576040517f08c379a000000000000000000000000000000000000000000000000000000000815260206004820152602960248201527f7573657220686173206e6f7420656e6f75676820636f696e7320746f2063616e60448201527f63656c20747269616c00000000000000000000000000000000000000000000006064820152608401610892565b73ffffffffffffffffffffffffffffffffffffffff821660009081526009602090815260408083205460049092528220805467ffffffffffffffff909216929091610f77908490613a19565b90915550505073ffffffffffffffffffffffffffffffffffffffff16600090815260096020526040902080547fffffffffffffffffffffffffffffffffffffffffffffffff0000000000000000169055565b63ffffffff811660009081526002602052604090206001015473ffffffffffffffffffffffffffffffffffffffff163314611086576040517f08c379a000000000000000000000000000000000000000000000000000000000815260206004820152602560248201527f4f6e6c79207468652070726f76696465722063616e20636c61696d206120706160448201527f796d656e740000000000000000000000000000000000000000000000000000006064820152608401610892565b600061109182613109565b9050806110a3576110a382600361338a565b5050565b6006546040517f23b872dd0000000000000000000000000000000000000000000000000000000081523360048201523060248201526044810183905260009173ffffffffffffffffffffffffffffffffffffffff16906323b872dd906064016020604051808303816000875af1158015611125573d6000803e3d6000fd5b505050506040513d601f19601f820116820180604052508101906111499190613a2c565b6111af576040517f08c379a000000000000000000000000000000000000000000000000000000000815260206004820152601960248201527f4661696c656420746f207472616e7366657220746f6b656e73000000000000006044820152606401610892565b336000908152600460205260409020546111ca908390613987565b33600090815260046020526040902055506001919050565b63ffffffff831660009081526020819052604090206001015473ffffffffffffffffffffffffffffffffffffffff16331461129f576040517f08c379a000000000000000000000000000000000000000000000000000000000815260206004820152602260248201527f4f6e6c7920746865206f776e65722063616e2075706461746520616e206f666660448201527f65720000000000000000000000000000000000000000000000000000000000006064820152608401610892565b63ffffffff831660009081526020819052604090206001015461ffff8084167e01000000000000000000000000000000000000000000000000000000000000909204161115611370576040517f08c379a000000000000000000000000000000000000000000000000000000000815260206004820152603060248201527f43616e6e6f7420726564756365206d616368696e6573546f74616c2062656c6f60448201527f77206d616368696e6573426f6f6b6564000000000000000000000000000000006064820152608401610892565b63ffffffff92831660009081526020819052604090206001018054919093167801000000000000000000000000000000000000000000000000027fffffffff00000000ffffffffffffffffffffffffffffffffffffffffffffffff61ffff9093167c010000000000000000000000000000000000000000000000000000000002929092167fffff000000000000ffffffffffffffffffffffffffffffffffffffffffffffff90911617179055565b3360009081526008602052604081206001015460ff166114c0576040517f08c379a000000000000000000000000000000000000000000000000000000000815260206004820152602960248201527f50726f7669646572206d757374206265207265676973746572656420746f206160448201527f6464206f666665727300000000000000000000000000000000000000000000006064820152608401610892565b6040805160c0810182528381523360208083019182526001805463ffffffff9081168587018181528b83166060880190815261ffff8c811660808a01908152600060a08b01818152958152978890529987209851895596519785018054925191519951935173ffffffffffffffffffffffffffffffffffffffff9099167fffffffffffffffff000000000000000000000000000000000000000000000000909316929092177401000000000000000000000000000000000000000091851691909102177fffff000000000000ffffffffffffffffffffffffffffffffffffffffffffffff167801000000000000000000000000000000000000000000000000988416989098027fffff0000ffffffffffffffffffffffffffffffffffffffffffffffffffffffff16979097177c010000000000000000000000000000000000000000000000000000000091861691909102177dffffffffffffffffffffffffffffffffffffffffffffffffffffffffffff167e010000000000000000000000000000000000000000000000000000000000009590941694909402929092179093558054909116916116708361399a565b82546101009290920a63ffffffff81810219909316918316021790915560018054610d5f93509091166139fc565b60006116a9336130bf565b336000908152600460205260409020546116c39190613a19565b90506305f5e100811015611733576040517f08c379a000000000000000000000000000000000000000000000000000000000815260206004820152601c60248201527f4e6f7420656e6f75676820636f696e20746f20726567697374657220000000006044820152606401610892565b3360009081526008602052604090206001015460ff16156117b0576040517f08c379a000000000000000000000000000000000000000000000000000000000815260206004820152601e60248201527f50726f766964657220697320616c7265616479207265676973746572656400006044820152606401610892565b33600090815260046020526040812080546305f5e10092906117d3908490613a19565b909155505060075473ffffffffffffffffffffffffffffffffffffffff16600090815260046020526040812080546305f5e1009290611813908490613987565b9091555050336000908152600860205260409020600190810180547fffffffffffffffffffffffffffffffffffffffffffffffffffffffffffffff001682178082556305f5e100929061187e90849061010090046fffffffffffffffffffffffffffffffff16613a4e565b92506101000a8154816fffffffffffffffffffffffffffffffff02191690836fffffffffffffffffffffffffffffffff16021790555050565b60035460609060009063ffffffff1667ffffffffffffffff8111156118de576118de613a77565b60405190808252806020026020018201604052801561196357816020015b6040805160e08101825260008082526020808301829052928201819052606082018190526080820181905260a0820181905260c082015282527fffffffffffffffffffffffffffffffffffffffffffffffffffffffffffffffff9092019101816118fc5790505b5090506000805b60035463ffffffff9081169082161015611aa75763ffffffff81166000908152600260208190526040909120015473ffffffffffffffffffffffffffffffffffffffff808716911603611a955763ffffffff808216600090815260026020818152604092839020835160e0810185528154808716825264010000000081048716938201939093526801000000000000000083048616948101949094526c0100000000000000000000000082048516606085015270010000000000000000000000000000000090910484166080840152600181015473ffffffffffffffffffffffffffffffffffffffff90811660a08501529101541660c0820152845190918591908516908110611a7c57611a7c613aa6565b6020908102919091010152611a926001836139bd565b91505b80611a9f8161399a565b91505061196a565b508063ffffffff1667ffffffffffffffff811115611ac757611ac7613a77565b604051908082528060200260200182016040528015611b4c57816020015b6040805160e08101825260008082526020808301829052928201819052606082018190526080820181905260a0820181905260c082015282527fffffffffffffffffffffffffffffffffffffffffffffffffffffffffffffffff909201910181611ae55790505b50925060005b8163ffffffff168163ffffffff161015611bbc57828163ffffffff1681518110611b7e57611b7e613aa6565b6020026020010151848263ffffffff1681518110611b9e57611b9e613aa6565b60200260200101819052508080611bb49061399a565b915050611b52565b505050919050565b60075473ffffffffffffffffffffffffffffffffffffffff163314611c6b576040517f08c379a000000000000000000000000000000000000000000000000000000000815260206004820152602560248201527f6f6e6c7920636f6d6d756e69747920636f6e74726163742063616e206164642060448201527f747269616c0000000000000000000000000000000000000000000000000000006064820152608401610892565b73ffffffffffffffffffffffffffffffffffffffff821660009081526009602052604081208054839290611caa90849067ffffffffffffffff16613ad5565b92506101000a81548167ffffffffffffffff021916908367ffffffffffffffff1602179055508067ffffffffffffffff16600460008473ffffffffffffffffffffffffffffffffffffffff1673ffffffffffffffffffffffffffffffffffffffff1681526020019081526020016000206000828254611d299190613987565b90915550505050565b60075473ffffffffffffffffffffffffffffffffffffffff16331480611d6e575060075473ffffffffffffffffffffffffffffffffffffffff16155b611dfa576040517f08c379a000000000000000000000000000000000000000000000000000000000815260206004820152603660248201527f6f6e6c7920636f6d6d756e69747920636f6e74726163742063616e207365742060448201527f6e657720636f6d6d756e69747920636f6e7472616374000000000000000000006064820152608401610892565b600780547fffffffffffffffffffffffff00000000000000000000000000000000000000001673ffffffffffffffffffffffffffffffffffffffff92909216919091179055565b600080611e4d336130bf565b33600090815260046020526040902054611e679190613a19565b905082811015611ed3576040517f08c379a000000000000000000000000000000000000000000000000000000000815260206004820152601e60248201527f4e6f7420656e6f7567682062616c616e636520746f20776974686472617700006044820152606401610892565b3360009081526009602052604090205467ffffffffffffffff1615611f7a576040517f08c379a000000000000000000000000000000000000000000000000000000000815260206004820152602160248201527f43616e6e6f7420776974686472617720647572696e672066726565207472696160448201527f6c000000000000000000000000000000000000000000000000000000000000006064820152608401610892565b6006546040517fa9059cbb0000000000000000000000000000000000000000000000000000000081523360048201526024810185905273ffffffffffffffffffffffffffffffffffffffff9091169063a9059cbb906044016020604051808303816000875af1158015611ff1573d6000803e3d6000fd5b505050506040513d601f19601f820116820180604052508101906120159190613a2c565b61207b576040517f08c379a000000000000000000000000000000000000000000000000000000000815260206004820152601560248201527f4552433230207472616e73666572206661696c656400000000000000000000006044820152606401610892565b336000908152600460205260408120805485929061209a908490613a19565b909155506001949350505050565b60035460609060009063ffffffff1667ffffffffffffffff8111156120cf576120cf613a77565b60405190808252806020026020018201604052801561215457816020015b6040805160e08101825260008082526020808301829052928201819052606082018190526080820181905260a0820181905260c082015282527fffffffffffffffffffffffffffffffffffffffffffffffffffffffffffffffff9092019101816120ed5790505b5090506000805b60035463ffffffff90811690821610156122975763ffffffff811660009081526002602052604090206001015473ffffffffffffffffffffffffffffffffffffffff8087169116036122855763ffffffff808216600090815260026020818152604092839020835160e0810185528154808716825264010000000081048716938201939093526801000000000000000083048616948101949094526c0100000000000000000000000082048516606085015270010000000000000000000000000000000090910484166080840152600181015473ffffffffffffffffffffffffffffffffffffffff90811660a08501529101541660c082015284519091859190851690811061226c5761226c613aa6565b60209081029190910101526122826001836139bd565b91505b8061228f8161399a565b91505061215b565b508063ffffffff1667ffffffffffffffff8111156122b7576122b7613a77565b60405190808252806020026020018201604052801561233c57816020015b6040805160e08101825260008082526020808301829052928201819052606082018190526080820181905260a0820181905260c082015282527fffffffffffffffffffffffffffffffffffffffffffffffffffffffffffffffff9092019101816122d55790505b50925060005b8163ffffffff168163ffffffff161015611bbc57828163ffffffff168151811061236e5761236e613aa6565b6020026020010151848263ffffffff168151811061238e5761238e613aa6565b602002602001018190525080806123a49061399a565b915050612342565b60075473ffffffffffffffffffffffffffffffffffffffff163314612452576040517f08c379a0000000000000000000000000000000000000000000000000000000008152602060048201526024808201527f6f6e6c7920636f6d6d756e69747920636f6e74726163742063616e207365742060448201527f636f696e000000000000000000000000000000000000000000000000000000006064820152608401610892565b600680547fffffffffffffffffffffffff00000000000000000000000000000000000000001673ffffffffffffffffffffffffffffffffffffffff92909216919091179055565b60015460609060009063ffffffff1667ffffffffffffffff8111156124c0576124c0613a77565b60405190808252806020026020018201604052801561253e57816020015b6040805160c08101825260008082526020808301829052928201819052606082018190526080820181905260a082015282527fffffffffffffffffffffffffffffffffffffffffffffffffffffffffffffffff9092019101816124de5790505b5090506000805b60015463ffffffff90811690821610156126e35763ffffffff811660009081526020819052604090206001015461ffff7e01000000000000000000000000000000000000000000000000000000000000820481167c01000000000000000000000000000000000000000000000000000000009092041611156126d15763ffffffff80821660009081526020818152604091829020825160c0810184528154815260019091015473ffffffffffffffffffffffffffffffffffffffff811692820192909252740100000000000000000000000000000000000000008204841692810192909252780100000000000000000000000000000000000000000000000081048316606083015261ffff7c01000000000000000000000000000000000000000000000000000000008204811660808401527e010000000000000000000000000000000000000000000000000000000000009091041660a08201528451909185919085169081106126b8576126b8613aa6565b60209081029190910101526126ce6001836139bd565b91505b806126db8161399a565b915050612545565b508063ffffffff1667ffffffffffffffff81111561270357612703613a77565b60405190808252806020026020018201604052801561278157816020015b6040805160c08101825260008082526020808301829052928201819052606082018190526080820181905260a082015282527fffffffffffffffffffffffffffffffffffffffffffffffffffffffffffffffff9092019101816127215790505b50925060005b8163ffffffff168163ffffffff1610156127f157828163ffffffff16815181106127b3576127b3613aa6565b6020026020010151848263ffffffff16815181106127d3576127d3613aa6565b602002602001018190525080806127e99061399a565b915050612787565b50505090565b63ffffffff811660009081526020819052604090206001015473ffffffffffffffffffffffffffffffffffffffff1633146128b4576040517f08c379a000000000000000000000000000000000000000000000000000000000815260206004820152602260248201527f4f6e6c7920746865206f776e65722063616e2072656d6f766520616e206f666660448201527f65720000000000000000000000000000000000000000000000000000000000006064820152608401610892565b63ffffffff81166000908152602081905260409020600101547e01000000000000000000000000000000000000000000000000000000000000900461ffff1615612980576040517f08c379a000000000000000000000000000000000000000000000000000000000815260206004820152602b60248201527f43616e6e6f742072656d6f766520616e206f66666572207769746820626f6f6b60448201527f6564206d616368696e65730000000000000000000000000000000000000000006064820152608401610892565b63ffffffff16600090815260208190526040812081815560010155565b60006109c48261ffff1610612a34576040517f08c379a000000000000000000000000000000000000000000000000000000000815260206004820152603860248201527f636f6d6d756e697479206665652073686f756c6420626520696e2072616e676560448201527f206f662030202830252920746f203235303020283235252900000000000000006064820152608401610892565b60075473ffffffffffffffffffffffffffffffffffffffff163314612adb576040517f08c379a000000000000000000000000000000000000000000000000000000000815260206004820152602d60248201527f6f6e6c7920636f6d6d756e69747920636f6e74726163742063616e207365742060448201527f636f6d6d756e69747920666565000000000000000000000000000000000000006064820152608401610892565b506007805461ffff90921674010000000000000000000000000000000000000000027fffffffffffffffffffff0000ffffffffffffffffffffffffffffffffffffffff909216919091179055600090565b600080612b38836130bf565b73ffffffffffffffffffffffffffffffffffffffff8416600090815260046020526040902054909150612b6c908290613a19565b9150915091565b3360009081526008602052604090206001015460ff16612c15576040517f08c379a000000000000000000000000000000000000000000000000000000000815260206004820152602660248201527f50726f7669646572206d757374206265207265676973746572656420746f207360448201527f65742075726c00000000000000000000000000000000000000000000000000006064820152608401610892565b33600090815260086020526040902055565b63ffffffff82166000908152600260208190526040909120015473ffffffffffffffffffffffffffffffffffffffff16331480612ca0575063ffffffff821660009081526002602052604090206001015473ffffffffffffffffffffffffffffffffffffffff1633148015612ca0575061ffff81166002145b80612cd1575060075473ffffffffffffffffffffffffffffffffffffffff1633148015612cd1575061ffff81166004145b612d83576040517f08c379a000000000000000000000000000000000000000000000000000000000815260206004820152605d60248201527f4f6e6c792074686520757365722063616e2073746f70206120564d207769746860448201527f20726561736f6e2030206f7220312c206f6e6c79207468652070726f7669646560648201527f722063616e2073746f70206120564d207769746820726561736f6e2032000000608482015260a401610892565b612d8c82613109565b506110a3828261338a565b60015460609060009063ffffffff1667ffffffffffffffff811115612dbe57612dbe613a77565b604051908082528060200260200182016040528015612e3c57816020015b6040805160c08101825260008082526020808301829052928201819052606082018190526080820181905260a082015282527fffffffffffffffffffffffffffffffffffffffffffffffffffffffffffffffff909201910181612ddc5790505b5090506000805b60015463ffffffff9081169082161015612fb15763ffffffff811660009081526020819052604090206001015473ffffffffffffffffffffffffffffffffffffffff808716911603612f9f5763ffffffff80821660009081526020818152604091829020825160c0810184528154815260019091015473ffffffffffffffffffffffffffffffffffffffff811692820192909252740100000000000000000000000000000000000000008204841692810192909252780100000000000000000000000000000000000000000000000081048316606083015261ffff7c01000000000000000000000000000000000000000000000000000000008204811660808401527e010000000000000000000000000000000000000000000000000000000000009091041660a0820152845190918591908516908110612f8657612f86613aa6565b6020908102919091010152612f9c6001836139bd565b91505b80612fa98161399a565b915050612e43565b508063ffffffff1667ffffffffffffffff811115612fd157612fd1613a77565b60405190808252806020026020018201604052801561304f57816020015b6040805160c08101825260008082526020808301829052928201819052606082018190526080820181905260a082015282527fffffffffffffffffffffffffffffffffffffffffffffffffffffffffffffffff909201910181612fef5790505b50925060005b8163ffffffff168163ffffffff161015611bbc57828163ffffffff168151811061308157613081613aa6565b6020026020010151848263ffffffff16815181106130a1576130a1613aa6565b602002602001018190525080806130b79061399a565b915050613055565b73ffffffffffffffffffffffffffffffffffffffff81166000908152600560205260408120546130f99062093a809063ffffffff1661395b565b67ffffffffffffffff1692915050565b63ffffffff808216600090815260026020526040812054909160019183916131469170010000000000000000000000000000000090041642613a19565b63ffffffff8086166000908152600260205260408120549293509161317991680100000000000000009091041683613af6565b63ffffffff861660009081526002602081815260408084209092015473ffffffffffffffffffffffffffffffffffffffff168352600490529020549091508111156131fe575063ffffffff841660009081526002602081815260408084209092015473ffffffffffffffffffffffffffffffffffffffff168352600490528120549092505b6007546000906127109061322e9074010000000000000000000000000000000000000000900461ffff1684613af6565b6132389190613b0d565b905060006132468284613a19565b63ffffffff808916600090815260026020908152604080832080544295909516700100000000000000000000000000000000027fffffffffffffffffffffffff00000000ffffffffffffffffffffffffffffffff9095169490941790935560075473ffffffffffffffffffffffffffffffffffffffff16825260049052908120805492935084929091906132db908490613987565b909155505063ffffffff871660009081526002602090815260408083206001015473ffffffffffffffffffffffffffffffffffffffff16835260049091528120805483929061332b908490613987565b909155505063ffffffff871660009081526002602081815260408084209092015473ffffffffffffffffffffffffffffffffffffffff168352600490528120805485929061337a908490613a19565b9091555094979650505050505050565b63ffffffff828116600090815260026020908152604080832054640100000000900490931682528190522060019081018054601e906133f09084907e01000000000000000000000000000000000000000000000000000000000000900461ffff16613b48565b825461ffff9182166101009390930a92830291909202199091161790555063ffffffff8083166000908152600260208181526040808420805493015473ffffffffffffffffffffffffffffffffffffffff1684526005909152822080546801000000000000000090920484169390929161346c918591166139fc565b92506101000a81548163ffffffff021916908363ffffffff1602179055508061ffff167fcd55ab5d54faac19433439d474272114709046556ac0cb7c325f00ba2a166293836040516134ca919063ffffffff91909116815260200190565b60405180910390a25063ffffffff16600090815260026020819052604090912080547fffffffffffffffffffffffff0000000000000000000000000000000000000000908116825560018201805482169055910180549091169055565b803563ffffffff8116811461353b57600080fd5b919050565b60006020828403121561355257600080fd5b61355b82613527565b9392505050565b73ffffffffffffffffffffffffffffffffffffffff8116811461358457600080fd5b50565b60006020828403121561359957600080fd5b813561355b81613562565b6000602082840312156135b657600080fd5b5035919050565b803561ffff8116811461353b57600080fd5b6000806000606084860312156135e457600080fd5b6135ed84613527565b92506135fb602085016135bd565b915061360960408501613527565b90509250925092565b60008060006060848603121561362757600080fd5b61363084613527565b925061363e602085016135bd565b9150604084013590509250925092565b6020808252825182820181905260009190848201906040850190845b818110156136fb576136e883855163ffffffff8082511683528060208301511660208401528060408301511660408401528060608301511660608401528060808301511660808401525060a081015173ffffffffffffffffffffffffffffffffffffffff80821660a08501528060c08401511660c085015250505050565b9284019260e0929092019160010161366a565b50909695505050505050565b6000806040838503121561371a57600080fd5b823561372581613562565b9150602083013567ffffffffffffffff8116811461374257600080fd5b809150509250929050565b6020808252825182820181905260009190848201906040850190845b818110156136fb576137dd8385518051825273ffffffffffffffffffffffffffffffffffffffff6020820151166020830152604081015163ffffffff80821660408501528060608401511660608501525050608081015161ffff80821660808501528060a08401511660a085015250505050565b9284019260c09290920191600101613769565b60006020828403121561380257600080fd5b61355b826135bd565b60e08101613884828463ffffffff8082511683528060208301511660208401528060408301511660408401528060608301511660608401528060808301511660808401525060a081015173ffffffffffffffffffffffffffffffffffffffff80821660a08501528060c08401511660c085015250505050565b92915050565b6000806040838503121561389d57600080fd5b6138a683613527565b91506138b4602084016135bd565b90509250929050565b60c0810161388482848051825273ffffffffffffffffffffffffffffffffffffffff6020820151166020830152604081015163ffffffff80821660408501528060608401511660608501525050608081015161ffff80821660808501528060a08401511660a085015250505050565b7f4e487b7100000000000000000000000000000000000000000000000000000000600052601160045260246000fd5b67ffffffffffffffff81811683821602808216919082811461397f5761397f61392c565b505092915050565b808201808211156138845761388461392c565b600063ffffffff8083168181036139b3576139b361392c565b6001019392505050565b63ffffffff8181168382160190808211156139da576139da61392c565b5092915050565b61ffff8181168382160190808211156139da576139da61392c565b63ffffffff8281168282160390808211156139da576139da61392c565b818103818111156138845761388461392c565b600060208284031215613a3e57600080fd5b8151801515811461355b57600080fd5b6fffffffffffffffffffffffffffffffff8181168382160190808211156139da576139da61392c565b7f4e487b7100000000000000000000000000000000000000000000000000000000600052604160045260246000fd5b7f4e487b7100000000000000000000000000000000000000000000000000000000600052603260045260246000fd5b67ffffffffffffffff8181168382160190808211156139da576139da61392c565b80820281158282048414176138845761388461392c565b600082613b43577f4e487b7100000000000000000000000000000000000000000000000000000000600052601260045260246000fd5b500490565b61ffff8281168282160390808211156139da576139da61392c56fea264697066735822122035fa7b413b6d84de49064ff98d8941272c68f4a19487cf61b12f1de358f12b7264736f6c63430008110033",
  "linkReferences": {},
  "deployedLinkReferences": {}
}