{
  "_format": "hh-sol-artifact-1",
  "contractName": "Broker",
  "sourceName": "contracts/Broker.sol",
  "abi": [
    {
      "anonymous": false,
      "inputs": [
        {
          "indexed": true,
          "internalType": "address",
          "name": "user",
          "type": "address"
        },
        {
          "indexed": true,
          "internalType": "address",
          "name": "provider",
          "type": "address"
        },
        {
          "indexed": false,
          "internalType": "uint32",
          "name": "bookingIndex",
          "type": "uint32"
        },
        {
          "indexed": false,
          "internalType": "uint32",
          "name": "pps",
          "type": "uint32"
        }
      ],
      "name": "NewBooking",
      "type": "event"
    },
    {
      "anonymous": false,
      "inputs": [
        {
          "indexed": false,
          "internalType": "uint32",
          "name": "bookingIndex",
          "type": "uint32"
        },
        {
          "indexed": true,
          "internalType": "uint16",
          "name": "reason",
          "type": "uint16"
        }
      ],
      "name": "Termination",
      "type": "event"
    },
    {
      "inputs": [
        {
          "internalType": "uint32",
          "name": "pricePerSecond",
          "type": "uint32"
        },
        {
          "internalType": "uint16",
          "name": "machinesTotal",
          "type": "uint16"
        },
        {
          "internalType": "bytes32",
          "name": "specsIpfsHash",
          "type": "bytes32"
        }
      ],
      "name": "AddOffer",
      "outputs": [
        {
          "internalType": "uint32",
          "name": "",
          "type": "uint32"
        }
      ],
      "stateMutability": "nonpayable",
      "type": "function"
    },
    {
      "inputs": [
        {
          "internalType": "address",
          "name": "user",
          "type": "address"
        },
        {
          "internalType": "uint64",
          "name": "amt",
          "type": "uint64"
        }
      ],
      "name": "AddTrial",
      "outputs": [],
      "stateMutability": "nonpayable",
      "type": "function"
    },
    {
      "inputs": [
        {
          "internalType": "uint32",
          "name": "offerIndex",
          "type": "uint32"
        }
      ],
      "name": "Book",
      "outputs": [
        {
          "internalType": "uint32",
          "name": "",
          "type": "uint32"
        }
      ],
      "stateMutability": "nonpayable",
      "type": "function"
    },
    {
      "inputs": [
        {
          "internalType": "uint32",
          "name": "bookingId",
          "type": "uint32"
        }
      ],
      "name": "ClaimPayment",
      "outputs": [],
      "stateMutability": "nonpayable",
      "type": "function"
    },
    {
      "inputs": [
        {
          "internalType": "uint256",
          "name": "numTokens",
          "type": "uint256"
        }
      ],
      "name": "DepositCoin",
      "outputs": [
        {
          "internalType": "bool",
          "name": "",
          "type": "bool"
        }
      ],
      "stateMutability": "nonpayable",
      "type": "function"
    },
    {
      "inputs": [
        {
          "internalType": "address",
          "name": "_provider",
          "type": "address"
        }
      ],
      "name": "FindBookingsByProvider",
      "outputs": [
        {
          "components": [
            {
              "internalType": "uint32",
              "name": "index",
              "type": "uint32"
            },
            {
              "internalType": "uint32",
              "name": "offerIndex",
              "type": "uint32"
            },
            {
              "internalType": "uint32",
              "name": "pricePerSecond",
              "type": "uint32"
            },
            {
              "internalType": "uint32",
              "name": "bookedAt",
              "type": "uint32"
            },
            {
              "internalType": "uint32",
              "name": "lastPayment",
              "type": "uint32"
            },
            {
              "internalType": "address",
              "name": "provider",
              "type": "address"
            },
            {
              "internalType": "address",
              "name": "user",
              "type": "address"
            }
          ],
          "internalType": "struct Broker.Booking[]",
          "name": "filteredBookings",
          "type": "tuple[]"
        }
      ],
      "stateMutability": "view",
      "type": "function"
    },
    {
      "inputs": [
        {
          "internalType": "address",
          "name": "_owner",
          "type": "address"
        }
      ],
      "name": "FindBookingsByUser",
      "outputs": [
        {
          "components": [
            {
              "internalType": "uint32",
              "name": "index",
              "type": "uint32"
            },
            {
              "internalType": "uint32",
              "name": "offerIndex",
              "type": "uint32"
            },
            {
              "internalType": "uint32",
              "name": "pricePerSecond",
              "type": "uint32"
            },
            {
              "internalType": "uint32",
              "name": "bookedAt",
              "type": "uint32"
            },
            {
              "internalType": "uint32",
              "name": "lastPayment",
              "type": "uint32"
            },
            {
              "internalType": "address",
              "name": "provider",
              "type": "address"
            },
            {
              "internalType": "address",
              "name": "user",
              "type": "address"
            }
          ],
          "internalType": "struct Broker.Booking[]",
          "name": "filteredBookings",
          "type": "tuple[]"
        }
      ],
      "stateMutability": "view",
      "type": "function"
    },
    {
      "inputs": [],
      "name": "GetAvailableOffers",
      "outputs": [
        {
          "components": [
            {
              "internalType": "bytes32",
              "name": "specsIpfsHash",
              "type": "bytes32"
            },
            {
              "internalType": "address",
              "name": "provider",
              "type": "address"
            },
            {
              "internalType": "uint32",
              "name": "index",
              "type": "uint32"
            },
            {
              "internalType": "uint32",
              "name": "pricePerSecond",
              "type": "uint32"
            },
            {
              "internalType": "uint16",
              "name": "machinesTotal",
              "type": "uint16"
            },
            {
              "internalType": "uint16",
              "name": "machinesBooked",
              "type": "uint16"
            }
          ],
          "internalType": "struct Broker.Offer[]",
          "name": "filteredOffers",
          "type": "tuple[]"
        }
      ],
      "stateMutability": "view",
      "type": "function"
    },
    {
      "inputs": [
        {
          "internalType": "uint32",
          "name": "index",
          "type": "uint32"
        }
      ],
      "name": "GetBooking",
      "outputs": [
        {
          "components": [
            {
              "internalType": "uint32",
              "name": "index",
              "type": "uint32"
            },
            {
              "internalType": "uint32",
              "name": "offerIndex",
              "type": "uint32"
            },
            {
              "internalType": "uint32",
              "name": "pricePerSecond",
              "type": "uint32"
            },
            {
              "internalType": "uint32",
              "name": "bookedAt",
              "type": "uint32"
            },
            {
              "internalType": "uint32",
              "name": "lastPayment",
              "type": "uint32"
            },
            {
              "internalType": "address",
              "name": "provider",
              "type": "address"
            },
            {
              "internalType": "address",
              "name": "user",
              "type": "address"
            }
          ],
          "internalType": "struct Broker.Booking",
          "name": "booking",
          "type": "tuple"
        }
      ],
      "stateMutability": "view",
      "type": "function"
    },
    {
      "inputs": [
        {
          "internalType": "address",
          "name": "user",
          "type": "address"
        }
      ],
      "name": "GetCoinBalance",
      "outputs": [
        {
          "internalType": "uint256",
          "name": "free",
          "type": "uint256"
        },
        {
          "internalType": "uint256",
          "name": "locked",
          "type": "uint256"
        }
      ],
      "stateMutability": "view",
      "type": "function"
    },
    {
      "inputs": [
        {
          "internalType": "uint32",
          "name": "index",
          "type": "uint32"
        }
      ],
      "name": "GetOffer",
      "outputs": [
        {
          "components": [
            {
              "internalType": "bytes32",
              "name": "specsIpfsHash",
              "type": "bytes32"
            },
            {
              "internalType": "address",
              "name": "provider",
              "type": "address"
            },
            {
              "internalType": "uint32",
              "name": "index",
              "type": "uint32"
            },
            {
              "internalType": "uint32",
              "name": "pricePerSecond",
              "type": "uint32"
            },
            {
              "internalType": "uint16",
              "name": "machinesTotal",
              "type": "uint16"
            },
            {
              "internalType": "uint16",
              "name": "machinesBooked",
              "type": "uint16"
            }
          ],
          "internalType": "struct Broker.Offer",
          "name": "oneOffer",
          "type": "tuple"
        }
      ],
      "stateMutability": "view",
      "type": "function"
    },
    {
      "inputs": [
        {
          "internalType": "address",
          "name": "_user",
          "type": "address"
        }
      ],
      "name": "GetProviderUrl",
      "outputs": [
        {
          "internalType": "bytes32",
          "name": "",
          "type": "bytes32"
        }
      ],
      "stateMutability": "view",
      "type": "function"
    },
    {
      "inputs": [
        {
          "internalType": "address",
          "name": "provider",
          "type": "address"
        }
      ],
      "name": "GetProvidersOffers",
      "outputs": [
        {
          "components": [
            {
              "internalType": "bytes32",
              "name": "specsIpfsHash",
              "type": "bytes32"
            },
            {
              "internalType": "address",
              "name": "provider",
              "type": "address"
            },
            {
              "internalType": "uint32",
              "name": "index",
              "type": "uint32"
            },
            {
              "internalType": "uint32",
              "name": "pricePerSecond",
              "type": "uint32"
            },
            {
              "internalType": "uint16",
              "name": "machinesTotal",
              "type": "uint16"
            },
            {
              "internalType": "uint16",
              "name": "machinesBooked",
              "type": "uint16"
            }
          ],
          "internalType": "struct Broker.Offer[]",
          "name": "filteredOffers",
          "type": "tuple[]"
        }
      ],
      "stateMutability": "view",
      "type": "function"
    },
    {
      "inputs": [],
      "name": "GetTime",
      "outputs": [
        {
          "internalType": "uint256",
          "name": "",
          "type": "uint256"
        }
      ],
      "stateMutability": "view",
      "type": "function"
    },
    {
      "inputs": [
        {
          "internalType": "address",
          "name": "user",
          "type": "address"
        }
      ],
      "name": "GetTrialAmount",
      "outputs": [
        {
          "internalType": "uint64",
          "name": "",
          "type": "uint64"
        }
      ],
      "stateMutability": "view",
      "type": "function"
    },
    {
      "inputs": [
        {
          "internalType": "address",
          "name": "_user",
          "type": "address"
        }
      ],
      "name": "IsProviderRegistered",
      "outputs": [
        {
          "internalType": "bool",
          "name": "",
          "type": "bool"
        }
      ],
      "stateMutability": "view",
      "type": "function"
    },
    {
      "inputs": [],
      "name": "PROVIDER_REGISTRATION_FEE",
      "outputs": [
        {
          "internalType": "uint64",
          "name": "",
          "type": "uint64"
        }
      ],
      "stateMutability": "view",
      "type": "function"
    },
    {
      "inputs": [],
      "name": "REASON_COMMUNITY_TERMINATED",
      "outputs": [
        {
          "internalType": "uint16",
          "name": "",
          "type": "uint16"
        }
      ],
      "stateMutability": "view",
      "type": "function"
    },
    {
      "inputs": [],
      "name": "REASON_NON_PAYMENT",
      "outputs": [
        {
          "internalType": "uint16",
          "name": "",
          "type": "uint16"
        }
      ],
      "stateMutability": "view",
      "type": "function"
    },
    {
      "inputs": [],
      "name": "REASON_PROVIDER_TERMINATED",
      "outputs": [
        {
          "internalType": "uint16",
          "name": "",
          "type": "uint16"
        }
      ],
      "stateMutability": "view",
      "type": "function"
    },
    {
      "inputs": [],
      "name": "RegisterProvider",
      "outputs": [],
      "stateMutability": "nonpayable",
      "type": "function"
    },
    {
      "inputs": [
        {
          "internalType": "uint32",
          "name": "offerIndex",
          "type": "uint32"
        }
      ],
      "name": "RemoveOffer",
      "outputs": [],
      "stateMutability": "nonpayable",
      "type": "function"
    },
    {
      "inputs": [
        {
          "internalType": "address",
          "name": "user",
          "type": "address"
        }
      ],
      "name": "RemoveTrial",
      "outputs": [],
      "stateMutability": "nonpayable",
      "type": "function"
    },
    {
      "inputs": [],
      "name": "SECONDS_IN_WEEK",
      "outputs": [
        {
          "internalType": "uint64",
          "name": "",
          "type": "uint64"
        }
      ],
      "stateMutability": "view",
      "type": "function"
    },
    {
      "inputs": [
        {
          "internalType": "contract IERC20",
          "name": "newCoinAddress",
          "type": "address"
        }
      ],
      "name": "SetCoinAddress",
      "outputs": [],
      "stateMutability": "nonpayable",
      "type": "function"
    },
    {
      "inputs": [
        {
          "internalType": "address",
          "name": "newCommunityAddress",
          "type": "address"
        }
      ],
      "name": "SetCommunityContract",
      "outputs": [],
      "stateMutability": "nonpayable",
      "type": "function"
    },
    {
      "inputs": [
        {
          "internalType": "uint16",
          "name": "fee",
          "type": "uint16"
        }
      ],
      "name": "SetCommunityFee",
      "outputs": [
        {
          "internalType": "bool",
          "name": "",
          "type": "bool"
        }
      ],
      "stateMutability": "nonpayable",
      "type": "function"
    },
    {
      "inputs": [
        {
          "internalType": "bytes32",
          "name": "url",
          "type": "bytes32"
        }
      ],
      "name": "SetProviderUrl",
      "outputs": [],
      "stateMutability": "nonpayable",
      "type": "function"
    },
    {
      "inputs": [
        {
          "internalType": "uint32",
          "name": "bookingId",
          "type": "uint32"
        },
        {
          "internalType": "uint16",
          "name": "reason",
          "type": "uint16"
        }
      ],
      "name": "Terminate",
      "outputs": [],
      "stateMutability": "nonpayable",
      "type": "function"
    },
    {
      "inputs": [
        {
          "internalType": "uint32",
          "name": "offerIndex",
          "type": "uint32"
        },
        {
          "internalType": "uint16",
          "name": "machinesTotal",
          "type": "uint16"
        },
        {
          "internalType": "uint32",
          "name": "pps",
          "type": "uint32"
        }
      ],
      "name": "UpdateOffer",
      "outputs": [],
      "stateMutability": "nonpayable",
      "type": "function"
    },
    {
      "inputs": [
        {
          "internalType": "uint256",
          "name": "amt",
          "type": "uint256"
        }
      ],
      "name": "WithdrawCoin",
      "outputs": [
        {
          "internalType": "bool",
          "name": "",
          "type": "bool"
        }
      ],
      "stateMutability": "nonpayable",
      "type": "function"
    },
    {
      "inputs": [],
      "name": "coin",
      "outputs": [
        {
          "internalType": "contract IERC20",
          "name": "",
          "type": "address"
        }
      ],
      "stateMutability": "view",
      "type": "function"
    },
    {
      "inputs": [],
      "name": "communityContract",
      "outputs": [
        {
          "internalType": "address",
          "name": "",
          "type": "address"
        }
      ],
      "stateMutability": "view",
      "type": "function"
    },
    {
      "inputs": [],
      "name": "communityFee",
      "outputs": [
        {
          "internalType": "uint16",
          "name": "",
          "type": "uint16"
        }
      ],
      "stateMutability": "view",
      "type": "function"
    },
    {
      "inputs": [
        {
          "internalType": "address",
          "name": "user",
          "type": "address"
        }
      ],
      "name": "getTrustedKey",
      "outputs": [
        {
          "internalType": "bytes32",
          "name": "",
          "type": "bytes32"
        }
      ],
      "stateMutability": "view",
      "type": "function"
    },
    {
      "inputs": [
        {
          "internalType": "bytes32",
          "name": "pubkey",
          "type": "bytes32"
        }
      ],
      "name": "setTrustedKey",
      "outputs": [],
      "stateMutability": "nonpayable",
      "type": "function"
    }
  ],
  "bytecode": "0x608060405234801561001057600080fd5b50613c25806100206000396000f3fe608060405234801561001057600080fd5b506004361061025c5760003560e01c80638e63402911610145578063c74c1614116100bd578063de4c8cd11161008c578063e2a5aa6e11610071578063e2a5aa6e146106dd578063fd30797014610810578063fd6e7e2a1461084657600080fd5b8063de4c8cd1146106b3578063e088b29e146106d357600080fd5b8063c74c161414610645578063c79a1f7114610658578063c9124a8c14610698578063cde71922146106ab57600080fd5b8063b65c4b9c11610114578063bfc054e3116100f9578063bfc054e314610502578063bfc7853914610515578063c1fab57d1461053d57600080fd5b8063b65c4b9c146104da578063bac32356146104ef57600080fd5b80638e63402914610447578063a675768c14610467578063a6ce31571461047a578063b43430ab146104b657600080fd5b80634f49115b116101d85780636dd590dc116101a75780637b8286891161018c5780637b828689146103fb57806388f9b0f21461040e5780638961be6b1461042157600080fd5b80636dd590dc146103bd57806379d77c16146103c557600080fd5b80634f49115b1461036f578063534b3ccb1461037757806360d52b9d146103975780636b620ed5146103aa57600080fd5b80632bc209d61161022f57806331eda5871161021457806331eda5871461032e57806339291284146103415780633abdd2f21461035c57600080fd5b80632bc209d6146102f85780632ee7c8591461030b57600080fd5b8063081c43291461026157806311df99951461028e57806318c5e502146102d357806329aa1289146102e3575b600080fd5b61027461026f3660046135cc565b610859565b60405163ffffffff90911681526020015b60405180910390f35b6006546102ae9073ffffffffffffffffffffffffffffffffffffffff1681565b60405173ffffffffffffffffffffffffffffffffffffffff9091168152602001610285565b425b604051908152602001610285565b6102f66102f1366004613613565b610df3565b005b6102f66103063660046135cc565b611055565b61031e610319366004613630565b611133565b6040519015158152602001610285565b6102f661033c36600461365b565b61126e565b610349600481565b60405161ffff9091168152602001610285565b61027461036a36600461369e565b6114aa565b6102f661172a565b61038a610385366004613613565b611943565b60405161028591906136da565b6102f66103a5366004613793565b611c50565b6102f66103b8366004613613565b611dbe565b610349600281565b6102d56103d3366004613613565b73ffffffffffffffffffffffffffffffffffffffff166000908152600a602052604090205490565b61031e610409366004613630565b611ecd565b61038a61041c366004613613565b612134565b6007546103499074010000000000000000000000000000000000000000900461ffff1681565b6007546102ae9073ffffffffffffffffffffffffffffffffffffffff1681565b6102f6610475366004613613565b612438565b61031e610488366004613613565b73ffffffffffffffffffffffffffffffffffffffff1660009081526008602052604090206001015460ff1690565b6104c16305f5e10081565b60405167ffffffffffffffff9091168152602001610285565b6104e2612525565b60405161028591906137d9565b6102f66104fd3660046135cc565b612883565b61031e61051036600461387c565b612a29565b610528610523366004613613565b612bb8565b60408051928352602083019190915201610285565b61063861054b3660046135cc565b6040805160e081018252600080825260208201819052918101829052606081018290526080810182905260a0810182905260c08101919091525063ffffffff908116600090815260026020818152604092839020835160e0810185528154808716825264010000000081048716938201939093526801000000000000000083048616948101949094526c010000000000000000000000008204851660608501527001000000000000000000000000000000009091049093166080830152600183015473ffffffffffffffffffffffffffffffffffffffff90811660a084015292015490911660c082015290565b6040516102859190613897565b6102f6610653366004613630565b612bff565b6104c1610666366004613613565b73ffffffffffffffffffffffffffffffffffffffff1660009081526009602052604090205467ffffffffffffffff1690565b6102f66106a6366004613916565b612cb3565b610349600381565b6102f66106c1366004613630565b336000908152600a6020526040902055565b6104c162093a8081565b6108036106eb3660046135cc565b6040805160c081018252600080825260208201819052918101829052606081018290526080810182905260a08101919091525063ffffffff90811660009081526020818152604091829020825160c0810184528154815260019091015473ffffffffffffffffffffffffffffffffffffffff81169282019290925274010000000000000000000000000000000000000000820484169281019290925278010000000000000000000000000000000000000000000000008104909216606082015261ffff7c01000000000000000000000000000000000000000000000000000000008304811660808301527e0100000000000000000000000000000000000000000000000000000000000090920490911660a082015290565b6040516102859190613949565b6102d561081e366004613613565b73ffffffffffffffffffffffffffffffffffffffff1660009081526008602052604090205490565b6104e2610854366004613613565b612e23565b63ffffffff811660009081526020819052604081206001015461ffff7e01000000000000000000000000000000000000000000000000000000000000820481167c01000000000000000000000000000000000000000000000000000000009092041611610927576040517f08c379a000000000000000000000000000000000000000000000000000000000815260206004820152601560248201527f4e6f206d616368696e657320617661696c61626c65000000000000000000000060448201526064015b60405180910390fd5b63ffffffff808316600090815260208190526040812060010154909161096f9162093a80917801000000000000000000000000000000000000000000000000909104166139e7565b67ffffffffffffffff166109823361314b565b61098c9190613a13565b33600090815260046020526040902054909150811115610a54576040517f08c379a000000000000000000000000000000000000000000000000000000000815260206004820152605060248201527f596f7520646f6e2774206861766520656e6f7567682062616c616e636520746f60448201527f2070617920666f72207468697320616e6420616c6c206f7468657220426f6f6b60648201527f696e677320666f72203720646179732000000000000000000000000000000000608482015260a40161091e565b6040805160e0810182526003805463ffffffff90811680845287821660208086018281526000928352828252878320600190810154780100000000000000000000000000000000000000000000000081048716898b0190815242881660608b0181815260808c0191825273ffffffffffffffffffffffffffffffffffffffff93841660a08d019081523360c08e019081529989526002978890529c88208c51815497519451925193518c16700100000000000000000000000000000000027fffffffffffffffffffffffff00000000ffffffffffffffffffffffffffffffff948d166c01000000000000000000000000027fffffffffffffffffffffffffffffffff00000000ffffffffffffffffffffffff948e166801000000000000000002949094167fffffffffffffffffffffffffffffffff0000000000000000ffffffffffffffff968e16640100000000027fffffffffffffffffffffffffffffffffffffffffffffffff0000000000000000909a16928e1692909217989098179490941693909317171693909317835598519082018054918a167fffffffffffffffffffffffff00000000000000000000000000000000000000009283161790559351910180549190971692169190911790945581549293921691610c3683613a26565b82546101009290920a63ffffffff8181021990931691831602179091558581166000908152602081815260408083206001015433845260059092528220805478010000000000000000000000000000000000000000000000009092048416945092610ca391859116613a49565b92506101000a81548163ffffffff021916908363ffffffff16021790555060016000808663ffffffff1663ffffffff168152602001908152602001600020600101601e8282829054906101000a900461ffff16610d009190613a6d565b825461ffff9182166101009390930a92830291909202199091161790555063ffffffff808516600090815260208190526040902060019081015460035473ffffffffffffffffffffffffffffffffffffffff9091169233927f51ff4075c1dfbe6bb96f0f69af5e347ff0654d85f683913424e28a6d153738fc92610d849216613a88565b63ffffffff88811660009081526020818152604091829020600101548251948416855278010000000000000000000000000000000000000000000000009004909216918301919091520160405180910390a3600354610deb9060019063ffffffff16613a88565b949350505050565b60075473ffffffffffffffffffffffffffffffffffffffff16331480610e2e57503373ffffffffffffffffffffffffffffffffffffffff8216145b610eba576040517f08c379a000000000000000000000000000000000000000000000000000000000815260206004820152603b60248201527f6f6e6c7920636f6d6d756e69747920636f6e7472616374206f7220757365722060448201527f7468656d73656c7665732063616e2072656d6f766520747269616c0000000000606482015260840161091e565b6000610ec58261314b565b73ffffffffffffffffffffffffffffffffffffffff8316600090815260046020526040902054610ef59190613aa5565b73ffffffffffffffffffffffffffffffffffffffff831660009081526009602052604090205490915067ffffffffffffffff16811015610fb7576040517f08c379a000000000000000000000000000000000000000000000000000000000815260206004820152602960248201527f7573657220686173206e6f7420656e6f75676820636f696e7320746f2063616e60448201527f63656c20747269616c0000000000000000000000000000000000000000000000606482015260840161091e565b73ffffffffffffffffffffffffffffffffffffffff821660009081526009602090815260408083205460049092528220805467ffffffffffffffff909216929091611003908490613aa5565b90915550505073ffffffffffffffffffffffffffffffffffffffff16600090815260096020526040902080547fffffffffffffffffffffffffffffffffffffffffffffffff0000000000000000169055565b63ffffffff811660009081526002602052604090206001015473ffffffffffffffffffffffffffffffffffffffff163314611112576040517f08c379a000000000000000000000000000000000000000000000000000000000815260206004820152602560248201527f4f6e6c79207468652070726f76696465722063616e20636c61696d206120706160448201527f796d656e74000000000000000000000000000000000000000000000000000000606482015260840161091e565b600061111d82613195565b90508061112f5761112f826003613416565b5050565b6006546040517f23b872dd0000000000000000000000000000000000000000000000000000000081523360048201523060248201526044810183905260009173ffffffffffffffffffffffffffffffffffffffff16906323b872dd906064016020604051808303816000875af11580156111b1573d6000803e3d6000fd5b505050506040513d601f19601f820116820180604052508101906111d59190613ab8565b61123b576040517f08c379a000000000000000000000000000000000000000000000000000000000815260206004820152601960248201527f4661696c656420746f207472616e7366657220746f6b656e7300000000000000604482015260640161091e565b33600090815260046020526040902054611256908390613a13565b33600090815260046020526040902055506001919050565b63ffffffff831660009081526020819052604090206001015473ffffffffffffffffffffffffffffffffffffffff16331461132b576040517f08c379a000000000000000000000000000000000000000000000000000000000815260206004820152602260248201527f4f6e6c7920746865206f776e65722063616e2075706461746520616e206f666660448201527f6572000000000000000000000000000000000000000000000000000000000000606482015260840161091e565b63ffffffff831660009081526020819052604090206001015461ffff8084167e010000000000000000000000000000000000000000000000000000000000009092041611156113fc576040517f08c379a000000000000000000000000000000000000000000000000000000000815260206004820152603060248201527f43616e6e6f7420726564756365206d616368696e6573546f74616c2062656c6f60448201527f77206d616368696e6573426f6f6b656400000000000000000000000000000000606482015260840161091e565b63ffffffff92831660009081526020819052604090206001018054919093167801000000000000000000000000000000000000000000000000027fffffffff00000000ffffffffffffffffffffffffffffffffffffffffffffffff61ffff9093167c010000000000000000000000000000000000000000000000000000000002929092167fffff000000000000ffffffffffffffffffffffffffffffffffffffffffffffff90911617179055565b3360009081526008602052604081206001015460ff1661154c576040517f08c379a000000000000000000000000000000000000000000000000000000000815260206004820152602960248201527f50726f7669646572206d757374206265207265676973746572656420746f206160448201527f6464206f66666572730000000000000000000000000000000000000000000000606482015260840161091e565b6040805160c0810182528381523360208083019182526001805463ffffffff9081168587018181528b83166060880190815261ffff8c811660808a01908152600060a08b01818152958152978890529987209851895596519785018054925191519951935173ffffffffffffffffffffffffffffffffffffffff9099167fffffffffffffffff000000000000000000000000000000000000000000000000909316929092177401000000000000000000000000000000000000000091851691909102177fffff000000000000ffffffffffffffffffffffffffffffffffffffffffffffff167801000000000000000000000000000000000000000000000000988416989098027fffff0000ffffffffffffffffffffffffffffffffffffffffffffffffffffffff16979097177c010000000000000000000000000000000000000000000000000000000091861691909102177dffffffffffffffffffffffffffffffffffffffffffffffffffffffffffff167e010000000000000000000000000000000000000000000000000000000000009590941694909402929092179093558054909116916116fc83613a26565b82546101009290920a63ffffffff81810219909316918316021790915560018054610deb9350909116613a88565b60006117353361314b565b3360009081526004602052604090205461174f9190613aa5565b90506305f5e1008110156117bf576040517f08c379a000000000000000000000000000000000000000000000000000000000815260206004820152601c60248201527f4e6f7420656e6f75676820636f696e20746f2072656769737465722000000000604482015260640161091e565b3360009081526008602052604090206001015460ff161561183c576040517f08c379a000000000000000000000000000000000000000000000000000000000815260206004820152601e60248201527f50726f766964657220697320616c726561647920726567697374657265640000604482015260640161091e565b33600090815260046020526040812080546305f5e100929061185f908490613aa5565b909155505060075473ffffffffffffffffffffffffffffffffffffffff16600090815260046020526040812080546305f5e100929061189f908490613a13565b9091555050336000908152600860205260409020600190810180547fffffffffffffffffffffffffffffffffffffffffffffffffffffffffffffff001682178082556305f5e100929061190a90849061010090046fffffffffffffffffffffffffffffffff16613ada565b92506101000a8154816fffffffffffffffffffffffffffffffff02191690836fffffffffffffffffffffffffffffffff16021790555050565b60035460609060009063ffffffff1667ffffffffffffffff81111561196a5761196a613b03565b6040519080825280602002602001820160405280156119ef57816020015b6040805160e08101825260008082526020808301829052928201819052606082018190526080820181905260a0820181905260c082015282527fffffffffffffffffffffffffffffffffffffffffffffffffffffffffffffffff9092019101816119885790505b5090506000805b60035463ffffffff9081169082161015611b335763ffffffff81166000908152600260208190526040909120015473ffffffffffffffffffffffffffffffffffffffff808716911603611b215763ffffffff808216600090815260026020818152604092839020835160e0810185528154808716825264010000000081048716938201939093526801000000000000000083048616948101949094526c0100000000000000000000000082048516606085015270010000000000000000000000000000000090910484166080840152600181015473ffffffffffffffffffffffffffffffffffffffff90811660a08501529101541660c0820152845190918591908516908110611b0857611b08613b32565b6020908102919091010152611b1e600183613a49565b91505b80611b2b81613a26565b9150506119f6565b508063ffffffff1667ffffffffffffffff811115611b5357611b53613b03565b604051908082528060200260200182016040528015611bd857816020015b6040805160e08101825260008082526020808301829052928201819052606082018190526080820181905260a0820181905260c082015282527fffffffffffffffffffffffffffffffffffffffffffffffffffffffffffffffff909201910181611b715790505b50925060005b8163ffffffff168163ffffffff161015611c4857828163ffffffff1681518110611c0a57611c0a613b32565b6020026020010151848263ffffffff1681518110611c2a57611c2a613b32565b60200260200101819052508080611c4090613a26565b915050611bde565b505050919050565b60075473ffffffffffffffffffffffffffffffffffffffff163314611cf7576040517f08c379a000000000000000000000000000000000000000000000000000000000815260206004820152602560248201527f6f6e6c7920636f6d6d756e69747920636f6e74726163742063616e206164642060448201527f747269616c000000000000000000000000000000000000000000000000000000606482015260840161091e565b73ffffffffffffffffffffffffffffffffffffffff821660009081526009602052604081208054839290611d3690849067ffffffffffffffff16613b61565b92506101000a81548167ffffffffffffffff021916908367ffffffffffffffff1602179055508067ffffffffffffffff16600460008473ffffffffffffffffffffffffffffffffffffffff1673ffffffffffffffffffffffffffffffffffffffff1681526020019081526020016000206000828254611db59190613a13565b90915550505050565b60075473ffffffffffffffffffffffffffffffffffffffff16331480611dfa575060075473ffffffffffffffffffffffffffffffffffffffff16155b611e86576040517f08c379a000000000000000000000000000000000000000000000000000000000815260206004820152603660248201527f6f6e6c7920636f6d6d756e69747920636f6e74726163742063616e207365742060448201527f6e657720636f6d6d756e69747920636f6e747261637400000000000000000000606482015260840161091e565b600780547fffffffffffffffffffffffff00000000000000000000000000000000000000001673ffffffffffffffffffffffffffffffffffffffff92909216919091179055565b600080611ed93361314b565b33600090815260046020526040902054611ef39190613aa5565b905082811015611f5f576040517f08c379a000000000000000000000000000000000000000000000000000000000815260206004820152601e60248201527f4e6f7420656e6f7567682062616c616e636520746f2077697468647261770000604482015260640161091e565b3360009081526009602052604090205467ffffffffffffffff1615612006576040517f08c379a000000000000000000000000000000000000000000000000000000000815260206004820152602160248201527f43616e6e6f7420776974686472617720647572696e672066726565207472696160448201527f6c00000000000000000000000000000000000000000000000000000000000000606482015260840161091e565b6006546040517fa9059cbb0000000000000000000000000000000000000000000000000000000081523360048201526024810185905273ffffffffffffffffffffffffffffffffffffffff9091169063a9059cbb906044016020604051808303816000875af115801561207d573d6000803e3d6000fd5b505050506040513d601f19601f820116820180604052508101906120a19190613ab8565b612107576040517f08c379a000000000000000000000000000000000000000000000000000000000815260206004820152601560248201527f4552433230207472616e73666572206661696c65640000000000000000000000604482015260640161091e565b3360009081526004602052604081208054859290612126908490613aa5565b909155506001949350505050565b60035460609060009063ffffffff1667ffffffffffffffff81111561215b5761215b613b03565b6040519080825280602002602001820160405280156121e057816020015b6040805160e08101825260008082526020808301829052928201819052606082018190526080820181905260a0820181905260c082015282527fffffffffffffffffffffffffffffffffffffffffffffffffffffffffffffffff9092019101816121795790505b5090506000805b60035463ffffffff90811690821610156123235763ffffffff811660009081526002602052604090206001015473ffffffffffffffffffffffffffffffffffffffff8087169116036123115763ffffffff808216600090815260026020818152604092839020835160e0810185528154808716825264010000000081048716938201939093526801000000000000000083048616948101949094526c0100000000000000000000000082048516606085015270010000000000000000000000000000000090910484166080840152600181015473ffffffffffffffffffffffffffffffffffffffff90811660a08501529101541660c08201528451909185919085169081106122f8576122f8613b32565b602090810291909101015261230e600183613a49565b91505b8061231b81613a26565b9150506121e7565b508063ffffffff1667ffffffffffffffff81111561234357612343613b03565b6040519080825280602002602001820160405280156123c857816020015b6040805160e08101825260008082526020808301829052928201819052606082018190526080820181905260a0820181905260c082015282527fffffffffffffffffffffffffffffffffffffffffffffffffffffffffffffffff9092019101816123615790505b50925060005b8163ffffffff168163ffffffff161015611c4857828163ffffffff16815181106123fa576123fa613b32565b6020026020010151848263ffffffff168151811061241a5761241a613b32565b6020026020010181905250808061243090613a26565b9150506123ce565b60075473ffffffffffffffffffffffffffffffffffffffff1633146124de576040517f08c379a0000000000000000000000000000000000000000000000000000000008152602060048201526024808201527f6f6e6c7920636f6d6d756e69747920636f6e74726163742063616e207365742060448201527f636f696e00000000000000000000000000000000000000000000000000000000606482015260840161091e565b600680547fffffffffffffffffffffffff00000000000000000000000000000000000000001673ffffffffffffffffffffffffffffffffffffffff92909216919091179055565b60015460609060009063ffffffff1667ffffffffffffffff81111561254c5761254c613b03565b6040519080825280602002602001820160405280156125ca57816020015b6040805160c08101825260008082526020808301829052928201819052606082018190526080820181905260a082015282527fffffffffffffffffffffffffffffffffffffffffffffffffffffffffffffffff90920191018161256a5790505b5090506000805b60015463ffffffff908116908216101561276f5763ffffffff811660009081526020819052604090206001015461ffff7e01000000000000000000000000000000000000000000000000000000000000820481167c010000000000000000000000000000000000000000000000000000000090920416111561275d5763ffffffff80821660009081526020818152604091829020825160c0810184528154815260019091015473ffffffffffffffffffffffffffffffffffffffff811692820192909252740100000000000000000000000000000000000000008204841692810192909252780100000000000000000000000000000000000000000000000081048316606083015261ffff7c01000000000000000000000000000000000000000000000000000000008204811660808401527e010000000000000000000000000000000000000000000000000000000000009091041660a082015284519091859190851690811061274457612744613b32565b602090810291909101015261275a600183613a49565b91505b8061276781613a26565b9150506125d1565b508063ffffffff1667ffffffffffffffff81111561278f5761278f613b03565b60405190808252806020026020018201604052801561280d57816020015b6040805160c08101825260008082526020808301829052928201819052606082018190526080820181905260a082015282527fffffffffffffffffffffffffffffffffffffffffffffffffffffffffffffffff9092019101816127ad5790505b50925060005b8163ffffffff168163ffffffff16101561287d57828163ffffffff168151811061283f5761283f613b32565b6020026020010151848263ffffffff168151811061285f5761285f613b32565b6020026020010181905250808061287590613a26565b915050612813565b50505090565b63ffffffff811660009081526020819052604090206001015473ffffffffffffffffffffffffffffffffffffffff163314612940576040517f08c379a000000000000000000000000000000000000000000000000000000000815260206004820152602260248201527f4f6e6c7920746865206f776e65722063616e2072656d6f766520616e206f666660448201527f6572000000000000000000000000000000000000000000000000000000000000606482015260840161091e565b63ffffffff81166000908152602081905260409020600101547e01000000000000000000000000000000000000000000000000000000000000900461ffff1615612a0c576040517f08c379a000000000000000000000000000000000000000000000000000000000815260206004820152602b60248201527f43616e6e6f742072656d6f766520616e206f66666572207769746820626f6f6b60448201527f6564206d616368696e6573000000000000000000000000000000000000000000606482015260840161091e565b63ffffffff16600090815260208190526040812081815560010155565b60006109c48261ffff1610612ac0576040517f08c379a000000000000000000000000000000000000000000000000000000000815260206004820152603860248201527f636f6d6d756e697479206665652073686f756c6420626520696e2072616e676560448201527f206f662030202830252920746f20323530302028323525290000000000000000606482015260840161091e565b60075473ffffffffffffffffffffffffffffffffffffffff163314612b67576040517f08c379a000000000000000000000000000000000000000000000000000000000815260206004820152602d60248201527f6f6e6c7920636f6d6d756e69747920636f6e74726163742063616e207365742060448201527f636f6d6d756e6974792066656500000000000000000000000000000000000000606482015260840161091e565b506007805461ffff90921674010000000000000000000000000000000000000000027fffffffffffffffffffff0000ffffffffffffffffffffffffffffffffffffffff909216919091179055600090565b600080612bc48361314b565b73ffffffffffffffffffffffffffffffffffffffff8416600090815260046020526040902054909150612bf8908290613aa5565b9150915091565b3360009081526008602052604090206001015460ff16612ca1576040517f08c379a000000000000000000000000000000000000000000000000000000000815260206004820152602660248201527f50726f7669646572206d757374206265207265676973746572656420746f207360448201527f65742075726c0000000000000000000000000000000000000000000000000000606482015260840161091e565b33600090815260086020526040902055565b63ffffffff82166000908152600260208190526040909120015473ffffffffffffffffffffffffffffffffffffffff16331480612d2c575063ffffffff821660009081526002602052604090206001015473ffffffffffffffffffffffffffffffffffffffff1633148015612d2c575061ffff81166002145b80612d5d575060075473ffffffffffffffffffffffffffffffffffffffff1633148015612d5d575061ffff81166004145b612e0f576040517f08c379a000000000000000000000000000000000000000000000000000000000815260206004820152605d60248201527f4f6e6c792074686520757365722063616e2073746f70206120564d207769746860448201527f20726561736f6e2030206f7220312c206f6e6c79207468652070726f7669646560648201527f722063616e2073746f70206120564d207769746820726561736f6e2032000000608482015260a40161091e565b612e1882613195565b5061112f8282613416565b60015460609060009063ffffffff1667ffffffffffffffff811115612e4a57612e4a613b03565b604051908082528060200260200182016040528015612ec857816020015b6040805160c08101825260008082526020808301829052928201819052606082018190526080820181905260a082015282527fffffffffffffffffffffffffffffffffffffffffffffffffffffffffffffffff909201910181612e685790505b5090506000805b60015463ffffffff908116908216101561303d5763ffffffff811660009081526020819052604090206001015473ffffffffffffffffffffffffffffffffffffffff80871691160361302b5763ffffffff80821660009081526020818152604091829020825160c0810184528154815260019091015473ffffffffffffffffffffffffffffffffffffffff811692820192909252740100000000000000000000000000000000000000008204841692810192909252780100000000000000000000000000000000000000000000000081048316606083015261ffff7c01000000000000000000000000000000000000000000000000000000008204811660808401527e010000000000000000000000000000000000000000000000000000000000009091041660a082015284519091859190851690811061301257613012613b32565b6020908102919091010152613028600183613a49565b91505b8061303581613a26565b915050612ecf565b508063ffffffff1667ffffffffffffffff81111561305d5761305d613b03565b6040519080825280602002602001820160405280156130db57816020015b6040805160c08101825260008082526020808301829052928201819052606082018190526080820181905260a082015282527fffffffffffffffffffffffffffffffffffffffffffffffffffffffffffffffff90920191018161307b5790505b50925060005b8163ffffffff168163ffffffff161015611c4857828163ffffffff168151811061310d5761310d613b32565b6020026020010151848263ffffffff168151811061312d5761312d613b32565b6020026020010181905250808061314390613a26565b9150506130e1565b73ffffffffffffffffffffffffffffffffffffffff81166000908152600560205260408120546131859062093a809063ffffffff166139e7565b67ffffffffffffffff1692915050565b63ffffffff808216600090815260026020526040812054909160019183916131d29170010000000000000000000000000000000090041642613aa5565b63ffffffff8086166000908152600260205260408120549293509161320591680100000000000000009091041683613b82565b63ffffffff861660009081526002602081815260408084209092015473ffffffffffffffffffffffffffffffffffffffff1683526004905290205490915081111561328a575063ffffffff841660009081526002602081815260408084209092015473ffffffffffffffffffffffffffffffffffffffff168352600490528120549092505b600754600090612710906132ba9074010000000000000000000000000000000000000000900461ffff1684613b82565b6132c49190613b99565b905060006132d28284613aa5565b63ffffffff808916600090815260026020908152604080832080544295909516700100000000000000000000000000000000027fffffffffffffffffffffffff00000000ffffffffffffffffffffffffffffffff9095169490941790935560075473ffffffffffffffffffffffffffffffffffffffff1682526004905290812080549293508492909190613367908490613a13565b909155505063ffffffff871660009081526002602090815260408083206001015473ffffffffffffffffffffffffffffffffffffffff1683526004909152812080548392906133b7908490613a13565b909155505063ffffffff871660009081526002602081815260408084209092015473ffffffffffffffffffffffffffffffffffffffff1683526004905281208054859290613406908490613aa5565b9091555094979650505050505050565b63ffffffff828116600090815260026020908152604080832054640100000000900490931682528190522060019081018054601e9061347c9084907e01000000000000000000000000000000000000000000000000000000000000900461ffff16613bd4565b825461ffff9182166101009390930a92830291909202199091161790555063ffffffff8083166000908152600260208181526040808420805493015473ffffffffffffffffffffffffffffffffffffffff168452600590915282208054680100000000000000009092048416939092916134f891859116613a88565b92506101000a81548163ffffffff021916908363ffffffff1602179055508061ffff167fcd55ab5d54faac19433439d474272114709046556ac0cb7c325f00ba2a16629383604051613556919063ffffffff91909116815260200190565b60405180910390a25063ffffffff16600090815260026020819052604090912080547fffffffffffffffffffffffff0000000000000000000000000000000000000000908116825560018201805482169055910180549091169055565b803563ffffffff811681146135c757600080fd5b919050565b6000602082840312156135de57600080fd5b6135e7826135b3565b9392505050565b73ffffffffffffffffffffffffffffffffffffffff8116811461361057600080fd5b50565b60006020828403121561362557600080fd5b81356135e7816135ee565b60006020828403121561364257600080fd5b5035919050565b803561ffff811681146135c757600080fd5b60008060006060848603121561367057600080fd5b613679846135b3565b925061368760208501613649565b9150613695604085016135b3565b90509250925092565b6000806000606084860312156136b357600080fd5b6136bc846135b3565b92506136ca60208501613649565b9150604084013590509250925092565b6020808252825182820181905260009190848201906040850190845b818110156137875761377483855163ffffffff8082511683528060208301511660208401528060408301511660408401528060608301511660608401528060808301511660808401525060a081015173ffffffffffffffffffffffffffffffffffffffff80821660a08501528060c08401511660c085015250505050565b9284019260e092909201916001016136f6565b50909695505050505050565b600080604083850312156137a657600080fd5b82356137b1816135ee565b9150602083013567ffffffffffffffff811681146137ce57600080fd5b809150509250929050565b6020808252825182820181905260009190848201906040850190845b81811015613787576138698385518051825273ffffffffffffffffffffffffffffffffffffffff6020820151166020830152604081015163ffffffff80821660408501528060608401511660608501525050608081015161ffff80821660808501528060a08401511660a085015250505050565b9284019260c092909201916001016137f5565b60006020828403121561388e57600080fd5b6135e782613649565b60e08101613910828463ffffffff8082511683528060208301511660208401528060408301511660408401528060608301511660608401528060808301511660808401525060a081015173ffffffffffffffffffffffffffffffffffffffff80821660a08501528060c08401511660c085015250505050565b92915050565b6000806040838503121561392957600080fd5b613932836135b3565b915061394060208401613649565b90509250929050565b60c0810161391082848051825273ffffffffffffffffffffffffffffffffffffffff6020820151166020830152604081015163ffffffff80821660408501528060608401511660608501525050608081015161ffff80821660808501528060a08401511660a085015250505050565b7f4e487b7100000000000000000000000000000000000000000000000000000000600052601160045260246000fd5b67ffffffffffffffff818116838216028082169190828114613a0b57613a0b6139b8565b505092915050565b80820180821115613910576139106139b8565b600063ffffffff808316818103613a3f57613a3f6139b8565b6001019392505050565b63ffffffff818116838216019080821115613a6657613a666139b8565b5092915050565b61ffff818116838216019080821115613a6657613a666139b8565b63ffffffff828116828216039080821115613a6657613a666139b8565b81810381811115613910576139106139b8565b600060208284031215613aca57600080fd5b815180151581146135e757600080fd5b6fffffffffffffffffffffffffffffffff818116838216019080821115613a6657613a666139b8565b7f4e487b7100000000000000000000000000000000000000000000000000000000600052604160045260246000fd5b7f4e487b7100000000000000000000000000000000000000000000000000000000600052603260045260246000fd5b67ffffffffffffffff818116838216019080821115613a6657613a666139b8565b8082028115828204841417613910576139106139b8565b600082613bcf577f4e487b7100000000000000000000000000000000000000000000000000000000600052601260045260246000fd5b500490565b61ffff828116828216039080821115613a6657613a666139b856fea264697066735822122064fc69f3528b2f5d5ab3877ebbdb310132396490e36c1a886c2e3cbe57434ef064736f6c63430008110033",
  "linkReferences": {},
  "deployedLinkReferences": {}
}