{
  "_format": "hh-sol-artifact-1",
  "contractName": "Broker",
  "sourceName": "contracts/Broker.sol",
  "abi": [
    {
      "anonymous": false,
      "inputs": [
        {
          "indexed": true,
          "internalType": "address",
          "name": "previousOwner",
          "type": "address"
        },
        {
          "indexed": true,
          "internalType": "address",
          "name": "newOwner",
          "type": "address"
        }
      ],
      "name": "OwnershipTransferred",
      "type": "event"
    },
    {
      "inputs": [
        {
          "internalType": "uint256",
          "name": "numTokens",
          "type": "uint256"
        }
      ],
      "name": "DepositCoin",
      "outputs": [
        {
          "internalType": "bool",
          "name": "",
          "type": "bool"
        }
      ],
      "stateMutability": "nonpayable",
      "type": "function"
    },
    {
      "inputs": [
        {
          "internalType": "address",
          "name": "user",
          "type": "address"
        }
      ],
      "name": "GetCoinBalance",
      "outputs": [
        {
          "internalType": "uint256",
          "name": "free",
          "type": "uint256"
        },
        {
          "internalType": "uint256",
          "name": "locked",
          "type": "uint256"
        }
      ],
      "stateMutability": "view",
      "type": "function"
    },
    {
      "inputs": [
        {
          "internalType": "address",
          "name": "_user",
          "type": "address"
        }
      ],
      "name": "GetProviderUrl",
      "outputs": [
        {
          "internalType": "bytes32",
          "name": "",
          "type": "bytes32"
        }
      ],
      "stateMutability": "view",
      "type": "function"
    },
    {
      "inputs": [],
      "name": "GetTime",
      "outputs": [
        {
          "internalType": "uint256",
          "name": "",
          "type": "uint256"
        }
      ],
      "stateMutability": "view",
      "type": "function"
    },
    {
      "inputs": [
        {
          "internalType": "address",
          "name": "_user",
          "type": "address"
        }
      ],
      "name": "IsProviderRegistered",
      "outputs": [
        {
          "internalType": "bool",
          "name": "",
          "type": "bool"
        }
      ],
      "stateMutability": "view",
      "type": "function"
    },
    {
      "inputs": [],
      "name": "PROVIDER_REGISTRATION_FEE",
      "outputs": [
        {
          "internalType": "uint64",
          "name": "",
          "type": "uint64"
        }
      ],
      "stateMutability": "view",
      "type": "function"
    },
    {
      "inputs": [],
      "name": "RegisterProvider",
      "outputs": [],
      "stateMutability": "nonpayable",
      "type": "function"
    },
    {
      "inputs": [
        {
          "internalType": "contract IERC20",
          "name": "newCoinAddress",
          "type": "address"
        }
      ],
      "name": "SetCoinAddress",
      "outputs": [],
      "stateMutability": "nonpayable",
      "type": "function"
    },
    {
      "inputs": [
        {
          "internalType": "uint16",
          "name": "fee",
          "type": "uint16"
        }
      ],
      "name": "SetCommunityFee",
      "outputs": [
        {
          "internalType": "bool",
          "name": "",
          "type": "bool"
        }
      ],
      "stateMutability": "nonpayable",
      "type": "function"
    },
    {
      "inputs": [
        {
          "internalType": "bytes32",
          "name": "url",
          "type": "bytes32"
        }
      ],
      "name": "SetProviderUrl",
      "outputs": [],
      "stateMutability": "nonpayable",
      "type": "function"
    },
    {
      "inputs": [
        {
          "internalType": "uint256",
          "name": "amt",
          "type": "uint256"
        }
      ],
      "name": "WithdrawCoin",
      "outputs": [
        {
          "internalType": "bool",
          "name": "",
          "type": "bool"
        }
      ],
      "stateMutability": "nonpayable",
      "type": "function"
    },
    {
      "inputs": [],
      "name": "coin",
      "outputs": [
        {
          "internalType": "contract IERC20",
          "name": "",
          "type": "address"
        }
      ],
      "stateMutability": "view",
      "type": "function"
    },
    {
      "inputs": [],
      "name": "communityFee",
      "outputs": [
        {
          "internalType": "uint16",
          "name": "",
          "type": "uint16"
        }
      ],
      "stateMutability": "view",
      "type": "function"
    },
    {
      "inputs": [],
      "name": "owner",
      "outputs": [
        {
          "internalType": "address",
          "name": "",
          "type": "address"
        }
      ],
      "stateMutability": "view",
      "type": "function"
    },
    {
      "inputs": [],
      "name": "renounceOwnership",
      "outputs": [],
      "stateMutability": "nonpayable",
      "type": "function"
    },
    {
      "inputs": [
        {
          "internalType": "address",
          "name": "newOwner",
          "type": "address"
        }
      ],
      "name": "transferOwnership",
      "outputs": [],
      "stateMutability": "nonpayable",
      "type": "function"
    }
  ],
  "bytecode": "0x608060405234801561001057600080fd5b5061001a3361001f565b61006f565b600080546001600160a01b038381166001600160a01b0319831681178455604051919092169283917f8be0079c531659141344cd1fd0a4f28419497f9722a3daafe3b4186f6b6457e09190a35050565b610dcf8061007e6000396000f3fe608060405234801561001057600080fd5b50600436106101005760003560e01c8063a675768c11610097578063bfc7853911610066578063bfc7853914610284578063c74c1614146102ac578063f2fde38b146102bf578063fd307970146102d257600080fd5b8063a675768c146101fe578063a6ce315714610211578063b43430ab1461024d578063bfc054e31461027157600080fd5b8063715018a6116100d3578063715018a61461018c5780637b828689146101945780638961be6b146101a75780638da5cb5b146101e057600080fd5b806311df99951461010557806318c5e5021461014f5780632ee7c8591461015f5780634f49115b14610182575b600080fd5b6003546101259073ffffffffffffffffffffffffffffffffffffffff1681565b60405173ffffffffffffffffffffffffffffffffffffffff90911681526020015b60405180910390f35b425b604051908152602001610146565b61017261016d366004610c69565b610308565b6040519015158152602001610146565b61018a61044c565b005b61018a6106a2565b6101726101a2366004610c69565b6106b6565b6003546101cd9074010000000000000000000000000000000000000000900461ffff1681565b60405161ffff9091168152602001610146565b60005473ffffffffffffffffffffffffffffffffffffffff16610125565b61018a61020c366004610ca4565b61087f565b61017261021f366004610ca4565b73ffffffffffffffffffffffffffffffffffffffff1660009081526004602052604090206001015460ff1690565b6102586305f5e10081565b60405167ffffffffffffffff9091168152602001610146565b61017261027f366004610cc8565b6108ce565b610297610292366004610ca4565b6109bc565b60408051928352602083019190915201610146565b61018a6102ba366004610c69565b610a08565b61018a6102cd366004610ca4565b610abc565b6101516102e0366004610ca4565b73ffffffffffffffffffffffffffffffffffffffff1660009081526004602052604090205490565b6003546040517f23b872dd0000000000000000000000000000000000000000000000000000000081523360048201523060248201526044810183905260009173ffffffffffffffffffffffffffffffffffffffff16906323b872dd906064016020604051808303816000875af1158015610386573d6000803e3d6000fd5b505050506040513d601f19601f820116820180604052508101906103aa9190610cec565b610415576040517f08c379a000000000000000000000000000000000000000000000000000000000815260206004820152601960248201527f4661696c656420746f207472616e7366657220746f6b656e730000000000000060448201526064015b60405180910390fd5b33600090815260016020526040902054610430908390610d3d565b3360009081526001602081905260409091209190915592915050565b3360009081526002602090815260408083205460019092528220546104779163ffffffff1690610d56565b90506305f5e1008110156104e7576040517f08c379a000000000000000000000000000000000000000000000000000000000815260206004820152601c60248201527f4e6f7420656e6f75676820636f696e20746f2072656769737465722000000000604482015260640161040c565b3360009081526004602052604090206001015460ff1615610564576040517f08c379a000000000000000000000000000000000000000000000000000000000815260206004820152601e60248201527f50726f766964657220697320616c726561647920726567697374657265640000604482015260640161040c565b33600090815260016020526040812080546305f5e1009290610587908490610d56565b909155506305f5e1009050600160006105b560005473ffffffffffffffffffffffffffffffffffffffff1690565b73ffffffffffffffffffffffffffffffffffffffff1673ffffffffffffffffffffffffffffffffffffffff16815260200190815260200160002060008282546105fe9190610d3d565b9091555050336000908152600460205260409020600190810180547fffffffffffffffffffffffffffffffffffffffffffffffffffffffffffffff001682178082556305f5e100929061066990849061010090046fffffffffffffffffffffffffffffffff16610d69565b92506101000a8154816fffffffffffffffffffffffffffffffff02191690836fffffffffffffffffffffffffffffffff16021790555050565b6106aa610b73565b6106b46000610bf4565b565b33600090815260026020908152604080832054600190925282205482916106e59163ffffffff90911690610d56565b905082811015610751576040517f08c379a000000000000000000000000000000000000000000000000000000000815260206004820152601e60248201527f4e6f7420656e6f7567682062616c616e636520746f2077697468647261770000604482015260640161040c565b3360009081526001602052604081208054859290610770908490610d56565b90915550506003546040517fa9059cbb0000000000000000000000000000000000000000000000000000000081523360048201526024810185905273ffffffffffffffffffffffffffffffffffffffff9091169063a9059cbb906044016020604051808303816000875af11580156107ec573d6000803e3d6000fd5b505050506040513d601f19601f820116820180604052508101906108109190610cec565b610876576040517f08c379a000000000000000000000000000000000000000000000000000000000815260206004820152601560248201527f4552433230207472616e73666572206661696c65640000000000000000000000604482015260640161040c565b50600192915050565b610887610b73565b600380547fffffffffffffffffffffffff00000000000000000000000000000000000000001673ffffffffffffffffffffffffffffffffffffffff92909216919091179055565b60006108d8610b73565b6109c48261ffff161061096d576040517f08c379a000000000000000000000000000000000000000000000000000000000815260206004820152603860248201527f636f6d6d756e697479206665652073686f756c6420626520696e2072616e676560448201527f206f662030202830252920746f20323530302028323525290000000000000000606482015260840161040c565b506003805461ffff831674010000000000000000000000000000000000000000027fffffffffffffffffffff0000ffffffffffffffffffffffffffffffffffffffff9091161790556000919050565b73ffffffffffffffffffffffffffffffffffffffff8116600090815260026020908152604080832054600190925282205463ffffffff90911690610a01908290610d56565b9150915091565b3360009081526004602052604090206001015460ff16610aaa576040517f08c379a000000000000000000000000000000000000000000000000000000000815260206004820152602660248201527f50726f7669646572206d757374206265207265676973746572656420746f207360448201527f65742075726c0000000000000000000000000000000000000000000000000000606482015260840161040c565b33600090815260046020526040902055565b610ac4610b73565b73ffffffffffffffffffffffffffffffffffffffff8116610b67576040517f08c379a000000000000000000000000000000000000000000000000000000000815260206004820152602660248201527f4f776e61626c653a206e6577206f776e657220697320746865207a65726f206160448201527f6464726573730000000000000000000000000000000000000000000000000000606482015260840161040c565b610b7081610bf4565b50565b60005473ffffffffffffffffffffffffffffffffffffffff1633146106b4576040517f08c379a000000000000000000000000000000000000000000000000000000000815260206004820181905260248201527f4f776e61626c653a2063616c6c6572206973206e6f7420746865206f776e6572604482015260640161040c565b6000805473ffffffffffffffffffffffffffffffffffffffff8381167fffffffffffffffffffffffff0000000000000000000000000000000000000000831681178455604051919092169283917f8be0079c531659141344cd1fd0a4f28419497f9722a3daafe3b4186f6b6457e09190a35050565b600060208284031215610c7b57600080fd5b5035919050565b73ffffffffffffffffffffffffffffffffffffffff81168114610b7057600080fd5b600060208284031215610cb657600080fd5b8135610cc181610c82565b9392505050565b600060208284031215610cda57600080fd5b813561ffff81168114610cc157600080fd5b600060208284031215610cfe57600080fd5b81518015158114610cc157600080fd5b7f4e487b7100000000000000000000000000000000000000000000000000000000600052601160045260246000fd5b80820180821115610d5057610d50610d0e565b92915050565b81810381811115610d5057610d50610d0e565b6fffffffffffffffffffffffffffffffff818116838216019080821115610d9257610d92610d0e565b509291505056fea2646970667358221220dcaec8d1a5a53e263aa746ef38dc9605da96c689c10745160f392a065073611f64736f6c63430008110033",
  "linkReferences": {},
  "deployedLinkReferences": {}
}