{
  "_format": "hh-sol-artifact-1",
  "contractName": "Broker",
  "sourceName": "contracts/Broker.sol",
  "abi": [
    {
      "anonymous": false,
      "inputs": [
        {
          "indexed": true,
          "internalType": "address",
          "name": "user",
          "type": "address"
        },
        {
          "indexed": true,
          "internalType": "address",
          "name": "provider",
          "type": "address"
        },
        {
          "indexed": false,
          "internalType": "uint32",
          "name": "bookingIndex",
          "type": "uint32"
        },
        {
          "indexed": false,
          "internalType": "uint32",
          "name": "pps",
          "type": "uint32"
        }
      ],
      "name": "NewBooking",
      "type": "event"
    },
    {
      "anonymous": false,
      "inputs": [
        {
          "indexed": false,
          "internalType": "uint32",
          "name": "bookingIndex",
          "type": "uint32"
        },
        {
          "indexed": true,
          "internalType": "uint16",
          "name": "reason",
          "type": "uint16"
        }
      ],
      "name": "Termination",
      "type": "event"
    },
    {
      "inputs": [
        {
          "internalType": "uint32",
          "name": "pricePerSecond",
          "type": "uint32"
        },
        {
          "internalType": "uint16",
          "name": "machinesTotal",
          "type": "uint16"
        },
        {
          "internalType": "bytes32",
          "name": "specsIpfsHash",
          "type": "bytes32"
        }
      ],
      "name": "AddOffer",
      "outputs": [
        {
          "internalType": "uint32",
          "name": "",
          "type": "uint32"
        }
      ],
      "stateMutability": "nonpayable",
      "type": "function"
    },
    {
      "inputs": [
        {
          "internalType": "address",
          "name": "user",
          "type": "address"
        },
        {
          "internalType": "uint64",
          "name": "amt",
          "type": "uint64"
        }
      ],
      "name": "AddTrial",
      "outputs": [],
      "stateMutability": "nonpayable",
      "type": "function"
    },
    {
      "inputs": [
        {
          "internalType": "uint32",
          "name": "offerIndex",
          "type": "uint32"
        }
      ],
      "name": "Book",
      "outputs": [
        {
          "internalType": "uint32",
          "name": "",
          "type": "uint32"
        }
      ],
      "stateMutability": "nonpayable",
      "type": "function"
    },
    {
      "inputs": [
        {
          "internalType": "uint32",
          "name": "bookingId",
          "type": "uint32"
        }
      ],
      "name": "ClaimPayment",
      "outputs": [],
      "stateMutability": "nonpayable",
      "type": "function"
    },
    {
      "inputs": [
        {
          "internalType": "uint256",
          "name": "numTokens",
          "type": "uint256"
        }
      ],
      "name": "DepositCoin",
      "outputs": [
        {
          "internalType": "bool",
          "name": "",
          "type": "bool"
        }
      ],
      "stateMutability": "nonpayable",
      "type": "function"
    },
    {
      "inputs": [
        {
          "internalType": "address",
          "name": "_provider",
          "type": "address"
        }
      ],
      "name": "FindBookingsByProvider",
      "outputs": [
        {
          "components": [
            {
              "internalType": "uint32",
              "name": "index",
              "type": "uint32"
            },
            {
              "internalType": "uint32",
              "name": "offerIndex",
              "type": "uint32"
            },
            {
              "internalType": "uint32",
              "name": "pricePerSecond",
              "type": "uint32"
            },
            {
              "internalType": "uint32",
              "name": "bookedAt",
              "type": "uint32"
            },
            {
              "internalType": "uint32",
              "name": "lastPayment",
              "type": "uint32"
            },
            {
              "internalType": "address",
              "name": "provider",
              "type": "address"
            },
            {
              "internalType": "address",
              "name": "user",
              "type": "address"
            }
          ],
          "internalType": "struct Broker.Booking[]",
          "name": "filteredBookings",
          "type": "tuple[]"
        }
      ],
      "stateMutability": "view",
      "type": "function"
    },
    {
      "inputs": [
        {
          "internalType": "address",
          "name": "_owner",
          "type": "address"
        }
      ],
      "name": "FindBookingsByUser",
      "outputs": [
        {
          "components": [
            {
              "internalType": "uint32",
              "name": "index",
              "type": "uint32"
            },
            {
              "internalType": "uint32",
              "name": "offerIndex",
              "type": "uint32"
            },
            {
              "internalType": "uint32",
              "name": "pricePerSecond",
              "type": "uint32"
            },
            {
              "internalType": "uint32",
              "name": "bookedAt",
              "type": "uint32"
            },
            {
              "internalType": "uint32",
              "name": "lastPayment",
              "type": "uint32"
            },
            {
              "internalType": "address",
              "name": "provider",
              "type": "address"
            },
            {
              "internalType": "address",
              "name": "user",
              "type": "address"
            }
          ],
          "internalType": "struct Broker.Booking[]",
          "name": "filteredBookings",
          "type": "tuple[]"
        }
      ],
      "stateMutability": "view",
      "type": "function"
    },
    {
      "inputs": [],
      "name": "GetAvailableOffers",
      "outputs": [
        {
          "components": [
            {
              "internalType": "bytes32",
              "name": "specsIpfsHash",
              "type": "bytes32"
            },
            {
              "internalType": "address",
              "name": "provider",
              "type": "address"
            },
            {
              "internalType": "uint32",
              "name": "index",
              "type": "uint32"
            },
            {
              "internalType": "uint32",
              "name": "pricePerSecond",
              "type": "uint32"
            },
            {
              "internalType": "uint16",
              "name": "machinesTotal",
              "type": "uint16"
            },
            {
              "internalType": "uint16",
              "name": "machinesBooked",
              "type": "uint16"
            }
          ],
          "internalType": "struct Broker.Offer[]",
          "name": "filteredOffers",
          "type": "tuple[]"
        }
      ],
      "stateMutability": "view",
      "type": "function"
    },
    {
      "inputs": [
        {
          "internalType": "uint32",
          "name": "index",
          "type": "uint32"
        }
      ],
      "name": "GetBooking",
      "outputs": [
        {
          "components": [
            {
              "internalType": "uint32",
              "name": "index",
              "type": "uint32"
            },
            {
              "internalType": "uint32",
              "name": "offerIndex",
              "type": "uint32"
            },
            {
              "internalType": "uint32",
              "name": "pricePerSecond",
              "type": "uint32"
            },
            {
              "internalType": "uint32",
              "name": "bookedAt",
              "type": "uint32"
            },
            {
              "internalType": "uint32",
              "name": "lastPayment",
              "type": "uint32"
            },
            {
              "internalType": "address",
              "name": "provider",
              "type": "address"
            },
            {
              "internalType": "address",
              "name": "user",
              "type": "address"
            }
          ],
          "internalType": "struct Broker.Booking",
          "name": "booking",
          "type": "tuple"
        }
      ],
      "stateMutability": "view",
      "type": "function"
    },
    {
      "inputs": [
        {
          "internalType": "address",
          "name": "user",
          "type": "address"
        }
      ],
      "name": "GetCoinBalance",
      "outputs": [
        {
          "internalType": "uint256",
          "name": "free",
          "type": "uint256"
        },
        {
          "internalType": "uint256",
          "name": "locked",
          "type": "uint256"
        }
      ],
      "stateMutability": "view",
      "type": "function"
    },
    {
      "inputs": [
        {
          "internalType": "uint32",
          "name": "index",
          "type": "uint32"
        }
      ],
      "name": "GetOffer",
      "outputs": [
        {
          "components": [
            {
              "internalType": "bytes32",
              "name": "specsIpfsHash",
              "type": "bytes32"
            },
            {
              "internalType": "address",
              "name": "provider",
              "type": "address"
            },
            {
              "internalType": "uint32",
              "name": "index",
              "type": "uint32"
            },
            {
              "internalType": "uint32",
              "name": "pricePerSecond",
              "type": "uint32"
            },
            {
              "internalType": "uint16",
              "name": "machinesTotal",
              "type": "uint16"
            },
            {
              "internalType": "uint16",
              "name": "machinesBooked",
              "type": "uint16"
            }
          ],
          "internalType": "struct Broker.Offer",
          "name": "oneOffer",
          "type": "tuple"
        }
      ],
      "stateMutability": "view",
      "type": "function"
    },
    {
      "inputs": [
        {
          "internalType": "address",
          "name": "_user",
          "type": "address"
        }
      ],
      "name": "GetProviderUrl",
      "outputs": [
        {
          "internalType": "bytes32",
          "name": "",
          "type": "bytes32"
        }
      ],
      "stateMutability": "view",
      "type": "function"
    },
    {
      "inputs": [
        {
          "internalType": "address",
          "name": "provider",
          "type": "address"
        }
      ],
      "name": "GetProvidersOffers",
      "outputs": [
        {
          "components": [
            {
              "internalType": "bytes32",
              "name": "specsIpfsHash",
              "type": "bytes32"
            },
            {
              "internalType": "address",
              "name": "provider",
              "type": "address"
            },
            {
              "internalType": "uint32",
              "name": "index",
              "type": "uint32"
            },
            {
              "internalType": "uint32",
              "name": "pricePerSecond",
              "type": "uint32"
            },
            {
              "internalType": "uint16",
              "name": "machinesTotal",
              "type": "uint16"
            },
            {
              "internalType": "uint16",
              "name": "machinesBooked",
              "type": "uint16"
            }
          ],
          "internalType": "struct Broker.Offer[]",
          "name": "filteredOffers",
          "type": "tuple[]"
        }
      ],
      "stateMutability": "view",
      "type": "function"
    },
    {
      "inputs": [],
      "name": "GetTime",
      "outputs": [
        {
          "internalType": "uint256",
          "name": "",
          "type": "uint256"
        }
      ],
      "stateMutability": "view",
      "type": "function"
    },
    {
      "inputs": [
        {
          "internalType": "address",
          "name": "user",
          "type": "address"
        }
      ],
      "name": "GetTrialAmount",
      "outputs": [
        {
          "internalType": "uint64",
          "name": "",
          "type": "uint64"
        }
      ],
      "stateMutability": "view",
      "type": "function"
    },
    {
      "inputs": [
        {
          "internalType": "address",
          "name": "_user",
          "type": "address"
        }
      ],
      "name": "IsProviderRegistered",
      "outputs": [
        {
          "internalType": "bool",
          "name": "",
          "type": "bool"
        }
      ],
      "stateMutability": "view",
      "type": "function"
    },
    {
      "inputs": [],
      "name": "PROVIDER_REGISTRATION_FEE",
      "outputs": [
        {
          "internalType": "uint64",
          "name": "",
          "type": "uint64"
        }
      ],
      "stateMutability": "view",
      "type": "function"
    },
    {
      "inputs": [],
      "name": "REASON_COMMUNITY_TERMINATED",
      "outputs": [
        {
          "internalType": "uint16",
          "name": "",
          "type": "uint16"
        }
      ],
      "stateMutability": "view",
      "type": "function"
    },
    {
      "inputs": [],
      "name": "REASON_NON_PAYMENT",
      "outputs": [
        {
          "internalType": "uint16",
          "name": "",
          "type": "uint16"
        }
      ],
      "stateMutability": "view",
      "type": "function"
    },
    {
      "inputs": [],
      "name": "REASON_PROVIDER_TERMINATED",
      "outputs": [
        {
          "internalType": "uint16",
          "name": "",
          "type": "uint16"
        }
      ],
      "stateMutability": "view",
      "type": "function"
    },
    {
      "inputs": [],
      "name": "RegisterProvider",
      "outputs": [],
      "stateMutability": "nonpayable",
      "type": "function"
    },
    {
      "inputs": [
        {
          "internalType": "uint32",
          "name": "offerIndex",
          "type": "uint32"
        }
      ],
      "name": "RemoveOffer",
      "outputs": [],
      "stateMutability": "nonpayable",
      "type": "function"
    },
    {
      "inputs": [
        {
          "internalType": "address",
          "name": "user",
          "type": "address"
        }
      ],
      "name": "RemoveTrial",
      "outputs": [],
      "stateMutability": "nonpayable",
      "type": "function"
    },
    {
      "inputs": [],
      "name": "SECONDS_IN_WEEK",
      "outputs": [
        {
          "internalType": "uint64",
          "name": "",
          "type": "uint64"
        }
      ],
      "stateMutability": "view",
      "type": "function"
    },
    {
      "inputs": [
        {
          "internalType": "contract IERC20",
          "name": "newCoinAddress",
          "type": "address"
        }
      ],
      "name": "SetCoinAddress",
      "outputs": [],
      "stateMutability": "nonpayable",
      "type": "function"
    },
    {
      "inputs": [
        {
          "internalType": "address",
          "name": "newCommunityAddress",
          "type": "address"
        }
      ],
      "name": "SetCommunityContract",
      "outputs": [],
      "stateMutability": "nonpayable",
      "type": "function"
    },
    {
      "inputs": [
        {
          "internalType": "uint16",
          "name": "fee",
          "type": "uint16"
        }
      ],
      "name": "SetCommunityFee",
      "outputs": [
        {
          "internalType": "bool",
          "name": "",
          "type": "bool"
        }
      ],
      "stateMutability": "nonpayable",
      "type": "function"
    },
    {
      "inputs": [
        {
          "internalType": "bytes32",
          "name": "url",
          "type": "bytes32"
        }
      ],
      "name": "SetProviderUrl",
      "outputs": [],
      "stateMutability": "nonpayable",
      "type": "function"
    },
    {
      "inputs": [
        {
          "internalType": "uint32",
          "name": "bookingId",
          "type": "uint32"
        },
        {
          "internalType": "uint16",
          "name": "reason",
          "type": "uint16"
        }
      ],
      "name": "Terminate",
      "outputs": [],
      "stateMutability": "nonpayable",
      "type": "function"
    },
    {
      "inputs": [
        {
          "internalType": "uint32",
          "name": "offerIndex",
          "type": "uint32"
        },
        {
          "internalType": "uint16",
          "name": "machinesTotal",
          "type": "uint16"
        },
        {
          "internalType": "uint32",
          "name": "pps",
          "type": "uint32"
        }
      ],
      "name": "UpdateOffer",
      "outputs": [],
      "stateMutability": "nonpayable",
      "type": "function"
    },
    {
      "inputs": [
        {
          "internalType": "uint256",
          "name": "amt",
          "type": "uint256"
        }
      ],
      "name": "WithdrawCoin",
      "outputs": [
        {
          "internalType": "bool",
          "name": "",
          "type": "bool"
        }
      ],
      "stateMutability": "nonpayable",
      "type": "function"
    },
    {
      "inputs": [],
      "name": "coin",
      "outputs": [
        {
          "internalType": "contract IERC20",
          "name": "",
          "type": "address"
        }
      ],
      "stateMutability": "view",
      "type": "function"
    },
    {
      "inputs": [],
      "name": "communityContract",
      "outputs": [
        {
          "internalType": "address",
          "name": "",
          "type": "address"
        }
      ],
      "stateMutability": "view",
      "type": "function"
    },
    {
      "inputs": [],
      "name": "communityFee",
      "outputs": [
        {
          "internalType": "uint16",
          "name": "",
          "type": "uint16"
        }
      ],
      "stateMutability": "view",
      "type": "function"
    },
    {
      "inputs": [
        {
          "internalType": "address",
          "name": "user",
          "type": "address"
        }
      ],
      "name": "getTrustedAddress",
      "outputs": [
        {
          "internalType": "address",
          "name": "",
          "type": "address"
        }
      ],
      "stateMutability": "view",
      "type": "function"
    },
    {
      "inputs": [
        {
          "internalType": "address",
          "name": "trusted",
          "type": "address"
        }
      ],
      "name": "setTrustedAddress",
      "outputs": [],
      "stateMutability": "nonpayable",
      "type": "function"
    }
  ],
  "bytecode": "0x608060405234801561001057600080fd5b50613c6a806100206000396000f3fe608060405234801561001057600080fd5b506004361061025c5760003560e01c80638e63402911610145578063c74c1614116100bd578063e088b29e1161008c578063f07dd1bd11610071578063f07dd1bd1461081c578063fd30797014610855578063fd6e7e2a1461088b57600080fd5b8063e088b29e146106df578063e2a5aa6e146106e957600080fd5b8063c74c161414610671578063c79a1f7114610684578063c9124a8c146106c4578063cde71922146106d757600080fd5b8063b65c4b9c11610114578063bfc054e3116100f9578063bfc054e31461052e578063bfc7853914610541578063c1fab57d1461056957600080fd5b8063b65c4b9c14610506578063bac323561461051b57600080fd5b80638e63402914610473578063a675768c14610493578063a6ce3157146104a6578063b43430ab146104e257600080fd5b80634f49115b116101d85780636dd590dc116101a757806388f9b0f21161018c57806388f9b0f2146103d85780638961be6b146103eb5780638cbfc3051461041157600080fd5b80636dd590dc146103bd5780637b828689146103c557600080fd5b80634f49115b1461036f578063534b3ccb1461037757806360d52b9d146103975780636b620ed5146103aa57600080fd5b80632bc209d61161022f57806331eda5871161021457806331eda5871461032e57806339291284146103415780633abdd2f21461035c57600080fd5b80632bc209d6146102f85780632ee7c8591461030b57600080fd5b8063081c43291461026157806311df99951461028e57806318c5e502146102d357806329aa1289146102e3575b600080fd5b61027461026f366004613611565b61089e565b60405163ffffffff90911681526020015b60405180910390f35b6006546102ae9073ffffffffffffffffffffffffffffffffffffffff1681565b60405173ffffffffffffffffffffffffffffffffffffffff9091168152602001610285565b425b604051908152602001610285565b6102f66102f1366004613658565b610e38565b005b6102f6610306366004613611565b61109a565b61031e610319366004613675565b611178565b6040519015158152602001610285565b6102f661033c3660046136a0565b6112b3565b610349600481565b60405161ffff9091168152602001610285565b61027461036a3660046136e3565b6114ef565b6102f661176f565b61038a610385366004613658565b611988565b604051610285919061371f565b6102f66103a53660046137d8565b611c95565b6102f66103b8366004613658565b611e03565b610349600281565b61031e6103d3366004613675565b611f12565b61038a6103e6366004613658565b612179565b6007546103499074010000000000000000000000000000000000000000900461ffff1681565b6102f661041f366004613658565b336000908152600b6020526040902080547fffffffffffffffffffffffff00000000000000000000000000000000000000001673ffffffffffffffffffffffffffffffffffffffff92909216919091179055565b6007546102ae9073ffffffffffffffffffffffffffffffffffffffff1681565b6102f66104a1366004613658565b61247d565b61031e6104b4366004613658565b73ffffffffffffffffffffffffffffffffffffffff1660009081526008602052604090206001015460ff1690565b6104ed6305f5e10081565b60405167ffffffffffffffff9091168152602001610285565b61050e61256a565b604051610285919061381e565b6102f6610529366004613611565b6128c8565b61031e61053c3660046138c1565b612a6e565b61055461054f366004613658565b612bfd565b60408051928352602083019190915201610285565b610664610577366004613611565b6040805160e081018252600080825260208201819052918101829052606081018290526080810182905260a0810182905260c08101919091525063ffffffff908116600090815260026020818152604092839020835160e0810185528154808716825264010000000081048716938201939093526801000000000000000083048616948101949094526c010000000000000000000000008204851660608501527001000000000000000000000000000000009091049093166080830152600183015473ffffffffffffffffffffffffffffffffffffffff90811660a084015292015490911660c082015290565b60405161028591906138dc565b6102f661067f366004613675565b612c44565b6104ed610692366004613658565b73ffffffffffffffffffffffffffffffffffffffff1660009081526009602052604090205467ffffffffffffffff1690565b6102f66106d236600461395b565b612cf8565b610349600381565b6104ed62093a8081565b61080f6106f7366004613611565b6040805160c081018252600080825260208201819052918101829052606081018290526080810182905260a08101919091525063ffffffff90811660009081526020818152604091829020825160c0810184528154815260019091015473ffffffffffffffffffffffffffffffffffffffff81169282019290925274010000000000000000000000000000000000000000820484169281019290925278010000000000000000000000000000000000000000000000008104909216606082015261ffff7c01000000000000000000000000000000000000000000000000000000008304811660808301527e0100000000000000000000000000000000000000000000000000000000000090920490911660a082015290565b604051610285919061398e565b6102ae61082a366004613658565b73ffffffffffffffffffffffffffffffffffffffff9081166000908152600b60205260409020541690565b6102d5610863366004613658565b73ffffffffffffffffffffffffffffffffffffffff1660009081526008602052604090205490565b61050e610899366004613658565b612e68565b63ffffffff811660009081526020819052604081206001015461ffff7e01000000000000000000000000000000000000000000000000000000000000820481167c0100000000000000000000000000000000000000000000000000000000909204161161096c576040517f08c379a000000000000000000000000000000000000000000000000000000000815260206004820152601560248201527f4e6f206d616368696e657320617661696c61626c65000000000000000000000060448201526064015b60405180910390fd5b63ffffffff80831660009081526020819052604081206001015490916109b49162093a8091780100000000000000000000000000000000000000000000000090910416613a2c565b67ffffffffffffffff166109c733613190565b6109d19190613a58565b33600090815260046020526040902054909150811115610a99576040517f08c379a000000000000000000000000000000000000000000000000000000000815260206004820152605060248201527f596f7520646f6e2774206861766520656e6f7567682062616c616e636520746f60448201527f2070617920666f72207468697320616e6420616c6c206f7468657220426f6f6b60648201527f696e677320666f72203720646179732000000000000000000000000000000000608482015260a401610963565b6040805160e0810182526003805463ffffffff90811680845287821660208086018281526000928352828252878320600190810154780100000000000000000000000000000000000000000000000081048716898b0190815242881660608b0181815260808c0191825273ffffffffffffffffffffffffffffffffffffffff93841660a08d019081523360c08e019081529989526002978890529c88208c51815497519451925193518c16700100000000000000000000000000000000027fffffffffffffffffffffffff00000000ffffffffffffffffffffffffffffffff948d166c01000000000000000000000000027fffffffffffffffffffffffffffffffff00000000ffffffffffffffffffffffff948e166801000000000000000002949094167fffffffffffffffffffffffffffffffff0000000000000000ffffffffffffffff968e16640100000000027fffffffffffffffffffffffffffffffffffffffffffffffff0000000000000000909a16928e1692909217989098179490941693909317171693909317835598519082018054918a167fffffffffffffffffffffffff00000000000000000000000000000000000000009283161790559351910180549190971692169190911790945581549293921691610c7b83613a6b565b82546101009290920a63ffffffff8181021990931691831602179091558581166000908152602081815260408083206001015433845260059092528220805478010000000000000000000000000000000000000000000000009092048416945092610ce891859116613a8e565b92506101000a81548163ffffffff021916908363ffffffff16021790555060016000808663ffffffff1663ffffffff168152602001908152602001600020600101601e8282829054906101000a900461ffff16610d459190613ab2565b825461ffff9182166101009390930a92830291909202199091161790555063ffffffff808516600090815260208190526040902060019081015460035473ffffffffffffffffffffffffffffffffffffffff9091169233927f51ff4075c1dfbe6bb96f0f69af5e347ff0654d85f683913424e28a6d153738fc92610dc99216613acd565b63ffffffff88811660009081526020818152604091829020600101548251948416855278010000000000000000000000000000000000000000000000009004909216918301919091520160405180910390a3600354610e309060019063ffffffff16613acd565b949350505050565b60075473ffffffffffffffffffffffffffffffffffffffff16331480610e7357503373ffffffffffffffffffffffffffffffffffffffff8216145b610eff576040517f08c379a000000000000000000000000000000000000000000000000000000000815260206004820152603b60248201527f6f6e6c7920636f6d6d756e69747920636f6e7472616374206f7220757365722060448201527f7468656d73656c7665732063616e2072656d6f766520747269616c00000000006064820152608401610963565b6000610f0a82613190565b73ffffffffffffffffffffffffffffffffffffffff8316600090815260046020526040902054610f3a9190613aea565b73ffffffffffffffffffffffffffffffffffffffff831660009081526009602052604090205490915067ffffffffffffffff16811015610ffc576040517f08c379a000000000000000000000000000000000000000000000000000000000815260206004820152602960248201527f7573657220686173206e6f7420656e6f75676820636f696e7320746f2063616e60448201527f63656c20747269616c00000000000000000000000000000000000000000000006064820152608401610963565b73ffffffffffffffffffffffffffffffffffffffff821660009081526009602090815260408083205460049092528220805467ffffffffffffffff909216929091611048908490613aea565b90915550505073ffffffffffffffffffffffffffffffffffffffff16600090815260096020526040902080547fffffffffffffffffffffffffffffffffffffffffffffffff0000000000000000169055565b63ffffffff811660009081526002602052604090206001015473ffffffffffffffffffffffffffffffffffffffff163314611157576040517f08c379a000000000000000000000000000000000000000000000000000000000815260206004820152602560248201527f4f6e6c79207468652070726f76696465722063616e20636c61696d206120706160448201527f796d656e740000000000000000000000000000000000000000000000000000006064820152608401610963565b6000611162826131da565b9050806111745761117482600361345b565b5050565b6006546040517f23b872dd0000000000000000000000000000000000000000000000000000000081523360048201523060248201526044810183905260009173ffffffffffffffffffffffffffffffffffffffff16906323b872dd906064016020604051808303816000875af11580156111f6573d6000803e3d6000fd5b505050506040513d601f19601f8201168201806040525081019061121a9190613afd565b611280576040517f08c379a000000000000000000000000000000000000000000000000000000000815260206004820152601960248201527f4661696c656420746f207472616e7366657220746f6b656e73000000000000006044820152606401610963565b3360009081526004602052604090205461129b908390613a58565b33600090815260046020526040902055506001919050565b63ffffffff831660009081526020819052604090206001015473ffffffffffffffffffffffffffffffffffffffff163314611370576040517f08c379a000000000000000000000000000000000000000000000000000000000815260206004820152602260248201527f4f6e6c7920746865206f776e65722063616e2075706461746520616e206f666660448201527f65720000000000000000000000000000000000000000000000000000000000006064820152608401610963565b63ffffffff831660009081526020819052604090206001015461ffff8084167e01000000000000000000000000000000000000000000000000000000000000909204161115611441576040517f08c379a000000000000000000000000000000000000000000000000000000000815260206004820152603060248201527f43616e6e6f7420726564756365206d616368696e6573546f74616c2062656c6f60448201527f77206d616368696e6573426f6f6b6564000000000000000000000000000000006064820152608401610963565b63ffffffff92831660009081526020819052604090206001018054919093167801000000000000000000000000000000000000000000000000027fffffffff00000000ffffffffffffffffffffffffffffffffffffffffffffffff61ffff9093167c010000000000000000000000000000000000000000000000000000000002929092167fffff000000000000ffffffffffffffffffffffffffffffffffffffffffffffff90911617179055565b3360009081526008602052604081206001015460ff16611591576040517f08c379a000000000000000000000000000000000000000000000000000000000815260206004820152602960248201527f50726f7669646572206d757374206265207265676973746572656420746f206160448201527f6464206f666665727300000000000000000000000000000000000000000000006064820152608401610963565b6040805160c0810182528381523360208083019182526001805463ffffffff9081168587018181528b83166060880190815261ffff8c811660808a01908152600060a08b01818152958152978890529987209851895596519785018054925191519951935173ffffffffffffffffffffffffffffffffffffffff9099167fffffffffffffffff000000000000000000000000000000000000000000000000909316929092177401000000000000000000000000000000000000000091851691909102177fffff000000000000ffffffffffffffffffffffffffffffffffffffffffffffff167801000000000000000000000000000000000000000000000000988416989098027fffff0000ffffffffffffffffffffffffffffffffffffffffffffffffffffffff16979097177c010000000000000000000000000000000000000000000000000000000091861691909102177dffffffffffffffffffffffffffffffffffffffffffffffffffffffffffff167e0100000000000000000000000000000000000000000000000000000000000095909416949094029290921790935580549091169161174183613a6b565b82546101009290920a63ffffffff81810219909316918316021790915560018054610e309350909116613acd565b600061177a33613190565b336000908152600460205260409020546117949190613aea565b90506305f5e100811015611804576040517f08c379a000000000000000000000000000000000000000000000000000000000815260206004820152601c60248201527f4e6f7420656e6f75676820636f696e20746f20726567697374657220000000006044820152606401610963565b3360009081526008602052604090206001015460ff1615611881576040517f08c379a000000000000000000000000000000000000000000000000000000000815260206004820152601e60248201527f50726f766964657220697320616c7265616479207265676973746572656400006044820152606401610963565b33600090815260046020526040812080546305f5e10092906118a4908490613aea565b909155505060075473ffffffffffffffffffffffffffffffffffffffff16600090815260046020526040812080546305f5e10092906118e4908490613a58565b9091555050336000908152600860205260409020600190810180547fffffffffffffffffffffffffffffffffffffffffffffffffffffffffffffff001682178082556305f5e100929061194f90849061010090046fffffffffffffffffffffffffffffffff16613b1f565b92506101000a8154816fffffffffffffffffffffffffffffffff02191690836fffffffffffffffffffffffffffffffff16021790555050565b60035460609060009063ffffffff1667ffffffffffffffff8111156119af576119af613b48565b604051908082528060200260200182016040528015611a3457816020015b6040805160e08101825260008082526020808301829052928201819052606082018190526080820181905260a0820181905260c082015282527fffffffffffffffffffffffffffffffffffffffffffffffffffffffffffffffff9092019101816119cd5790505b5090506000805b60035463ffffffff9081169082161015611b785763ffffffff81166000908152600260208190526040909120015473ffffffffffffffffffffffffffffffffffffffff808716911603611b665763ffffffff808216600090815260026020818152604092839020835160e0810185528154808716825264010000000081048716938201939093526801000000000000000083048616948101949094526c0100000000000000000000000082048516606085015270010000000000000000000000000000000090910484166080840152600181015473ffffffffffffffffffffffffffffffffffffffff90811660a08501529101541660c0820152845190918591908516908110611b4d57611b4d613b77565b6020908102919091010152611b63600183613a8e565b91505b80611b7081613a6b565b915050611a3b565b508063ffffffff1667ffffffffffffffff811115611b9857611b98613b48565b604051908082528060200260200182016040528015611c1d57816020015b6040805160e08101825260008082526020808301829052928201819052606082018190526080820181905260a0820181905260c082015282527fffffffffffffffffffffffffffffffffffffffffffffffffffffffffffffffff909201910181611bb65790505b50925060005b8163ffffffff168163ffffffff161015611c8d57828163ffffffff1681518110611c4f57611c4f613b77565b6020026020010151848263ffffffff1681518110611c6f57611c6f613b77565b60200260200101819052508080611c8590613a6b565b915050611c23565b505050919050565b60075473ffffffffffffffffffffffffffffffffffffffff163314611d3c576040517f08c379a000000000000000000000000000000000000000000000000000000000815260206004820152602560248201527f6f6e6c7920636f6d6d756e69747920636f6e74726163742063616e206164642060448201527f747269616c0000000000000000000000000000000000000000000000000000006064820152608401610963565b73ffffffffffffffffffffffffffffffffffffffff821660009081526009602052604081208054839290611d7b90849067ffffffffffffffff16613ba6565b92506101000a81548167ffffffffffffffff021916908367ffffffffffffffff1602179055508067ffffffffffffffff16600460008473ffffffffffffffffffffffffffffffffffffffff1673ffffffffffffffffffffffffffffffffffffffff1681526020019081526020016000206000828254611dfa9190613a58565b90915550505050565b60075473ffffffffffffffffffffffffffffffffffffffff16331480611e3f575060075473ffffffffffffffffffffffffffffffffffffffff16155b611ecb576040517f08c379a000000000000000000000000000000000000000000000000000000000815260206004820152603660248201527f6f6e6c7920636f6d6d756e69747920636f6e74726163742063616e207365742060448201527f6e657720636f6d6d756e69747920636f6e7472616374000000000000000000006064820152608401610963565b600780547fffffffffffffffffffffffff00000000000000000000000000000000000000001673ffffffffffffffffffffffffffffffffffffffff92909216919091179055565b600080611f1e33613190565b33600090815260046020526040902054611f389190613aea565b905082811015611fa4576040517f08c379a000000000000000000000000000000000000000000000000000000000815260206004820152601e60248201527f4e6f7420656e6f7567682062616c616e636520746f20776974686472617700006044820152606401610963565b3360009081526009602052604090205467ffffffffffffffff161561204b576040517f08c379a000000000000000000000000000000000000000000000000000000000815260206004820152602160248201527f43616e6e6f7420776974686472617720647572696e672066726565207472696160448201527f6c000000000000000000000000000000000000000000000000000000000000006064820152608401610963565b6006546040517fa9059cbb0000000000000000000000000000000000000000000000000000000081523360048201526024810185905273ffffffffffffffffffffffffffffffffffffffff9091169063a9059cbb906044016020604051808303816000875af11580156120c2573d6000803e3d6000fd5b505050506040513d601f19601f820116820180604052508101906120e69190613afd565b61214c576040517f08c379a000000000000000000000000000000000000000000000000000000000815260206004820152601560248201527f4552433230207472616e73666572206661696c656400000000000000000000006044820152606401610963565b336000908152600460205260408120805485929061216b908490613aea565b909155506001949350505050565b60035460609060009063ffffffff1667ffffffffffffffff8111156121a0576121a0613b48565b60405190808252806020026020018201604052801561222557816020015b6040805160e08101825260008082526020808301829052928201819052606082018190526080820181905260a0820181905260c082015282527fffffffffffffffffffffffffffffffffffffffffffffffffffffffffffffffff9092019101816121be5790505b5090506000805b60035463ffffffff90811690821610156123685763ffffffff811660009081526002602052604090206001015473ffffffffffffffffffffffffffffffffffffffff8087169116036123565763ffffffff808216600090815260026020818152604092839020835160e0810185528154808716825264010000000081048716938201939093526801000000000000000083048616948101949094526c0100000000000000000000000082048516606085015270010000000000000000000000000000000090910484166080840152600181015473ffffffffffffffffffffffffffffffffffffffff90811660a08501529101541660c082015284519091859190851690811061233d5761233d613b77565b6020908102919091010152612353600183613a8e565b91505b8061236081613a6b565b91505061222c565b508063ffffffff1667ffffffffffffffff81111561238857612388613b48565b60405190808252806020026020018201604052801561240d57816020015b6040805160e08101825260008082526020808301829052928201819052606082018190526080820181905260a0820181905260c082015282527fffffffffffffffffffffffffffffffffffffffffffffffffffffffffffffffff9092019101816123a65790505b50925060005b8163ffffffff168163ffffffff161015611c8d57828163ffffffff168151811061243f5761243f613b77565b6020026020010151848263ffffffff168151811061245f5761245f613b77565b6020026020010181905250808061247590613a6b565b915050612413565b60075473ffffffffffffffffffffffffffffffffffffffff163314612523576040517f08c379a0000000000000000000000000000000000000000000000000000000008152602060048201526024808201527f6f6e6c7920636f6d6d756e69747920636f6e74726163742063616e207365742060448201527f636f696e000000000000000000000000000000000000000000000000000000006064820152608401610963565b600680547fffffffffffffffffffffffff00000000000000000000000000000000000000001673ffffffffffffffffffffffffffffffffffffffff92909216919091179055565b60015460609060009063ffffffff1667ffffffffffffffff81111561259157612591613b48565b60405190808252806020026020018201604052801561260f57816020015b6040805160c08101825260008082526020808301829052928201819052606082018190526080820181905260a082015282527fffffffffffffffffffffffffffffffffffffffffffffffffffffffffffffffff9092019101816125af5790505b5090506000805b60015463ffffffff90811690821610156127b45763ffffffff811660009081526020819052604090206001015461ffff7e01000000000000000000000000000000000000000000000000000000000000820481167c01000000000000000000000000000000000000000000000000000000009092041611156127a25763ffffffff80821660009081526020818152604091829020825160c0810184528154815260019091015473ffffffffffffffffffffffffffffffffffffffff811692820192909252740100000000000000000000000000000000000000008204841692810192909252780100000000000000000000000000000000000000000000000081048316606083015261ffff7c01000000000000000000000000000000000000000000000000000000008204811660808401527e010000000000000000000000000000000000000000000000000000000000009091041660a082015284519091859190851690811061278957612789613b77565b602090810291909101015261279f600183613a8e565b91505b806127ac81613a6b565b915050612616565b508063ffffffff1667ffffffffffffffff8111156127d4576127d4613b48565b60405190808252806020026020018201604052801561285257816020015b6040805160c08101825260008082526020808301829052928201819052606082018190526080820181905260a082015282527fffffffffffffffffffffffffffffffffffffffffffffffffffffffffffffffff9092019101816127f25790505b50925060005b8163ffffffff168163ffffffff1610156128c257828163ffffffff168151811061288457612884613b77565b6020026020010151848263ffffffff16815181106128a4576128a4613b77565b602002602001018190525080806128ba90613a6b565b915050612858565b50505090565b63ffffffff811660009081526020819052604090206001015473ffffffffffffffffffffffffffffffffffffffff163314612985576040517f08c379a000000000000000000000000000000000000000000000000000000000815260206004820152602260248201527f4f6e6c7920746865206f776e65722063616e2072656d6f766520616e206f666660448201527f65720000000000000000000000000000000000000000000000000000000000006064820152608401610963565b63ffffffff81166000908152602081905260409020600101547e01000000000000000000000000000000000000000000000000000000000000900461ffff1615612a51576040517f08c379a000000000000000000000000000000000000000000000000000000000815260206004820152602b60248201527f43616e6e6f742072656d6f766520616e206f66666572207769746820626f6f6b60448201527f6564206d616368696e65730000000000000000000000000000000000000000006064820152608401610963565b63ffffffff16600090815260208190526040812081815560010155565b60006109c48261ffff1610612b05576040517f08c379a000000000000000000000000000000000000000000000000000000000815260206004820152603860248201527f636f6d6d756e697479206665652073686f756c6420626520696e2072616e676560448201527f206f662030202830252920746f203235303020283235252900000000000000006064820152608401610963565b60075473ffffffffffffffffffffffffffffffffffffffff163314612bac576040517f08c379a000000000000000000000000000000000000000000000000000000000815260206004820152602d60248201527f6f6e6c7920636f6d6d756e69747920636f6e74726163742063616e207365742060448201527f636f6d6d756e69747920666565000000000000000000000000000000000000006064820152608401610963565b506007805461ffff90921674010000000000000000000000000000000000000000027fffffffffffffffffffff0000ffffffffffffffffffffffffffffffffffffffff909216919091179055600090565b600080612c0983613190565b73ffffffffffffffffffffffffffffffffffffffff8416600090815260046020526040902054909150612c3d908290613aea565b9150915091565b3360009081526008602052604090206001015460ff16612ce6576040517f08c379a000000000000000000000000000000000000000000000000000000000815260206004820152602660248201527f50726f7669646572206d757374206265207265676973746572656420746f207360448201527f65742075726c00000000000000000000000000000000000000000000000000006064820152608401610963565b33600090815260086020526040902055565b63ffffffff82166000908152600260208190526040909120015473ffffffffffffffffffffffffffffffffffffffff16331480612d71575063ffffffff821660009081526002602052604090206001015473ffffffffffffffffffffffffffffffffffffffff1633148015612d71575061ffff81166002145b80612da2575060075473ffffffffffffffffffffffffffffffffffffffff1633148015612da2575061ffff81166004145b612e54576040517f08c379a000000000000000000000000000000000000000000000000000000000815260206004820152605d60248201527f4f6e6c792074686520757365722063616e2073746f70206120564d207769746860448201527f20726561736f6e2030206f7220312c206f6e6c79207468652070726f7669646560648201527f722063616e2073746f70206120564d207769746820726561736f6e2032000000608482015260a401610963565b612e5d826131da565b50611174828261345b565b60015460609060009063ffffffff1667ffffffffffffffff811115612e8f57612e8f613b48565b604051908082528060200260200182016040528015612f0d57816020015b6040805160c08101825260008082526020808301829052928201819052606082018190526080820181905260a082015282527fffffffffffffffffffffffffffffffffffffffffffffffffffffffffffffffff909201910181612ead5790505b5090506000805b60015463ffffffff90811690821610156130825763ffffffff811660009081526020819052604090206001015473ffffffffffffffffffffffffffffffffffffffff8087169116036130705763ffffffff80821660009081526020818152604091829020825160c0810184528154815260019091015473ffffffffffffffffffffffffffffffffffffffff811692820192909252740100000000000000000000000000000000000000008204841692810192909252780100000000000000000000000000000000000000000000000081048316606083015261ffff7c01000000000000000000000000000000000000000000000000000000008204811660808401527e010000000000000000000000000000000000000000000000000000000000009091041660a082015284519091859190851690811061305757613057613b77565b602090810291909101015261306d600183613a8e565b91505b8061307a81613a6b565b915050612f14565b508063ffffffff1667ffffffffffffffff8111156130a2576130a2613b48565b60405190808252806020026020018201604052801561312057816020015b6040805160c08101825260008082526020808301829052928201819052606082018190526080820181905260a082015282527fffffffffffffffffffffffffffffffffffffffffffffffffffffffffffffffff9092019101816130c05790505b50925060005b8163ffffffff168163ffffffff161015611c8d57828163ffffffff168151811061315257613152613b77565b6020026020010151848263ffffffff168151811061317257613172613b77565b6020026020010181905250808061318890613a6b565b915050613126565b73ffffffffffffffffffffffffffffffffffffffff81166000908152600560205260408120546131ca9062093a809063ffffffff16613a2c565b67ffffffffffffffff1692915050565b63ffffffff808216600090815260026020526040812054909160019183916132179170010000000000000000000000000000000090041642613aea565b63ffffffff8086166000908152600260205260408120549293509161324a91680100000000000000009091041683613bc7565b63ffffffff861660009081526002602081815260408084209092015473ffffffffffffffffffffffffffffffffffffffff168352600490529020549091508111156132cf575063ffffffff841660009081526002602081815260408084209092015473ffffffffffffffffffffffffffffffffffffffff168352600490528120549092505b600754600090612710906132ff9074010000000000000000000000000000000000000000900461ffff1684613bc7565b6133099190613bde565b905060006133178284613aea565b63ffffffff808916600090815260026020908152604080832080544295909516700100000000000000000000000000000000027fffffffffffffffffffffffff00000000ffffffffffffffffffffffffffffffff9095169490941790935560075473ffffffffffffffffffffffffffffffffffffffff16825260049052908120805492935084929091906133ac908490613a58565b909155505063ffffffff871660009081526002602090815260408083206001015473ffffffffffffffffffffffffffffffffffffffff1683526004909152812080548392906133fc908490613a58565b909155505063ffffffff871660009081526002602081815260408084209092015473ffffffffffffffffffffffffffffffffffffffff168352600490528120805485929061344b908490613aea565b9091555094979650505050505050565b63ffffffff828116600090815260026020908152604080832054640100000000900490931682528190522060019081018054601e906134c19084907e01000000000000000000000000000000000000000000000000000000000000900461ffff16613c19565b825461ffff9182166101009390930a92830291909202199091161790555063ffffffff8083166000908152600260208181526040808420805493015473ffffffffffffffffffffffffffffffffffffffff1684526005909152822080546801000000000000000090920484169390929161353d91859116613acd565b92506101000a81548163ffffffff021916908363ffffffff1602179055508061ffff167fcd55ab5d54faac19433439d474272114709046556ac0cb7c325f00ba2a1662938360405161359b919063ffffffff91909116815260200190565b60405180910390a25063ffffffff16600090815260026020819052604090912080547fffffffffffffffffffffffff0000000000000000000000000000000000000000908116825560018201805482169055910180549091169055565b803563ffffffff8116811461360c57600080fd5b919050565b60006020828403121561362357600080fd5b61362c826135f8565b9392505050565b73ffffffffffffffffffffffffffffffffffffffff8116811461365557600080fd5b50565b60006020828403121561366a57600080fd5b813561362c81613633565b60006020828403121561368757600080fd5b5035919050565b803561ffff8116811461360c57600080fd5b6000806000606084860312156136b557600080fd5b6136be846135f8565b92506136cc6020850161368e565b91506136da604085016135f8565b90509250925092565b6000806000606084860312156136f857600080fd5b613701846135f8565b925061370f6020850161368e565b9150604084013590509250925092565b6020808252825182820181905260009190848201906040850190845b818110156137cc576137b983855163ffffffff8082511683528060208301511660208401528060408301511660408401528060608301511660608401528060808301511660808401525060a081015173ffffffffffffffffffffffffffffffffffffffff80821660a08501528060c08401511660c085015250505050565b9284019260e0929092019160010161373b565b50909695505050505050565b600080604083850312156137eb57600080fd5b82356137f681613633565b9150602083013567ffffffffffffffff8116811461381357600080fd5b809150509250929050565b6020808252825182820181905260009190848201906040850190845b818110156137cc576138ae8385518051825273ffffffffffffffffffffffffffffffffffffffff6020820151166020830152604081015163ffffffff80821660408501528060608401511660608501525050608081015161ffff80821660808501528060a08401511660a085015250505050565b9284019260c0929092019160010161383a565b6000602082840312156138d357600080fd5b61362c8261368e565b60e08101613955828463ffffffff8082511683528060208301511660208401528060408301511660408401528060608301511660608401528060808301511660808401525060a081015173ffffffffffffffffffffffffffffffffffffffff80821660a08501528060c08401511660c085015250505050565b92915050565b6000806040838503121561396e57600080fd5b613977836135f8565b91506139856020840161368e565b90509250929050565b60c0810161395582848051825273ffffffffffffffffffffffffffffffffffffffff6020820151166020830152604081015163ffffffff80821660408501528060608401511660608501525050608081015161ffff80821660808501528060a08401511660a085015250505050565b7f4e487b7100000000000000000000000000000000000000000000000000000000600052601160045260246000fd5b67ffffffffffffffff818116838216028082169190828114613a5057613a506139fd565b505092915050565b80820180821115613955576139556139fd565b600063ffffffff808316818103613a8457613a846139fd565b6001019392505050565b63ffffffff818116838216019080821115613aab57613aab6139fd565b5092915050565b61ffff818116838216019080821115613aab57613aab6139fd565b63ffffffff828116828216039080821115613aab57613aab6139fd565b81810381811115613955576139556139fd565b600060208284031215613b0f57600080fd5b8151801515811461362c57600080fd5b6fffffffffffffffffffffffffffffffff818116838216019080821115613aab57613aab6139fd565b7f4e487b7100000000000000000000000000000000000000000000000000000000600052604160045260246000fd5b7f4e487b7100000000000000000000000000000000000000000000000000000000600052603260045260246000fd5b67ffffffffffffffff818116838216019080821115613aab57613aab6139fd565b8082028115828204841417613955576139556139fd565b600082613c14577f4e487b7100000000000000000000000000000000000000000000000000000000600052601260045260246000fd5b500490565b61ffff828116828216039080821115613aab57613aab6139fd56fea2646970667358221220370626a83d96060c005358636f028b9fd9f15adb1d0e445b59ce2933536a67f864736f6c63430008110033",
  "linkReferences": {},
  "deployedLinkReferences": {}
}